{
  "_format": "hh-sol-artifact-1",
  "contractName": "Condicoes",
  "sourceName": "contracts/functions/condicoes.sol",
  "abi": [
    {
      "inputs": [
        {
          "internalType": "uint256",
          "name": "_donosAmount",
          "type": "uint256"
        },
        {
          "internalType": "string[][]",
          "name": "_condicoes",
          "type": "string[][]"
        }
      ],
      "stateMutability": "nonpayable",
      "type": "constructor"
    },
    {
      "inputs": [
        {
          "internalType": "uint256",
          "name": "",
          "type": "uint256"
        },
        {
          "internalType": "uint256",
          "name": "",
          "type": "uint256"
        }
      ],
      "name": "condicoes",
      "outputs": [
        {
          "internalType": "string",
          "name": "",
          "type": "string"
        }
      ],
      "stateMutability": "view",
      "type": "function"
    }
  ],
  "bytecode": "0x60806040523480156200001157600080fd5b5060405162000c7b38038062000c7b833981810160405281019062000037919062000556565b60005b828110156200009f57818181518110620000595762000058620005bc565b5b6020026020010151600080838152602001908152602001600020908051906020019062000088929190620000a8565b50808062000096906200061a565b9150506200003a565b5050506200098f565b828054828255906000526020600020908101928215620000f5579160200282015b82811115620000f4578251829081620000e39190620008a8565b5091602001919060010190620000c9565b5b50905062000104919062000108565b5090565b5b808211156200012c576000818162000122919062000130565b5060010162000109565b5090565b5080546200013e90620006a1565b6000825580601f1062000152575062000173565b601f01602090049060005260206000209081019062000172919062000176565b5b50565b5b808211156200019157600081600090555060010162000177565b5090565b6000604051905090565b600080fd5b600080fd5b6000819050919050565b620001be81620001a9565b8114620001ca57600080fd5b50565b600081519050620001de81620001b3565b92915050565b600080fd5b6000601f19601f8301169050919050565b7f4e487b7100000000000000000000000000000000000000000000000000000000600052604160045260246000fd5b6200023482620001e9565b810181811067ffffffffffffffff82111715620002565762000255620001fa565b5b80604052505050565b60006200026b62000195565b905062000279828262000229565b919050565b600067ffffffffffffffff8211156200029c576200029b620001fa565b5b602082029050602081019050919050565b600080fd5b600067ffffffffffffffff821115620002d057620002cf620001fa565b5b602082029050602081019050919050565b600080fd5b600067ffffffffffffffff821115620003045762000303620001fa565b5b6200030f82620001e9565b9050602081019050919050565b60005b838110156200033c5780820151818401526020810190506200031f565b60008484015250505050565b60006200035f6200035984620002e6565b6200025f565b9050828152602081018484840111156200037e576200037d620002e1565b5b6200038b8482856200031c565b509392505050565b600082601f830112620003ab57620003aa620001e4565b5b8151620003bd84826020860162000348565b91505092915050565b6000620003dd620003d784620002b2565b6200025f565b90508083825260208201905060208402830185811115620004035762000402620002ad565b5b835b818110156200045157805167ffffffffffffffff8111156200042c576200042b620001e4565b5b8086016200043b898262000393565b8552602085019450505060208101905062000405565b5050509392505050565b600082601f830112620004735762000472620001e4565b5b815162000485848260208601620003c6565b91505092915050565b6000620004a56200049f846200027e565b6200025f565b90508083825260208201905060208402830185811115620004cb57620004ca620002ad565b5b835b818110156200051957805167ffffffffffffffff811115620004f457620004f3620001e4565b5b8086016200050389826200045b565b85526020850194505050602081019050620004cd565b5050509392505050565b600082601f8301126200053b576200053a620001e4565b5b81516200054d8482602086016200048e565b91505092915050565b6000806040838503121562000570576200056f6200019f565b5b60006200058085828601620001cd565b925050602083015167ffffffffffffffff811115620005a457620005a3620001a4565b5b620005b28582860162000523565b9150509250929050565b7f4e487b7100000000000000000000000000000000000000000000000000000000600052603260045260246000fd5b7f4e487b7100000000000000000000000000000000000000000000000000000000600052601160045260246000fd5b60006200062782620001a9565b91507fffffffffffffffffffffffffffffffffffffffffffffffffffffffffffffffff82036200065c576200065b620005eb565b5b600182019050919050565b600081519050919050565b7f4e487b7100000000000000000000000000000000000000000000000000000000600052602260045260246000fd5b60006002820490506001821680620006ba57607f821691505b602082108103620006d057620006cf62000672565b5b50919050565b60008190508160005260206000209050919050565b60006020601f8301049050919050565b600082821b905092915050565b6000600883026200073a7fffffffffffffffffffffffffffffffffffffffffffffffffffffffffffffffff82620006fb565b620007468683620006fb565b95508019841693508086168417925050509392505050565b6000819050919050565b600062000789620007836200077d84620001a9565b6200075e565b620001a9565b9050919050565b6000819050919050565b620007a58362000768565b620007bd620007b48262000790565b84845462000708565b825550505050565b600090565b620007d4620007c5565b620007e18184846200079a565b505050565b5b818110156200080957620007fd600082620007ca565b600181019050620007e7565b5050565b601f82111562000858576200082281620006d6565b6200082d84620006eb565b810160208510156200083d578190505b620008556200084c85620006eb565b830182620007e6565b50505b505050565b600082821c905092915050565b60006200087d600019846008026200085d565b1980831691505092915050565b60006200089883836200086a565b9150826002028217905092915050565b620008b38262000667565b67ffffffffffffffff811115620008cf57620008ce620001fa565b5b620008db8254620006a1565b620008e88282856200080d565b600060209050601f8311600181146200092057600084156200090b578287015190505b6200091785826200088a565b86555062000987565b601f1984166200093086620006d6565b60005b828110156200095a5784890151825560018201915060208501945060208101905062000933565b868310156200097a578489015162000976601f8916826200086a565b8355505b6001600288020188555050505b505050505050565b6102dc806200099f6000396000f3fe608060405234801561001057600080fd5b506004361061002b5760003560e01c8063d6d819ee14610030575b600080fd5b61004a60048036038101906100459190610154565b610060565b6040516100579190610224565b60405180910390f35b6000602052816000526040600020818154811061007c57600080fd5b9060005260206000200160009150915050805461009890610275565b80601f01602080910402602001604051908101604052809291908181526020018280546100c490610275565b80156101115780601f106100e657610100808354040283529160200191610111565b820191906000526020600020905b8154815290600101906020018083116100f457829003601f168201915b505050505081565b600080fd5b6000819050919050565b6101318161011e565b811461013c57600080fd5b50565b60008135905061014e81610128565b92915050565b6000806040838503121561016b5761016a610119565b5b60006101798582860161013f565b925050602061018a8582860161013f565b9150509250929050565b600081519050919050565b600082825260208201905092915050565b60005b838110156101ce5780820151818401526020810190506101b3565b60008484015250505050565b6000601f19601f8301169050919050565b60006101f682610194565b610200818561019f565b93506102108185602086016101b0565b610219816101da565b840191505092915050565b6000602082019050818103600083015261023e81846101eb565b905092915050565b7f4e487b7100000000000000000000000000000000000000000000000000000000600052602260045260246000fd5b6000600282049050600182168061028d57607f821691505b6020821081036102a05761029f610246565b5b5091905056fea264697066735822122022f14484392662af67454ab764d787a3961a8780918f55a7e328a9c99ea46cc264736f6c63430008110033",
  "linkReferences": {},
  "deployedLinkReferences": {}
}