{
  "_format": "hh-sol-artifact-1",
  "contractName": "Factory",
  "sourceName": "contracts/factory.sol",
  "abi": [
    {
      "inputs": [
        {
          "internalType": "address[]",
          "name": "_owners",
          "type": "address[]"
        }
      ],
      "stateMutability": "nonpayable",
      "type": "constructor"
    },
    {
      "anonymous": false,
      "inputs": [
        {
          "indexed": false,
          "internalType": "address",
          "name": "imovel",
          "type": "address"
        }
      ],
      "name": "NewImovel",
      "type": "event"
    },
    {
      "inputs": [
        {
          "internalType": "address",
          "name": "_newUnion",
          "type": "address"
        }
      ],
      "name": "addUnion",
      "outputs": [
        {
          "internalType": "bool",
          "name": "",
          "type": "bool"
        }
      ],
      "stateMutability": "nonpayable",
      "type": "function"
    },
    {
      "inputs": [
        {
          "internalType": "uint256",
          "name": "_idPredio",
          "type": "uint256"
        },
        {
          "internalType": "uint256[]",
          "name": "_prazo",
          "type": "uint256[]"
        },
        {
          "internalType": "address[]",
          "name": "_donos",
          "type": "address[]"
        },
        {
          "internalType": "bool[]",
          "name": "_status",
          "type": "bool[]"
        },
        {
          "internalType": "string[]",
          "name": "_condicoes",
          "type": "string[]"
        },
        {
          "internalType": "uint256[]",
          "name": "_valorCobranca",
          "type": "uint256[]"
        },
        {
          "internalType": "uint256[]",
          "name": "_dataProxCobranca",
          "type": "uint256[]"
        },
        {
          "internalType": "uint256[][]",
          "name": "_datasRecebimento",
          "type": "uint256[][]"
        },
        {
          "internalType": "uint256[][]",
          "name": "_valoresRecebimento",
          "type": "uint256[][]"
        }
      ],
      "name": "createImovel",
      "outputs": [
        {
          "internalType": "address",
          "name": "",
          "type": "address"
        }
      ],
      "stateMutability": "nonpayable",
      "type": "function"
    },
    {
      "inputs": [
        {
          "internalType": "address",
          "name": "",
          "type": "address"
        }
      ],
      "name": "owner",
      "outputs": [
        {
          "internalType": "bool",
          "name": "",
          "type": "bool"
        }
      ],
      "stateMutability": "view",
      "type": "function"
    },
    {
      "inputs": [
        {
          "internalType": "uint256",
          "name": "",
          "type": "uint256"
        }
      ],
      "name": "owners",
      "outputs": [
        {
          "internalType": "address",
          "name": "",
          "type": "address"
        }
      ],
      "stateMutability": "view",
      "type": "function"
    },
    {
      "inputs": [
        {
          "internalType": "address",
          "name": "_union",
          "type": "address"
        }
      ],
      "name": "removeUnion",
      "outputs": [
        {
          "internalType": "bool",
          "name": "",
          "type": "bool"
        }
      ],
      "stateMutability": "nonpayable",
      "type": "function"
    }
  ],
  "bytecode": "0x60806040523480156200001157600080fd5b50604051620059c0380380620059c083398181016040528101906200003791906200038b565b80600190805190602001906200004f929190620000ef565b5060005b8151811015620000e7576001600080848481518110620000785762000077620003dc565b5b602002602001015173ffffffffffffffffffffffffffffffffffffffff1673ffffffffffffffffffffffffffffffffffffffff16815260200190815260200160002060006101000a81548160ff0219169083151502179055508080620000de9062000444565b91505062000053565b505062000491565b8280548282559060005260206000209081019282156200016b579160200282015b828111156200016a5782518260006101000a81548173ffffffffffffffffffffffffffffffffffffffff021916908373ffffffffffffffffffffffffffffffffffffffff1602179055509160200191906001019062000110565b5b5090506200017a91906200017e565b5090565b5b80821115620001995760008160009055506001016200017f565b5090565b6000604051905090565b600080fd5b600080fd5b600080fd5b6000601f19601f8301169050919050565b7f4e487b7100000000000000000000000000000000000000000000000000000000600052604160045260246000fd5b6200020182620001b6565b810181811067ffffffffffffffff82111715620002235762000222620001c7565b5b80604052505050565b6000620002386200019d565b9050620002468282620001f6565b919050565b600067ffffffffffffffff821115620002695762000268620001c7565b5b602082029050602081019050919050565b600080fd5b600073ffffffffffffffffffffffffffffffffffffffff82169050919050565b6000620002ac826200027f565b9050919050565b620002be816200029f565b8114620002ca57600080fd5b50565b600081519050620002de81620002b3565b92915050565b6000620002fb620002f5846200024b565b6200022c565b905080838252602082019050602084028301858111156200032157620003206200027a565b5b835b818110156200034e5780620003398882620002cd565b84526020840193505060208101905062000323565b5050509392505050565b600082601f83011262000370576200036f620001b1565b5b815162000382848260208601620002e4565b91505092915050565b600060208284031215620003a457620003a3620001a7565b5b600082015167ffffffffffffffff811115620003c557620003c4620001ac565b5b620003d38482850162000358565b91505092915050565b7f4e487b7100000000000000000000000000000000000000000000000000000000600052603260045260246000fd5b7f4e487b7100000000000000000000000000000000000000000000000000000000600052601160045260246000fd5b6000819050919050565b600062000451826200043a565b91507fffffffffffffffffffffffffffffffffffffffffffffffffffffffffffffffff82036200048657620004856200040b565b5b600182019050919050565b61551f80620004a16000396000f3fe60806040523480156200001157600080fd5b50600436106200005e5760003560e01c8063025e7c27146200006357806329255c06146200009957806333d1776014620000cf578063666e1b391462000105578063b22a1f3b146200013b575b600080fd5b6200008160048036038101906200007b919062000769565b62000171565b604051620000909190620007e0565b60405180910390f35b620000b76004803603810190620000b191906200082e565b620001b1565b604051620000c691906200087d565b60405180910390f35b620000ed6004803603810190620000e7919062000ea2565b62000304565b604051620000fc9190620007e0565b60405180910390f35b6200012360048036038101906200011d91906200082e565b6200042e565b6040516200013291906200087d565b60405180910390f35b6200015960048036038101906200015391906200082e565b6200044e565b6040516200016891906200087d565b60405180910390f35b600181815481106200018257600080fd5b906000526020600020016000915054906101000a900473ffffffffffffffffffffffffffffffffffffffff1681565b60008060003373ffffffffffffffffffffffffffffffffffffffff1673ffffffffffffffffffffffffffffffffffffffff16815260200190815260200160002060009054906101000a900460ff1662000241576040517f08c379a0000000000000000000000000000000000000000000000000000000008152600401620002389062001100565b60405180910390fd5b6001829080600181540180825580915050600190039060005260206000200160009091909190916101000a81548173ffffffffffffffffffffffffffffffffffffffff021916908373ffffffffffffffffffffffffffffffffffffffff16021790555060016000808473ffffffffffffffffffffffffffffffffffffffff1673ffffffffffffffffffffffffffffffffffffffff16815260200190815260200160002060006101000a81548160ff02191690831515021790555060019050919050565b60008060003373ffffffffffffffffffffffffffffffffffffffff1673ffffffffffffffffffffffffffffffffffffffff16815260200190815260200160002060009054906101000a900460ff1662000394576040517f08c379a00000000000000000000000000000000000000000000000000000000081526004016200038b9062001100565b60405180910390fd5b600060018b8b8b8b8b8b8b8b8b604051620003af906200070c565b620003c49a9998979695949392919062001741565b604051809103906000f080158015620003e1573d6000803e3d6000fd5b5090507f15d68f6518f75993c2ccf0bd8f47e5833bb6b23a48989442e424bb03c4a597e481604051620004159190620007e0565b60405180910390a1809150509998505050505050505050565b60006020528060005260406000206000915054906101000a900460ff1681565b60008060003373ffffffffffffffffffffffffffffffffffffffff1673ffffffffffffffffffffffffffffffffffffffff16815260200190815260200160002060009054906101000a900460ff16620004de576040517f08c379a0000000000000000000000000000000000000000000000000000000008152600401620004d59062001100565b60405180910390fd5b60008060008473ffffffffffffffffffffffffffffffffffffffff1673ffffffffffffffffffffffffffffffffffffffff16815260200190815260200160002060006101000a81548160ff02191690831515021790555060005b600180549050811015620006b8578273ffffffffffffffffffffffffffffffffffffffff166001828154811062000574576200057362001830565b5b9060005260206000200160009054906101000a900473ffffffffffffffffffffffffffffffffffffffff1673ffffffffffffffffffffffffffffffffffffffff1603620006a25760008190505b60018080549050620005d491906200188e565b811015620006a05760018082620005ec9190620018c9565b815481106200060057620005ff62001830565b5b9060005260206000200160009054906101000a900473ffffffffffffffffffffffffffffffffffffffff166001828154811062000642576200064162001830565b5b9060005260206000200160006101000a81548173ffffffffffffffffffffffffffffffffffffffff021916908373ffffffffffffffffffffffffffffffffffffffff1602179055508080620006979062001904565b915050620005c1565b505b8080620006af9062001904565b91505062000538565b506001805480620006ce57620006cd62001951565b5b6001900381819060005260206000200160006101000a81549073ffffffffffffffffffffffffffffffffffffffff0219169055905560019050919050565b613b69806200198183390190565b6000604051905090565b600080fd5b600080fd5b6000819050919050565b62000743816200072e565b81146200074f57600080fd5b50565b600081359050620007638162000738565b92915050565b60006020828403121562000782576200078162000724565b5b6000620007928482850162000752565b91505092915050565b600073ffffffffffffffffffffffffffffffffffffffff82169050919050565b6000620007c8826200079b565b9050919050565b620007da81620007bb565b82525050565b6000602082019050620007f76000830184620007cf565b92915050565b6200080881620007bb565b81146200081457600080fd5b50565b6000813590506200082881620007fd565b92915050565b60006020828403121562000847576200084662000724565b5b6000620008578482850162000817565b91505092915050565b60008115159050919050565b620008778162000860565b82525050565b60006020820190506200089460008301846200086c565b92915050565b600080fd5b6000601f19601f8301169050919050565b7f4e487b7100000000000000000000000000000000000000000000000000000000600052604160045260246000fd5b620008ea826200089f565b810181811067ffffffffffffffff821117156200090c576200090b620008b0565b5b80604052505050565b6000620009216200071a565b90506200092f8282620008df565b919050565b600067ffffffffffffffff821115620009525762000951620008b0565b5b602082029050602081019050919050565b600080fd5b60006200097f620009798462000934565b62000915565b90508083825260208201905060208402830185811115620009a557620009a462000963565b5b835b81811015620009d25780620009bd888262000752565b845260208401935050602081019050620009a7565b5050509392505050565b600082601f830112620009f457620009f36200089a565b5b813562000a0684826020860162000968565b91505092915050565b600067ffffffffffffffff82111562000a2d5762000a2c620008b0565b5b602082029050602081019050919050565b600062000a5562000a4f8462000a0f565b62000915565b9050808382526020820190506020840283018581111562000a7b5762000a7a62000963565b5b835b8181101562000aa8578062000a93888262000817565b84526020840193505060208101905062000a7d565b5050509392505050565b600082601f83011262000aca5762000ac96200089a565b5b813562000adc84826020860162000a3e565b91505092915050565b600067ffffffffffffffff82111562000b035762000b02620008b0565b5b602082029050602081019050919050565b62000b1f8162000860565b811462000b2b57600080fd5b50565b60008135905062000b3f8162000b14565b92915050565b600062000b5c62000b568462000ae5565b62000915565b9050808382526020820190506020840283018581111562000b825762000b8162000963565b5b835b8181101562000baf578062000b9a888262000b2e565b84526020840193505060208101905062000b84565b5050509392505050565b600082601f83011262000bd15762000bd06200089a565b5b813562000be384826020860162000b45565b91505092915050565b600067ffffffffffffffff82111562000c0a5762000c09620008b0565b5b602082029050602081019050919050565b600080fd5b600067ffffffffffffffff82111562000c3e5762000c3d620008b0565b5b62000c49826200089f565b9050602081019050919050565b82818337600083830152505050565b600062000c7c62000c768462000c20565b62000915565b90508281526020810184848401111562000c9b5762000c9a62000c1b565b5b62000ca884828562000c56565b509392505050565b600082601f83011262000cc85762000cc76200089a565b5b813562000cda84826020860162000c65565b91505092915050565b600062000cfa62000cf48462000bec565b62000915565b9050808382526020820190506020840283018581111562000d205762000d1f62000963565b5b835b8181101562000d6e57803567ffffffffffffffff81111562000d495762000d486200089a565b5b80860162000d58898262000cb0565b8552602085019450505060208101905062000d22565b5050509392505050565b600082601f83011262000d905762000d8f6200089a565b5b813562000da284826020860162000ce3565b91505092915050565b600067ffffffffffffffff82111562000dc95762000dc8620008b0565b5b602082029050602081019050919050565b600062000df162000deb8462000dab565b62000915565b9050808382526020820190506020840283018581111562000e175762000e1662000963565b5b835b8181101562000e6557803567ffffffffffffffff81111562000e405762000e3f6200089a565b5b80860162000e4f8982620009dc565b8552602085019450505060208101905062000e19565b5050509392505050565b600082601f83011262000e875762000e866200089a565b5b813562000e9984826020860162000dda565b91505092915050565b60008060008060008060008060006101208a8c03121562000ec85762000ec762000724565b5b600062000ed88c828d0162000752565b99505060208a013567ffffffffffffffff81111562000efc5762000efb62000729565b5b62000f0a8c828d01620009dc565b98505060408a013567ffffffffffffffff81111562000f2e5762000f2d62000729565b5b62000f3c8c828d0162000ab2565b97505060608a013567ffffffffffffffff81111562000f605762000f5f62000729565b5b62000f6e8c828d0162000bb9565b96505060808a013567ffffffffffffffff81111562000f925762000f9162000729565b5b62000fa08c828d0162000d78565b95505060a08a013567ffffffffffffffff81111562000fc45762000fc362000729565b5b62000fd28c828d01620009dc565b94505060c08a013567ffffffffffffffff81111562000ff65762000ff562000729565b5b620010048c828d01620009dc565b93505060e08a013567ffffffffffffffff81111562001028576200102762000729565b5b620010368c828d0162000e6f565b9250506101008a013567ffffffffffffffff8111156200105b576200105a62000729565b5b620010698c828d0162000e6f565b9150509295985092959850929598565b600082825260208201905092915050565b7f596f7520646f6e742068617665207065726d697373696f6e20666f722074686960008201527f7320616374696f6e000000000000000000000000000000000000000000000000602082015250565b6000620010e860288362001079565b9150620010f5826200108a565b604082019050919050565b600060208201905081810360008301526200111b81620010d9565b9050919050565b600081549050919050565b600082825260208201905092915050565b60008190508160005260206000209050919050565b6200115e81620007bb565b82525050565b600062001172838362001153565b60208301905092915050565b60008160001c9050919050565b600073ffffffffffffffffffffffffffffffffffffffff82169050919050565b6000620011c2620011bc836200117e565b6200118b565b9050919050565b6000620011d78254620011ab565b9050919050565b6000600182019050919050565b6000620011f88262001122565b6200120481856200112d565b935062001211836200113e565b8060005b8381101562001251576200122982620011c9565b62001235888262001164565b97506200124283620011de565b92505060018101905062001215565b5085935050505092915050565b62001269816200072e565b82525050565b600081519050919050565b600082825260208201905092915050565b6000819050602082019050919050565b620012a6816200072e565b82525050565b6000620012ba83836200129b565b60208301905092915050565b6000602082019050919050565b6000620012e0826200126f565b620012ec81856200127a565b9350620012f9836200128b565b8060005b8381101562001330578151620013148882620012ac565b97506200132183620012c6565b925050600181019050620012fd565b5085935050505092915050565b600081519050919050565b6000819050602082019050919050565b6000602082019050919050565b600062001372826200133d565b6200137e81856200112d565b93506200138b8362001348565b8060005b83811015620013c2578151620013a6888262001164565b9750620013b38362001358565b9250506001810190506200138f565b5085935050505092915050565b600081519050919050565b600082825260208201905092915050565b6000819050602082019050919050565b620014068162000860565b82525050565b60006200141a8383620013fb565b60208301905092915050565b6000602082019050919050565b60006200144082620013cf565b6200144c8185620013da565b93506200145983620013eb565b8060005b83811015620014905781516200147488826200140c565b9750620014818362001426565b9250506001810190506200145d565b5085935050505092915050565b600081519050919050565b600082825260208201905092915050565b6000819050602082019050919050565b600081519050919050565b600082825260208201905092915050565b60005b8381101562001505578082015181840152602081019050620014e8565b60008484015250505050565b60006200151e82620014c9565b6200152a8185620014d4565b93506200153c818560208601620014e5565b62001547816200089f565b840191505092915050565b600062001560838362001511565b905092915050565b6000602082019050919050565b600062001582826200149d565b6200158e8185620014a8565b935083602082028501620015a285620014b9565b8060005b85811015620015e45784840389528151620015c2858262001552565b9450620015cf8362001568565b925060208a01995050600181019050620015a6565b50829750879550505050505092915050565b600081519050919050565b600082825260208201905092915050565b6000819050602082019050919050565b600082825260208201905092915050565b600062001640826200126f565b6200164c818562001622565b935062001659836200128b565b8060005b8381101562001690578151620016748882620012ac565b97506200168183620012c6565b9250506001810190506200165d565b5085935050505092915050565b6000620016ab838362001633565b905092915050565b6000602082019050919050565b6000620016cd82620015f6565b620016d9818562001601565b935083602082028501620016ed8562001612565b8060005b858110156200172f57848403895281516200170d85826200169d565b94506200171a83620016b3565b925060208a01995050600181019050620016f1565b50829750879550505050505092915050565b60006101408201905081810360008301526200175e818d620011eb565b90506200176f602083018c6200125e565b818103604083015262001783818b620012d3565b9050818103606083015262001799818a62001365565b90508181036080830152620017af818962001433565b905081810360a0830152620017c5818862001575565b905081810360c0830152620017db8187620012d3565b905081810360e0830152620017f18186620012d3565b9050818103610100830152620018088185620016c0565b90508181036101208301526200181f8184620016c0565b90509b9a5050505050505050505050565b7f4e487b7100000000000000000000000000000000000000000000000000000000600052603260045260246000fd5b7f4e487b7100000000000000000000000000000000000000000000000000000000600052601160045260246000fd5b60006200189b826200072e565b9150620018a8836200072e565b9250828203905081811115620018c357620018c26200185f565b5b92915050565b6000620018d6826200072e565b9150620018e3836200072e565b9250828201905080821115620018fe57620018fd6200185f565b5b92915050565b600062001911826200072e565b91507fffffffffffffffffffffffffffffffffffffffffffffffffffffffffffffffff82036200194657620019456200185f565b5b600182019050919050565b7f4e487b7100000000000000000000000000000000000000000000000000000000600052603160045260246000fdfe60806040523480156200001157600080fd5b5060405162003b6938038062003b69833981810160405281019062000037919062000c95565b865182828951888b5160005b818110156200008a57600080806001815401808255809150506001900390600052602060002001600090919091909150558080620000819062000ed1565b91505062000043565b505060005b82811015620001135760026000828152602001908152602001600020828281518110620000c157620000c062000f1e565b5b6020026020010151908060018154018082558091505060019003906000526020600020016000909190919091509081620000fc91906200118e565b5080806200010a9062000ed1565b9150506200008f565b50505060005b83811015620002545760005b8382815181106200013b576200013a62000f1e565b5b6020026020010151518110156200023d5760036000838152602001908152602001600020604051806040016040528086858151811062000180576200017f62000f1e565b5b602002602001015184815181106200019d576200019c62000f1e565b5b60200260200101518152602001858581518110620001c057620001bf62000f1e565b5b60200260200101518481518110620001dd57620001dc62000f1e565b5b60200260200101518152509080600181540180825580915050600190039060005260206000209060020201600090919091909150600082015181600001556020820151816001015550508080620002349062000ed1565b91505062000125565b5080806200024b9062000ed1565b91505062000119565b5050505060005b8a51811015620002f0576001600460008d848151811062000281576200028062000f1e565b5b602002602001015173ffffffffffffffffffffffffffffffffffffffff1673ffffffffffffffffffffffffffffffffffffffff16815260200190815260200160002060006101000a81548160ff0219169083151502179055508080620002e79062000ed1565b9150506200025b565b5086600690805190602001906200030992919062000403565b508860058190555087600790805190602001906200032992919062000492565b50856008908051906020019062000342929190620004e4565b5060005b8751811015620003f257600985828151811062000368576200036762000f1e565b5b60200260200101519080600181540180825580915050600190039060005260206000200160009091909190915055600a848281518110620003ae57620003ad62000f1e565b5b602002602001015190806001815401808255809150506001900390600052602060002001600090919091909150558080620003e99062000ed1565b91505062000346565b505050505050505050505062001275565b8280548282559060005260206000209081019282156200047f579160200282015b828111156200047e5782518260006101000a81548173ffffffffffffffffffffffffffffffffffffffff021916908373ffffffffffffffffffffffffffffffffffffffff1602179055509160200191906001019062000424565b5b5090506200048e919062000591565b5090565b828054828255906000526020600020908101928215620004d1579160200282015b82811115620004d0578251825591602001919060010190620004b3565b5b509050620004e0919062000591565b5090565b82805482825590600052602060002090601f016020900481019282156200057e5791602002820160005b838211156200054d57835183826101000a81548160ff02191690831515021790555092602001926001016020816000010492830192600103026200050e565b80156200057c5782816101000a81549060ff02191690556001016020816000010492830192600103026200054d565b505b5090506200058d919062000591565b5090565b5b80821115620005ac57600081600090555060010162000592565b5090565b6000604051905090565b600080fd5b600080fd5b600080fd5b6000601f19601f8301169050919050565b7f4e487b7100000000000000000000000000000000000000000000000000000000600052604160045260246000fd5b6200061482620005c9565b810181811067ffffffffffffffff82111715620006365762000635620005da565b5b80604052505050565b60006200064b620005b0565b905062000659828262000609565b919050565b600067ffffffffffffffff8211156200067c576200067b620005da565b5b602082029050602081019050919050565b600080fd5b600073ffffffffffffffffffffffffffffffffffffffff82169050919050565b6000620006bf8262000692565b9050919050565b620006d181620006b2565b8114620006dd57600080fd5b50565b600081519050620006f181620006c6565b92915050565b60006200070e62000708846200065e565b6200063f565b905080838252602082019050602084028301858111156200073457620007336200068d565b5b835b818110156200076157806200074c8882620006e0565b84526020840193505060208101905062000736565b5050509392505050565b600082601f830112620007835762000782620005c4565b5b815162000795848260208601620006f7565b91505092915050565b6000819050919050565b620007b3816200079e565b8114620007bf57600080fd5b50565b600081519050620007d381620007a8565b92915050565b600067ffffffffffffffff821115620007f757620007f6620005da565b5b602082029050602081019050919050565b60006200081f6200081984620007d9565b6200063f565b905080838252602082019050602084028301858111156200084557620008446200068d565b5b835b818110156200087257806200085d8882620007c2565b84526020840193505060208101905062000847565b5050509392505050565b600082601f830112620008945762000893620005c4565b5b8151620008a684826020860162000808565b91505092915050565b600067ffffffffffffffff821115620008cd57620008cc620005da565b5b602082029050602081019050919050565b60008115159050919050565b620008f581620008de565b81146200090157600080fd5b50565b6000815190506200091581620008ea565b92915050565b6000620009326200092c84620008af565b6200063f565b905080838252602082019050602084028301858111156200095857620009576200068d565b5b835b8181101562000985578062000970888262000904565b8452602084019350506020810190506200095a565b5050509392505050565b600082601f830112620009a757620009a6620005c4565b5b8151620009b98482602086016200091b565b91505092915050565b600067ffffffffffffffff821115620009e057620009df620005da565b5b602082029050602081019050919050565b600080fd5b600067ffffffffffffffff82111562000a145762000a13620005da565b5b62000a1f82620005c9565b9050602081019050919050565b60005b8381101562000a4c57808201518184015260208101905062000a2f565b60008484015250505050565b600062000a6f62000a6984620009f6565b6200063f565b90508281526020810184848401111562000a8e5762000a8d620009f1565b5b62000a9b84828562000a2c565b509392505050565b600082601f83011262000abb5762000aba620005c4565b5b815162000acd84826020860162000a58565b91505092915050565b600062000aed62000ae784620009c2565b6200063f565b9050808382526020820190506020840283018581111562000b135762000b126200068d565b5b835b8181101562000b6157805167ffffffffffffffff81111562000b3c5762000b3b620005c4565b5b80860162000b4b898262000aa3565b8552602085019450505060208101905062000b15565b5050509392505050565b600082601f83011262000b835762000b82620005c4565b5b815162000b9584826020860162000ad6565b91505092915050565b600067ffffffffffffffff82111562000bbc5762000bbb620005da565b5b602082029050602081019050919050565b600062000be462000bde8462000b9e565b6200063f565b9050808382526020820190506020840283018581111562000c0a5762000c096200068d565b5b835b8181101562000c5857805167ffffffffffffffff81111562000c335762000c32620005c4565b5b80860162000c4289826200087c565b8552602085019450505060208101905062000c0c565b5050509392505050565b600082601f83011262000c7a5762000c79620005c4565b5b815162000c8c84826020860162000bcd565b91505092915050565b6000806000806000806000806000806101408b8d03121562000cbc5762000cbb620005ba565b5b60008b015167ffffffffffffffff81111562000cdd5762000cdc620005bf565b5b62000ceb8d828e016200076b565b9a5050602062000cfe8d828e01620007c2565b99505060408b015167ffffffffffffffff81111562000d225762000d21620005bf565b5b62000d308d828e016200087c565b98505060608b015167ffffffffffffffff81111562000d545762000d53620005bf565b5b62000d628d828e016200076b565b97505060808b015167ffffffffffffffff81111562000d865762000d85620005bf565b5b62000d948d828e016200098f565b96505060a08b015167ffffffffffffffff81111562000db85762000db7620005bf565b5b62000dc68d828e0162000b6b565b95505060c08b015167ffffffffffffffff81111562000dea5762000de9620005bf565b5b62000df88d828e016200087c565b94505060e08b015167ffffffffffffffff81111562000e1c5762000e1b620005bf565b5b62000e2a8d828e016200087c565b9350506101008b015167ffffffffffffffff81111562000e4f5762000e4e620005bf565b5b62000e5d8d828e0162000c62565b9250506101208b015167ffffffffffffffff81111562000e825762000e81620005bf565b5b62000e908d828e0162000c62565b9150509295989b9194979a5092959850565b7f4e487b7100000000000000000000000000000000000000000000000000000000600052601160045260246000fd5b600062000ede826200079e565b91507fffffffffffffffffffffffffffffffffffffffffffffffffffffffffffffffff820362000f135762000f1262000ea2565b5b600182019050919050565b7f4e487b7100000000000000000000000000000000000000000000000000000000600052603260045260246000fd5b600081519050919050565b7f4e487b7100000000000000000000000000000000000000000000000000000000600052602260045260246000fd5b6000600282049050600182168062000fa057607f821691505b60208210810362000fb65762000fb562000f58565b5b50919050565b60008190508160005260206000209050919050565b60006020601f8301049050919050565b600082821b905092915050565b600060088302620010207fffffffffffffffffffffffffffffffffffffffffffffffffffffffffffffffff8262000fe1565b6200102c868362000fe1565b95508019841693508086168417925050509392505050565b6000819050919050565b60006200106f6200106962001063846200079e565b62001044565b6200079e565b9050919050565b6000819050919050565b6200108b836200104e565b620010a36200109a8262001076565b84845462000fee565b825550505050565b600090565b620010ba620010ab565b620010c781848462001080565b505050565b5b81811015620010ef57620010e3600082620010b0565b600181019050620010cd565b5050565b601f8211156200113e57620011088162000fbc565b620011138462000fd1565b8101602085101562001123578190505b6200113b620011328562000fd1565b830182620010cc565b50505b505050565b600082821c905092915050565b6000620011636000198460080262001143565b1980831691505092915050565b60006200117e838362001150565b9150826002028217905092915050565b620011998262000f4d565b67ffffffffffffffff811115620011b557620011b4620005da565b5b620011c1825462000f87565b620011ce828285620010f3565b600060209050601f831160018114620012065760008415620011f1578287015190505b620011fd858262001170565b8655506200126d565b601f198416620012168662000fbc565b60005b82811015620012405784890151825560018201915060208501945060208101905062001219565b868310156200126057848901516200125c601f89168262001150565b8355505b6001600288020188555050505b505050505050565b6128e480620012856000396000f3fe608060405234801561001057600080fd5b50600436106101425760003560e01c80637444144b116100b8578063bc0f21e91161007c578063bc0f21e914610393578063d29927cf146103af578063d6d819ee146103cd578063da87fc8a146103fd578063eabfedca14610419578063f7b865161461044957610142565b80637444144b146103075780638b2b47b3146103235780638c3151be1461033f5780639e8004ee1461035b578063a7adad031461037757610142565b806342d21ef71161010a57806342d21ef7146102235780634b38b1971461025357806350541cd61461026f57806352b20ce71461028b578063666e1b39146102a757806371435955146102d757610142565b806308883fa0146101475780632bc758ff146101775780632bcda3d4146101a75780632f1e8a92146101c357806337805d53146101f3575b600080fd5b610161600480360381019061015c9190611d76565b61047a565b60405161016e9190611db2565b60405180910390f35b610191600480360381019061018c9190611dcd565b61049e565b60405161019e9190611e9d565b60405180910390f35b6101c160048036038101906101bc9190612052565b61054b565b005b6101dd60048036038101906101d89190611d76565b610685565b6040516101ea9190611db2565b60405180910390f35b61020d60048036038101906102089190611d76565b6106a9565b60405161021a9190611db2565b60405180910390f35b61023d60048036038101906102389190611d76565b6106cd565b60405161024a91906120c9565b60405180910390f35b61026d60048036038101906102689190612052565b610701565b005b610289600480360381019061028491906120e4565b61083b565b005b6102a560048036038101906102a09190612111565b610cc0565b005b6102c160048036038101906102bc91906120e4565b610e09565b6040516102ce91906120c9565b60405180910390f35b6102f160048036038101906102ec9190611d76565b610e29565b6040516102fe9190611db2565b60405180910390f35b610321600480360381019061031c919061217d565b610e4d565b005b61033d60048036038101906103389190612111565b610fb1565b005b610359600480360381019061035491906120e4565b6110fa565b005b61037560048036038101906103709190612285565b6111e1565b005b610391600480360381019061038c9190612111565b6113b8565b005b6103ad60048036038101906103a8919061238f565b611501565b005b6103b7611634565b6040516103c49190611db2565b60405180910390f35b6103e760048036038101906103e29190611dcd565b61163a565b6040516103f49190611e9d565b60405180910390f35b610417600480360381019061041291906120e4565b6116f3565b005b610433600480360381019061042e9190611d76565b6117da565b60405161044091906123f1565b60405180910390f35b610463600480360381019061045e9190611dcd565b611819565b60405161047192919061240c565b60405180910390f35b600a818154811061048a57600080fd5b906000526020600020016000915090505481565b60016020528160005260406000206020528060005260406000206000915091505080546104ca90612464565b80601f01602080910402602001604051908101604052809291908181526020018280546104f690612464565b80156105435780601f1061051857610100808354040283529160200191610543565b820191906000526020600020905b81548152906001019060200180831161052657829003601f168201915b505050505081565b600460003373ffffffffffffffffffffffffffffffffffffffff1673ffffffffffffffffffffffffffffffffffffffff16815260200190815260200160002060009054906101000a900460ff166105d7576040517f08c379a00000000000000000000000000000000000000000000000000000000081526004016105ce90612507565b60405180910390fd5b600080600090505b600680549050811015610674578373ffffffffffffffffffffffffffffffffffffffff166006828154811061061757610616612527565b5b9060005260206000200160009054906101000a900473ffffffffffffffffffffffffffffffffffffffff1673ffffffffffffffffffffffffffffffffffffffff1603610661578091505b808061066c90612585565b9150506105df565b5061067f818361185a565b50505050565b6007818154811061069557600080fd5b906000526020600020016000915090505481565b600081815481106106b957600080fd5b906000526020600020016000915090505481565b600881815481106106dd57600080fd5b9060005260206000209060209182820401919006915054906101000a900460ff1681565b600460003373ffffffffffffffffffffffffffffffffffffffff1673ffffffffffffffffffffffffffffffffffffffff16815260200190815260200160002060009054906101000a900460ff1661078d576040517f08c379a000000000000000000000000000000000000000000000000000000000815260040161078490612507565b60405180910390fd5b600080600090505b60068054905081101561082a578373ffffffffffffffffffffffffffffffffffffffff16600682815481106107cd576107cc612527565b5b9060005260206000200160009054906101000a900473ffffffffffffffffffffffffffffffffffffffff1673ffffffffffffffffffffffffffffffffffffffff1603610817578091505b808061082290612585565b915050610795565b5061083581836118ac565b50505050565b600460003373ffffffffffffffffffffffffffffffffffffffff1673ffffffffffffffffffffffffffffffffffffffff16815260200190815260200160002060009054906101000a900460ff166108c7576040517f08c379a00000000000000000000000000000000000000000000000000000000081526004016108be90612507565b60405180910390fd5b60005b600680549050811015610bc1578173ffffffffffffffffffffffffffffffffffffffff166006828154811061090257610901612527565b5b9060005260206000200160009054906101000a900473ffffffffffffffffffffffffffffffffffffffff1673ffffffffffffffffffffffffffffffffffffffff1603610bae5760008190505b600680549050811015610b83576109648261193c565b50600660018261097491906125cd565b8154811061098557610984612527565b5b9060005260206000200160009054906101000a900473ffffffffffffffffffffffffffffffffffffffff16600682815481106109c4576109c3612527565b5b9060005260206000200160006101000a81548173ffffffffffffffffffffffffffffffffffffffff021916908373ffffffffffffffffffffffffffffffffffffffff1602179055506007600182610a1b91906125cd565b81548110610a2c57610a2b612527565b5b906000526020600020015460078281548110610a4b57610a4a612527565b5b90600052602060002001819055506008600182610a6891906125cd565b81548110610a7957610a78612527565b5b90600052602060002090602091828204019190069054906101000a900460ff1660088281548110610aad57610aac612527565b5b90600052602060002090602091828204019190066101000a81548160ff0219169083151502179055506009600182610ae591906125cd565b81548110610af657610af5612527565b5b906000526020600020015460098281548110610b1557610b14612527565b5b9060005260206000200181905550600a600182610b3291906125cd565b81548110610b4357610b42612527565b5b9060005260206000200154600a8281548110610b6257610b61612527565b5b90600052602060002001819055508080610b7b90612585565b91505061094e565b50610b8d81611a52565b50600360008281526020019081526020016000206000610bad9190611c3f565b5b8080610bb990612585565b9150506108ca565b506006805480610bd457610bd3612601565b5b6001900381819060005260206000200160006101000a81549073ffffffffffffffffffffffffffffffffffffffff021916905590556007805480610c1b57610c1a612601565b5b600190038181906000526020600020016000905590556008805480610c4357610c42612601565b5b60019003818190600052602060002090602091828204019190066101000a81549060ff021916905590556009805480610c7f57610c7e612601565b5b60019003818190600052602060002001600090559055600a805480610ca757610ca6612601565b5b6001900381819060005260206000200160009055905550565b600460003373ffffffffffffffffffffffffffffffffffffffff1673ffffffffffffffffffffffffffffffffffffffff16815260200190815260200160002060009054906101000a900460ff16610d4c576040517f08c379a0000000000000000000000000000000000000000000000000000000008152600401610d4390612507565b60405180910390fd5b60005b600680549050811015610e04578273ffffffffffffffffffffffffffffffffffffffff1660068281548110610d8757610d86612527565b5b9060005260206000200160009054906101000a900473ffffffffffffffffffffffffffffffffffffffff1673ffffffffffffffffffffffffffffffffffffffff1603610df15781600a8281548110610de257610de1612527565b5b90600052602060002001819055505b8080610dfc90612585565b915050610d4f565b505050565b60046020528060005260406000206000915054906101000a900460ff1681565b60098181548110610e3957600080fd5b906000526020600020016000915090505481565b600460003373ffffffffffffffffffffffffffffffffffffffff1673ffffffffffffffffffffffffffffffffffffffff16815260200190815260200160002060009054906101000a900460ff16610ed9576040517f08c379a0000000000000000000000000000000000000000000000000000000008152600401610ed090612507565b60405180910390fd5b60005b600680549050811015610fac578273ffffffffffffffffffffffffffffffffffffffff1660068281548110610f1457610f13612527565b5b9060005260206000200160009054906101000a900473ffffffffffffffffffffffffffffffffffffffff1673ffffffffffffffffffffffffffffffffffffffff1603610f99578160088281548110610f6f57610f6e612527565b5b90600052602060002090602091828204019190066101000a81548160ff0219169083151502179055505b8080610fa490612585565b915050610edc565b505050565b600460003373ffffffffffffffffffffffffffffffffffffffff1673ffffffffffffffffffffffffffffffffffffffff16815260200190815260200160002060009054906101000a900460ff1661103d576040517f08c379a000000000000000000000000000000000000000000000000000000000815260040161103490612507565b60405180910390fd5b60005b6006805490508110156110f5578273ffffffffffffffffffffffffffffffffffffffff166006828154811061107857611077612527565b5b9060005260206000200160009054906101000a900473ffffffffffffffffffffffffffffffffffffffff1673ffffffffffffffffffffffffffffffffffffffff16036110e25781600982815481106110d3576110d2612527565b5b90600052602060002001819055505b80806110ed90612585565b915050611040565b505050565b600460003373ffffffffffffffffffffffffffffffffffffffff1673ffffffffffffffffffffffffffffffffffffffff16815260200190815260200160002060009054906101000a900460ff16611186576040517f08c379a000000000000000000000000000000000000000000000000000000000815260040161117d90612507565b60405180910390fd5b6000600460008373ffffffffffffffffffffffffffffffffffffffff1673ffffffffffffffffffffffffffffffffffffffff16815260200190815260200160002060006101000a81548160ff02191690831515021790555050565b600460003373ffffffffffffffffffffffffffffffffffffffff1673ffffffffffffffffffffffffffffffffffffffff16815260200190815260200160002060009054906101000a900460ff1661126d576040517f08c379a000000000000000000000000000000000000000000000000000000000815260040161126490612507565b60405180910390fd5b600060068054905090506006899080600181540180825580915050600190039060005260206000200160009091909190916101000a81548173ffffffffffffffffffffffffffffffffffffffff021916908373ffffffffffffffffffffffffffffffffffffffff160217905550600788908060018154018082558091505060019003906000526020600020016000909190919091505560088790806001815401808255809150506001900390600052602060002090602091828204019190069091909190916101000a81548160ff0219169083151502179055506113518187611a7c565b50846009828154811061136757611366612527565b5b906000526020600020018190555083600a828154811061138a57611389612527565b5b90600052602060002001819055506113a0611ace565b506113ac818484611b00565b50505050505050505050565b600460003373ffffffffffffffffffffffffffffffffffffffff1673ffffffffffffffffffffffffffffffffffffffff16815260200190815260200160002060009054906101000a900460ff16611444576040517f08c379a000000000000000000000000000000000000000000000000000000000815260040161143b90612507565b60405180910390fd5b60005b6006805490508110156114fc578273ffffffffffffffffffffffffffffffffffffffff166006828154811061147f5761147e612527565b5b9060005260206000200160009054906101000a900473ffffffffffffffffffffffffffffffffffffffff1673ffffffffffffffffffffffffffffffffffffffff16036114e95781600782815481106114da576114d9612527565b5b90600052602060002001819055505b80806114f490612585565b915050611447565b505050565b600460003373ffffffffffffffffffffffffffffffffffffffff1673ffffffffffffffffffffffffffffffffffffffff16815260200190815260200160002060009054906101000a900460ff1661158d576040517f08c379a000000000000000000000000000000000000000000000000000000000815260040161158490612507565b60405180910390fd5b60005b60068054905081101561162e578373ffffffffffffffffffffffffffffffffffffffff16600682815481106115c8576115c7612527565b5b9060005260206000200160009054906101000a900473ffffffffffffffffffffffffffffffffffffffff1673ffffffffffffffffffffffffffffffffffffffff160361161b57611619818484611bcb565b505b808061162690612585565b915050611590565b50505050565b60055481565b6002602052816000526040600020818154811061165657600080fd5b9060005260206000200160009150915050805461167290612464565b80601f016020809104026020016040519081016040528092919081815260200182805461169e90612464565b80156116eb5780601f106116c0576101008083540402835291602001916116eb565b820191906000526020600020905b8154815290600101906020018083116116ce57829003601f168201915b505050505081565b600460003373ffffffffffffffffffffffffffffffffffffffff1673ffffffffffffffffffffffffffffffffffffffff16815260200190815260200160002060009054906101000a900460ff1661177f576040517f08c379a000000000000000000000000000000000000000000000000000000000815260040161177690612507565b60405180910390fd5b6001600460008373ffffffffffffffffffffffffffffffffffffffff1673ffffffffffffffffffffffffffffffffffffffff16815260200190815260200160002060006101000a81548160ff02191690831515021790555050565b600681815481106117ea57600080fd5b906000526020600020016000915054906101000a900473ffffffffffffffffffffffffffffffffffffffff1681565b6003602052816000526040600020818154811061183557600080fd5b9060005260206000209060020201600091509150508060000154908060010154905082565b600060026000848152602001908152602001600020829080600181540180825580915050600190039060005260206000200160009091909190915090816118a191906127dc565b506001905092915050565b6000806001600085815481106118c5576118c4612527565b5b90600052602060002001546118da91906125cd565b905082600160008681526020019081526020016000206000838152602001908152602001600020908161190d91906127dc565b50806000858154811061192357611922612527565b5b9060005260206000200181905550600191505092915050565b600080600090505b6000838154811061195857611957612527565b5b906000526020600020015481116119ac5760016000848152602001908152602001600020600082815260200190815260200160002060006119999190611c63565b80806119a490612585565b915050611944565b5060008290505b600080549050811015611a205760006001826119cf91906125cd565b815481106119e0576119df612527565b5b9060005260206000200154600082815481106119ff576119fe612527565b5b90600052602060002001819055508080611a1890612585565b9150506119b3565b506000805480611a3357611a32612601565b5b6001900381819060005260206000200160009055905560019050919050565b6000600260008381526020019081526020016000206000611a739190611ca3565b60019050919050565b60006002600084815260200190815260200160002082908060018154018082558091505060019003906000526020600020016000909190919091509081611ac391906127dc565b506001905092915050565b600080600090806001815401808255809150506001900390600052602060002001600090919091909150556001905090565b600080600090505b8351811015611bbf57600360008681526020019081526020016000206040518060400160405280868481518110611b4257611b41612527565b5b60200260200101518152602001858481518110611b6257611b61612527565b5b60200260200101518152509080600181540180825580915050600190039060005260206000209060020201600090919091909150600082015181600001556020820151816001015550508080611bb790612585565b915050611b08565b50600190509392505050565b600060036000858152602001908152602001600020604051806040016040528085815260200184815250908060018154018082558091505060019003906000526020600020906002020160009091909190915060008201518160000155602082015181600101555050600190509392505050565b5080546000825560020290600052602060002090810190611c609190611cc4565b50565b508054611c6f90612464565b6000825580601f10611c815750611ca0565b601f016020900490600052602060002090810190611c9f9190611ceb565b5b50565b5080546000825590600052602060002090810190611cc19190611d08565b50565b5b80821115611ce757600080820160009055600182016000905550600201611cc5565b5090565b5b80821115611d04576000816000905550600101611cec565b5090565b5b80821115611d285760008181611d1f9190611c63565b50600101611d09565b5090565b6000604051905090565b600080fd5b600080fd5b6000819050919050565b611d5381611d40565b8114611d5e57600080fd5b50565b600081359050611d7081611d4a565b92915050565b600060208284031215611d8c57611d8b611d36565b5b6000611d9a84828501611d61565b91505092915050565b611dac81611d40565b82525050565b6000602082019050611dc76000830184611da3565b92915050565b60008060408385031215611de457611de3611d36565b5b6000611df285828601611d61565b9250506020611e0385828601611d61565b9150509250929050565b600081519050919050565b600082825260208201905092915050565b60005b83811015611e47578082015181840152602081019050611e2c565b60008484015250505050565b6000601f19601f8301169050919050565b6000611e6f82611e0d565b611e798185611e18565b9350611e89818560208601611e29565b611e9281611e53565b840191505092915050565b60006020820190508181036000830152611eb78184611e64565b905092915050565b600073ffffffffffffffffffffffffffffffffffffffff82169050919050565b6000611eea82611ebf565b9050919050565b611efa81611edf565b8114611f0557600080fd5b50565b600081359050611f1781611ef1565b92915050565b600080fd5b600080fd5b7f4e487b7100000000000000000000000000000000000000000000000000000000600052604160045260246000fd5b611f5f82611e53565b810181811067ffffffffffffffff82111715611f7e57611f7d611f27565b5b80604052505050565b6000611f91611d2c565b9050611f9d8282611f56565b919050565b600067ffffffffffffffff821115611fbd57611fbc611f27565b5b611fc682611e53565b9050602081019050919050565b82818337600083830152505050565b6000611ff5611ff084611fa2565b611f87565b90508281526020810184848401111561201157612010611f22565b5b61201c848285611fd3565b509392505050565b600082601f83011261203957612038611f1d565b5b8135612049848260208601611fe2565b91505092915050565b6000806040838503121561206957612068611d36565b5b600061207785828601611f08565b925050602083013567ffffffffffffffff81111561209857612097611d3b565b5b6120a485828601612024565b9150509250929050565b60008115159050919050565b6120c3816120ae565b82525050565b60006020820190506120de60008301846120ba565b92915050565b6000602082840312156120fa576120f9611d36565b5b600061210884828501611f08565b91505092915050565b6000806040838503121561212857612127611d36565b5b600061213685828601611f08565b925050602061214785828601611d61565b9150509250929050565b61215a816120ae565b811461216557600080fd5b50565b60008135905061217781612151565b92915050565b6000806040838503121561219457612193611d36565b5b60006121a285828601611f08565b92505060206121b385828601612168565b9150509250929050565b600067ffffffffffffffff8211156121d8576121d7611f27565b5b602082029050602081019050919050565b600080fd5b60006122016121fc846121bd565b611f87565b90508083825260208201905060208402830185811115612224576122236121e9565b5b835b8181101561224d57806122398882611d61565b845260208401935050602081019050612226565b5050509392505050565b600082601f83011261226c5761226b611f1d565b5b813561227c8482602086016121ee565b91505092915050565b600080600080600080600080610100898b0312156122a6576122a5611d36565b5b60006122b48b828c01611f08565b98505060206122c58b828c01611d61565b97505060406122d68b828c01612168565b965050606089013567ffffffffffffffff8111156122f7576122f6611d3b565b5b6123038b828c01612024565b95505060806123148b828c01611d61565b94505060a06123258b828c01611d61565b93505060c089013567ffffffffffffffff81111561234657612345611d3b565b5b6123528b828c01612257565b92505060e089013567ffffffffffffffff81111561237357612372611d3b565b5b61237f8b828c01612257565b9150509295985092959890939650565b6000806000606084860312156123a8576123a7611d36565b5b60006123b686828701611f08565b93505060206123c786828701611d61565b92505060406123d886828701611d61565b9150509250925092565b6123eb81611edf565b82525050565b600060208201905061240660008301846123e2565b92915050565b60006040820190506124216000830185611da3565b61242e6020830184611da3565b9392505050565b7f4e487b7100000000000000000000000000000000000000000000000000000000600052602260045260246000fd5b6000600282049050600182168061247c57607f821691505b60208210810361248f5761248e612435565b5b50919050565b7f596f7520646f6e742068617665207065726d697373696f6e20666f722074686960008201527f7320616374696f6e000000000000000000000000000000000000000000000000602082015250565b60006124f1602883611e18565b91506124fc82612495565b604082019050919050565b60006020820190508181036000830152612520816124e4565b9050919050565b7f4e487b7100000000000000000000000000000000000000000000000000000000600052603260045260246000fd5b7f4e487b7100000000000000000000000000000000000000000000000000000000600052601160045260246000fd5b600061259082611d40565b91507fffffffffffffffffffffffffffffffffffffffffffffffffffffffffffffffff82036125c2576125c1612556565b5b600182019050919050565b60006125d882611d40565b91506125e383611d40565b92508282019050808211156125fb576125fa612556565b5b92915050565b7f4e487b7100000000000000000000000000000000000000000000000000000000600052603160045260246000fd5b60008190508160005260206000209050919050565b60006020601f8301049050919050565b600082821b905092915050565b6000600883026126927fffffffffffffffffffffffffffffffffffffffffffffffffffffffffffffffff82612655565b61269c8683612655565b95508019841693508086168417925050509392505050565b6000819050919050565b60006126d96126d46126cf84611d40565b6126b4565b611d40565b9050919050565b6000819050919050565b6126f3836126be565b6127076126ff826126e0565b848454612662565b825550505050565b600090565b61271c61270f565b6127278184846126ea565b505050565b5b8181101561274b57612740600082612714565b60018101905061272d565b5050565b601f8211156127905761276181612630565b61276a84612645565b81016020851015612779578190505b61278d61278585612645565b83018261272c565b50505b505050565b600082821c905092915050565b60006127b360001984600802612795565b1980831691505092915050565b60006127cc83836127a2565b9150826002028217905092915050565b6127e582611e0d565b67ffffffffffffffff8111156127fe576127fd611f27565b5b6128088254612464565b61281382828561274f565b600060209050601f8311600181146128465760008415612834578287015190505b61283e85826127c0565b8655506128a6565b601f19841661285486612630565b60005b8281101561287c57848901518255600182019150602085019450602081019050612857565b868310156128995784890151612895601f8916826127a2565b8355505b6001600288020188555050505b50505050505056fea26469706673582212206ae958761425a257ba712d15ed2b734f438f9a0e5d8b870860bb271cbbbb5c3464736f6c63430008110033a2646970667358221220a311182dbf1ba1a1565414b198911ff17c51e31f236d1f37d458fcd6600ccc8964736f6c63430008110033",
  "linkReferences": {},
  "deployedLinkReferences": {}
}