{
  "_format": "hh-sol-artifact-1",
  "contractName": "Imovel",
  "sourceName": "contracts/imovel.sol",
  "abi": [
    {
      "inputs": [
        {
          "internalType": "address[]",
          "name": "_owners",
          "type": "address[]"
        },
        {
          "internalType": "uint256",
          "name": "_idPredio",
          "type": "uint256"
        },
        {
          "internalType": "uint256[]",
          "name": "_prazo",
          "type": "uint256[]"
        },
        {
          "internalType": "address[]",
          "name": "_donos",
          "type": "address[]"
        },
        {
          "internalType": "bool[]",
          "name": "_status",
          "type": "bool[]"
        },
        {
          "internalType": "string[]",
          "name": "_condicoes",
          "type": "string[]"
        },
        {
          "internalType": "uint256[]",
          "name": "_valorCobranca",
          "type": "uint256[]"
        },
        {
          "internalType": "uint256[]",
          "name": "_dataProxCobranca",
          "type": "uint256[]"
        },
        {
          "internalType": "uint256[][]",
          "name": "_datasRecebimento",
          "type": "uint256[][]"
        },
        {
          "internalType": "uint256[][]",
          "name": "_valoresRecebimento",
          "type": "uint256[][]"
        }
      ],
      "stateMutability": "nonpayable",
      "type": "constructor"
    },
    {
      "inputs": [
        {
          "internalType": "uint256",
          "name": "",
          "type": "uint256"
        }
      ],
      "name": "acoesCount",
      "outputs": [
        {
          "internalType": "uint256",
          "name": "",
          "type": "uint256"
        }
      ],
      "stateMutability": "view",
      "type": "function"
    },
    {
      "inputs": [
        {
          "internalType": "address",
          "name": "_newDono",
          "type": "address"
        },
        {
          "internalType": "uint256",
          "name": "_prazo",
          "type": "uint256"
        },
        {
          "internalType": "bool",
          "name": "_status",
          "type": "bool"
        },
        {
          "internalType": "string",
          "name": "_condicoes",
          "type": "string"
        },
        {
          "internalType": "uint256",
          "name": "_valorCobranca",
          "type": "uint256"
        },
        {
          "internalType": "uint256",
          "name": "_dataProxCobranca",
          "type": "uint256"
        },
        {
          "internalType": "uint256[]",
          "name": "_datasRecebimento",
          "type": "uint256[]"
        },
        {
          "internalType": "uint256[]",
          "name": "_valoresRecebimento",
          "type": "uint256[]"
        }
      ],
      "name": "addDono",
      "outputs": [],
      "stateMutability": "nonpayable",
      "type": "function"
    },
    {
      "inputs": [
        {
          "internalType": "address",
          "name": "_newUnion",
          "type": "address"
        }
      ],
      "name": "addOwnerUnion",
      "outputs": [],
      "stateMutability": "nonpayable",
      "type": "function"
    },
    {
      "inputs": [
        {
          "internalType": "uint256",
          "name": "",
          "type": "uint256"
        },
        {
          "internalType": "uint256",
          "name": "",
          "type": "uint256"
        }
      ],
      "name": "condicoes",
      "outputs": [
        {
          "internalType": "string",
          "name": "",
          "type": "string"
        }
      ],
      "stateMutability": "view",
      "type": "function"
    },
    {
      "inputs": [
        {
          "internalType": "uint256",
          "name": "",
          "type": "uint256"
        }
      ],
      "name": "dataProxCobranca",
      "outputs": [
        {
          "internalType": "uint256",
          "name": "",
          "type": "uint256"
        }
      ],
      "stateMutability": "view",
      "type": "function"
    },
    {
      "inputs": [
        {
          "internalType": "uint256",
          "name": "",
          "type": "uint256"
        }
      ],
      "name": "donos",
      "outputs": [
        {
          "internalType": "address",
          "name": "",
          "type": "address"
        }
      ],
      "stateMutability": "view",
      "type": "function"
    },
    {
      "inputs": [
        {
          "internalType": "uint256",
          "name": "",
          "type": "uint256"
        },
        {
          "internalType": "uint256",
          "name": "",
          "type": "uint256"
        }
      ],
      "name": "historicoRecebimento",
      "outputs": [
        {
          "internalType": "uint256",
          "name": "data",
          "type": "uint256"
        },
        {
          "internalType": "uint256",
          "name": "valor",
          "type": "uint256"
        }
      ],
      "stateMutability": "view",
      "type": "function"
    },
    {
      "inputs": [
        {
          "internalType": "uint256",
          "name": "",
          "type": "uint256"
        },
        {
          "internalType": "uint256",
          "name": "",
          "type": "uint256"
        }
      ],
      "name": "idAcoes",
      "outputs": [
        {
          "internalType": "string",
          "name": "",
          "type": "string"
        }
      ],
      "stateMutability": "view",
      "type": "function"
    },
    {
      "inputs": [],
      "name": "idPredio",
      "outputs": [
        {
          "internalType": "uint256",
          "name": "",
          "type": "uint256"
        }
      ],
      "stateMutability": "view",
      "type": "function"
    },
    {
      "inputs": [
        {
          "internalType": "address",
          "name": "",
          "type": "address"
        }
      ],
      "name": "owner",
      "outputs": [
        {
          "internalType": "bool",
          "name": "",
          "type": "bool"
        }
      ],
      "stateMutability": "view",
      "type": "function"
    },
    {
      "inputs": [
        {
          "internalType": "uint256",
          "name": "",
          "type": "uint256"
        }
      ],
      "name": "prazo",
      "outputs": [
        {
          "internalType": "uint256",
          "name": "",
          "type": "uint256"
        }
      ],
      "stateMutability": "view",
      "type": "function"
    },
    {
      "inputs": [
        {
          "internalType": "address",
          "name": "_dono",
          "type": "address"
        }
      ],
      "name": "removeDono",
      "outputs": [],
      "stateMutability": "nonpayable",
      "type": "function"
    },
    {
      "inputs": [
        {
          "internalType": "address",
          "name": "_unionMember",
          "type": "address"
        }
      ],
      "name": "removeOwnerUnion",
      "outputs": [],
      "stateMutability": "nonpayable",
      "type": "function"
    },
    {
      "inputs": [
        {
          "internalType": "uint256",
          "name": "",
          "type": "uint256"
        }
      ],
      "name": "status",
      "outputs": [
        {
          "internalType": "bool",
          "name": "",
          "type": "bool"
        }
      ],
      "stateMutability": "view",
      "type": "function"
    },
    {
      "inputs": [
        {
          "internalType": "address",
          "name": "_dono",
          "type": "address"
        },
        {
          "internalType": "string",
          "name": "_acao",
          "type": "string"
        }
      ],
      "name": "updateAcoes",
      "outputs": [],
      "stateMutability": "nonpayable",
      "type": "function"
    },
    {
      "inputs": [
        {
          "internalType": "address",
          "name": "_dono",
          "type": "address"
        },
        {
          "internalType": "string",
          "name": "_condicao",
          "type": "string"
        }
      ],
      "name": "updateCondicoes",
      "outputs": [],
      "stateMutability": "nonpayable",
      "type": "function"
    },
    {
      "inputs": [
        {
          "internalType": "address",
          "name": "_dono",
          "type": "address"
        },
        {
          "internalType": "uint256",
          "name": "_newDataProxCobranca",
          "type": "uint256"
        }
      ],
      "name": "updateDataProxCobranca",
      "outputs": [],
      "stateMutability": "nonpayable",
      "type": "function"
    },
    {
      "inputs": [
        {
          "internalType": "address",
          "name": "_dono",
          "type": "address"
        },
        {
          "internalType": "uint256",
          "name": "_dataRecebimento",
          "type": "uint256"
        },
        {
          "internalType": "uint256",
          "name": "_valorRecebimento",
          "type": "uint256"
        }
      ],
      "name": "updateHistoricoRecebimento",
      "outputs": [],
      "stateMutability": "nonpayable",
      "type": "function"
    },
    {
      "inputs": [
        {
          "internalType": "address",
          "name": "_dono",
          "type": "address"
        },
        {
          "internalType": "uint256",
          "name": "_newPrazo",
          "type": "uint256"
        }
      ],
      "name": "updatePrazo",
      "outputs": [],
      "stateMutability": "nonpayable",
      "type": "function"
    },
    {
      "inputs": [
        {
          "internalType": "address",
          "name": "_dono",
          "type": "address"
        },
        {
          "internalType": "bool",
          "name": "_newStatus",
          "type": "bool"
        }
      ],
      "name": "updateStatus",
      "outputs": [],
      "stateMutability": "nonpayable",
      "type": "function"
    },
    {
      "inputs": [
        {
          "internalType": "address",
          "name": "_dono",
          "type": "address"
        },
        {
          "internalType": "uint256",
          "name": "_newValorCobranca",
          "type": "uint256"
        }
      ],
      "name": "updateValorCobranca",
      "outputs": [],
      "stateMutability": "nonpayable",
      "type": "function"
    },
    {
      "inputs": [
        {
          "internalType": "uint256",
          "name": "",
          "type": "uint256"
        }
      ],
      "name": "valorCobranca",
      "outputs": [
        {
          "internalType": "uint256",
          "name": "",
          "type": "uint256"
        }
      ],
      "stateMutability": "view",
      "type": "function"
    }
  ],
  "bytecode": "0x60806040523480156200001157600080fd5b5060405162003bb538038062003bb5833981810160405281019062000037919062000c95565b865182828951888b5160005b818110156200008a57600080806001815401808255809150506001900390600052602060002001600090919091909150558080620000819062000ed1565b91505062000043565b505060005b82811015620001135760026000828152602001908152602001600020828281518110620000c157620000c062000f1e565b5b6020026020010151908060018154018082558091505060019003906000526020600020016000909190919091509081620000fc91906200118e565b5080806200010a9062000ed1565b9150506200008f565b50505060005b83811015620002545760005b8382815181106200013b576200013a62000f1e565b5b6020026020010151518110156200023d5760036000838152602001908152602001600020604051806040016040528086858151811062000180576200017f62000f1e565b5b602002602001015184815181106200019d576200019c62000f1e565b5b60200260200101518152602001858581518110620001c057620001bf62000f1e565b5b60200260200101518481518110620001dd57620001dc62000f1e565b5b60200260200101518152509080600181540180825580915050600190039060005260206000209060020201600090919091909150600082015181600001556020820151816001015550508080620002349062000ed1565b91505062000125565b5080806200024b9062000ed1565b91505062000119565b5050505060005b8a51811015620002f0576001600460008d848151811062000281576200028062000f1e565b5b602002602001015173ffffffffffffffffffffffffffffffffffffffff1673ffffffffffffffffffffffffffffffffffffffff16815260200190815260200160002060006101000a81548160ff0219169083151502179055508080620002e79062000ed1565b9150506200025b565b5086600690805190602001906200030992919062000403565b508860058190555087600790805190602001906200032992919062000492565b50856008908051906020019062000342929190620004e4565b5060005b8751811015620003f257600985828151811062000368576200036762000f1e565b5b60200260200101519080600181540180825580915050600190039060005260206000200160009091909190915055600a848281518110620003ae57620003ad62000f1e565b5b602002602001015190806001815401808255809150506001900390600052602060002001600090919091909150558080620003e99062000ed1565b91505062000346565b505050505050505050505062001275565b8280548282559060005260206000209081019282156200047f579160200282015b828111156200047e5782518260006101000a81548173ffffffffffffffffffffffffffffffffffffffff021916908373ffffffffffffffffffffffffffffffffffffffff1602179055509160200191906001019062000424565b5b5090506200048e919062000591565b5090565b828054828255906000526020600020908101928215620004d1579160200282015b82811115620004d0578251825591602001919060010190620004b3565b5b509050620004e0919062000591565b5090565b82805482825590600052602060002090601f016020900481019282156200057e5791602002820160005b838211156200054d57835183826101000a81548160ff02191690831515021790555092602001926001016020816000010492830192600103026200050e565b80156200057c5782816101000a81549060ff02191690556001016020816000010492830192600103026200054d565b505b5090506200058d919062000591565b5090565b5b80821115620005ac57600081600090555060010162000592565b5090565b6000604051905090565b600080fd5b600080fd5b600080fd5b6000601f19601f8301169050919050565b7f4e487b7100000000000000000000000000000000000000000000000000000000600052604160045260246000fd5b6200061482620005c9565b810181811067ffffffffffffffff82111715620006365762000635620005da565b5b80604052505050565b60006200064b620005b0565b905062000659828262000609565b919050565b600067ffffffffffffffff8211156200067c576200067b620005da565b5b602082029050602081019050919050565b600080fd5b600073ffffffffffffffffffffffffffffffffffffffff82169050919050565b6000620006bf8262000692565b9050919050565b620006d181620006b2565b8114620006dd57600080fd5b50565b600081519050620006f181620006c6565b92915050565b60006200070e62000708846200065e565b6200063f565b905080838252602082019050602084028301858111156200073457620007336200068d565b5b835b818110156200076157806200074c8882620006e0565b84526020840193505060208101905062000736565b5050509392505050565b600082601f830112620007835762000782620005c4565b5b815162000795848260208601620006f7565b91505092915050565b6000819050919050565b620007b3816200079e565b8114620007bf57600080fd5b50565b600081519050620007d381620007a8565b92915050565b600067ffffffffffffffff821115620007f757620007f6620005da565b5b602082029050602081019050919050565b60006200081f6200081984620007d9565b6200063f565b905080838252602082019050602084028301858111156200084557620008446200068d565b5b835b818110156200087257806200085d8882620007c2565b84526020840193505060208101905062000847565b5050509392505050565b600082601f830112620008945762000893620005c4565b5b8151620008a684826020860162000808565b91505092915050565b600067ffffffffffffffff821115620008cd57620008cc620005da565b5b602082029050602081019050919050565b60008115159050919050565b620008f581620008de565b81146200090157600080fd5b50565b6000815190506200091581620008ea565b92915050565b6000620009326200092c84620008af565b6200063f565b905080838252602082019050602084028301858111156200095857620009576200068d565b5b835b8181101562000985578062000970888262000904565b8452602084019350506020810190506200095a565b5050509392505050565b600082601f830112620009a757620009a6620005c4565b5b8151620009b98482602086016200091b565b91505092915050565b600067ffffffffffffffff821115620009e057620009df620005da565b5b602082029050602081019050919050565b600080fd5b600067ffffffffffffffff82111562000a145762000a13620005da565b5b62000a1f82620005c9565b9050602081019050919050565b60005b8381101562000a4c57808201518184015260208101905062000a2f565b60008484015250505050565b600062000a6f62000a6984620009f6565b6200063f565b90508281526020810184848401111562000a8e5762000a8d620009f1565b5b62000a9b84828562000a2c565b509392505050565b600082601f83011262000abb5762000aba620005c4565b5b815162000acd84826020860162000a58565b91505092915050565b600062000aed62000ae784620009c2565b6200063f565b9050808382526020820190506020840283018581111562000b135762000b126200068d565b5b835b8181101562000b6157805167ffffffffffffffff81111562000b3c5762000b3b620005c4565b5b80860162000b4b898262000aa3565b8552602085019450505060208101905062000b15565b5050509392505050565b600082601f83011262000b835762000b82620005c4565b5b815162000b9584826020860162000ad6565b91505092915050565b600067ffffffffffffffff82111562000bbc5762000bbb620005da565b5b602082029050602081019050919050565b600062000be462000bde8462000b9e565b6200063f565b9050808382526020820190506020840283018581111562000c0a5762000c096200068d565b5b835b8181101562000c5857805167ffffffffffffffff81111562000c335762000c32620005c4565b5b80860162000c4289826200087c565b8552602085019450505060208101905062000c0c565b5050509392505050565b600082601f83011262000c7a5762000c79620005c4565b5b815162000c8c84826020860162000bcd565b91505092915050565b6000806000806000806000806000806101408b8d03121562000cbc5762000cbb620005ba565b5b60008b015167ffffffffffffffff81111562000cdd5762000cdc620005bf565b5b62000ceb8d828e016200076b565b9a5050602062000cfe8d828e01620007c2565b99505060408b015167ffffffffffffffff81111562000d225762000d21620005bf565b5b62000d308d828e016200087c565b98505060608b015167ffffffffffffffff81111562000d545762000d53620005bf565b5b62000d628d828e016200076b565b97505060808b015167ffffffffffffffff81111562000d865762000d85620005bf565b5b62000d948d828e016200098f565b96505060a08b015167ffffffffffffffff81111562000db85762000db7620005bf565b5b62000dc68d828e0162000b6b565b95505060c08b015167ffffffffffffffff81111562000dea5762000de9620005bf565b5b62000df88d828e016200087c565b94505060e08b015167ffffffffffffffff81111562000e1c5762000e1b620005bf565b5b62000e2a8d828e016200087c565b9350506101008b015167ffffffffffffffff81111562000e4f5762000e4e620005bf565b5b62000e5d8d828e0162000c62565b9250506101208b015167ffffffffffffffff81111562000e825762000e81620005bf565b5b62000e908d828e0162000c62565b9150509295989b9194979a5092959850565b7f4e487b7100000000000000000000000000000000000000000000000000000000600052601160045260246000fd5b600062000ede826200079e565b91507fffffffffffffffffffffffffffffffffffffffffffffffffffffffffffffffff820362000f135762000f1262000ea2565b5b600182019050919050565b7f4e487b7100000000000000000000000000000000000000000000000000000000600052603260045260246000fd5b600081519050919050565b7f4e487b7100000000000000000000000000000000000000000000000000000000600052602260045260246000fd5b6000600282049050600182168062000fa057607f821691505b60208210810362000fb65762000fb562000f58565b5b50919050565b60008190508160005260206000209050919050565b60006020601f8301049050919050565b600082821b905092915050565b600060088302620010207fffffffffffffffffffffffffffffffffffffffffffffffffffffffffffffffff8262000fe1565b6200102c868362000fe1565b95508019841693508086168417925050509392505050565b6000819050919050565b60006200106f6200106962001063846200079e565b62001044565b6200079e565b9050919050565b6000819050919050565b6200108b836200104e565b620010a36200109a8262001076565b84845462000fee565b825550505050565b600090565b620010ba620010ab565b620010c781848462001080565b505050565b5b81811015620010ef57620010e3600082620010b0565b600181019050620010cd565b5050565b601f8211156200113e57620011088162000fbc565b620011138462000fd1565b8101602085101562001123578190505b6200113b620011328562000fd1565b830182620010cc565b50505b505050565b600082821c905092915050565b6000620011636000198460080262001143565b1980831691505092915050565b60006200117e838362001150565b9150826002028217905092915050565b620011998262000f4d565b67ffffffffffffffff811115620011b557620011b4620005da565b5b620011c1825462000f87565b620011ce828285620010f3565b600060209050601f831160018114620012065760008415620011f1578287015190505b620011fd858262001170565b8655506200126d565b601f198416620012168662000fbc565b60005b82811015620012405784890151825560018201915060208501945060208101905062001219565b868310156200126057848901516200125c601f89168262001150565b8355505b6001600288020188555050505b505050505050565b61293080620012856000396000f3fe608060405234801561001057600080fd5b50600436106101425760003560e01c80637444144b116100b8578063bc0f21e91161007c578063bc0f21e914610393578063d29927cf146103af578063d6d819ee146103cd578063da87fc8a146103fd578063eabfedca14610419578063f7b865161461044957610142565b80637444144b146103075780638b2b47b3146103235780638c3151be1461033f5780639e8004ee1461035b578063a7adad031461037757610142565b806342d21ef71161010a57806342d21ef7146102235780634b38b1971461025357806350541cd61461026f57806352b20ce71461028b578063666e1b39146102a757806371435955146102d757610142565b806308883fa0146101475780632bc758ff146101775780632bcda3d4146101a75780632f1e8a92146101c357806337805d53146101f3575b600080fd5b610161600480360381019061015c9190611d8e565b61047a565b60405161016e9190611dca565b60405180910390f35b610191600480360381019061018c9190611de5565b61049e565b60405161019e9190611eb5565b60405180910390f35b6101c160048036038101906101bc919061206a565b61054b565b005b6101dd60048036038101906101d89190611d8e565b610685565b6040516101ea9190611dca565b60405180910390f35b61020d60048036038101906102089190611d8e565b6106a9565b60405161021a9190611dca565b60405180910390f35b61023d60048036038101906102389190611d8e565b6106cd565b60405161024a91906120e1565b60405180910390f35b61026d6004803603810190610268919061206a565b610701565b005b610289600480360381019061028491906120fc565b61083b565b005b6102a560048036038101906102a09190612129565b610ccc565b005b6102c160048036038101906102bc91906120fc565b610e15565b6040516102ce91906120e1565b60405180910390f35b6102f160048036038101906102ec9190611d8e565b610e35565b6040516102fe9190611dca565b60405180910390f35b610321600480360381019061031c9190612195565b610e59565b005b61033d60048036038101906103389190612129565b610fbd565b005b610359600480360381019061035491906120fc565b611106565b005b6103756004803603810190610370919061229d565b6111ed565b005b610391600480360381019061038c9190612129565b6113c4565b005b6103ad60048036038101906103a891906123a7565b61150d565b005b6103b7611640565b6040516103c49190611dca565b60405180910390f35b6103e760048036038101906103e29190611de5565b611646565b6040516103f49190611eb5565b60405180910390f35b610417600480360381019061041291906120fc565b6116ff565b005b610433600480360381019061042e9190611d8e565b6117e6565b6040516104409190612409565b60405180910390f35b610463600480360381019061045e9190611de5565b611825565b604051610471929190612424565b60405180910390f35b600a818154811061048a57600080fd5b906000526020600020016000915090505481565b60016020528160005260406000206020528060005260406000206000915091505080546104ca9061247c565b80601f01602080910402602001604051908101604052809291908181526020018280546104f69061247c565b80156105435780601f1061051857610100808354040283529160200191610543565b820191906000526020600020905b81548152906001019060200180831161052657829003601f168201915b505050505081565b600460003373ffffffffffffffffffffffffffffffffffffffff1673ffffffffffffffffffffffffffffffffffffffff16815260200190815260200160002060009054906101000a900460ff166105d7576040517f08c379a00000000000000000000000000000000000000000000000000000000081526004016105ce9061251f565b60405180910390fd5b600080600090505b600680549050811015610674578373ffffffffffffffffffffffffffffffffffffffff16600682815481106106175761061661253f565b5b9060005260206000200160009054906101000a900473ffffffffffffffffffffffffffffffffffffffff1673ffffffffffffffffffffffffffffffffffffffff1603610661578091505b808061066c9061259d565b9150506105df565b5061067f8183611866565b50505050565b6007818154811061069557600080fd5b906000526020600020016000915090505481565b600081815481106106b957600080fd5b906000526020600020016000915090505481565b600881815481106106dd57600080fd5b9060005260206000209060209182820401919006915054906101000a900460ff1681565b600460003373ffffffffffffffffffffffffffffffffffffffff1673ffffffffffffffffffffffffffffffffffffffff16815260200190815260200160002060009054906101000a900460ff1661078d576040517f08c379a00000000000000000000000000000000000000000000000000000000081526004016107849061251f565b60405180910390fd5b600080600090505b60068054905081101561082a578373ffffffffffffffffffffffffffffffffffffffff16600682815481106107cd576107cc61253f565b5b9060005260206000200160009054906101000a900473ffffffffffffffffffffffffffffffffffffffff1673ffffffffffffffffffffffffffffffffffffffff1603610817578091505b80806108229061259d565b915050610795565b5061083581836118b8565b50505050565b600460003373ffffffffffffffffffffffffffffffffffffffff1673ffffffffffffffffffffffffffffffffffffffff16815260200190815260200160002060009054906101000a900460ff166108c7576040517f08c379a00000000000000000000000000000000000000000000000000000000081526004016108be9061251f565b60405180910390fd5b60005b600680549050811015610bcd578173ffffffffffffffffffffffffffffffffffffffff16600682815481106109025761090161253f565b5b9060005260206000200160009054906101000a900473ffffffffffffffffffffffffffffffffffffffff1673ffffffffffffffffffffffffffffffffffffffff1603610bba5760008190505b600160068054905061096091906125e5565b811015610b8f5761097082611948565b5060066001826109809190612619565b815481106109915761099061253f565b5b9060005260206000200160009054906101000a900473ffffffffffffffffffffffffffffffffffffffff16600682815481106109d0576109cf61253f565b5b9060005260206000200160006101000a81548173ffffffffffffffffffffffffffffffffffffffff021916908373ffffffffffffffffffffffffffffffffffffffff1602179055506007600182610a279190612619565b81548110610a3857610a3761253f565b5b906000526020600020015460078281548110610a5757610a5661253f565b5b90600052602060002001819055506008600182610a749190612619565b81548110610a8557610a8461253f565b5b90600052602060002090602091828204019190069054906101000a900460ff1660088281548110610ab957610ab861253f565b5b90600052602060002090602091828204019190066101000a81548160ff0219169083151502179055506009600182610af19190612619565b81548110610b0257610b0161253f565b5b906000526020600020015460098281548110610b2157610b2061253f565b5b9060005260206000200181905550600a600182610b3e9190612619565b81548110610b4f57610b4e61253f565b5b9060005260206000200154600a8281548110610b6e57610b6d61253f565b5b90600052602060002001819055508080610b879061259d565b91505061094e565b50610b9981611a6a565b50600360008281526020019081526020016000206000610bb99190611c57565b5b8080610bc59061259d565b9150506108ca565b506006805480610be057610bdf61264d565b5b6001900381819060005260206000200160006101000a81549073ffffffffffffffffffffffffffffffffffffffff021916905590556007805480610c2757610c2661264d565b5b600190038181906000526020600020016000905590556008805480610c4f57610c4e61264d565b5b60019003818190600052602060002090602091828204019190066101000a81549060ff021916905590556009805480610c8b57610c8a61264d565b5b60019003818190600052602060002001600090559055600a805480610cb357610cb261264d565b5b6001900381819060005260206000200160009055905550565b600460003373ffffffffffffffffffffffffffffffffffffffff1673ffffffffffffffffffffffffffffffffffffffff16815260200190815260200160002060009054906101000a900460ff16610d58576040517f08c379a0000000000000000000000000000000000000000000000000000000008152600401610d4f9061251f565b60405180910390fd5b60005b600680549050811015610e10578273ffffffffffffffffffffffffffffffffffffffff1660068281548110610d9357610d9261253f565b5b9060005260206000200160009054906101000a900473ffffffffffffffffffffffffffffffffffffffff1673ffffffffffffffffffffffffffffffffffffffff1603610dfd5781600a8281548110610dee57610ded61253f565b5b90600052602060002001819055505b8080610e089061259d565b915050610d5b565b505050565b60046020528060005260406000206000915054906101000a900460ff1681565b60098181548110610e4557600080fd5b906000526020600020016000915090505481565b600460003373ffffffffffffffffffffffffffffffffffffffff1673ffffffffffffffffffffffffffffffffffffffff16815260200190815260200160002060009054906101000a900460ff16610ee5576040517f08c379a0000000000000000000000000000000000000000000000000000000008152600401610edc9061251f565b60405180910390fd5b60005b600680549050811015610fb8578273ffffffffffffffffffffffffffffffffffffffff1660068281548110610f2057610f1f61253f565b5b9060005260206000200160009054906101000a900473ffffffffffffffffffffffffffffffffffffffff1673ffffffffffffffffffffffffffffffffffffffff1603610fa5578160088281548110610f7b57610f7a61253f565b5b90600052602060002090602091828204019190066101000a81548160ff0219169083151502179055505b8080610fb09061259d565b915050610ee8565b505050565b600460003373ffffffffffffffffffffffffffffffffffffffff1673ffffffffffffffffffffffffffffffffffffffff16815260200190815260200160002060009054906101000a900460ff16611049576040517f08c379a00000000000000000000000000000000000000000000000000000000081526004016110409061251f565b60405180910390fd5b60005b600680549050811015611101578273ffffffffffffffffffffffffffffffffffffffff16600682815481106110845761108361253f565b5b9060005260206000200160009054906101000a900473ffffffffffffffffffffffffffffffffffffffff1673ffffffffffffffffffffffffffffffffffffffff16036110ee5781600982815481106110df576110de61253f565b5b90600052602060002001819055505b80806110f99061259d565b91505061104c565b505050565b600460003373ffffffffffffffffffffffffffffffffffffffff1673ffffffffffffffffffffffffffffffffffffffff16815260200190815260200160002060009054906101000a900460ff16611192576040517f08c379a00000000000000000000000000000000000000000000000000000000081526004016111899061251f565b60405180910390fd5b6000600460008373ffffffffffffffffffffffffffffffffffffffff1673ffffffffffffffffffffffffffffffffffffffff16815260200190815260200160002060006101000a81548160ff02191690831515021790555050565b600460003373ffffffffffffffffffffffffffffffffffffffff1673ffffffffffffffffffffffffffffffffffffffff16815260200190815260200160002060009054906101000a900460ff16611279576040517f08c379a00000000000000000000000000000000000000000000000000000000081526004016112709061251f565b60405180910390fd5b600060068054905090506006899080600181540180825580915050600190039060005260206000200160009091909190916101000a81548173ffffffffffffffffffffffffffffffffffffffff021916908373ffffffffffffffffffffffffffffffffffffffff160217905550600788908060018154018082558091505060019003906000526020600020016000909190919091505560088790806001815401808255809150506001900390600052602060002090602091828204019190069091909190916101000a81548160ff02191690831515021790555061135d8187611a94565b5084600982815481106113735761137261253f565b5b906000526020600020018190555083600a82815481106113965761139561253f565b5b90600052602060002001819055506113ac611ae6565b506113b8818484611b18565b50505050505050505050565b600460003373ffffffffffffffffffffffffffffffffffffffff1673ffffffffffffffffffffffffffffffffffffffff16815260200190815260200160002060009054906101000a900460ff16611450576040517f08c379a00000000000000000000000000000000000000000000000000000000081526004016114479061251f565b60405180910390fd5b60005b600680549050811015611508578273ffffffffffffffffffffffffffffffffffffffff166006828154811061148b5761148a61253f565b5b9060005260206000200160009054906101000a900473ffffffffffffffffffffffffffffffffffffffff1673ffffffffffffffffffffffffffffffffffffffff16036114f55781600782815481106114e6576114e561253f565b5b90600052602060002001819055505b80806115009061259d565b915050611453565b505050565b600460003373ffffffffffffffffffffffffffffffffffffffff1673ffffffffffffffffffffffffffffffffffffffff16815260200190815260200160002060009054906101000a900460ff16611599576040517f08c379a00000000000000000000000000000000000000000000000000000000081526004016115909061251f565b60405180910390fd5b60005b60068054905081101561163a578373ffffffffffffffffffffffffffffffffffffffff16600682815481106115d4576115d361253f565b5b9060005260206000200160009054906101000a900473ffffffffffffffffffffffffffffffffffffffff1673ffffffffffffffffffffffffffffffffffffffff160361162757611625818484611be3565b505b80806116329061259d565b91505061159c565b50505050565b60055481565b6002602052816000526040600020818154811061166257600080fd5b9060005260206000200160009150915050805461167e9061247c565b80601f01602080910402602001604051908101604052809291908181526020018280546116aa9061247c565b80156116f75780601f106116cc576101008083540402835291602001916116f7565b820191906000526020600020905b8154815290600101906020018083116116da57829003601f168201915b505050505081565b600460003373ffffffffffffffffffffffffffffffffffffffff1673ffffffffffffffffffffffffffffffffffffffff16815260200190815260200160002060009054906101000a900460ff1661178b576040517f08c379a00000000000000000000000000000000000000000000000000000000081526004016117829061251f565b60405180910390fd5b6001600460008373ffffffffffffffffffffffffffffffffffffffff1673ffffffffffffffffffffffffffffffffffffffff16815260200190815260200160002060006101000a81548160ff02191690831515021790555050565b600681815481106117f657600080fd5b906000526020600020016000915054906101000a900473ffffffffffffffffffffffffffffffffffffffff1681565b6003602052816000526040600020818154811061184157600080fd5b9060005260206000209060020201600091509150508060000154908060010154905082565b600060026000848152602001908152602001600020829080600181540180825580915050600190039060005260206000200160009091909190915090816118ad9190612828565b506001905092915050565b6000806001600085815481106118d1576118d061253f565b5b90600052602060002001546118e69190612619565b90508260016000868152602001908152602001600020600083815260200190815260200160002090816119199190612828565b50806000858154811061192f5761192e61253f565b5b9060005260206000200181905550600191505092915050565b600080600090505b600083815481106119645761196361253f565b5b906000526020600020015481116119b85760016000848152602001908152602001600020600082815260200190815260200160002060006119a59190611c7b565b80806119b09061259d565b915050611950565b5060008290505b60016000805490506119d191906125e5565b811015611a385760006001826119e79190612619565b815481106119f8576119f761253f565b5b906000526020600020015460008281548110611a1757611a1661253f565b5b90600052602060002001819055508080611a309061259d565b9150506119bf565b506000805480611a4b57611a4a61264d565b5b6001900381819060005260206000200160009055905560019050919050565b6000600260008381526020019081526020016000206000611a8b9190611cbb565b60019050919050565b60006002600084815260200190815260200160002082908060018154018082558091505060019003906000526020600020016000909190919091509081611adb9190612828565b506001905092915050565b600080600090806001815401808255809150506001900390600052602060002001600090919091909150556001905090565b600080600090505b8351811015611bd757600360008681526020019081526020016000206040518060400160405280868481518110611b5a57611b5961253f565b5b60200260200101518152602001858481518110611b7a57611b7961253f565b5b60200260200101518152509080600181540180825580915050600190039060005260206000209060020201600090919091909150600082015181600001556020820151816001015550508080611bcf9061259d565b915050611b20565b50600190509392505050565b600060036000858152602001908152602001600020604051806040016040528085815260200184815250908060018154018082558091505060019003906000526020600020906002020160009091909190915060008201518160000155602082015181600101555050600190509392505050565b5080546000825560020290600052602060002090810190611c789190611cdc565b50565b508054611c879061247c565b6000825580601f10611c995750611cb8565b601f016020900490600052602060002090810190611cb79190611d03565b5b50565b5080546000825590600052602060002090810190611cd99190611d20565b50565b5b80821115611cff57600080820160009055600182016000905550600201611cdd565b5090565b5b80821115611d1c576000816000905550600101611d04565b5090565b5b80821115611d405760008181611d379190611c7b565b50600101611d21565b5090565b6000604051905090565b600080fd5b600080fd5b6000819050919050565b611d6b81611d58565b8114611d7657600080fd5b50565b600081359050611d8881611d62565b92915050565b600060208284031215611da457611da3611d4e565b5b6000611db284828501611d79565b91505092915050565b611dc481611d58565b82525050565b6000602082019050611ddf6000830184611dbb565b92915050565b60008060408385031215611dfc57611dfb611d4e565b5b6000611e0a85828601611d79565b9250506020611e1b85828601611d79565b9150509250929050565b600081519050919050565b600082825260208201905092915050565b60005b83811015611e5f578082015181840152602081019050611e44565b60008484015250505050565b6000601f19601f8301169050919050565b6000611e8782611e25565b611e918185611e30565b9350611ea1818560208601611e41565b611eaa81611e6b565b840191505092915050565b60006020820190508181036000830152611ecf8184611e7c565b905092915050565b600073ffffffffffffffffffffffffffffffffffffffff82169050919050565b6000611f0282611ed7565b9050919050565b611f1281611ef7565b8114611f1d57600080fd5b50565b600081359050611f2f81611f09565b92915050565b600080fd5b600080fd5b7f4e487b7100000000000000000000000000000000000000000000000000000000600052604160045260246000fd5b611f7782611e6b565b810181811067ffffffffffffffff82111715611f9657611f95611f3f565b5b80604052505050565b6000611fa9611d44565b9050611fb58282611f6e565b919050565b600067ffffffffffffffff821115611fd557611fd4611f3f565b5b611fde82611e6b565b9050602081019050919050565b82818337600083830152505050565b600061200d61200884611fba565b611f9f565b90508281526020810184848401111561202957612028611f3a565b5b612034848285611feb565b509392505050565b600082601f83011261205157612050611f35565b5b8135612061848260208601611ffa565b91505092915050565b6000806040838503121561208157612080611d4e565b5b600061208f85828601611f20565b925050602083013567ffffffffffffffff8111156120b0576120af611d53565b5b6120bc8582860161203c565b9150509250929050565b60008115159050919050565b6120db816120c6565b82525050565b60006020820190506120f660008301846120d2565b92915050565b60006020828403121561211257612111611d4e565b5b600061212084828501611f20565b91505092915050565b600080604083850312156121405761213f611d4e565b5b600061214e85828601611f20565b925050602061215f85828601611d79565b9150509250929050565b612172816120c6565b811461217d57600080fd5b50565b60008135905061218f81612169565b92915050565b600080604083850312156121ac576121ab611d4e565b5b60006121ba85828601611f20565b92505060206121cb85828601612180565b9150509250929050565b600067ffffffffffffffff8211156121f0576121ef611f3f565b5b602082029050602081019050919050565b600080fd5b6000612219612214846121d5565b611f9f565b9050808382526020820190506020840283018581111561223c5761223b612201565b5b835b8181101561226557806122518882611d79565b84526020840193505060208101905061223e565b5050509392505050565b600082601f83011261228457612283611f35565b5b8135612294848260208601612206565b91505092915050565b600080600080600080600080610100898b0312156122be576122bd611d4e565b5b60006122cc8b828c01611f20565b98505060206122dd8b828c01611d79565b97505060406122ee8b828c01612180565b965050606089013567ffffffffffffffff81111561230f5761230e611d53565b5b61231b8b828c0161203c565b955050608061232c8b828c01611d79565b94505060a061233d8b828c01611d79565b93505060c089013567ffffffffffffffff81111561235e5761235d611d53565b5b61236a8b828c0161226f565b92505060e089013567ffffffffffffffff81111561238b5761238a611d53565b5b6123978b828c0161226f565b9150509295985092959890939650565b6000806000606084860312156123c0576123bf611d4e565b5b60006123ce86828701611f20565b93505060206123df86828701611d79565b92505060406123f086828701611d79565b9150509250925092565b61240381611ef7565b82525050565b600060208201905061241e60008301846123fa565b92915050565b60006040820190506124396000830185611dbb565b6124466020830184611dbb565b9392505050565b7f4e487b7100000000000000000000000000000000000000000000000000000000600052602260045260246000fd5b6000600282049050600182168061249457607f821691505b6020821081036124a7576124a661244d565b5b50919050565b7f596f7520646f6e742068617665207065726d697373696f6e20666f722074686960008201527f7320616374696f6e000000000000000000000000000000000000000000000000602082015250565b6000612509602883611e30565b9150612514826124ad565b604082019050919050565b60006020820190508181036000830152612538816124fc565b9050919050565b7f4e487b7100000000000000000000000000000000000000000000000000000000600052603260045260246000fd5b7f4e487b7100000000000000000000000000000000000000000000000000000000600052601160045260246000fd5b60006125a882611d58565b91507fffffffffffffffffffffffffffffffffffffffffffffffffffffffffffffffff82036125da576125d961256e565b5b600182019050919050565b60006125f082611d58565b91506125fb83611d58565b92508282039050818111156126135761261261256e565b5b92915050565b600061262482611d58565b915061262f83611d58565b92508282019050808211156126475761264661256e565b5b92915050565b7f4e487b7100000000000000000000000000000000000000000000000000000000600052603160045260246000fd5b60008190508160005260206000209050919050565b60006020601f8301049050919050565b600082821b905092915050565b6000600883026126de7fffffffffffffffffffffffffffffffffffffffffffffffffffffffffffffffff826126a1565b6126e886836126a1565b95508019841693508086168417925050509392505050565b6000819050919050565b600061272561272061271b84611d58565b612700565b611d58565b9050919050565b6000819050919050565b61273f8361270a565b61275361274b8261272c565b8484546126ae565b825550505050565b600090565b61276861275b565b612773818484612736565b505050565b5b818110156127975761278c600082612760565b600181019050612779565b5050565b601f8211156127dc576127ad8161267c565b6127b684612691565b810160208510156127c5578190505b6127d96127d185612691565b830182612778565b50505b505050565b600082821c905092915050565b60006127ff600019846008026127e1565b1980831691505092915050565b600061281883836127ee565b9150826002028217905092915050565b61283182611e25565b67ffffffffffffffff81111561284a57612849611f3f565b5b612854825461247c565b61285f82828561279b565b600060209050601f8311600181146128925760008415612880578287015190505b61288a858261280c565b8655506128f2565b601f1984166128a08661267c565b60005b828110156128c8578489015182556001820191506020850194506020810190506128a3565b868310156128e557848901516128e1601f8916826127ee565b8355505b6001600288020188555050505b50505050505056fea2646970667358221220861746d7dd7e67f34b09b56ba55ddbf215e5c4f61613fae891fd1a926faa878464736f6c63430008110033",
  "linkReferences": {},
  "deployedLinkReferences": {}
}