{
  "_format": "hh-sol-artifact-1",
  "contractName": "Imovel",
  "sourceName": "contracts/imovel.sol",
  "abi": [
    {
      "inputs": [
        {
          "internalType": "address[]",
          "name": "_owners",
          "type": "address[]"
        },
        {
          "internalType": "uint256",
          "name": "_idPredio",
          "type": "uint256"
        },
        {
          "internalType": "uint256[]",
          "name": "_prazo",
          "type": "uint256[]"
        },
        {
          "internalType": "address[]",
          "name": "_donos",
          "type": "address[]"
        },
        {
          "internalType": "bool[]",
          "name": "_status",
          "type": "bool[]"
        },
        {
          "internalType": "string[][]",
          "name": "_condicoes",
          "type": "string[][]"
        },
        {
          "internalType": "uint256[]",
          "name": "_valorCobranca",
          "type": "uint256[]"
        },
        {
          "internalType": "uint256[]",
          "name": "_dataProxCobranca",
          "type": "uint256[]"
        },
        {
          "internalType": "uint256[][]",
          "name": "_datasRecebimento",
          "type": "uint256[][]"
        },
        {
          "internalType": "uint256[][]",
          "name": "_valoresRecebimento",
          "type": "uint256[][]"
        }
      ],
      "stateMutability": "nonpayable",
      "type": "constructor"
    },
    {
      "inputs": [
        {
          "internalType": "uint256",
          "name": "",
          "type": "uint256"
        }
      ],
      "name": "acoesCount",
      "outputs": [
        {
          "internalType": "uint256",
          "name": "",
          "type": "uint256"
        }
      ],
      "stateMutability": "view",
      "type": "function"
    },
    {
      "inputs": [
        {
          "internalType": "address",
          "name": "_newDono",
          "type": "address"
        },
        {
          "internalType": "uint256",
          "name": "_prazo",
          "type": "uint256"
        },
        {
          "internalType": "bool",
          "name": "_status",
          "type": "bool"
        },
        {
          "internalType": "string[]",
          "name": "_condicoes",
          "type": "string[]"
        },
        {
          "internalType": "uint256",
          "name": "_valorCobranca",
          "type": "uint256"
        },
        {
          "internalType": "uint256",
          "name": "_dataProxCobranca",
          "type": "uint256"
        },
        {
          "internalType": "uint256[]",
          "name": "_datasRecebimento",
          "type": "uint256[]"
        },
        {
          "internalType": "uint256[]",
          "name": "_valoresRecebimento",
          "type": "uint256[]"
        }
      ],
      "name": "addDono",
      "outputs": [],
      "stateMutability": "nonpayable",
      "type": "function"
    },
    {
      "inputs": [
        {
          "internalType": "address",
          "name": "_newUnion",
          "type": "address"
        }
      ],
      "name": "addOwnerUnion",
      "outputs": [],
      "stateMutability": "nonpayable",
      "type": "function"
    },
    {
      "inputs": [
        {
          "internalType": "uint256",
          "name": "",
          "type": "uint256"
        },
        {
          "internalType": "uint256",
          "name": "",
          "type": "uint256"
        }
      ],
      "name": "condicoes",
      "outputs": [
        {
          "internalType": "string",
          "name": "",
          "type": "string"
        }
      ],
      "stateMutability": "view",
      "type": "function"
    },
    {
      "inputs": [
        {
          "internalType": "uint256",
          "name": "",
          "type": "uint256"
        }
      ],
      "name": "dataProxCobranca",
      "outputs": [
        {
          "internalType": "uint256",
          "name": "",
          "type": "uint256"
        }
      ],
      "stateMutability": "view",
      "type": "function"
    },
    {
      "inputs": [
        {
          "internalType": "uint256",
          "name": "",
          "type": "uint256"
        }
      ],
      "name": "donos",
      "outputs": [
        {
          "internalType": "address",
          "name": "",
          "type": "address"
        }
      ],
      "stateMutability": "view",
      "type": "function"
    },
    {
      "inputs": [
        {
          "internalType": "uint256",
          "name": "",
          "type": "uint256"
        },
        {
          "internalType": "uint256",
          "name": "",
          "type": "uint256"
        }
      ],
      "name": "historicoRecebimento",
      "outputs": [
        {
          "internalType": "uint256",
          "name": "data",
          "type": "uint256"
        },
        {
          "internalType": "uint256",
          "name": "valor",
          "type": "uint256"
        }
      ],
      "stateMutability": "view",
      "type": "function"
    },
    {
      "inputs": [
        {
          "internalType": "uint256",
          "name": "",
          "type": "uint256"
        },
        {
          "internalType": "uint256",
          "name": "",
          "type": "uint256"
        }
      ],
      "name": "idAcoes",
      "outputs": [
        {
          "internalType": "string",
          "name": "",
          "type": "string"
        }
      ],
      "stateMutability": "view",
      "type": "function"
    },
    {
      "inputs": [],
      "name": "idPredio",
      "outputs": [
        {
          "internalType": "uint256",
          "name": "",
          "type": "uint256"
        }
      ],
      "stateMutability": "view",
      "type": "function"
    },
    {
      "inputs": [
        {
          "internalType": "address",
          "name": "",
          "type": "address"
        }
      ],
      "name": "owner",
      "outputs": [
        {
          "internalType": "bool",
          "name": "",
          "type": "bool"
        }
      ],
      "stateMutability": "view",
      "type": "function"
    },
    {
      "inputs": [
        {
          "internalType": "uint256",
          "name": "",
          "type": "uint256"
        }
      ],
      "name": "prazo",
      "outputs": [
        {
          "internalType": "uint256",
          "name": "",
          "type": "uint256"
        }
      ],
      "stateMutability": "view",
      "type": "function"
    },
    {
      "inputs": [
        {
          "internalType": "address",
          "name": "_dono",
          "type": "address"
        }
      ],
      "name": "removeDono",
      "outputs": [],
      "stateMutability": "nonpayable",
      "type": "function"
    },
    {
      "inputs": [
        {
          "internalType": "address",
          "name": "_unionMember",
          "type": "address"
        }
      ],
      "name": "removeOwnerUnion",
      "outputs": [],
      "stateMutability": "nonpayable",
      "type": "function"
    },
    {
      "inputs": [
        {
          "internalType": "uint256",
          "name": "",
          "type": "uint256"
        }
      ],
      "name": "status",
      "outputs": [
        {
          "internalType": "bool",
          "name": "",
          "type": "bool"
        }
      ],
      "stateMutability": "view",
      "type": "function"
    },
    {
      "inputs": [
        {
          "internalType": "address",
          "name": "_dono",
          "type": "address"
        },
        {
          "internalType": "string",
          "name": "_acao",
          "type": "string"
        }
      ],
      "name": "updateAcoes",
      "outputs": [],
      "stateMutability": "nonpayable",
      "type": "function"
    },
    {
      "inputs": [
        {
          "internalType": "address",
          "name": "_dono",
          "type": "address"
        },
        {
          "internalType": "string",
          "name": "_condicao",
          "type": "string"
        }
      ],
      "name": "updateCondicoes",
      "outputs": [],
      "stateMutability": "nonpayable",
      "type": "function"
    },
    {
      "inputs": [
        {
          "internalType": "address",
          "name": "_dono",
          "type": "address"
        },
        {
          "internalType": "uint256",
          "name": "_newDataProxCobranca",
          "type": "uint256"
        }
      ],
      "name": "updateDataProxCobranca",
      "outputs": [],
      "stateMutability": "nonpayable",
      "type": "function"
    },
    {
      "inputs": [
        {
          "internalType": "address",
          "name": "_dono",
          "type": "address"
        },
        {
          "internalType": "uint256",
          "name": "_dataRecebimento",
          "type": "uint256"
        },
        {
          "internalType": "uint256",
          "name": "_valorRecebimento",
          "type": "uint256"
        }
      ],
      "name": "updateHistoricoRecebimento",
      "outputs": [],
      "stateMutability": "nonpayable",
      "type": "function"
    },
    {
      "inputs": [
        {
          "internalType": "address",
          "name": "_dono",
          "type": "address"
        },
        {
          "internalType": "uint256",
          "name": "_newPrazo",
          "type": "uint256"
        }
      ],
      "name": "updatePrazo",
      "outputs": [],
      "stateMutability": "nonpayable",
      "type": "function"
    },
    {
      "inputs": [
        {
          "internalType": "address",
          "name": "_dono",
          "type": "address"
        },
        {
          "internalType": "bool",
          "name": "_newStatus",
          "type": "bool"
        }
      ],
      "name": "updateStatus",
      "outputs": [],
      "stateMutability": "nonpayable",
      "type": "function"
    },
    {
      "inputs": [
        {
          "internalType": "address",
          "name": "_dono",
          "type": "address"
        },
        {
          "internalType": "uint256",
          "name": "_newValorCobranca",
          "type": "uint256"
        }
      ],
      "name": "updateValorCobranca",
      "outputs": [],
      "stateMutability": "nonpayable",
      "type": "function"
    },
    {
      "inputs": [
        {
          "internalType": "uint256",
          "name": "",
          "type": "uint256"
        }
      ],
      "name": "valorCobranca",
      "outputs": [
        {
          "internalType": "uint256",
          "name": "",
          "type": "uint256"
        }
      ],
      "stateMutability": "view",
      "type": "function"
    }
  ],
  "bytecode": "0x60806040523480156200001157600080fd5b5060405162003e2c38038062003e2c833981810160405281019062000037919062000e3c565b865182828951888b5160005b818110156200008a57600080806001815401808255809150506001900390600052602060002001600090919091909150558080620000819062001078565b91505062000043565b505060005b82811015620000f557818181518110620000ae57620000ad620010c5565b5b6020026020010151600260008381526020019081526020016000209080519060200190620000de929190620003e5565b508080620000ec9062001078565b9150506200008f565b50505060005b83811015620002365760005b8382815181106200011d576200011c620010c5565b5b6020026020010151518110156200021f57600360008381526020019081526020016000206040518060400160405280868581518110620001625762000161620010c5565b5b602002602001015184815181106200017f576200017e620010c5565b5b60200260200101518152602001858581518110620001a257620001a1620010c5565b5b60200260200101518481518110620001bf57620001be620010c5565b5b60200260200101518152509080600181540180825580915050600190039060005260206000209060020201600090919091909150600082015181600001556020820151816001015550508080620002169062001078565b91505062000107565b5080806200022d9062001078565b915050620000fb565b5050505060005b8a51811015620002d2576001600460008d8481518110620002635762000262620010c5565b5b602002602001015173ffffffffffffffffffffffffffffffffffffffff1673ffffffffffffffffffffffffffffffffffffffff16815260200190815260200160002060006101000a81548160ff0219169083151502179055508080620002c99062001078565b9150506200023d565b508660069080519060200190620002eb92919062000445565b508860058190555087600790805190602001906200030b929190620004d4565b5085600890805190602001906200032492919062000526565b5060005b8751811015620003d45760098582815181106200034a5762000349620010c5565b5b60200260200101519080600181540180825580915050600190039060005260206000200160009091909190915055600a84828151811062000390576200038f620010c5565b5b602002602001015190806001815401808255809150506001900390600052602060002001600090919091909150558080620003cb9062001078565b91505062000328565b50505050505050505050506200141c565b82805482825590600052602060002090810192821562000432579160200282015b828111156200043157825182908162000420919062001335565b509160200191906001019062000406565b5b509050620004419190620005d3565b5090565b828054828255906000526020600020908101928215620004c1579160200282015b82811115620004c05782518260006101000a81548173ffffffffffffffffffffffffffffffffffffffff021916908373ffffffffffffffffffffffffffffffffffffffff1602179055509160200191906001019062000466565b5b509050620004d09190620005fb565b5090565b82805482825590600052602060002090810192821562000513579160200282015b8281111562000512578251825591602001919060010190620004f5565b5b509050620005229190620005fb565b5090565b82805482825590600052602060002090601f01602090048101928215620005c05791602002820160005b838211156200058f57835183826101000a81548160ff021916908315150217905550926020019260010160208160000104928301926001030262000550565b8015620005be5782816101000a81549060ff02191690556001016020816000010492830192600103026200058f565b505b509050620005cf9190620005fb565b5090565b5b80821115620005f75760008181620005ed91906200061a565b50600101620005d4565b5090565b5b8082111562000616576000816000905550600101620005fc565b5090565b50805462000628906200112e565b6000825580601f106200063c57506200065d565b601f0160209004906000526020600020908101906200065c9190620005fb565b5b50565b6000604051905090565b600080fd5b600080fd5b600080fd5b6000601f19601f8301169050919050565b7f4e487b7100000000000000000000000000000000000000000000000000000000600052604160045260246000fd5b620006c48262000679565b810181811067ffffffffffffffff82111715620006e657620006e56200068a565b5b80604052505050565b6000620006fb62000660565b9050620007098282620006b9565b919050565b600067ffffffffffffffff8211156200072c576200072b6200068a565b5b602082029050602081019050919050565b600080fd5b600073ffffffffffffffffffffffffffffffffffffffff82169050919050565b60006200076f8262000742565b9050919050565b620007818162000762565b81146200078d57600080fd5b50565b600081519050620007a18162000776565b92915050565b6000620007be620007b8846200070e565b620006ef565b90508083825260208201905060208402830185811115620007e457620007e36200073d565b5b835b81811015620008115780620007fc888262000790565b845260208401935050602081019050620007e6565b5050509392505050565b600082601f83011262000833576200083262000674565b5b815162000845848260208601620007a7565b91505092915050565b6000819050919050565b62000863816200084e565b81146200086f57600080fd5b50565b600081519050620008838162000858565b92915050565b600067ffffffffffffffff821115620008a757620008a66200068a565b5b602082029050602081019050919050565b6000620008cf620008c98462000889565b620006ef565b90508083825260208201905060208402830185811115620008f557620008f46200073d565b5b835b818110156200092257806200090d888262000872565b845260208401935050602081019050620008f7565b5050509392505050565b600082601f83011262000944576200094362000674565b5b815162000956848260208601620008b8565b91505092915050565b600067ffffffffffffffff8211156200097d576200097c6200068a565b5b602082029050602081019050919050565b60008115159050919050565b620009a5816200098e565b8114620009b157600080fd5b50565b600081519050620009c5816200099a565b92915050565b6000620009e2620009dc846200095f565b620006ef565b9050808382526020820190506020840283018581111562000a085762000a076200073d565b5b835b8181101562000a35578062000a208882620009b4565b84526020840193505060208101905062000a0a565b5050509392505050565b600082601f83011262000a575762000a5662000674565b5b815162000a69848260208601620009cb565b91505092915050565b600067ffffffffffffffff82111562000a905762000a8f6200068a565b5b602082029050602081019050919050565b600067ffffffffffffffff82111562000abf5762000abe6200068a565b5b602082029050602081019050919050565b600080fd5b600067ffffffffffffffff82111562000af35762000af26200068a565b5b62000afe8262000679565b9050602081019050919050565b60005b8381101562000b2b57808201518184015260208101905062000b0e565b60008484015250505050565b600062000b4e62000b488462000ad5565b620006ef565b90508281526020810184848401111562000b6d5762000b6c62000ad0565b5b62000b7a84828562000b0b565b509392505050565b600082601f83011262000b9a5762000b9962000674565b5b815162000bac84826020860162000b37565b91505092915050565b600062000bcc62000bc68462000aa1565b620006ef565b9050808382526020820190506020840283018581111562000bf25762000bf16200073d565b5b835b8181101562000c4057805167ffffffffffffffff81111562000c1b5762000c1a62000674565b5b80860162000c2a898262000b82565b8552602085019450505060208101905062000bf4565b5050509392505050565b600082601f83011262000c625762000c6162000674565b5b815162000c7484826020860162000bb5565b91505092915050565b600062000c9462000c8e8462000a72565b620006ef565b9050808382526020820190506020840283018581111562000cba5762000cb96200073d565b5b835b8181101562000d0857805167ffffffffffffffff81111562000ce35762000ce262000674565b5b80860162000cf2898262000c4a565b8552602085019450505060208101905062000cbc565b5050509392505050565b600082601f83011262000d2a5762000d2962000674565b5b815162000d3c84826020860162000c7d565b91505092915050565b600067ffffffffffffffff82111562000d635762000d626200068a565b5b602082029050602081019050919050565b600062000d8b62000d858462000d45565b620006ef565b9050808382526020820190506020840283018581111562000db15762000db06200073d565b5b835b8181101562000dff57805167ffffffffffffffff81111562000dda5762000dd962000674565b5b80860162000de989826200092c565b8552602085019450505060208101905062000db3565b5050509392505050565b600082601f83011262000e215762000e2062000674565b5b815162000e3384826020860162000d74565b91505092915050565b6000806000806000806000806000806101408b8d03121562000e635762000e626200066a565b5b60008b015167ffffffffffffffff81111562000e845762000e836200066f565b5b62000e928d828e016200081b565b9a5050602062000ea58d828e0162000872565b99505060408b015167ffffffffffffffff81111562000ec95762000ec86200066f565b5b62000ed78d828e016200092c565b98505060608b015167ffffffffffffffff81111562000efb5762000efa6200066f565b5b62000f098d828e016200081b565b97505060808b015167ffffffffffffffff81111562000f2d5762000f2c6200066f565b5b62000f3b8d828e0162000a3f565b96505060a08b015167ffffffffffffffff81111562000f5f5762000f5e6200066f565b5b62000f6d8d828e0162000d12565b95505060c08b015167ffffffffffffffff81111562000f915762000f906200066f565b5b62000f9f8d828e016200092c565b94505060e08b015167ffffffffffffffff81111562000fc35762000fc26200066f565b5b62000fd18d828e016200092c565b9350506101008b015167ffffffffffffffff81111562000ff65762000ff56200066f565b5b620010048d828e0162000e09565b9250506101208b015167ffffffffffffffff8111156200102957620010286200066f565b5b620010378d828e0162000e09565b9150509295989b9194979a5092959850565b7f4e487b7100000000000000000000000000000000000000000000000000000000600052601160045260246000fd5b600062001085826200084e565b91507fffffffffffffffffffffffffffffffffffffffffffffffffffffffffffffffff8203620010ba57620010b962001049565b5b600182019050919050565b7f4e487b7100000000000000000000000000000000000000000000000000000000600052603260045260246000fd5b600081519050919050565b7f4e487b7100000000000000000000000000000000000000000000000000000000600052602260045260246000fd5b600060028204905060018216806200114757607f821691505b6020821081036200115d576200115c620010ff565b5b50919050565b60008190508160005260206000209050919050565b60006020601f8301049050919050565b600082821b905092915050565b600060088302620011c77fffffffffffffffffffffffffffffffffffffffffffffffffffffffffffffffff8262001188565b620011d3868362001188565b95508019841693508086168417925050509392505050565b6000819050919050565b600062001216620012106200120a846200084e565b620011eb565b6200084e565b9050919050565b6000819050919050565b6200123283620011f5565b6200124a62001241826200121d565b84845462001195565b825550505050565b600090565b6200126162001252565b6200126e81848462001227565b505050565b5b8181101562001296576200128a60008262001257565b60018101905062001274565b5050565b601f821115620012e557620012af8162001163565b620012ba8462001178565b81016020851015620012ca578190505b620012e2620012d98562001178565b83018262001273565b50505b505050565b600082821c905092915050565b60006200130a60001984600802620012ea565b1980831691505092915050565b6000620013258383620012f7565b9150826002028217905092915050565b6200134082620010f4565b67ffffffffffffffff8111156200135c576200135b6200068a565b5b6200136882546200112e565b620013758282856200129a565b600060209050601f831160018114620013ad576000841562001398578287015190505b620013a4858262001317565b86555062001414565b601f198416620013bd8662001163565b60005b82811015620013e757848901518255600182019150602085019450602081019050620013c0565b8683101562001407578489015162001403601f891682620012f7565b8355505b6001600288020188555050505b505050505050565b612a00806200142c6000396000f3fe608060405234801561001057600080fd5b50600436106101425760003560e01c806371435955116100b8578063bc0f21e91161007c578063bc0f21e914610393578063d29927cf146103af578063d6d819ee146103cd578063da87fc8a146103fd578063eabfedca14610419578063f7b865161461044957610142565b806371435955146102f35780637444144b146103235780638b2b47b31461033f5780638c3151be1461035b578063a7adad031461037757610142565b806342d21ef71161010a57806342d21ef7146102235780634b38b1971461025357806350541cd61461026f57806351b399fa1461028b57806352b20ce7146102a7578063666e1b39146102c357610142565b806308883fa0146101475780632bc758ff146101775780632bcda3d4146101a75780632f1e8a92146101c357806337805d53146101f3575b600080fd5b610161600480360381019061015c9190611db1565b61047a565b60405161016e9190611ded565b60405180910390f35b610191600480360381019061018c9190611e08565b61049e565b60405161019e9190611ed8565b60405180910390f35b6101c160048036038101906101bc919061208d565b61054b565b005b6101dd60048036038101906101d89190611db1565b610685565b6040516101ea9190611ded565b60405180910390f35b61020d60048036038101906102089190611db1565b6106a9565b60405161021a9190611ded565b60405180910390f35b61023d60048036038101906102389190611db1565b6106cd565b60405161024a9190612104565b60405180910390f35b61026d6004803603810190610268919061208d565b610701565b005b6102896004803603810190610284919061211f565b61083b565b005b6102a560048036038101906102a09190612321565b610cc0565b005b6102c160048036038101906102bc919061242b565b610e97565b005b6102dd60048036038101906102d8919061211f565b610fe0565b6040516102ea9190612104565b60405180910390f35b61030d60048036038101906103089190611db1565b611000565b60405161031a9190611ded565b60405180910390f35b61033d6004803603810190610338919061246b565b611024565b005b6103596004803603810190610354919061242b565b611188565b005b6103756004803603810190610370919061211f565b6112d1565b005b610391600480360381019061038c919061242b565b6113b8565b005b6103ad60048036038101906103a891906124ab565b611501565b005b6103b7611634565b6040516103c49190611ded565b60405180910390f35b6103e760048036038101906103e29190611e08565b61163a565b6040516103f49190611ed8565b60405180910390f35b6104176004803603810190610412919061211f565b6116f3565b005b610433600480360381019061042e9190611db1565b6117da565b604051610440919061250d565b60405180910390f35b610463600480360381019061045e9190611e08565b611819565b604051610471929190612528565b60405180910390f35b600a818154811061048a57600080fd5b906000526020600020016000915090505481565b60016020528160005260406000206020528060005260406000206000915091505080546104ca90612580565b80601f01602080910402602001604051908101604052809291908181526020018280546104f690612580565b80156105435780601f1061051857610100808354040283529160200191610543565b820191906000526020600020905b81548152906001019060200180831161052657829003601f168201915b505050505081565b600460003373ffffffffffffffffffffffffffffffffffffffff1673ffffffffffffffffffffffffffffffffffffffff16815260200190815260200160002060009054906101000a900460ff166105d7576040517f08c379a00000000000000000000000000000000000000000000000000000000081526004016105ce90612623565b60405180910390fd5b600080600090505b600680549050811015610674578373ffffffffffffffffffffffffffffffffffffffff166006828154811061061757610616612643565b5b9060005260206000200160009054906101000a900473ffffffffffffffffffffffffffffffffffffffff1673ffffffffffffffffffffffffffffffffffffffff1603610661578091505b808061066c906126a1565b9150506105df565b5061067f818361185a565b50505050565b6007818154811061069557600080fd5b906000526020600020016000915090505481565b600081815481106106b957600080fd5b906000526020600020016000915090505481565b600881815481106106dd57600080fd5b9060005260206000209060209182820401919006915054906101000a900460ff1681565b600460003373ffffffffffffffffffffffffffffffffffffffff1673ffffffffffffffffffffffffffffffffffffffff16815260200190815260200160002060009054906101000a900460ff1661078d576040517f08c379a000000000000000000000000000000000000000000000000000000000815260040161078490612623565b60405180910390fd5b600080600090505b60068054905081101561082a578373ffffffffffffffffffffffffffffffffffffffff16600682815481106107cd576107cc612643565b5b9060005260206000200160009054906101000a900473ffffffffffffffffffffffffffffffffffffffff1673ffffffffffffffffffffffffffffffffffffffff1603610817578091505b8080610822906126a1565b915050610795565b5061083581836118ac565b50505050565b600460003373ffffffffffffffffffffffffffffffffffffffff1673ffffffffffffffffffffffffffffffffffffffff16815260200190815260200160002060009054906101000a900460ff166108c7576040517f08c379a00000000000000000000000000000000000000000000000000000000081526004016108be90612623565b60405180910390fd5b60005b600680549050811015610bc1578173ffffffffffffffffffffffffffffffffffffffff166006828154811061090257610901612643565b5b9060005260206000200160009054906101000a900473ffffffffffffffffffffffffffffffffffffffff1673ffffffffffffffffffffffffffffffffffffffff1603610bae5760008190505b600680549050811015610b83576109648261193c565b50600660018261097491906126e9565b8154811061098557610984612643565b5b9060005260206000200160009054906101000a900473ffffffffffffffffffffffffffffffffffffffff16600682815481106109c4576109c3612643565b5b9060005260206000200160006101000a81548173ffffffffffffffffffffffffffffffffffffffff021916908373ffffffffffffffffffffffffffffffffffffffff1602179055506007600182610a1b91906126e9565b81548110610a2c57610a2b612643565b5b906000526020600020015460078281548110610a4b57610a4a612643565b5b90600052602060002001819055506008600182610a6891906126e9565b81548110610a7957610a78612643565b5b90600052602060002090602091828204019190069054906101000a900460ff1660088281548110610aad57610aac612643565b5b90600052602060002090602091828204019190066101000a81548160ff0219169083151502179055506009600182610ae591906126e9565b81548110610af657610af5612643565b5b906000526020600020015460098281548110610b1557610b14612643565b5b9060005260206000200181905550600a600182610b3291906126e9565b81548110610b4357610b42612643565b5b9060005260206000200154600a8281548110610b6257610b61612643565b5b90600052602060002001819055508080610b7b906126a1565b91505061094e565b50610b8d81611a52565b50600360008281526020019081526020016000206000610bad9190611c21565b5b8080610bb9906126a1565b9150506108ca565b506006805480610bd457610bd361271d565b5b6001900381819060005260206000200160006101000a81549073ffffffffffffffffffffffffffffffffffffffff021916905590556007805480610c1b57610c1a61271d565b5b600190038181906000526020600020016000905590556008805480610c4357610c4261271d565b5b60019003818190600052602060002090602091828204019190066101000a81549060ff021916905590556009805480610c7f57610c7e61271d565b5b60019003818190600052602060002001600090559055600a805480610ca757610ca661271d565b5b6001900381819060005260206000200160009055905550565b600460003373ffffffffffffffffffffffffffffffffffffffff1673ffffffffffffffffffffffffffffffffffffffff16815260200190815260200160002060009054906101000a900460ff16610d4c576040517f08c379a0000000000000000000000000000000000000000000000000000000008152600401610d4390612623565b60405180910390fd5b600060068054905090506006899080600181540180825580915050600190039060005260206000200160009091909190916101000a81548173ffffffffffffffffffffffffffffffffffffffff021916908373ffffffffffffffffffffffffffffffffffffffff160217905550600788908060018154018082558091505060019003906000526020600020016000909190919091505560088790806001815401808255809150506001900390600052602060002090602091828204019190069091909190916101000a81548160ff021916908315150217905550610e308187611a7c565b508460098281548110610e4657610e45612643565b5b906000526020600020018190555083600a8281548110610e6957610e68612643565b5b9060005260206000200181905550610e7f611ab0565b50610e8b818484611ae2565b50505050505050505050565b600460003373ffffffffffffffffffffffffffffffffffffffff1673ffffffffffffffffffffffffffffffffffffffff16815260200190815260200160002060009054906101000a900460ff16610f23576040517f08c379a0000000000000000000000000000000000000000000000000000000008152600401610f1a90612623565b60405180910390fd5b60005b600680549050811015610fdb578273ffffffffffffffffffffffffffffffffffffffff1660068281548110610f5e57610f5d612643565b5b9060005260206000200160009054906101000a900473ffffffffffffffffffffffffffffffffffffffff1673ffffffffffffffffffffffffffffffffffffffff1603610fc85781600a8281548110610fb957610fb8612643565b5b90600052602060002001819055505b8080610fd3906126a1565b915050610f26565b505050565b60046020528060005260406000206000915054906101000a900460ff1681565b6009818154811061101057600080fd5b906000526020600020016000915090505481565b600460003373ffffffffffffffffffffffffffffffffffffffff1673ffffffffffffffffffffffffffffffffffffffff16815260200190815260200160002060009054906101000a900460ff166110b0576040517f08c379a00000000000000000000000000000000000000000000000000000000081526004016110a790612623565b60405180910390fd5b60005b600680549050811015611183578273ffffffffffffffffffffffffffffffffffffffff16600682815481106110eb576110ea612643565b5b9060005260206000200160009054906101000a900473ffffffffffffffffffffffffffffffffffffffff1673ffffffffffffffffffffffffffffffffffffffff160361117057816008828154811061114657611145612643565b5b90600052602060002090602091828204019190066101000a81548160ff0219169083151502179055505b808061117b906126a1565b9150506110b3565b505050565b600460003373ffffffffffffffffffffffffffffffffffffffff1673ffffffffffffffffffffffffffffffffffffffff16815260200190815260200160002060009054906101000a900460ff16611214576040517f08c379a000000000000000000000000000000000000000000000000000000000815260040161120b90612623565b60405180910390fd5b60005b6006805490508110156112cc578273ffffffffffffffffffffffffffffffffffffffff166006828154811061124f5761124e612643565b5b9060005260206000200160009054906101000a900473ffffffffffffffffffffffffffffffffffffffff1673ffffffffffffffffffffffffffffffffffffffff16036112b95781600982815481106112aa576112a9612643565b5b90600052602060002001819055505b80806112c4906126a1565b915050611217565b505050565b600460003373ffffffffffffffffffffffffffffffffffffffff1673ffffffffffffffffffffffffffffffffffffffff16815260200190815260200160002060009054906101000a900460ff1661135d576040517f08c379a000000000000000000000000000000000000000000000000000000000815260040161135490612623565b60405180910390fd5b6000600460008373ffffffffffffffffffffffffffffffffffffffff1673ffffffffffffffffffffffffffffffffffffffff16815260200190815260200160002060006101000a81548160ff02191690831515021790555050565b600460003373ffffffffffffffffffffffffffffffffffffffff1673ffffffffffffffffffffffffffffffffffffffff16815260200190815260200160002060009054906101000a900460ff16611444576040517f08c379a000000000000000000000000000000000000000000000000000000000815260040161143b90612623565b60405180910390fd5b60005b6006805490508110156114fc578273ffffffffffffffffffffffffffffffffffffffff166006828154811061147f5761147e612643565b5b9060005260206000200160009054906101000a900473ffffffffffffffffffffffffffffffffffffffff1673ffffffffffffffffffffffffffffffffffffffff16036114e95781600782815481106114da576114d9612643565b5b90600052602060002001819055505b80806114f4906126a1565b915050611447565b505050565b600460003373ffffffffffffffffffffffffffffffffffffffff1673ffffffffffffffffffffffffffffffffffffffff16815260200190815260200160002060009054906101000a900460ff1661158d576040517f08c379a000000000000000000000000000000000000000000000000000000000815260040161158490612623565b60405180910390fd5b60005b60068054905081101561162e578373ffffffffffffffffffffffffffffffffffffffff16600682815481106115c8576115c7612643565b5b9060005260206000200160009054906101000a900473ffffffffffffffffffffffffffffffffffffffff1673ffffffffffffffffffffffffffffffffffffffff160361161b57611619818484611bad565b505b8080611626906126a1565b915050611590565b50505050565b60055481565b6002602052816000526040600020818154811061165657600080fd5b9060005260206000200160009150915050805461167290612580565b80601f016020809104026020016040519081016040528092919081815260200182805461169e90612580565b80156116eb5780601f106116c0576101008083540402835291602001916116eb565b820191906000526020600020905b8154815290600101906020018083116116ce57829003601f168201915b505050505081565b600460003373ffffffffffffffffffffffffffffffffffffffff1673ffffffffffffffffffffffffffffffffffffffff16815260200190815260200160002060009054906101000a900460ff1661177f576040517f08c379a000000000000000000000000000000000000000000000000000000000815260040161177690612623565b60405180910390fd5b6001600460008373ffffffffffffffffffffffffffffffffffffffff1673ffffffffffffffffffffffffffffffffffffffff16815260200190815260200160002060006101000a81548160ff02191690831515021790555050565b600681815481106117ea57600080fd5b906000526020600020016000915054906101000a900473ffffffffffffffffffffffffffffffffffffffff1681565b6003602052816000526040600020818154811061183557600080fd5b9060005260206000209060020201600091509150508060000154908060010154905082565b600060026000848152602001908152602001600020829080600181540180825580915050600190039060005260206000200160009091909190915090816118a191906128f8565b506001905092915050565b6000806001600085815481106118c5576118c4612643565b5b90600052602060002001546118da91906126e9565b905082600160008681526020019081526020016000206000838152602001908152602001600020908161190d91906128f8565b50806000858154811061192357611922612643565b5b9060005260206000200181905550600191505092915050565b600080600090505b6000838154811061195857611957612643565b5b906000526020600020015481116119ac5760016000848152602001908152602001600020600082815260200190815260200160002060006119999190611c45565b80806119a4906126a1565b915050611944565b5060008290505b600080549050811015611a205760006001826119cf91906126e9565b815481106119e0576119df612643565b5b9060005260206000200154600082815481106119ff576119fe612643565b5b90600052602060002001819055508080611a18906126a1565b9150506119b3565b506000805480611a3357611a3261271d565b5b6001900381819060005260206000200160009055905560019050919050565b6000600260008381526020019081526020016000206000611a739190611c85565b60019050919050565b600081600260008581526020019081526020016000209080519060200190611aa5929190611ca6565b506001905092915050565b600080600090806001815401808255809150506001900390600052602060002001600090919091909150556001905090565b600080600090505b8351811015611ba157600360008681526020019081526020016000206040518060400160405280868481518110611b2457611b23612643565b5b60200260200101518152602001858481518110611b4457611b43612643565b5b60200260200101518152509080600181540180825580915050600190039060005260206000209060020201600090919091909150600082015181600001556020820151816001015550508080611b99906126a1565b915050611aea565b50600190509392505050565b600060036000858152602001908152602001600020604051806040016040528085815260200184815250908060018154018082558091505060019003906000526020600020906002020160009091909190915060008201518160000155602082015181600101555050600190509392505050565b5080546000825560020290600052602060002090810190611c429190611cff565b50565b508054611c5190612580565b6000825580601f10611c635750611c82565b601f016020900490600052602060002090810190611c819190611d26565b5b50565b5080546000825590600052602060002090810190611ca39190611d43565b50565b828054828255906000526020600020908101928215611cee579160200282015b82811115611ced578251829081611cdd91906128f8565b5091602001919060010190611cc6565b5b509050611cfb9190611d43565b5090565b5b80821115611d2257600080820160009055600182016000905550600201611d00565b5090565b5b80821115611d3f576000816000905550600101611d27565b5090565b5b80821115611d635760008181611d5a9190611c45565b50600101611d44565b5090565b6000604051905090565b600080fd5b600080fd5b6000819050919050565b611d8e81611d7b565b8114611d9957600080fd5b50565b600081359050611dab81611d85565b92915050565b600060208284031215611dc757611dc6611d71565b5b6000611dd584828501611d9c565b91505092915050565b611de781611d7b565b82525050565b6000602082019050611e026000830184611dde565b92915050565b60008060408385031215611e1f57611e1e611d71565b5b6000611e2d85828601611d9c565b9250506020611e3e85828601611d9c565b9150509250929050565b600081519050919050565b600082825260208201905092915050565b60005b83811015611e82578082015181840152602081019050611e67565b60008484015250505050565b6000601f19601f8301169050919050565b6000611eaa82611e48565b611eb48185611e53565b9350611ec4818560208601611e64565b611ecd81611e8e565b840191505092915050565b60006020820190508181036000830152611ef28184611e9f565b905092915050565b600073ffffffffffffffffffffffffffffffffffffffff82169050919050565b6000611f2582611efa565b9050919050565b611f3581611f1a565b8114611f4057600080fd5b50565b600081359050611f5281611f2c565b92915050565b600080fd5b600080fd5b7f4e487b7100000000000000000000000000000000000000000000000000000000600052604160045260246000fd5b611f9a82611e8e565b810181811067ffffffffffffffff82111715611fb957611fb8611f62565b5b80604052505050565b6000611fcc611d67565b9050611fd88282611f91565b919050565b600067ffffffffffffffff821115611ff857611ff7611f62565b5b61200182611e8e565b9050602081019050919050565b82818337600083830152505050565b600061203061202b84611fdd565b611fc2565b90508281526020810184848401111561204c5761204b611f5d565b5b61205784828561200e565b509392505050565b600082601f83011261207457612073611f58565b5b813561208484826020860161201d565b91505092915050565b600080604083850312156120a4576120a3611d71565b5b60006120b285828601611f43565b925050602083013567ffffffffffffffff8111156120d3576120d2611d76565b5b6120df8582860161205f565b9150509250929050565b60008115159050919050565b6120fe816120e9565b82525050565b600060208201905061211960008301846120f5565b92915050565b60006020828403121561213557612134611d71565b5b600061214384828501611f43565b91505092915050565b612155816120e9565b811461216057600080fd5b50565b6000813590506121728161214c565b92915050565b600067ffffffffffffffff82111561219357612192611f62565b5b602082029050602081019050919050565b600080fd5b60006121bc6121b784612178565b611fc2565b905080838252602082019050602084028301858111156121df576121de6121a4565b5b835b8181101561222657803567ffffffffffffffff81111561220457612203611f58565b5b808601612211898261205f565b855260208501945050506020810190506121e1565b5050509392505050565b600082601f83011261224557612244611f58565b5b81356122558482602086016121a9565b91505092915050565b600067ffffffffffffffff82111561227957612278611f62565b5b602082029050602081019050919050565b600061229d6122988461225e565b611fc2565b905080838252602082019050602084028301858111156122c0576122bf6121a4565b5b835b818110156122e957806122d58882611d9c565b8452602084019350506020810190506122c2565b5050509392505050565b600082601f83011261230857612307611f58565b5b813561231884826020860161228a565b91505092915050565b600080600080600080600080610100898b03121561234257612341611d71565b5b60006123508b828c01611f43565b98505060206123618b828c01611d9c565b97505060406123728b828c01612163565b965050606089013567ffffffffffffffff81111561239357612392611d76565b5b61239f8b828c01612230565b95505060806123b08b828c01611d9c565b94505060a06123c18b828c01611d9c565b93505060c089013567ffffffffffffffff8111156123e2576123e1611d76565b5b6123ee8b828c016122f3565b92505060e089013567ffffffffffffffff81111561240f5761240e611d76565b5b61241b8b828c016122f3565b9150509295985092959890939650565b6000806040838503121561244257612441611d71565b5b600061245085828601611f43565b925050602061246185828601611d9c565b9150509250929050565b6000806040838503121561248257612481611d71565b5b600061249085828601611f43565b92505060206124a185828601612163565b9150509250929050565b6000806000606084860312156124c4576124c3611d71565b5b60006124d286828701611f43565b93505060206124e386828701611d9c565b92505060406124f486828701611d9c565b9150509250925092565b61250781611f1a565b82525050565b600060208201905061252260008301846124fe565b92915050565b600060408201905061253d6000830185611dde565b61254a6020830184611dde565b9392505050565b7f4e487b7100000000000000000000000000000000000000000000000000000000600052602260045260246000fd5b6000600282049050600182168061259857607f821691505b6020821081036125ab576125aa612551565b5b50919050565b7f596f7520646f6e742068617665207065726d697373696f6e20666f722074686960008201527f7320616374696f6e000000000000000000000000000000000000000000000000602082015250565b600061260d602883611e53565b9150612618826125b1565b604082019050919050565b6000602082019050818103600083015261263c81612600565b9050919050565b7f4e487b7100000000000000000000000000000000000000000000000000000000600052603260045260246000fd5b7f4e487b7100000000000000000000000000000000000000000000000000000000600052601160045260246000fd5b60006126ac82611d7b565b91507fffffffffffffffffffffffffffffffffffffffffffffffffffffffffffffffff82036126de576126dd612672565b5b600182019050919050565b60006126f482611d7b565b91506126ff83611d7b565b925082820190508082111561271757612716612672565b5b92915050565b7f4e487b7100000000000000000000000000000000000000000000000000000000600052603160045260246000fd5b60008190508160005260206000209050919050565b60006020601f8301049050919050565b600082821b905092915050565b6000600883026127ae7fffffffffffffffffffffffffffffffffffffffffffffffffffffffffffffffff82612771565b6127b88683612771565b95508019841693508086168417925050509392505050565b6000819050919050565b60006127f56127f06127eb84611d7b565b6127d0565b611d7b565b9050919050565b6000819050919050565b61280f836127da565b61282361281b826127fc565b84845461277e565b825550505050565b600090565b61283861282b565b612843818484612806565b505050565b5b818110156128675761285c600082612830565b600181019050612849565b5050565b601f8211156128ac5761287d8161274c565b61288684612761565b81016020851015612895578190505b6128a96128a185612761565b830182612848565b50505b505050565b600082821c905092915050565b60006128cf600019846008026128b1565b1980831691505092915050565b60006128e883836128be565b9150826002028217905092915050565b61290182611e48565b67ffffffffffffffff81111561291a57612919611f62565b5b6129248254612580565b61292f82828561286b565b600060209050601f8311600181146129625760008415612950578287015190505b61295a85826128dc565b8655506129c2565b601f1984166129708661274c565b60005b8281101561299857848901518255600182019150602085019450602081019050612973565b868310156129b557848901516129b1601f8916826128be565b8355505b6001600288020188555050505b50505050505056fea264697066735822122030bbb93f7517e30c435eb6b18951d63148f99b5538ae7d7edd290ac0a45e6e4364736f6c63430008110033",
  "linkReferences": {},
  "deployedLinkReferences": {}
}