{
  "_format": "hh-sol-artifact-1",
  "contractName": "HistoricoRecebimento",
  "sourceName": "contracts/functions/historicoRecebimento.sol",
  "abi": [
    {
      "inputs": [
        {
          "internalType": "uint256",
          "name": "_donosSize",
          "type": "uint256"
        },
        {
          "internalType": "uint256[][]",
          "name": "_datasRecebimento",
          "type": "uint256[][]"
        },
        {
          "internalType": "uint256[][]",
          "name": "_valoresRecebimento",
          "type": "uint256[][]"
        }
      ],
      "stateMutability": "nonpayable",
      "type": "constructor"
    },
    {
      "inputs": [
        {
          "internalType": "uint256",
          "name": "",
          "type": "uint256"
        },
        {
          "internalType": "uint256",
          "name": "",
          "type": "uint256"
        }
      ],
      "name": "historicoRecebimento",
      "outputs": [
        {
          "internalType": "uint256",
          "name": "data",
          "type": "uint256"
        },
        {
          "internalType": "uint256",
          "name": "valor",
          "type": "uint256"
        }
      ],
      "stateMutability": "view",
      "type": "function"
    }
  ],
  "bytecode": "0x608060405234801561001057600080fd5b506040516106b03803806106b0833981810160405281019061003291906103e5565b60005b838110156101585760005b83828151811061005357610052610470565b5b60200260200101515181101561014457600080838152602001908152602001600020604051806040016040528086858151811061009357610092610470565b5b602002602001015184815181106100ad576100ac610470565b5b602002602001015181526020018585815181106100cd576100cc610470565b5b602002602001015184815181106100e7576100e6610470565b5b6020026020010151815250908060018154018082558091505060019003906000526020600020906002020160009091909190915060008201518160000155602082015181600101555050808061013c906104ce565b915050610040565b508080610150906104ce565b915050610035565b50505050610516565b6000604051905090565b600080fd5b600080fd5b6000819050919050565b61018881610175565b811461019357600080fd5b50565b6000815190506101a58161017f565b92915050565b600080fd5b6000601f19601f8301169050919050565b7f4e487b7100000000000000000000000000000000000000000000000000000000600052604160045260246000fd5b6101f9826101b0565b810181811067ffffffffffffffff82111715610218576102176101c1565b5b80604052505050565b600061022b610161565b905061023782826101f0565b919050565b600067ffffffffffffffff821115610257576102566101c1565b5b602082029050602081019050919050565b600080fd5b600067ffffffffffffffff821115610288576102876101c1565b5b602082029050602081019050919050565b60006102ac6102a78461026d565b610221565b905080838252602082019050602084028301858111156102cf576102ce610268565b5b835b818110156102f857806102e48882610196565b8452602084019350506020810190506102d1565b5050509392505050565b600082601f830112610317576103166101ab565b5b8151610327848260208601610299565b91505092915050565b600061034361033e8461023c565b610221565b9050808382526020820190506020840283018581111561036657610365610268565b5b835b818110156103ad57805167ffffffffffffffff81111561038b5761038a6101ab565b5b8086016103988982610302565b85526020850194505050602081019050610368565b5050509392505050565b600082601f8301126103cc576103cb6101ab565b5b81516103dc848260208601610330565b91505092915050565b6000806000606084860312156103fe576103fd61016b565b5b600061040c86828701610196565b935050602084015167ffffffffffffffff81111561042d5761042c610170565b5b610439868287016103b7565b925050604084015167ffffffffffffffff81111561045a57610459610170565b5b610466868287016103b7565b9150509250925092565b7f4e487b7100000000000000000000000000000000000000000000000000000000600052603260045260246000fd5b7f4e487b7100000000000000000000000000000000000000000000000000000000600052601160045260246000fd5b60006104d982610175565b91507fffffffffffffffffffffffffffffffffffffffffffffffffffffffffffffffff820361050b5761050a61049f565b5b600182019050919050565b61018b806105256000396000f3fe608060405234801561001057600080fd5b506004361061002b5760003560e01c8063f7b8651614610030575b600080fd5b61004a600480360381019061004591906100dd565b610061565b60405161005892919061012c565b60405180910390f35b6000602052816000526040600020818154811061007d57600080fd5b9060005260206000209060020201600091509150508060000154908060010154905082565b600080fd5b6000819050919050565b6100ba816100a7565b81146100c557600080fd5b50565b6000813590506100d7816100b1565b92915050565b600080604083850312156100f4576100f36100a2565b5b6000610102858286016100c8565b9250506020610113858286016100c8565b9150509250929050565b610126816100a7565b82525050565b6000604082019050610141600083018561011d565b61014e602083018461011d565b939250505056fea264697066735822122002381f14cd408e8b0ef33e473fde699427c9c6d22355f7da0dc33c9283da60d064736f6c63430008110033",
  "linkReferences": {},
  "deployedLinkReferences": {}
}