{
  "_format": "hh-sol-artifact-1",
  "contractName": "Acoes",
  "sourceName": "contracts/functions/acoes.sol",
  "abi": [
    {
      "inputs": [
        {
          "internalType": "uint256",
          "name": "_donosAmount",
          "type": "uint256"
        }
      ],
      "stateMutability": "nonpayable",
      "type": "constructor"
    },
    {
      "inputs": [
        {
          "internalType": "uint256",
          "name": "",
          "type": "uint256"
        }
      ],
      "name": "acoesCount",
      "outputs": [
        {
          "internalType": "uint256",
          "name": "",
          "type": "uint256"
        }
      ],
      "stateMutability": "view",
      "type": "function"
    },
    {
      "inputs": [
        {
          "internalType": "uint256",
          "name": "",
          "type": "uint256"
        },
        {
          "internalType": "uint256",
          "name": "",
          "type": "uint256"
        }
      ],
      "name": "idAcoes",
      "outputs": [
        {
          "internalType": "string",
          "name": "",
          "type": "string"
        }
      ],
      "stateMutability": "view",
      "type": "function"
    }
  ],
  "bytecode": "0x608060405234801561001057600080fd5b506040516104f33803806104f3833981810160405281019061003291906100ba565b60005b818110156100785760008080600181540180825580915050600190039060005260206000200160009091909190915055808061007090610116565b915050610035565b505061015e565b600080fd5b6000819050919050565b61009781610084565b81146100a257600080fd5b50565b6000815190506100b48161008e565b92915050565b6000602082840312156100d0576100cf61007f565b5b60006100de848285016100a5565b91505092915050565b7f4e487b7100000000000000000000000000000000000000000000000000000000600052601160045260246000fd5b600061012182610084565b91507fffffffffffffffffffffffffffffffffffffffffffffffffffffffffffffffff8203610153576101526100e7565b5b600182019050919050565b6103868061016d6000396000f3fe608060405234801561001057600080fd5b50600436106100365760003560e01c80632bc758ff1461003b57806337805d531461006b575b600080fd5b610055600480360381019061005091906101a7565b61009b565b6040516100629190610277565b60405180910390f35b61008560048036038101906100809190610299565b610148565b60405161009291906102d5565b60405180910390f35b60016020528160005260406000206020528060005260406000206000915091505080546100c79061031f565b80601f01602080910402602001604051908101604052809291908181526020018280546100f39061031f565b80156101405780601f1061011557610100808354040283529160200191610140565b820191906000526020600020905b81548152906001019060200180831161012357829003601f168201915b505050505081565b6000818154811061015857600080fd5b906000526020600020016000915090505481565b600080fd5b6000819050919050565b61018481610171565b811461018f57600080fd5b50565b6000813590506101a18161017b565b92915050565b600080604083850312156101be576101bd61016c565b5b60006101cc85828601610192565b92505060206101dd85828601610192565b9150509250929050565b600081519050919050565b600082825260208201905092915050565b60005b83811015610221578082015181840152602081019050610206565b60008484015250505050565b6000601f19601f8301169050919050565b6000610249826101e7565b61025381856101f2565b9350610263818560208601610203565b61026c8161022d565b840191505092915050565b60006020820190508181036000830152610291818461023e565b905092915050565b6000602082840312156102af576102ae61016c565b5b60006102bd84828501610192565b91505092915050565b6102cf81610171565b82525050565b60006020820190506102ea60008301846102c6565b92915050565b7f4e487b7100000000000000000000000000000000000000000000000000000000600052602260045260246000fd5b6000600282049050600182168061033757607f821691505b60208210810361034a576103496102f0565b5b5091905056fea2646970667358221220cf5645dab92cc533699d7495a5486a233232f3096b204edba95cac952a3dd27b64736f6c63430008110033",
  "linkReferences": {},
  "deployedLinkReferences": {}
}