{"contracts/functions/condicoes.sol":{"Condicoes":{"abi":[{"inputs":[{"internalType":"uint256","name":"_donosAmount","type":"uint256"},{"internalType":"string[][]","name":"_condicoes","type":"string[][]"}],"stateMutability":"nonpayable","type":"constructor"},{"inputs":[{"internalType":"uint256","name":"","type":"uint256"},{"internalType":"uint256","name":"","type":"uint256"}],"name":"condicoes","outputs":[{"internalType":"string","name":"","type":"string"}],"stateMutability":"view","type":"function"}],"evm":{"bytecode":{"linkReferences":{},"object":"60806040523480156200001157600080fd5b5060405162000c7b38038062000c7b833981810160405281019062000037919062000556565b60005b828110156200009f57818181518110620000595762000058620005bc565b5b6020026020010151600080838152602001908152602001600020908051906020019062000088929190620000a8565b50808062000096906200061a565b9150506200003a565b5050506200098f565b828054828255906000526020600020908101928215620000f5579160200282015b82811115620000f4578251829081620000e39190620008a8565b5091602001919060010190620000c9565b5b50905062000104919062000108565b5090565b5b808211156200012c576000818162000122919062000130565b5060010162000109565b5090565b5080546200013e90620006a1565b6000825580601f1062000152575062000173565b601f01602090049060005260206000209081019062000172919062000176565b5b50565b5b808211156200019157600081600090555060010162000177565b5090565b6000604051905090565b600080fd5b600080fd5b6000819050919050565b620001be81620001a9565b8114620001ca57600080fd5b50565b600081519050620001de81620001b3565b92915050565b600080fd5b6000601f19601f8301169050919050565b7f4e487b7100000000000000000000000000000000000000000000000000000000600052604160045260246000fd5b6200023482620001e9565b810181811067ffffffffffffffff82111715620002565762000255620001fa565b5b80604052505050565b60006200026b62000195565b905062000279828262000229565b919050565b600067ffffffffffffffff8211156200029c576200029b620001fa565b5b602082029050602081019050919050565b600080fd5b600067ffffffffffffffff821115620002d057620002cf620001fa565b5b602082029050602081019050919050565b600080fd5b600067ffffffffffffffff821115620003045762000303620001fa565b5b6200030f82620001e9565b9050602081019050919050565b60005b838110156200033c5780820151818401526020810190506200031f565b60008484015250505050565b60006200035f6200035984620002e6565b6200025f565b9050828152602081018484840111156200037e576200037d620002e1565b5b6200038b8482856200031c565b509392505050565b600082601f830112620003ab57620003aa620001e4565b5b8151620003bd84826020860162000348565b91505092915050565b6000620003dd620003d784620002b2565b6200025f565b90508083825260208201905060208402830185811115620004035762000402620002ad565b5b835b818110156200045157805167ffffffffffffffff8111156200042c576200042b620001e4565b5b8086016200043b898262000393565b8552602085019450505060208101905062000405565b5050509392505050565b600082601f830112620004735762000472620001e4565b5b815162000485848260208601620003c6565b91505092915050565b6000620004a56200049f846200027e565b6200025f565b90508083825260208201905060208402830185811115620004cb57620004ca620002ad565b5b835b818110156200051957805167ffffffffffffffff811115620004f457620004f3620001e4565b5b8086016200050389826200045b565b85526020850194505050602081019050620004cd565b5050509392505050565b600082601f8301126200053b576200053a620001e4565b5b81516200054d8482602086016200048e565b91505092915050565b6000806040838503121562000570576200056f6200019f565b5b60006200058085828601620001cd565b925050602083015167ffffffffffffffff811115620005a457620005a3620001a4565b5b620005b28582860162000523565b9150509250929050565b7f4e487b7100000000000000000000000000000000000000000000000000000000600052603260045260246000fd5b7f4e487b7100000000000000000000000000000000000000000000000000000000600052601160045260246000fd5b60006200062782620001a9565b91507fffffffffffffffffffffffffffffffffffffffffffffffffffffffffffffffff82036200065c576200065b620005eb565b5b600182019050919050565b600081519050919050565b7f4e487b7100000000000000000000000000000000000000000000000000000000600052602260045260246000fd5b60006002820490506001821680620006ba57607f821691505b602082108103620006d057620006cf62000672565b5b50919050565b60008190508160005260206000209050919050565b60006020601f8301049050919050565b600082821b905092915050565b6000600883026200073a7fffffffffffffffffffffffffffffffffffffffffffffffffffffffffffffffff82620006fb565b620007468683620006fb565b95508019841693508086168417925050509392505050565b6000819050919050565b600062000789620007836200077d84620001a9565b6200075e565b620001a9565b9050919050565b6000819050919050565b620007a58362000768565b620007bd620007b48262000790565b84845462000708565b825550505050565b600090565b620007d4620007c5565b620007e18184846200079a565b505050565b5b818110156200080957620007fd600082620007ca565b600181019050620007e7565b5050565b601f82111562000858576200082281620006d6565b6200082d84620006eb565b810160208510156200083d578190505b620008556200084c85620006eb565b830182620007e6565b50505b505050565b600082821c905092915050565b60006200087d600019846008026200085d565b1980831691505092915050565b60006200089883836200086a565b9150826002028217905092915050565b620008b38262000667565b67ffffffffffffffff811115620008cf57620008ce620001fa565b5b620008db8254620006a1565b620008e88282856200080d565b600060209050601f8311600181146200092057600084156200090b578287015190505b6200091785826200088a565b86555062000987565b601f1984166200093086620006d6565b60005b828110156200095a5784890151825560018201915060208501945060208101905062000933565b868310156200097a578489015162000976601f8916826200086a565b8355505b6001600288020188555050505b505050505050565b6102dc806200099f6000396000f3fe608060405234801561001057600080fd5b506004361061002b5760003560e01c8063d6d819ee14610030575b600080fd5b61004a60048036038101906100459190610154565b610060565b6040516100579190610224565b60405180910390f35b6000602052816000526040600020818154811061007c57600080fd5b9060005260206000200160009150915050805461009890610275565b80601f01602080910402602001604051908101604052809291908181526020018280546100c490610275565b80156101115780601f106100e657610100808354040283529160200191610111565b820191906000526020600020905b8154815290600101906020018083116100f457829003601f168201915b505050505081565b600080fd5b6000819050919050565b6101318161011e565b811461013c57600080fd5b50565b60008135905061014e81610128565b92915050565b6000806040838503121561016b5761016a610119565b5b60006101798582860161013f565b925050602061018a8582860161013f565b9150509250929050565b600081519050919050565b600082825260208201905092915050565b60005b838110156101ce5780820151818401526020810190506101b3565b60008484015250505050565b6000601f19601f8301169050919050565b60006101f682610194565b610200818561019f565b93506102108185602086016101b0565b610219816101da565b840191505092915050565b6000602082019050818103600083015261023e81846101eb565b905092915050565b7f4e487b7100000000000000000000000000000000000000000000000000000000600052602260045260246000fd5b6000600282049050600182168061028d57607f821691505b6020821081036102a05761029f610246565b5b5091905056fea264697066735822122022f14484392662af67454ab764d787a3961a8780918f55a7e328a9c99ea46cc264736f6c63430008110033","opcodes":"PUSH1 0x80 PUSH1 0x40 MSTORE CALLVALUE DUP1 ISZERO PUSH3 0x11 JUMPI PUSH1 0x0 DUP1 REVERT JUMPDEST POP PUSH1 0x40 MLOAD PUSH3 0xC7B CODESIZE SUB DUP1 PUSH3 0xC7B DUP4 CODECOPY DUP2 DUP2 ADD PUSH1 0x40 MSTORE DUP2 ADD SWAP1 PUSH3 0x37 SWAP2 SWAP1 PUSH3 0x556 JUMP JUMPDEST PUSH1 0x0 JUMPDEST DUP3 DUP2 LT ISZERO PUSH3 0x9F JUMPI DUP2 DUP2 DUP2 MLOAD DUP2 LT PUSH3 0x59 JUMPI PUSH3 0x58 PUSH3 0x5BC JUMP JUMPDEST JUMPDEST PUSH1 0x20 MUL PUSH1 0x20 ADD ADD MLOAD PUSH1 0x0 DUP1 DUP4 DUP2 MSTORE PUSH1 0x20 ADD SWAP1 DUP2 MSTORE PUSH1 0x20 ADD PUSH1 0x0 KECCAK256 SWAP1 DUP1 MLOAD SWAP1 PUSH1 0x20 ADD SWAP1 PUSH3 0x88 SWAP3 SWAP2 SWAP1 PUSH3 0xA8 JUMP JUMPDEST POP DUP1 DUP1 PUSH3 0x96 SWAP1 PUSH3 0x61A JUMP JUMPDEST SWAP2 POP POP PUSH3 0x3A JUMP JUMPDEST POP POP POP PUSH3 0x98F JUMP JUMPDEST DUP3 DUP1 SLOAD DUP3 DUP3 SSTORE SWAP1 PUSH1 0x0 MSTORE PUSH1 0x20 PUSH1 0x0 KECCAK256 SWAP1 DUP2 ADD SWAP3 DUP3 ISZERO PUSH3 0xF5 JUMPI SWAP2 PUSH1 0x20 MUL DUP3 ADD JUMPDEST DUP3 DUP2 GT ISZERO PUSH3 0xF4 JUMPI DUP3 MLOAD DUP3 SWAP1 DUP2 PUSH3 0xE3 SWAP2 SWAP1 PUSH3 0x8A8 JUMP JUMPDEST POP SWAP2 PUSH1 0x20 ADD SWAP2 SWAP1 PUSH1 0x1 ADD SWAP1 PUSH3 0xC9 JUMP JUMPDEST JUMPDEST POP SWAP1 POP PUSH3 0x104 SWAP2 SWAP1 PUSH3 0x108 JUMP JUMPDEST POP SWAP1 JUMP JUMPDEST JUMPDEST DUP1 DUP3 GT ISZERO PUSH3 0x12C JUMPI PUSH1 0x0 DUP2 DUP2 PUSH3 0x122 SWAP2 SWAP1 PUSH3 0x130 JUMP JUMPDEST POP PUSH1 0x1 ADD PUSH3 0x109 JUMP JUMPDEST POP SWAP1 JUMP JUMPDEST POP DUP1 SLOAD PUSH3 0x13E SWAP1 PUSH3 0x6A1 JUMP JUMPDEST PUSH1 0x0 DUP3 SSTORE DUP1 PUSH1 0x1F LT PUSH3 0x152 JUMPI POP PUSH3 0x173 JUMP JUMPDEST PUSH1 0x1F ADD PUSH1 0x20 SWAP1 DIV SWAP1 PUSH1 0x0 MSTORE PUSH1 0x20 PUSH1 0x0 KECCAK256 SWAP1 DUP2 ADD SWAP1 PUSH3 0x172 SWAP2 SWAP1 PUSH3 0x176 JUMP JUMPDEST JUMPDEST POP JUMP JUMPDEST JUMPDEST DUP1 DUP3 GT ISZERO PUSH3 0x191 JUMPI PUSH1 0x0 DUP2 PUSH1 0x0 SWAP1 SSTORE POP PUSH1 0x1 ADD PUSH3 0x177 JUMP JUMPDEST POP SWAP1 JUMP JUMPDEST PUSH1 0x0 PUSH1 0x40 MLOAD SWAP1 POP SWAP1 JUMP JUMPDEST PUSH1 0x0 DUP1 REVERT JUMPDEST PUSH1 0x0 DUP1 REVERT JUMPDEST PUSH1 0x0 DUP2 SWAP1 POP SWAP2 SWAP1 POP JUMP JUMPDEST PUSH3 0x1BE DUP2 PUSH3 0x1A9 JUMP JUMPDEST DUP2 EQ PUSH3 0x1CA JUMPI PUSH1 0x0 DUP1 REVERT JUMPDEST POP JUMP JUMPDEST PUSH1 0x0 DUP2 MLOAD SWAP1 POP PUSH3 0x1DE DUP2 PUSH3 0x1B3 JUMP JUMPDEST SWAP3 SWAP2 POP POP JUMP JUMPDEST PUSH1 0x0 DUP1 REVERT JUMPDEST PUSH1 0x0 PUSH1 0x1F NOT PUSH1 0x1F DUP4 ADD AND SWAP1 POP SWAP2 SWAP1 POP JUMP JUMPDEST PUSH32 0x4E487B7100000000000000000000000000000000000000000000000000000000 PUSH1 0x0 MSTORE PUSH1 0x41 PUSH1 0x4 MSTORE PUSH1 0x24 PUSH1 0x0 REVERT JUMPDEST PUSH3 0x234 DUP3 PUSH3 0x1E9 JUMP JUMPDEST DUP2 ADD DUP2 DUP2 LT PUSH8 0xFFFFFFFFFFFFFFFF DUP3 GT OR ISZERO PUSH3 0x256 JUMPI PUSH3 0x255 PUSH3 0x1FA JUMP JUMPDEST JUMPDEST DUP1 PUSH1 0x40 MSTORE POP POP POP JUMP JUMPDEST PUSH1 0x0 PUSH3 0x26B PUSH3 0x195 JUMP JUMPDEST SWAP1 POP PUSH3 0x279 DUP3 DUP3 PUSH3 0x229 JUMP JUMPDEST SWAP2 SWAP1 POP JUMP JUMPDEST PUSH1 0x0 PUSH8 0xFFFFFFFFFFFFFFFF DUP3 GT ISZERO PUSH3 0x29C JUMPI PUSH3 0x29B PUSH3 0x1FA JUMP JUMPDEST JUMPDEST PUSH1 0x20 DUP3 MUL SWAP1 POP PUSH1 0x20 DUP2 ADD SWAP1 POP SWAP2 SWAP1 POP JUMP JUMPDEST PUSH1 0x0 DUP1 REVERT JUMPDEST PUSH1 0x0 PUSH8 0xFFFFFFFFFFFFFFFF DUP3 GT ISZERO PUSH3 0x2D0 JUMPI PUSH3 0x2CF PUSH3 0x1FA JUMP JUMPDEST JUMPDEST PUSH1 0x20 DUP3 MUL SWAP1 POP PUSH1 0x20 DUP2 ADD SWAP1 POP SWAP2 SWAP1 POP JUMP JUMPDEST PUSH1 0x0 DUP1 REVERT JUMPDEST PUSH1 0x0 PUSH8 0xFFFFFFFFFFFFFFFF DUP3 GT ISZERO PUSH3 0x304 JUMPI PUSH3 0x303 PUSH3 0x1FA JUMP JUMPDEST JUMPDEST PUSH3 0x30F DUP3 PUSH3 0x1E9 JUMP JUMPDEST SWAP1 POP PUSH1 0x20 DUP2 ADD SWAP1 POP SWAP2 SWAP1 POP JUMP JUMPDEST PUSH1 0x0 JUMPDEST DUP4 DUP2 LT ISZERO PUSH3 0x33C JUMPI DUP1 DUP3 ADD MLOAD DUP2 DUP5 ADD MSTORE PUSH1 0x20 DUP2 ADD SWAP1 POP PUSH3 0x31F JUMP JUMPDEST PUSH1 0x0 DUP5 DUP5 ADD MSTORE POP POP POP POP JUMP JUMPDEST PUSH1 0x0 PUSH3 0x35F PUSH3 0x359 DUP5 PUSH3 0x2E6 JUMP JUMPDEST PUSH3 0x25F JUMP JUMPDEST SWAP1 POP DUP3 DUP2 MSTORE PUSH1 0x20 DUP2 ADD DUP5 DUP5 DUP5 ADD GT ISZERO PUSH3 0x37E JUMPI PUSH3 0x37D PUSH3 0x2E1 JUMP JUMPDEST JUMPDEST PUSH3 0x38B DUP5 DUP3 DUP6 PUSH3 0x31C JUMP JUMPDEST POP SWAP4 SWAP3 POP POP POP JUMP JUMPDEST PUSH1 0x0 DUP3 PUSH1 0x1F DUP4 ADD SLT PUSH3 0x3AB JUMPI PUSH3 0x3AA PUSH3 0x1E4 JUMP JUMPDEST JUMPDEST DUP2 MLOAD PUSH3 0x3BD DUP5 DUP3 PUSH1 0x20 DUP7 ADD PUSH3 0x348 JUMP JUMPDEST SWAP2 POP POP SWAP3 SWAP2 POP POP JUMP JUMPDEST PUSH1 0x0 PUSH3 0x3DD PUSH3 0x3D7 DUP5 PUSH3 0x2B2 JUMP JUMPDEST PUSH3 0x25F JUMP JUMPDEST SWAP1 POP DUP1 DUP4 DUP3 MSTORE PUSH1 0x20 DUP3 ADD SWAP1 POP PUSH1 0x20 DUP5 MUL DUP4 ADD DUP6 DUP2 GT ISZERO PUSH3 0x403 JUMPI PUSH3 0x402 PUSH3 0x2AD JUMP JUMPDEST JUMPDEST DUP4 JUMPDEST DUP2 DUP2 LT ISZERO PUSH3 0x451 JUMPI DUP1 MLOAD PUSH8 0xFFFFFFFFFFFFFFFF DUP2 GT ISZERO PUSH3 0x42C JUMPI PUSH3 0x42B PUSH3 0x1E4 JUMP JUMPDEST JUMPDEST DUP1 DUP7 ADD PUSH3 0x43B DUP10 DUP3 PUSH3 0x393 JUMP JUMPDEST DUP6 MSTORE PUSH1 0x20 DUP6 ADD SWAP5 POP POP POP PUSH1 0x20 DUP2 ADD SWAP1 POP PUSH3 0x405 JUMP JUMPDEST POP POP POP SWAP4 SWAP3 POP POP POP JUMP JUMPDEST PUSH1 0x0 DUP3 PUSH1 0x1F DUP4 ADD SLT PUSH3 0x473 JUMPI PUSH3 0x472 PUSH3 0x1E4 JUMP JUMPDEST JUMPDEST DUP2 MLOAD PUSH3 0x485 DUP5 DUP3 PUSH1 0x20 DUP7 ADD PUSH3 0x3C6 JUMP JUMPDEST SWAP2 POP POP SWAP3 SWAP2 POP POP JUMP JUMPDEST PUSH1 0x0 PUSH3 0x4A5 PUSH3 0x49F DUP5 PUSH3 0x27E JUMP JUMPDEST PUSH3 0x25F JUMP JUMPDEST SWAP1 POP DUP1 DUP4 DUP3 MSTORE PUSH1 0x20 DUP3 ADD SWAP1 POP PUSH1 0x20 DUP5 MUL DUP4 ADD DUP6 DUP2 GT ISZERO PUSH3 0x4CB JUMPI PUSH3 0x4CA PUSH3 0x2AD JUMP JUMPDEST JUMPDEST DUP4 JUMPDEST DUP2 DUP2 LT ISZERO PUSH3 0x519 JUMPI DUP1 MLOAD PUSH8 0xFFFFFFFFFFFFFFFF DUP2 GT ISZERO PUSH3 0x4F4 JUMPI PUSH3 0x4F3 PUSH3 0x1E4 JUMP JUMPDEST JUMPDEST DUP1 DUP7 ADD PUSH3 0x503 DUP10 DUP3 PUSH3 0x45B JUMP JUMPDEST DUP6 MSTORE PUSH1 0x20 DUP6 ADD SWAP5 POP POP POP PUSH1 0x20 DUP2 ADD SWAP1 POP PUSH3 0x4CD JUMP JUMPDEST POP POP POP SWAP4 SWAP3 POP POP POP JUMP JUMPDEST PUSH1 0x0 DUP3 PUSH1 0x1F DUP4 ADD SLT PUSH3 0x53B JUMPI PUSH3 0x53A PUSH3 0x1E4 JUMP JUMPDEST JUMPDEST DUP2 MLOAD PUSH3 0x54D DUP5 DUP3 PUSH1 0x20 DUP7 ADD PUSH3 0x48E JUMP JUMPDEST SWAP2 POP POP SWAP3 SWAP2 POP POP JUMP JUMPDEST PUSH1 0x0 DUP1 PUSH1 0x40 DUP4 DUP6 SUB SLT ISZERO PUSH3 0x570 JUMPI PUSH3 0x56F PUSH3 0x19F JUMP JUMPDEST JUMPDEST PUSH1 0x0 PUSH3 0x580 DUP6 DUP3 DUP7 ADD PUSH3 0x1CD JUMP JUMPDEST SWAP3 POP POP PUSH1 0x20 DUP4 ADD MLOAD PUSH8 0xFFFFFFFFFFFFFFFF DUP2 GT ISZERO PUSH3 0x5A4 JUMPI PUSH3 0x5A3 PUSH3 0x1A4 JUMP JUMPDEST JUMPDEST PUSH3 0x5B2 DUP6 DUP3 DUP7 ADD PUSH3 0x523 JUMP JUMPDEST SWAP2 POP POP SWAP3 POP SWAP3 SWAP1 POP JUMP JUMPDEST PUSH32 0x4E487B7100000000000000000000000000000000000000000000000000000000 PUSH1 0x0 MSTORE PUSH1 0x32 PUSH1 0x4 MSTORE PUSH1 0x24 PUSH1 0x0 REVERT JUMPDEST PUSH32 0x4E487B7100000000000000000000000000000000000000000000000000000000 PUSH1 0x0 MSTORE PUSH1 0x11 PUSH1 0x4 MSTORE PUSH1 0x24 PUSH1 0x0 REVERT JUMPDEST PUSH1 0x0 PUSH3 0x627 DUP3 PUSH3 0x1A9 JUMP JUMPDEST SWAP2 POP PUSH32 0xFFFFFFFFFFFFFFFFFFFFFFFFFFFFFFFFFFFFFFFFFFFFFFFFFFFFFFFFFFFFFFFF DUP3 SUB PUSH3 0x65C JUMPI PUSH3 0x65B PUSH3 0x5EB JUMP JUMPDEST JUMPDEST PUSH1 0x1 DUP3 ADD SWAP1 POP SWAP2 SWAP1 POP JUMP JUMPDEST PUSH1 0x0 DUP2 MLOAD SWAP1 POP SWAP2 SWAP1 POP JUMP JUMPDEST PUSH32 0x4E487B7100000000000000000000000000000000000000000000000000000000 PUSH1 0x0 MSTORE PUSH1 0x22 PUSH1 0x4 MSTORE PUSH1 0x24 PUSH1 0x0 REVERT JUMPDEST PUSH1 0x0 PUSH1 0x2 DUP3 DIV SWAP1 POP PUSH1 0x1 DUP3 AND DUP1 PUSH3 0x6BA JUMPI PUSH1 0x7F DUP3 AND SWAP2 POP JUMPDEST PUSH1 0x20 DUP3 LT DUP2 SUB PUSH3 0x6D0 JUMPI PUSH3 0x6CF PUSH3 0x672 JUMP JUMPDEST JUMPDEST POP SWAP2 SWAP1 POP JUMP JUMPDEST PUSH1 0x0 DUP2 SWAP1 POP DUP2 PUSH1 0x0 MSTORE PUSH1 0x20 PUSH1 0x0 KECCAK256 SWAP1 POP SWAP2 SWAP1 POP JUMP JUMPDEST PUSH1 0x0 PUSH1 0x20 PUSH1 0x1F DUP4 ADD DIV SWAP1 POP SWAP2 SWAP1 POP JUMP JUMPDEST PUSH1 0x0 DUP3 DUP3 SHL SWAP1 POP SWAP3 SWAP2 POP POP JUMP JUMPDEST PUSH1 0x0 PUSH1 0x8 DUP4 MUL PUSH3 0x73A PUSH32 0xFFFFFFFFFFFFFFFFFFFFFFFFFFFFFFFFFFFFFFFFFFFFFFFFFFFFFFFFFFFFFFFF DUP3 PUSH3 0x6FB JUMP JUMPDEST PUSH3 0x746 DUP7 DUP4 PUSH3 0x6FB JUMP JUMPDEST SWAP6 POP DUP1 NOT DUP5 AND SWAP4 POP DUP1 DUP7 AND DUP5 OR SWAP3 POP POP POP SWAP4 SWAP3 POP POP POP JUMP JUMPDEST PUSH1 0x0 DUP2 SWAP1 POP SWAP2 SWAP1 POP JUMP JUMPDEST PUSH1 0x0 PUSH3 0x789 PUSH3 0x783 PUSH3 0x77D DUP5 PUSH3 0x1A9 JUMP JUMPDEST PUSH3 0x75E JUMP JUMPDEST PUSH3 0x1A9 JUMP JUMPDEST SWAP1 POP SWAP2 SWAP1 POP JUMP JUMPDEST PUSH1 0x0 DUP2 SWAP1 POP SWAP2 SWAP1 POP JUMP JUMPDEST PUSH3 0x7A5 DUP4 PUSH3 0x768 JUMP JUMPDEST PUSH3 0x7BD PUSH3 0x7B4 DUP3 PUSH3 0x790 JUMP JUMPDEST DUP5 DUP5 SLOAD PUSH3 0x708 JUMP JUMPDEST DUP3 SSTORE POP POP POP POP JUMP JUMPDEST PUSH1 0x0 SWAP1 JUMP JUMPDEST PUSH3 0x7D4 PUSH3 0x7C5 JUMP JUMPDEST PUSH3 0x7E1 DUP2 DUP5 DUP5 PUSH3 0x79A JUMP JUMPDEST POP POP POP JUMP JUMPDEST JUMPDEST DUP2 DUP2 LT ISZERO PUSH3 0x809 JUMPI PUSH3 0x7FD PUSH1 0x0 DUP3 PUSH3 0x7CA JUMP JUMPDEST PUSH1 0x1 DUP2 ADD SWAP1 POP PUSH3 0x7E7 JUMP JUMPDEST POP POP JUMP JUMPDEST PUSH1 0x1F DUP3 GT ISZERO PUSH3 0x858 JUMPI PUSH3 0x822 DUP2 PUSH3 0x6D6 JUMP JUMPDEST PUSH3 0x82D DUP5 PUSH3 0x6EB JUMP JUMPDEST DUP2 ADD PUSH1 0x20 DUP6 LT ISZERO PUSH3 0x83D JUMPI DUP2 SWAP1 POP JUMPDEST PUSH3 0x855 PUSH3 0x84C DUP6 PUSH3 0x6EB JUMP JUMPDEST DUP4 ADD DUP3 PUSH3 0x7E6 JUMP JUMPDEST POP POP JUMPDEST POP POP POP JUMP JUMPDEST PUSH1 0x0 DUP3 DUP3 SHR SWAP1 POP SWAP3 SWAP2 POP POP JUMP JUMPDEST PUSH1 0x0 PUSH3 0x87D PUSH1 0x0 NOT DUP5 PUSH1 0x8 MUL PUSH3 0x85D JUMP JUMPDEST NOT DUP1 DUP4 AND SWAP2 POP POP SWAP3 SWAP2 POP POP JUMP JUMPDEST PUSH1 0x0 PUSH3 0x898 DUP4 DUP4 PUSH3 0x86A JUMP JUMPDEST SWAP2 POP DUP3 PUSH1 0x2 MUL DUP3 OR SWAP1 POP SWAP3 SWAP2 POP POP JUMP JUMPDEST PUSH3 0x8B3 DUP3 PUSH3 0x667 JUMP JUMPDEST PUSH8 0xFFFFFFFFFFFFFFFF DUP2 GT ISZERO PUSH3 0x8CF JUMPI PUSH3 0x8CE PUSH3 0x1FA JUMP JUMPDEST JUMPDEST PUSH3 0x8DB DUP3 SLOAD PUSH3 0x6A1 JUMP JUMPDEST PUSH3 0x8E8 DUP3 DUP3 DUP6 PUSH3 0x80D JUMP JUMPDEST PUSH1 0x0 PUSH1 0x20 SWAP1 POP PUSH1 0x1F DUP4 GT PUSH1 0x1 DUP2 EQ PUSH3 0x920 JUMPI PUSH1 0x0 DUP5 ISZERO PUSH3 0x90B JUMPI DUP3 DUP8 ADD MLOAD SWAP1 POP JUMPDEST PUSH3 0x917 DUP6 DUP3 PUSH3 0x88A JUMP JUMPDEST DUP7 SSTORE POP PUSH3 0x987 JUMP JUMPDEST PUSH1 0x1F NOT DUP5 AND PUSH3 0x930 DUP7 PUSH3 0x6D6 JUMP JUMPDEST PUSH1 0x0 JUMPDEST DUP3 DUP2 LT ISZERO PUSH3 0x95A JUMPI DUP5 DUP10 ADD MLOAD DUP3 SSTORE PUSH1 0x1 DUP3 ADD SWAP2 POP PUSH1 0x20 DUP6 ADD SWAP5 POP PUSH1 0x20 DUP2 ADD SWAP1 POP PUSH3 0x933 JUMP JUMPDEST DUP7 DUP4 LT ISZERO PUSH3 0x97A JUMPI DUP5 DUP10 ADD MLOAD PUSH3 0x976 PUSH1 0x1F DUP10 AND DUP3 PUSH3 0x86A JUMP JUMPDEST DUP4 SSTORE POP JUMPDEST PUSH1 0x1 PUSH1 0x2 DUP9 MUL ADD DUP9 SSTORE POP POP POP JUMPDEST POP POP POP POP POP POP JUMP JUMPDEST PUSH2 0x2DC DUP1 PUSH3 0x99F PUSH1 0x0 CODECOPY PUSH1 0x0 RETURN INVALID PUSH1 0x80 PUSH1 0x40 MSTORE CALLVALUE DUP1 ISZERO PUSH2 0x10 JUMPI PUSH1 0x0 DUP1 REVERT JUMPDEST POP PUSH1 0x4 CALLDATASIZE LT PUSH2 0x2B JUMPI PUSH1 0x0 CALLDATALOAD PUSH1 0xE0 SHR DUP1 PUSH4 0xD6D819EE EQ PUSH2 0x30 JUMPI JUMPDEST PUSH1 0x0 DUP1 REVERT JUMPDEST PUSH2 0x4A PUSH1 0x4 DUP1 CALLDATASIZE SUB DUP2 ADD SWAP1 PUSH2 0x45 SWAP2 SWAP1 PUSH2 0x154 JUMP JUMPDEST PUSH2 0x60 JUMP JUMPDEST PUSH1 0x40 MLOAD PUSH2 0x57 SWAP2 SWAP1 PUSH2 0x224 JUMP JUMPDEST PUSH1 0x40 MLOAD DUP1 SWAP2 SUB SWAP1 RETURN JUMPDEST PUSH1 0x0 PUSH1 0x20 MSTORE DUP2 PUSH1 0x0 MSTORE PUSH1 0x40 PUSH1 0x0 KECCAK256 DUP2 DUP2 SLOAD DUP2 LT PUSH2 0x7C JUMPI PUSH1 0x0 DUP1 REVERT JUMPDEST SWAP1 PUSH1 0x0 MSTORE PUSH1 0x20 PUSH1 0x0 KECCAK256 ADD PUSH1 0x0 SWAP2 POP SWAP2 POP POP DUP1 SLOAD PUSH2 0x98 SWAP1 PUSH2 0x275 JUMP JUMPDEST DUP1 PUSH1 0x1F ADD PUSH1 0x20 DUP1 SWAP2 DIV MUL PUSH1 0x20 ADD PUSH1 0x40 MLOAD SWAP1 DUP2 ADD PUSH1 0x40 MSTORE DUP1 SWAP3 SWAP2 SWAP1 DUP2 DUP2 MSTORE PUSH1 0x20 ADD DUP3 DUP1 SLOAD PUSH2 0xC4 SWAP1 PUSH2 0x275 JUMP JUMPDEST DUP1 ISZERO PUSH2 0x111 JUMPI DUP1 PUSH1 0x1F LT PUSH2 0xE6 JUMPI PUSH2 0x100 DUP1 DUP4 SLOAD DIV MUL DUP4 MSTORE SWAP2 PUSH1 0x20 ADD SWAP2 PUSH2 0x111 JUMP JUMPDEST DUP3 ADD SWAP2 SWAP1 PUSH1 0x0 MSTORE PUSH1 0x20 PUSH1 0x0 KECCAK256 SWAP1 JUMPDEST DUP2 SLOAD DUP2 MSTORE SWAP1 PUSH1 0x1 ADD SWAP1 PUSH1 0x20 ADD DUP1 DUP4 GT PUSH2 0xF4 JUMPI DUP3 SWAP1 SUB PUSH1 0x1F AND DUP3 ADD SWAP2 JUMPDEST POP POP POP POP POP DUP2 JUMP JUMPDEST PUSH1 0x0 DUP1 REVERT JUMPDEST PUSH1 0x0 DUP2 SWAP1 POP SWAP2 SWAP1 POP JUMP JUMPDEST PUSH2 0x131 DUP2 PUSH2 0x11E JUMP JUMPDEST DUP2 EQ PUSH2 0x13C JUMPI PUSH1 0x0 DUP1 REVERT JUMPDEST POP JUMP JUMPDEST PUSH1 0x0 DUP2 CALLDATALOAD SWAP1 POP PUSH2 0x14E DUP2 PUSH2 0x128 JUMP JUMPDEST SWAP3 SWAP2 POP POP JUMP JUMPDEST PUSH1 0x0 DUP1 PUSH1 0x40 DUP4 DUP6 SUB SLT ISZERO PUSH2 0x16B JUMPI PUSH2 0x16A PUSH2 0x119 JUMP JUMPDEST JUMPDEST PUSH1 0x0 PUSH2 0x179 DUP6 DUP3 DUP7 ADD PUSH2 0x13F JUMP JUMPDEST SWAP3 POP POP PUSH1 0x20 PUSH2 0x18A DUP6 DUP3 DUP7 ADD PUSH2 0x13F JUMP JUMPDEST SWAP2 POP POP SWAP3 POP SWAP3 SWAP1 POP JUMP JUMPDEST PUSH1 0x0 DUP2 MLOAD SWAP1 POP SWAP2 SWAP1 POP JUMP JUMPDEST PUSH1 0x0 DUP3 DUP3 MSTORE PUSH1 0x20 DUP3 ADD SWAP1 POP SWAP3 SWAP2 POP POP JUMP JUMPDEST PUSH1 0x0 JUMPDEST DUP4 DUP2 LT ISZERO PUSH2 0x1CE JUMPI DUP1 DUP3 ADD MLOAD DUP2 DUP5 ADD MSTORE PUSH1 0x20 DUP2 ADD SWAP1 POP PUSH2 0x1B3 JUMP JUMPDEST PUSH1 0x0 DUP5 DUP5 ADD MSTORE POP POP POP POP JUMP JUMPDEST PUSH1 0x0 PUSH1 0x1F NOT PUSH1 0x1F DUP4 ADD AND SWAP1 POP SWAP2 SWAP1 POP JUMP JUMPDEST PUSH1 0x0 PUSH2 0x1F6 DUP3 PUSH2 0x194 JUMP JUMPDEST PUSH2 0x200 DUP2 DUP6 PUSH2 0x19F JUMP JUMPDEST SWAP4 POP PUSH2 0x210 DUP2 DUP6 PUSH1 0x20 DUP7 ADD PUSH2 0x1B0 JUMP JUMPDEST PUSH2 0x219 DUP2 PUSH2 0x1DA JUMP JUMPDEST DUP5 ADD SWAP2 POP POP SWAP3 SWAP2 POP POP JUMP JUMPDEST PUSH1 0x0 PUSH1 0x20 DUP3 ADD SWAP1 POP DUP2 DUP2 SUB PUSH1 0x0 DUP4 ADD MSTORE PUSH2 0x23E DUP2 DUP5 PUSH2 0x1EB JUMP JUMPDEST SWAP1 POP SWAP3 SWAP2 POP POP JUMP JUMPDEST PUSH32 0x4E487B7100000000000000000000000000000000000000000000000000000000 PUSH1 0x0 MSTORE PUSH1 0x22 PUSH1 0x4 MSTORE PUSH1 0x24 PUSH1 0x0 REVERT JUMPDEST PUSH1 0x0 PUSH1 0x2 DUP3 DIV SWAP1 POP PUSH1 0x1 DUP3 AND DUP1 PUSH2 0x28D JUMPI PUSH1 0x7F DUP3 AND SWAP2 POP JUMPDEST PUSH1 0x20 DUP3 LT DUP2 SUB PUSH2 0x2A0 JUMPI PUSH2 0x29F PUSH2 0x246 JUMP JUMPDEST JUMPDEST POP SWAP2 SWAP1 POP JUMP INVALID LOG2 PUSH5 0x6970667358 0x22 SLT KECCAK256 0x22 CALL DIFFICULTY DUP5 CODECOPY 0x26 PUSH3 0xAF6745 0x4A 0xB7 PUSH5 0xD787A3961A DUP8 DUP1 SWAP2 DUP16 SSTORE 0xA7 0xE3 0x28 0xA9 0xC9 SWAP15 LOG4 PUSH13 0xC264736F6C6343000811003300 "},"methodIdentifiers":{"condicoes(uint256,uint256)":"d6d819ee"}}}}}