{"contracts/imovel.sol":{"Imovel":{"abi":[{"inputs":[{"internalType":"address[]","name":"_owners","type":"address[]"},{"internalType":"uint256","name":"_idPredio","type":"uint256"},{"internalType":"uint256[]","name":"_prazo","type":"uint256[]"},{"internalType":"address[]","name":"_donos","type":"address[]"},{"internalType":"bool[]","name":"_status","type":"bool[]"},{"internalType":"string[]","name":"_condicoes","type":"string[]"},{"internalType":"uint256[]","name":"_valorCobranca","type":"uint256[]"},{"internalType":"uint256[]","name":"_dataProxCobranca","type":"uint256[]"},{"internalType":"uint256[][]","name":"_datasRecebimento","type":"uint256[][]"},{"internalType":"uint256[][]","name":"_valoresRecebimento","type":"uint256[][]"}],"stateMutability":"nonpayable","type":"constructor"},{"inputs":[{"internalType":"uint256","name":"","type":"uint256"}],"name":"acoesCount","outputs":[{"internalType":"uint256","name":"","type":"uint256"}],"stateMutability":"view","type":"function"},{"inputs":[{"internalType":"address","name":"_newDono","type":"address"},{"internalType":"uint256","name":"_prazo","type":"uint256"},{"internalType":"bool","name":"_status","type":"bool"},{"internalType":"string","name":"_condicoes","type":"string"},{"internalType":"uint256","name":"_valorCobranca","type":"uint256"},{"internalType":"uint256","name":"_dataProxCobranca","type":"uint256"},{"internalType":"uint256[]","name":"_datasRecebimento","type":"uint256[]"},{"internalType":"uint256[]","name":"_valoresRecebimento","type":"uint256[]"}],"name":"addDono","outputs":[],"stateMutability":"nonpayable","type":"function"},{"inputs":[{"internalType":"address","name":"_newUnion","type":"address"}],"name":"addOwnerUnion","outputs":[],"stateMutability":"nonpayable","type":"function"},{"inputs":[{"internalType":"uint256","name":"","type":"uint256"},{"internalType":"uint256","name":"","type":"uint256"}],"name":"condicoes","outputs":[{"internalType":"string","name":"","type":"string"}],"stateMutability":"view","type":"function"},{"inputs":[{"internalType":"uint256","name":"","type":"uint256"}],"name":"dataProxCobranca","outputs":[{"internalType":"uint256","name":"","type":"uint256"}],"stateMutability":"view","type":"function"},{"inputs":[{"internalType":"uint256","name":"","type":"uint256"}],"name":"donos","outputs":[{"internalType":"address","name":"","type":"address"}],"stateMutability":"view","type":"function"},{"inputs":[{"internalType":"uint256","name":"","type":"uint256"},{"internalType":"uint256","name":"","type":"uint256"}],"name":"historicoRecebimento","outputs":[{"internalType":"uint256","name":"data","type":"uint256"},{"internalType":"uint256","name":"valor","type":"uint256"}],"stateMutability":"view","type":"function"},{"inputs":[{"internalType":"uint256","name":"","type":"uint256"},{"internalType":"uint256","name":"","type":"uint256"}],"name":"idAcoes","outputs":[{"internalType":"string","name":"","type":"string"}],"stateMutability":"view","type":"function"},{"inputs":[],"name":"idPredio","outputs":[{"internalType":"uint256","name":"","type":"uint256"}],"stateMutability":"view","type":"function"},{"inputs":[{"internalType":"address","name":"","type":"address"}],"name":"owner","outputs":[{"internalType":"bool","name":"","type":"bool"}],"stateMutability":"view","type":"function"},{"inputs":[{"internalType":"uint256","name":"","type":"uint256"}],"name":"prazo","outputs":[{"internalType":"uint256","name":"","type":"uint256"}],"stateMutability":"view","type":"function"},{"inputs":[{"internalType":"address","name":"_dono","type":"address"}],"name":"removeDono","outputs":[],"stateMutability":"nonpayable","type":"function"},{"inputs":[{"internalType":"address","name":"_unionMember","type":"address"}],"name":"removeOwnerUnion","outputs":[],"stateMutability":"nonpayable","type":"function"},{"inputs":[{"internalType":"uint256","name":"","type":"uint256"}],"name":"status","outputs":[{"internalType":"bool","name":"","type":"bool"}],"stateMutability":"view","type":"function"},{"inputs":[{"internalType":"address","name":"_dono","type":"address"},{"internalType":"string","name":"_acao","type":"string"}],"name":"updateAcoes","outputs":[],"stateMutability":"nonpayable","type":"function"},{"inputs":[{"internalType":"address","name":"_dono","type":"address"},{"internalType":"string","name":"_condicao","type":"string"}],"name":"updateCondicoes","outputs":[],"stateMutability":"nonpayable","type":"function"},{"inputs":[{"internalType":"address","name":"_dono","type":"address"},{"internalType":"uint256","name":"_newDataProxCobranca","type":"uint256"}],"name":"updateDataProxCobranca","outputs":[],"stateMutability":"nonpayable","type":"function"},{"inputs":[{"internalType":"address","name":"_dono","type":"address"},{"internalType":"uint256","name":"_dataRecebimento","type":"uint256"},{"internalType":"uint256","name":"_valorRecebimento","type":"uint256"}],"name":"updateHistoricoRecebimento","outputs":[],"stateMutability":"nonpayable","type":"function"},{"inputs":[{"internalType":"address","name":"_dono","type":"address"},{"internalType":"uint256","name":"_newPrazo","type":"uint256"}],"name":"updatePrazo","outputs":[],"stateMutability":"nonpayable","type":"function"},{"inputs":[{"internalType":"address","name":"_dono","type":"address"},{"internalType":"bool","name":"_newStatus","type":"bool"}],"name":"updateStatus","outputs":[],"stateMutability":"nonpayable","type":"function"},{"inputs":[{"internalType":"address","name":"_dono","type":"address"},{"internalType":"uint256","name":"_newValorCobranca","type":"uint256"}],"name":"updateValorCobranca","outputs":[],"stateMutability":"nonpayable","type":"function"},{"inputs":[{"internalType":"uint256","name":"","type":"uint256"}],"name":"valorCobranca","outputs":[{"internalType":"uint256","name":"","type":"uint256"}],"stateMutability":"view","type":"function"}],"evm":{"bytecode":{"linkReferences":{},"object":"60806040523480156200001157600080fd5b5060405162003b6938038062003b69833981810160405281019062000037919062000c95565b865182828951888b5160005b818110156200008a57600080806001815401808255809150506001900390600052602060002001600090919091909150558080620000819062000ed1565b91505062000043565b505060005b82811015620001135760026000828152602001908152602001600020828281518110620000c157620000c062000f1e565b5b6020026020010151908060018154018082558091505060019003906000526020600020016000909190919091509081620000fc91906200118e565b5080806200010a9062000ed1565b9150506200008f565b50505060005b83811015620002545760005b8382815181106200013b576200013a62000f1e565b5b6020026020010151518110156200023d5760036000838152602001908152602001600020604051806040016040528086858151811062000180576200017f62000f1e565b5b602002602001015184815181106200019d576200019c62000f1e565b5b60200260200101518152602001858581518110620001c057620001bf62000f1e565b5b60200260200101518481518110620001dd57620001dc62000f1e565b5b60200260200101518152509080600181540180825580915050600190039060005260206000209060020201600090919091909150600082015181600001556020820151816001015550508080620002349062000ed1565b91505062000125565b5080806200024b9062000ed1565b91505062000119565b5050505060005b8a51811015620002f0576001600460008d848151811062000281576200028062000f1e565b5b602002602001015173ffffffffffffffffffffffffffffffffffffffff1673ffffffffffffffffffffffffffffffffffffffff16815260200190815260200160002060006101000a81548160ff0219169083151502179055508080620002e79062000ed1565b9150506200025b565b5086600690805190602001906200030992919062000403565b508860058190555087600790805190602001906200032992919062000492565b50856008908051906020019062000342929190620004e4565b5060005b8751811015620003f257600985828151811062000368576200036762000f1e565b5b60200260200101519080600181540180825580915050600190039060005260206000200160009091909190915055600a848281518110620003ae57620003ad62000f1e565b5b602002602001015190806001815401808255809150506001900390600052602060002001600090919091909150558080620003e99062000ed1565b91505062000346565b505050505050505050505062001275565b8280548282559060005260206000209081019282156200047f579160200282015b828111156200047e5782518260006101000a81548173ffffffffffffffffffffffffffffffffffffffff021916908373ffffffffffffffffffffffffffffffffffffffff1602179055509160200191906001019062000424565b5b5090506200048e919062000591565b5090565b828054828255906000526020600020908101928215620004d1579160200282015b82811115620004d0578251825591602001919060010190620004b3565b5b509050620004e0919062000591565b5090565b82805482825590600052602060002090601f016020900481019282156200057e5791602002820160005b838211156200054d57835183826101000a81548160ff02191690831515021790555092602001926001016020816000010492830192600103026200050e565b80156200057c5782816101000a81549060ff02191690556001016020816000010492830192600103026200054d565b505b5090506200058d919062000591565b5090565b5b80821115620005ac57600081600090555060010162000592565b5090565b6000604051905090565b600080fd5b600080fd5b600080fd5b6000601f19601f8301169050919050565b7f4e487b7100000000000000000000000000000000000000000000000000000000600052604160045260246000fd5b6200061482620005c9565b810181811067ffffffffffffffff82111715620006365762000635620005da565b5b80604052505050565b60006200064b620005b0565b905062000659828262000609565b919050565b600067ffffffffffffffff8211156200067c576200067b620005da565b5b602082029050602081019050919050565b600080fd5b600073ffffffffffffffffffffffffffffffffffffffff82169050919050565b6000620006bf8262000692565b9050919050565b620006d181620006b2565b8114620006dd57600080fd5b50565b600081519050620006f181620006c6565b92915050565b60006200070e62000708846200065e565b6200063f565b905080838252602082019050602084028301858111156200073457620007336200068d565b5b835b818110156200076157806200074c8882620006e0565b84526020840193505060208101905062000736565b5050509392505050565b600082601f830112620007835762000782620005c4565b5b815162000795848260208601620006f7565b91505092915050565b6000819050919050565b620007b3816200079e565b8114620007bf57600080fd5b50565b600081519050620007d381620007a8565b92915050565b600067ffffffffffffffff821115620007f757620007f6620005da565b5b602082029050602081019050919050565b60006200081f6200081984620007d9565b6200063f565b905080838252602082019050602084028301858111156200084557620008446200068d565b5b835b818110156200087257806200085d8882620007c2565b84526020840193505060208101905062000847565b5050509392505050565b600082601f830112620008945762000893620005c4565b5b8151620008a684826020860162000808565b91505092915050565b600067ffffffffffffffff821115620008cd57620008cc620005da565b5b602082029050602081019050919050565b60008115159050919050565b620008f581620008de565b81146200090157600080fd5b50565b6000815190506200091581620008ea565b92915050565b6000620009326200092c84620008af565b6200063f565b905080838252602082019050602084028301858111156200095857620009576200068d565b5b835b8181101562000985578062000970888262000904565b8452602084019350506020810190506200095a565b5050509392505050565b600082601f830112620009a757620009a6620005c4565b5b8151620009b98482602086016200091b565b91505092915050565b600067ffffffffffffffff821115620009e057620009df620005da565b5b602082029050602081019050919050565b600080fd5b600067ffffffffffffffff82111562000a145762000a13620005da565b5b62000a1f82620005c9565b9050602081019050919050565b60005b8381101562000a4c57808201518184015260208101905062000a2f565b60008484015250505050565b600062000a6f62000a6984620009f6565b6200063f565b90508281526020810184848401111562000a8e5762000a8d620009f1565b5b62000a9b84828562000a2c565b509392505050565b600082601f83011262000abb5762000aba620005c4565b5b815162000acd84826020860162000a58565b91505092915050565b600062000aed62000ae784620009c2565b6200063f565b9050808382526020820190506020840283018581111562000b135762000b126200068d565b5b835b8181101562000b6157805167ffffffffffffffff81111562000b3c5762000b3b620005c4565b5b80860162000b4b898262000aa3565b8552602085019450505060208101905062000b15565b5050509392505050565b600082601f83011262000b835762000b82620005c4565b5b815162000b9584826020860162000ad6565b91505092915050565b600067ffffffffffffffff82111562000bbc5762000bbb620005da565b5b602082029050602081019050919050565b600062000be462000bde8462000b9e565b6200063f565b9050808382526020820190506020840283018581111562000c0a5762000c096200068d565b5b835b8181101562000c5857805167ffffffffffffffff81111562000c335762000c32620005c4565b5b80860162000c4289826200087c565b8552602085019450505060208101905062000c0c565b5050509392505050565b600082601f83011262000c7a5762000c79620005c4565b5b815162000c8c84826020860162000bcd565b91505092915050565b6000806000806000806000806000806101408b8d03121562000cbc5762000cbb620005ba565b5b60008b015167ffffffffffffffff81111562000cdd5762000cdc620005bf565b5b62000ceb8d828e016200076b565b9a5050602062000cfe8d828e01620007c2565b99505060408b015167ffffffffffffffff81111562000d225762000d21620005bf565b5b62000d308d828e016200087c565b98505060608b015167ffffffffffffffff81111562000d545762000d53620005bf565b5b62000d628d828e016200076b565b97505060808b015167ffffffffffffffff81111562000d865762000d85620005bf565b5b62000d948d828e016200098f565b96505060a08b015167ffffffffffffffff81111562000db85762000db7620005bf565b5b62000dc68d828e0162000b6b565b95505060c08b015167ffffffffffffffff81111562000dea5762000de9620005bf565b5b62000df88d828e016200087c565b94505060e08b015167ffffffffffffffff81111562000e1c5762000e1b620005bf565b5b62000e2a8d828e016200087c565b9350506101008b015167ffffffffffffffff81111562000e4f5762000e4e620005bf565b5b62000e5d8d828e0162000c62565b9250506101208b015167ffffffffffffffff81111562000e825762000e81620005bf565b5b62000e908d828e0162000c62565b9150509295989b9194979a5092959850565b7f4e487b7100000000000000000000000000000000000000000000000000000000600052601160045260246000fd5b600062000ede826200079e565b91507fffffffffffffffffffffffffffffffffffffffffffffffffffffffffffffffff820362000f135762000f1262000ea2565b5b600182019050919050565b7f4e487b7100000000000000000000000000000000000000000000000000000000600052603260045260246000fd5b600081519050919050565b7f4e487b7100000000000000000000000000000000000000000000000000000000600052602260045260246000fd5b6000600282049050600182168062000fa057607f821691505b60208210810362000fb65762000fb562000f58565b5b50919050565b60008190508160005260206000209050919050565b60006020601f8301049050919050565b600082821b905092915050565b600060088302620010207fffffffffffffffffffffffffffffffffffffffffffffffffffffffffffffffff8262000fe1565b6200102c868362000fe1565b95508019841693508086168417925050509392505050565b6000819050919050565b60006200106f6200106962001063846200079e565b62001044565b6200079e565b9050919050565b6000819050919050565b6200108b836200104e565b620010a36200109a8262001076565b84845462000fee565b825550505050565b600090565b620010ba620010ab565b620010c781848462001080565b505050565b5b81811015620010ef57620010e3600082620010b0565b600181019050620010cd565b5050565b601f8211156200113e57620011088162000fbc565b620011138462000fd1565b8101602085101562001123578190505b6200113b620011328562000fd1565b830182620010cc565b50505b505050565b600082821c905092915050565b6000620011636000198460080262001143565b1980831691505092915050565b60006200117e838362001150565b9150826002028217905092915050565b620011998262000f4d565b67ffffffffffffffff811115620011b557620011b4620005da565b5b620011c1825462000f87565b620011ce828285620010f3565b600060209050601f831160018114620012065760008415620011f1578287015190505b620011fd858262001170565b8655506200126d565b601f198416620012168662000fbc565b60005b82811015620012405784890151825560018201915060208501945060208101905062001219565b868310156200126057848901516200125c601f89168262001150565b8355505b6001600288020188555050505b505050505050565b6128e480620012856000396000f3fe608060405234801561001057600080fd5b50600436106101425760003560e01c80637444144b116100b8578063bc0f21e91161007c578063bc0f21e914610393578063d29927cf146103af578063d6d819ee146103cd578063da87fc8a146103fd578063eabfedca14610419578063f7b865161461044957610142565b80637444144b146103075780638b2b47b3146103235780638c3151be1461033f5780639e8004ee1461035b578063a7adad031461037757610142565b806342d21ef71161010a57806342d21ef7146102235780634b38b1971461025357806350541cd61461026f57806352b20ce71461028b578063666e1b39146102a757806371435955146102d757610142565b806308883fa0146101475780632bc758ff146101775780632bcda3d4146101a75780632f1e8a92146101c357806337805d53146101f3575b600080fd5b610161600480360381019061015c9190611d76565b61047a565b60405161016e9190611db2565b60405180910390f35b610191600480360381019061018c9190611dcd565b61049e565b60405161019e9190611e9d565b60405180910390f35b6101c160048036038101906101bc9190612052565b61054b565b005b6101dd60048036038101906101d89190611d76565b610685565b6040516101ea9190611db2565b60405180910390f35b61020d60048036038101906102089190611d76565b6106a9565b60405161021a9190611db2565b60405180910390f35b61023d60048036038101906102389190611d76565b6106cd565b60405161024a91906120c9565b60405180910390f35b61026d60048036038101906102689190612052565b610701565b005b610289600480360381019061028491906120e4565b61083b565b005b6102a560048036038101906102a09190612111565b610cc0565b005b6102c160048036038101906102bc91906120e4565b610e09565b6040516102ce91906120c9565b60405180910390f35b6102f160048036038101906102ec9190611d76565b610e29565b6040516102fe9190611db2565b60405180910390f35b610321600480360381019061031c919061217d565b610e4d565b005b61033d60048036038101906103389190612111565b610fb1565b005b610359600480360381019061035491906120e4565b6110fa565b005b61037560048036038101906103709190612285565b6111e1565b005b610391600480360381019061038c9190612111565b6113b8565b005b6103ad60048036038101906103a8919061238f565b611501565b005b6103b7611634565b6040516103c49190611db2565b60405180910390f35b6103e760048036038101906103e29190611dcd565b61163a565b6040516103f49190611e9d565b60405180910390f35b610417600480360381019061041291906120e4565b6116f3565b005b610433600480360381019061042e9190611d76565b6117da565b60405161044091906123f1565b60405180910390f35b610463600480360381019061045e9190611dcd565b611819565b60405161047192919061240c565b60405180910390f35b600a818154811061048a57600080fd5b906000526020600020016000915090505481565b60016020528160005260406000206020528060005260406000206000915091505080546104ca90612464565b80601f01602080910402602001604051908101604052809291908181526020018280546104f690612464565b80156105435780601f1061051857610100808354040283529160200191610543565b820191906000526020600020905b81548152906001019060200180831161052657829003601f168201915b505050505081565b600460003373ffffffffffffffffffffffffffffffffffffffff1673ffffffffffffffffffffffffffffffffffffffff16815260200190815260200160002060009054906101000a900460ff166105d7576040517f08c379a00000000000000000000000000000000000000000000000000000000081526004016105ce90612507565b60405180910390fd5b600080600090505b600680549050811015610674578373ffffffffffffffffffffffffffffffffffffffff166006828154811061061757610616612527565b5b9060005260206000200160009054906101000a900473ffffffffffffffffffffffffffffffffffffffff1673ffffffffffffffffffffffffffffffffffffffff1603610661578091505b808061066c90612585565b9150506105df565b5061067f818361185a565b50505050565b6007818154811061069557600080fd5b906000526020600020016000915090505481565b600081815481106106b957600080fd5b906000526020600020016000915090505481565b600881815481106106dd57600080fd5b9060005260206000209060209182820401919006915054906101000a900460ff1681565b600460003373ffffffffffffffffffffffffffffffffffffffff1673ffffffffffffffffffffffffffffffffffffffff16815260200190815260200160002060009054906101000a900460ff1661078d576040517f08c379a000000000000000000000000000000000000000000000000000000000815260040161078490612507565b60405180910390fd5b600080600090505b60068054905081101561082a578373ffffffffffffffffffffffffffffffffffffffff16600682815481106107cd576107cc612527565b5b9060005260206000200160009054906101000a900473ffffffffffffffffffffffffffffffffffffffff1673ffffffffffffffffffffffffffffffffffffffff1603610817578091505b808061082290612585565b915050610795565b5061083581836118ac565b50505050565b600460003373ffffffffffffffffffffffffffffffffffffffff1673ffffffffffffffffffffffffffffffffffffffff16815260200190815260200160002060009054906101000a900460ff166108c7576040517f08c379a00000000000000000000000000000000000000000000000000000000081526004016108be90612507565b60405180910390fd5b60005b600680549050811015610bc1578173ffffffffffffffffffffffffffffffffffffffff166006828154811061090257610901612527565b5b9060005260206000200160009054906101000a900473ffffffffffffffffffffffffffffffffffffffff1673ffffffffffffffffffffffffffffffffffffffff1603610bae5760008190505b600680549050811015610b83576109648261193c565b50600660018261097491906125cd565b8154811061098557610984612527565b5b9060005260206000200160009054906101000a900473ffffffffffffffffffffffffffffffffffffffff16600682815481106109c4576109c3612527565b5b9060005260206000200160006101000a81548173ffffffffffffffffffffffffffffffffffffffff021916908373ffffffffffffffffffffffffffffffffffffffff1602179055506007600182610a1b91906125cd565b81548110610a2c57610a2b612527565b5b906000526020600020015460078281548110610a4b57610a4a612527565b5b90600052602060002001819055506008600182610a6891906125cd565b81548110610a7957610a78612527565b5b90600052602060002090602091828204019190069054906101000a900460ff1660088281548110610aad57610aac612527565b5b90600052602060002090602091828204019190066101000a81548160ff0219169083151502179055506009600182610ae591906125cd565b81548110610af657610af5612527565b5b906000526020600020015460098281548110610b1557610b14612527565b5b9060005260206000200181905550600a600182610b3291906125cd565b81548110610b4357610b42612527565b5b9060005260206000200154600a8281548110610b6257610b61612527565b5b90600052602060002001819055508080610b7b90612585565b91505061094e565b50610b8d81611a52565b50600360008281526020019081526020016000206000610bad9190611c3f565b5b8080610bb990612585565b9150506108ca565b506006805480610bd457610bd3612601565b5b6001900381819060005260206000200160006101000a81549073ffffffffffffffffffffffffffffffffffffffff021916905590556007805480610c1b57610c1a612601565b5b600190038181906000526020600020016000905590556008805480610c4357610c42612601565b5b60019003818190600052602060002090602091828204019190066101000a81549060ff021916905590556009805480610c7f57610c7e612601565b5b60019003818190600052602060002001600090559055600a805480610ca757610ca6612601565b5b6001900381819060005260206000200160009055905550565b600460003373ffffffffffffffffffffffffffffffffffffffff1673ffffffffffffffffffffffffffffffffffffffff16815260200190815260200160002060009054906101000a900460ff16610d4c576040517f08c379a0000000000000000000000000000000000000000000000000000000008152600401610d4390612507565b60405180910390fd5b60005b600680549050811015610e04578273ffffffffffffffffffffffffffffffffffffffff1660068281548110610d8757610d86612527565b5b9060005260206000200160009054906101000a900473ffffffffffffffffffffffffffffffffffffffff1673ffffffffffffffffffffffffffffffffffffffff1603610df15781600a8281548110610de257610de1612527565b5b90600052602060002001819055505b8080610dfc90612585565b915050610d4f565b505050565b60046020528060005260406000206000915054906101000a900460ff1681565b60098181548110610e3957600080fd5b906000526020600020016000915090505481565b600460003373ffffffffffffffffffffffffffffffffffffffff1673ffffffffffffffffffffffffffffffffffffffff16815260200190815260200160002060009054906101000a900460ff16610ed9576040517f08c379a0000000000000000000000000000000000000000000000000000000008152600401610ed090612507565b60405180910390fd5b60005b600680549050811015610fac578273ffffffffffffffffffffffffffffffffffffffff1660068281548110610f1457610f13612527565b5b9060005260206000200160009054906101000a900473ffffffffffffffffffffffffffffffffffffffff1673ffffffffffffffffffffffffffffffffffffffff1603610f99578160088281548110610f6f57610f6e612527565b5b90600052602060002090602091828204019190066101000a81548160ff0219169083151502179055505b8080610fa490612585565b915050610edc565b505050565b600460003373ffffffffffffffffffffffffffffffffffffffff1673ffffffffffffffffffffffffffffffffffffffff16815260200190815260200160002060009054906101000a900460ff1661103d576040517f08c379a000000000000000000000000000000000000000000000000000000000815260040161103490612507565b60405180910390fd5b60005b6006805490508110156110f5578273ffffffffffffffffffffffffffffffffffffffff166006828154811061107857611077612527565b5b9060005260206000200160009054906101000a900473ffffffffffffffffffffffffffffffffffffffff1673ffffffffffffffffffffffffffffffffffffffff16036110e25781600982815481106110d3576110d2612527565b5b90600052602060002001819055505b80806110ed90612585565b915050611040565b505050565b600460003373ffffffffffffffffffffffffffffffffffffffff1673ffffffffffffffffffffffffffffffffffffffff16815260200190815260200160002060009054906101000a900460ff16611186576040517f08c379a000000000000000000000000000000000000000000000000000000000815260040161117d90612507565b60405180910390fd5b6000600460008373ffffffffffffffffffffffffffffffffffffffff1673ffffffffffffffffffffffffffffffffffffffff16815260200190815260200160002060006101000a81548160ff02191690831515021790555050565b600460003373ffffffffffffffffffffffffffffffffffffffff1673ffffffffffffffffffffffffffffffffffffffff16815260200190815260200160002060009054906101000a900460ff1661126d576040517f08c379a000000000000000000000000000000000000000000000000000000000815260040161126490612507565b60405180910390fd5b600060068054905090506006899080600181540180825580915050600190039060005260206000200160009091909190916101000a81548173ffffffffffffffffffffffffffffffffffffffff021916908373ffffffffffffffffffffffffffffffffffffffff160217905550600788908060018154018082558091505060019003906000526020600020016000909190919091505560088790806001815401808255809150506001900390600052602060002090602091828204019190069091909190916101000a81548160ff0219169083151502179055506113518187611a7c565b50846009828154811061136757611366612527565b5b906000526020600020018190555083600a828154811061138a57611389612527565b5b90600052602060002001819055506113a0611ace565b506113ac818484611b00565b50505050505050505050565b600460003373ffffffffffffffffffffffffffffffffffffffff1673ffffffffffffffffffffffffffffffffffffffff16815260200190815260200160002060009054906101000a900460ff16611444576040517f08c379a000000000000000000000000000000000000000000000000000000000815260040161143b90612507565b60405180910390fd5b60005b6006805490508110156114fc578273ffffffffffffffffffffffffffffffffffffffff166006828154811061147f5761147e612527565b5b9060005260206000200160009054906101000a900473ffffffffffffffffffffffffffffffffffffffff1673ffffffffffffffffffffffffffffffffffffffff16036114e95781600782815481106114da576114d9612527565b5b90600052602060002001819055505b80806114f490612585565b915050611447565b505050565b600460003373ffffffffffffffffffffffffffffffffffffffff1673ffffffffffffffffffffffffffffffffffffffff16815260200190815260200160002060009054906101000a900460ff1661158d576040517f08c379a000000000000000000000000000000000000000000000000000000000815260040161158490612507565b60405180910390fd5b60005b60068054905081101561162e578373ffffffffffffffffffffffffffffffffffffffff16600682815481106115c8576115c7612527565b5b9060005260206000200160009054906101000a900473ffffffffffffffffffffffffffffffffffffffff1673ffffffffffffffffffffffffffffffffffffffff160361161b57611619818484611bcb565b505b808061162690612585565b915050611590565b50505050565b60055481565b6002602052816000526040600020818154811061165657600080fd5b9060005260206000200160009150915050805461167290612464565b80601f016020809104026020016040519081016040528092919081815260200182805461169e90612464565b80156116eb5780601f106116c0576101008083540402835291602001916116eb565b820191906000526020600020905b8154815290600101906020018083116116ce57829003601f168201915b505050505081565b600460003373ffffffffffffffffffffffffffffffffffffffff1673ffffffffffffffffffffffffffffffffffffffff16815260200190815260200160002060009054906101000a900460ff1661177f576040517f08c379a000000000000000000000000000000000000000000000000000000000815260040161177690612507565b60405180910390fd5b6001600460008373ffffffffffffffffffffffffffffffffffffffff1673ffffffffffffffffffffffffffffffffffffffff16815260200190815260200160002060006101000a81548160ff02191690831515021790555050565b600681815481106117ea57600080fd5b906000526020600020016000915054906101000a900473ffffffffffffffffffffffffffffffffffffffff1681565b6003602052816000526040600020818154811061183557600080fd5b9060005260206000209060020201600091509150508060000154908060010154905082565b600060026000848152602001908152602001600020829080600181540180825580915050600190039060005260206000200160009091909190915090816118a191906127dc565b506001905092915050565b6000806001600085815481106118c5576118c4612527565b5b90600052602060002001546118da91906125cd565b905082600160008681526020019081526020016000206000838152602001908152602001600020908161190d91906127dc565b50806000858154811061192357611922612527565b5b9060005260206000200181905550600191505092915050565b600080600090505b6000838154811061195857611957612527565b5b906000526020600020015481116119ac5760016000848152602001908152602001600020600082815260200190815260200160002060006119999190611c63565b80806119a490612585565b915050611944565b5060008290505b600080549050811015611a205760006001826119cf91906125cd565b815481106119e0576119df612527565b5b9060005260206000200154600082815481106119ff576119fe612527565b5b90600052602060002001819055508080611a1890612585565b9150506119b3565b506000805480611a3357611a32612601565b5b6001900381819060005260206000200160009055905560019050919050565b6000600260008381526020019081526020016000206000611a739190611ca3565b60019050919050565b60006002600084815260200190815260200160002082908060018154018082558091505060019003906000526020600020016000909190919091509081611ac391906127dc565b506001905092915050565b600080600090806001815401808255809150506001900390600052602060002001600090919091909150556001905090565b600080600090505b8351811015611bbf57600360008681526020019081526020016000206040518060400160405280868481518110611b4257611b41612527565b5b60200260200101518152602001858481518110611b6257611b61612527565b5b60200260200101518152509080600181540180825580915050600190039060005260206000209060020201600090919091909150600082015181600001556020820151816001015550508080611bb790612585565b915050611b08565b50600190509392505050565b600060036000858152602001908152602001600020604051806040016040528085815260200184815250908060018154018082558091505060019003906000526020600020906002020160009091909190915060008201518160000155602082015181600101555050600190509392505050565b5080546000825560020290600052602060002090810190611c609190611cc4565b50565b508054611c6f90612464565b6000825580601f10611c815750611ca0565b601f016020900490600052602060002090810190611c9f9190611ceb565b5b50565b5080546000825590600052602060002090810190611cc19190611d08565b50565b5b80821115611ce757600080820160009055600182016000905550600201611cc5565b5090565b5b80821115611d04576000816000905550600101611cec565b5090565b5b80821115611d285760008181611d1f9190611c63565b50600101611d09565b5090565b6000604051905090565b600080fd5b600080fd5b6000819050919050565b611d5381611d40565b8114611d5e57600080fd5b50565b600081359050611d7081611d4a565b92915050565b600060208284031215611d8c57611d8b611d36565b5b6000611d9a84828501611d61565b91505092915050565b611dac81611d40565b82525050565b6000602082019050611dc76000830184611da3565b92915050565b60008060408385031215611de457611de3611d36565b5b6000611df285828601611d61565b9250506020611e0385828601611d61565b9150509250929050565b600081519050919050565b600082825260208201905092915050565b60005b83811015611e47578082015181840152602081019050611e2c565b60008484015250505050565b6000601f19601f8301169050919050565b6000611e6f82611e0d565b611e798185611e18565b9350611e89818560208601611e29565b611e9281611e53565b840191505092915050565b60006020820190508181036000830152611eb78184611e64565b905092915050565b600073ffffffffffffffffffffffffffffffffffffffff82169050919050565b6000611eea82611ebf565b9050919050565b611efa81611edf565b8114611f0557600080fd5b50565b600081359050611f1781611ef1565b92915050565b600080fd5b600080fd5b7f4e487b7100000000000000000000000000000000000000000000000000000000600052604160045260246000fd5b611f5f82611e53565b810181811067ffffffffffffffff82111715611f7e57611f7d611f27565b5b80604052505050565b6000611f91611d2c565b9050611f9d8282611f56565b919050565b600067ffffffffffffffff821115611fbd57611fbc611f27565b5b611fc682611e53565b9050602081019050919050565b82818337600083830152505050565b6000611ff5611ff084611fa2565b611f87565b90508281526020810184848401111561201157612010611f22565b5b61201c848285611fd3565b509392505050565b600082601f83011261203957612038611f1d565b5b8135612049848260208601611fe2565b91505092915050565b6000806040838503121561206957612068611d36565b5b600061207785828601611f08565b925050602083013567ffffffffffffffff81111561209857612097611d3b565b5b6120a485828601612024565b9150509250929050565b60008115159050919050565b6120c3816120ae565b82525050565b60006020820190506120de60008301846120ba565b92915050565b6000602082840312156120fa576120f9611d36565b5b600061210884828501611f08565b91505092915050565b6000806040838503121561212857612127611d36565b5b600061213685828601611f08565b925050602061214785828601611d61565b9150509250929050565b61215a816120ae565b811461216557600080fd5b50565b60008135905061217781612151565b92915050565b6000806040838503121561219457612193611d36565b5b60006121a285828601611f08565b92505060206121b385828601612168565b9150509250929050565b600067ffffffffffffffff8211156121d8576121d7611f27565b5b602082029050602081019050919050565b600080fd5b60006122016121fc846121bd565b611f87565b90508083825260208201905060208402830185811115612224576122236121e9565b5b835b8181101561224d57806122398882611d61565b845260208401935050602081019050612226565b5050509392505050565b600082601f83011261226c5761226b611f1d565b5b813561227c8482602086016121ee565b91505092915050565b600080600080600080600080610100898b0312156122a6576122a5611d36565b5b60006122b48b828c01611f08565b98505060206122c58b828c01611d61565b97505060406122d68b828c01612168565b965050606089013567ffffffffffffffff8111156122f7576122f6611d3b565b5b6123038b828c01612024565b95505060806123148b828c01611d61565b94505060a06123258b828c01611d61565b93505060c089013567ffffffffffffffff81111561234657612345611d3b565b5b6123528b828c01612257565b92505060e089013567ffffffffffffffff81111561237357612372611d3b565b5b61237f8b828c01612257565b9150509295985092959890939650565b6000806000606084860312156123a8576123a7611d36565b5b60006123b686828701611f08565b93505060206123c786828701611d61565b92505060406123d886828701611d61565b9150509250925092565b6123eb81611edf565b82525050565b600060208201905061240660008301846123e2565b92915050565b60006040820190506124216000830185611da3565b61242e6020830184611da3565b9392505050565b7f4e487b7100000000000000000000000000000000000000000000000000000000600052602260045260246000fd5b6000600282049050600182168061247c57607f821691505b60208210810361248f5761248e612435565b5b50919050565b7f596f7520646f6e742068617665207065726d697373696f6e20666f722074686960008201527f7320616374696f6e000000000000000000000000000000000000000000000000602082015250565b60006124f1602883611e18565b91506124fc82612495565b604082019050919050565b60006020820190508181036000830152612520816124e4565b9050919050565b7f4e487b7100000000000000000000000000000000000000000000000000000000600052603260045260246000fd5b7f4e487b7100000000000000000000000000000000000000000000000000000000600052601160045260246000fd5b600061259082611d40565b91507fffffffffffffffffffffffffffffffffffffffffffffffffffffffffffffffff82036125c2576125c1612556565b5b600182019050919050565b60006125d882611d40565b91506125e383611d40565b92508282019050808211156125fb576125fa612556565b5b92915050565b7f4e487b7100000000000000000000000000000000000000000000000000000000600052603160045260246000fd5b60008190508160005260206000209050919050565b60006020601f8301049050919050565b600082821b905092915050565b6000600883026126927fffffffffffffffffffffffffffffffffffffffffffffffffffffffffffffffff82612655565b61269c8683612655565b95508019841693508086168417925050509392505050565b6000819050919050565b60006126d96126d46126cf84611d40565b6126b4565b611d40565b9050919050565b6000819050919050565b6126f3836126be565b6127076126ff826126e0565b848454612662565b825550505050565b600090565b61271c61270f565b6127278184846126ea565b505050565b5b8181101561274b57612740600082612714565b60018101905061272d565b5050565b601f8211156127905761276181612630565b61276a84612645565b81016020851015612779578190505b61278d61278585612645565b83018261272c565b50505b505050565b600082821c905092915050565b60006127b360001984600802612795565b1980831691505092915050565b60006127cc83836127a2565b9150826002028217905092915050565b6127e582611e0d565b67ffffffffffffffff8111156127fe576127fd611f27565b5b6128088254612464565b61281382828561274f565b600060209050601f8311600181146128465760008415612834578287015190505b61283e85826127c0565b8655506128a6565b601f19841661285486612630565b60005b8281101561287c57848901518255600182019150602085019450602081019050612857565b868310156128995784890151612895601f8916826127a2565b8355505b6001600288020188555050505b50505050505056fea26469706673582212206ae958761425a257ba712d15ed2b734f438f9a0e5d8b870860bb271cbbbb5c3464736f6c63430008110033","opcodes":"PUSH1 0x80 PUSH1 0x40 MSTORE CALLVALUE DUP1 ISZERO PUSH3 0x11 JUMPI PUSH1 0x0 DUP1 REVERT JUMPDEST POP PUSH1 0x40 MLOAD PUSH3 0x3B69 CODESIZE SUB DUP1 PUSH3 0x3B69 DUP4 CODECOPY DUP2 DUP2 ADD PUSH1 0x40 MSTORE DUP2 ADD SWAP1 PUSH3 0x37 SWAP2 SWAP1 PUSH3 0xC95 JUMP JUMPDEST DUP7 MLOAD DUP3 DUP3 DUP10 MLOAD DUP9 DUP12 MLOAD PUSH1 0x0 JUMPDEST DUP2 DUP2 LT ISZERO PUSH3 0x8A JUMPI PUSH1 0x0 DUP1 DUP1 PUSH1 0x1 DUP2 SLOAD ADD DUP1 DUP3 SSTORE DUP1 SWAP2 POP POP PUSH1 0x1 SWAP1 SUB SWAP1 PUSH1 0x0 MSTORE PUSH1 0x20 PUSH1 0x0 KECCAK256 ADD PUSH1 0x0 SWAP1 SWAP2 SWAP1 SWAP2 SWAP1 SWAP2 POP SSTORE DUP1 DUP1 PUSH3 0x81 SWAP1 PUSH3 0xED1 JUMP JUMPDEST SWAP2 POP POP PUSH3 0x43 JUMP JUMPDEST POP POP PUSH1 0x0 JUMPDEST DUP3 DUP2 LT ISZERO PUSH3 0x113 JUMPI PUSH1 0x2 PUSH1 0x0 DUP3 DUP2 MSTORE PUSH1 0x20 ADD SWAP1 DUP2 MSTORE PUSH1 0x20 ADD PUSH1 0x0 KECCAK256 DUP3 DUP3 DUP2 MLOAD DUP2 LT PUSH3 0xC1 JUMPI PUSH3 0xC0 PUSH3 0xF1E JUMP JUMPDEST JUMPDEST PUSH1 0x20 MUL PUSH1 0x20 ADD ADD MLOAD SWAP1 DUP1 PUSH1 0x1 DUP2 SLOAD ADD DUP1 DUP3 SSTORE DUP1 SWAP2 POP POP PUSH1 0x1 SWAP1 SUB SWAP1 PUSH1 0x0 MSTORE PUSH1 0x20 PUSH1 0x0 KECCAK256 ADD PUSH1 0x0 SWAP1 SWAP2 SWAP1 SWAP2 SWAP1 SWAP2 POP SWAP1 DUP2 PUSH3 0xFC SWAP2 SWAP1 PUSH3 0x118E JUMP JUMPDEST POP DUP1 DUP1 PUSH3 0x10A SWAP1 PUSH3 0xED1 JUMP JUMPDEST SWAP2 POP POP PUSH3 0x8F JUMP JUMPDEST POP POP POP PUSH1 0x0 JUMPDEST DUP4 DUP2 LT ISZERO PUSH3 0x254 JUMPI PUSH1 0x0 JUMPDEST DUP4 DUP3 DUP2 MLOAD DUP2 LT PUSH3 0x13B JUMPI PUSH3 0x13A PUSH3 0xF1E JUMP JUMPDEST JUMPDEST PUSH1 0x20 MUL PUSH1 0x20 ADD ADD MLOAD MLOAD DUP2 LT ISZERO PUSH3 0x23D JUMPI PUSH1 0x3 PUSH1 0x0 DUP4 DUP2 MSTORE PUSH1 0x20 ADD SWAP1 DUP2 MSTORE PUSH1 0x20 ADD PUSH1 0x0 KECCAK256 PUSH1 0x40 MLOAD DUP1 PUSH1 0x40 ADD PUSH1 0x40 MSTORE DUP1 DUP7 DUP6 DUP2 MLOAD DUP2 LT PUSH3 0x180 JUMPI PUSH3 0x17F PUSH3 0xF1E JUMP JUMPDEST JUMPDEST PUSH1 0x20 MUL PUSH1 0x20 ADD ADD MLOAD DUP5 DUP2 MLOAD DUP2 LT PUSH3 0x19D JUMPI PUSH3 0x19C PUSH3 0xF1E JUMP JUMPDEST JUMPDEST PUSH1 0x20 MUL PUSH1 0x20 ADD ADD MLOAD DUP2 MSTORE PUSH1 0x20 ADD DUP6 DUP6 DUP2 MLOAD DUP2 LT PUSH3 0x1C0 JUMPI PUSH3 0x1BF PUSH3 0xF1E JUMP JUMPDEST JUMPDEST PUSH1 0x20 MUL PUSH1 0x20 ADD ADD MLOAD DUP5 DUP2 MLOAD DUP2 LT PUSH3 0x1DD JUMPI PUSH3 0x1DC PUSH3 0xF1E JUMP JUMPDEST JUMPDEST PUSH1 0x20 MUL PUSH1 0x20 ADD ADD MLOAD DUP2 MSTORE POP SWAP1 DUP1 PUSH1 0x1 DUP2 SLOAD ADD DUP1 DUP3 SSTORE DUP1 SWAP2 POP POP PUSH1 0x1 SWAP1 SUB SWAP1 PUSH1 0x0 MSTORE PUSH1 0x20 PUSH1 0x0 KECCAK256 SWAP1 PUSH1 0x2 MUL ADD PUSH1 0x0 SWAP1 SWAP2 SWAP1 SWAP2 SWAP1 SWAP2 POP PUSH1 0x0 DUP3 ADD MLOAD DUP2 PUSH1 0x0 ADD SSTORE PUSH1 0x20 DUP3 ADD MLOAD DUP2 PUSH1 0x1 ADD SSTORE POP POP DUP1 DUP1 PUSH3 0x234 SWAP1 PUSH3 0xED1 JUMP JUMPDEST SWAP2 POP POP PUSH3 0x125 JUMP JUMPDEST POP DUP1 DUP1 PUSH3 0x24B SWAP1 PUSH3 0xED1 JUMP JUMPDEST SWAP2 POP POP PUSH3 0x119 JUMP JUMPDEST POP POP POP POP PUSH1 0x0 JUMPDEST DUP11 MLOAD DUP2 LT ISZERO PUSH3 0x2F0 JUMPI PUSH1 0x1 PUSH1 0x4 PUSH1 0x0 DUP14 DUP5 DUP2 MLOAD DUP2 LT PUSH3 0x281 JUMPI PUSH3 0x280 PUSH3 0xF1E JUMP JUMPDEST JUMPDEST PUSH1 0x20 MUL PUSH1 0x20 ADD ADD MLOAD PUSH20 0xFFFFFFFFFFFFFFFFFFFFFFFFFFFFFFFFFFFFFFFF AND PUSH20 0xFFFFFFFFFFFFFFFFFFFFFFFFFFFFFFFFFFFFFFFF AND DUP2 MSTORE PUSH1 0x20 ADD SWAP1 DUP2 MSTORE PUSH1 0x20 ADD PUSH1 0x0 KECCAK256 PUSH1 0x0 PUSH2 0x100 EXP DUP2 SLOAD DUP2 PUSH1 0xFF MUL NOT AND SWAP1 DUP4 ISZERO ISZERO MUL OR SWAP1 SSTORE POP DUP1 DUP1 PUSH3 0x2E7 SWAP1 PUSH3 0xED1 JUMP JUMPDEST SWAP2 POP POP PUSH3 0x25B JUMP JUMPDEST POP DUP7 PUSH1 0x6 SWAP1 DUP1 MLOAD SWAP1 PUSH1 0x20 ADD SWAP1 PUSH3 0x309 SWAP3 SWAP2 SWAP1 PUSH3 0x403 JUMP JUMPDEST POP DUP9 PUSH1 0x5 DUP2 SWAP1 SSTORE POP DUP8 PUSH1 0x7 SWAP1 DUP1 MLOAD SWAP1 PUSH1 0x20 ADD SWAP1 PUSH3 0x329 SWAP3 SWAP2 SWAP1 PUSH3 0x492 JUMP JUMPDEST POP DUP6 PUSH1 0x8 SWAP1 DUP1 MLOAD SWAP1 PUSH1 0x20 ADD SWAP1 PUSH3 0x342 SWAP3 SWAP2 SWAP1 PUSH3 0x4E4 JUMP JUMPDEST POP PUSH1 0x0 JUMPDEST DUP8 MLOAD DUP2 LT ISZERO PUSH3 0x3F2 JUMPI PUSH1 0x9 DUP6 DUP3 DUP2 MLOAD DUP2 LT PUSH3 0x368 JUMPI PUSH3 0x367 PUSH3 0xF1E JUMP JUMPDEST JUMPDEST PUSH1 0x20 MUL PUSH1 0x20 ADD ADD MLOAD SWAP1 DUP1 PUSH1 0x1 DUP2 SLOAD ADD DUP1 DUP3 SSTORE DUP1 SWAP2 POP POP PUSH1 0x1 SWAP1 SUB SWAP1 PUSH1 0x0 MSTORE PUSH1 0x20 PUSH1 0x0 KECCAK256 ADD PUSH1 0x0 SWAP1 SWAP2 SWAP1 SWAP2 SWAP1 SWAP2 POP SSTORE PUSH1 0xA DUP5 DUP3 DUP2 MLOAD DUP2 LT PUSH3 0x3AE JUMPI PUSH3 0x3AD PUSH3 0xF1E JUMP JUMPDEST JUMPDEST PUSH1 0x20 MUL PUSH1 0x20 ADD ADD MLOAD SWAP1 DUP1 PUSH1 0x1 DUP2 SLOAD ADD DUP1 DUP3 SSTORE DUP1 SWAP2 POP POP PUSH1 0x1 SWAP1 SUB SWAP1 PUSH1 0x0 MSTORE PUSH1 0x20 PUSH1 0x0 KECCAK256 ADD PUSH1 0x0 SWAP1 SWAP2 SWAP1 SWAP2 SWAP1 SWAP2 POP SSTORE DUP1 DUP1 PUSH3 0x3E9 SWAP1 PUSH3 0xED1 JUMP JUMPDEST SWAP2 POP POP PUSH3 0x346 JUMP JUMPDEST POP POP POP POP POP POP POP POP POP POP POP PUSH3 0x1275 JUMP JUMPDEST DUP3 DUP1 SLOAD DUP3 DUP3 SSTORE SWAP1 PUSH1 0x0 MSTORE PUSH1 0x20 PUSH1 0x0 KECCAK256 SWAP1 DUP2 ADD SWAP3 DUP3 ISZERO PUSH3 0x47F JUMPI SWAP2 PUSH1 0x20 MUL DUP3 ADD JUMPDEST DUP3 DUP2 GT ISZERO PUSH3 0x47E JUMPI DUP3 MLOAD DUP3 PUSH1 0x0 PUSH2 0x100 EXP DUP2 SLOAD DUP2 PUSH20 0xFFFFFFFFFFFFFFFFFFFFFFFFFFFFFFFFFFFFFFFF MUL NOT AND SWAP1 DUP4 PUSH20 0xFFFFFFFFFFFFFFFFFFFFFFFFFFFFFFFFFFFFFFFF AND MUL OR SWAP1 SSTORE POP SWAP2 PUSH1 0x20 ADD SWAP2 SWAP1 PUSH1 0x1 ADD SWAP1 PUSH3 0x424 JUMP JUMPDEST JUMPDEST POP SWAP1 POP PUSH3 0x48E SWAP2 SWAP1 PUSH3 0x591 JUMP JUMPDEST POP SWAP1 JUMP JUMPDEST DUP3 DUP1 SLOAD DUP3 DUP3 SSTORE SWAP1 PUSH1 0x0 MSTORE PUSH1 0x20 PUSH1 0x0 KECCAK256 SWAP1 DUP2 ADD SWAP3 DUP3 ISZERO PUSH3 0x4D1 JUMPI SWAP2 PUSH1 0x20 MUL DUP3 ADD JUMPDEST DUP3 DUP2 GT ISZERO PUSH3 0x4D0 JUMPI DUP3 MLOAD DUP3 SSTORE SWAP2 PUSH1 0x20 ADD SWAP2 SWAP1 PUSH1 0x1 ADD SWAP1 PUSH3 0x4B3 JUMP JUMPDEST JUMPDEST POP SWAP1 POP PUSH3 0x4E0 SWAP2 SWAP1 PUSH3 0x591 JUMP JUMPDEST POP SWAP1 JUMP JUMPDEST DUP3 DUP1 SLOAD DUP3 DUP3 SSTORE SWAP1 PUSH1 0x0 MSTORE PUSH1 0x20 PUSH1 0x0 KECCAK256 SWAP1 PUSH1 0x1F ADD PUSH1 0x20 SWAP1 DIV DUP2 ADD SWAP3 DUP3 ISZERO PUSH3 0x57E JUMPI SWAP2 PUSH1 0x20 MUL DUP3 ADD PUSH1 0x0 JUMPDEST DUP4 DUP3 GT ISZERO PUSH3 0x54D JUMPI DUP4 MLOAD DUP4 DUP3 PUSH2 0x100 EXP DUP2 SLOAD DUP2 PUSH1 0xFF MUL NOT AND SWAP1 DUP4 ISZERO ISZERO MUL OR SWAP1 SSTORE POP SWAP3 PUSH1 0x20 ADD SWAP3 PUSH1 0x1 ADD PUSH1 0x20 DUP2 PUSH1 0x0 ADD DIV SWAP3 DUP4 ADD SWAP3 PUSH1 0x1 SUB MUL PUSH3 0x50E JUMP JUMPDEST DUP1 ISZERO PUSH3 0x57C JUMPI DUP3 DUP2 PUSH2 0x100 EXP DUP2 SLOAD SWAP1 PUSH1 0xFF MUL NOT AND SWAP1 SSTORE PUSH1 0x1 ADD PUSH1 0x20 DUP2 PUSH1 0x0 ADD DIV SWAP3 DUP4 ADD SWAP3 PUSH1 0x1 SUB MUL PUSH3 0x54D JUMP JUMPDEST POP JUMPDEST POP SWAP1 POP PUSH3 0x58D SWAP2 SWAP1 PUSH3 0x591 JUMP JUMPDEST POP SWAP1 JUMP JUMPDEST JUMPDEST DUP1 DUP3 GT ISZERO PUSH3 0x5AC JUMPI PUSH1 0x0 DUP2 PUSH1 0x0 SWAP1 SSTORE POP PUSH1 0x1 ADD PUSH3 0x592 JUMP JUMPDEST POP SWAP1 JUMP JUMPDEST PUSH1 0x0 PUSH1 0x40 MLOAD SWAP1 POP SWAP1 JUMP JUMPDEST PUSH1 0x0 DUP1 REVERT JUMPDEST PUSH1 0x0 DUP1 REVERT JUMPDEST PUSH1 0x0 DUP1 REVERT JUMPDEST PUSH1 0x0 PUSH1 0x1F NOT PUSH1 0x1F DUP4 ADD AND SWAP1 POP SWAP2 SWAP1 POP JUMP JUMPDEST PUSH32 0x4E487B7100000000000000000000000000000000000000000000000000000000 PUSH1 0x0 MSTORE PUSH1 0x41 PUSH1 0x4 MSTORE PUSH1 0x24 PUSH1 0x0 REVERT JUMPDEST PUSH3 0x614 DUP3 PUSH3 0x5C9 JUMP JUMPDEST DUP2 ADD DUP2 DUP2 LT PUSH8 0xFFFFFFFFFFFFFFFF DUP3 GT OR ISZERO PUSH3 0x636 JUMPI PUSH3 0x635 PUSH3 0x5DA JUMP JUMPDEST JUMPDEST DUP1 PUSH1 0x40 MSTORE POP POP POP JUMP JUMPDEST PUSH1 0x0 PUSH3 0x64B PUSH3 0x5B0 JUMP JUMPDEST SWAP1 POP PUSH3 0x659 DUP3 DUP3 PUSH3 0x609 JUMP JUMPDEST SWAP2 SWAP1 POP JUMP JUMPDEST PUSH1 0x0 PUSH8 0xFFFFFFFFFFFFFFFF DUP3 GT ISZERO PUSH3 0x67C JUMPI PUSH3 0x67B PUSH3 0x5DA JUMP JUMPDEST JUMPDEST PUSH1 0x20 DUP3 MUL SWAP1 POP PUSH1 0x20 DUP2 ADD SWAP1 POP SWAP2 SWAP1 POP JUMP JUMPDEST PUSH1 0x0 DUP1 REVERT JUMPDEST PUSH1 0x0 PUSH20 0xFFFFFFFFFFFFFFFFFFFFFFFFFFFFFFFFFFFFFFFF DUP3 AND SWAP1 POP SWAP2 SWAP1 POP JUMP JUMPDEST PUSH1 0x0 PUSH3 0x6BF DUP3 PUSH3 0x692 JUMP JUMPDEST SWAP1 POP SWAP2 SWAP1 POP JUMP JUMPDEST PUSH3 0x6D1 DUP2 PUSH3 0x6B2 JUMP JUMPDEST DUP2 EQ PUSH3 0x6DD JUMPI PUSH1 0x0 DUP1 REVERT JUMPDEST POP JUMP JUMPDEST PUSH1 0x0 DUP2 MLOAD SWAP1 POP PUSH3 0x6F1 DUP2 PUSH3 0x6C6 JUMP JUMPDEST SWAP3 SWAP2 POP POP JUMP JUMPDEST PUSH1 0x0 PUSH3 0x70E PUSH3 0x708 DUP5 PUSH3 0x65E JUMP JUMPDEST PUSH3 0x63F JUMP JUMPDEST SWAP1 POP DUP1 DUP4 DUP3 MSTORE PUSH1 0x20 DUP3 ADD SWAP1 POP PUSH1 0x20 DUP5 MUL DUP4 ADD DUP6 DUP2 GT ISZERO PUSH3 0x734 JUMPI PUSH3 0x733 PUSH3 0x68D JUMP JUMPDEST JUMPDEST DUP4 JUMPDEST DUP2 DUP2 LT ISZERO PUSH3 0x761 JUMPI DUP1 PUSH3 0x74C DUP9 DUP3 PUSH3 0x6E0 JUMP JUMPDEST DUP5 MSTORE PUSH1 0x20 DUP5 ADD SWAP4 POP POP PUSH1 0x20 DUP2 ADD SWAP1 POP PUSH3 0x736 JUMP JUMPDEST POP POP POP SWAP4 SWAP3 POP POP POP JUMP JUMPDEST PUSH1 0x0 DUP3 PUSH1 0x1F DUP4 ADD SLT PUSH3 0x783 JUMPI PUSH3 0x782 PUSH3 0x5C4 JUMP JUMPDEST JUMPDEST DUP2 MLOAD PUSH3 0x795 DUP5 DUP3 PUSH1 0x20 DUP7 ADD PUSH3 0x6F7 JUMP JUMPDEST SWAP2 POP POP SWAP3 SWAP2 POP POP JUMP JUMPDEST PUSH1 0x0 DUP2 SWAP1 POP SWAP2 SWAP1 POP JUMP JUMPDEST PUSH3 0x7B3 DUP2 PUSH3 0x79E JUMP JUMPDEST DUP2 EQ PUSH3 0x7BF JUMPI PUSH1 0x0 DUP1 REVERT JUMPDEST POP JUMP JUMPDEST PUSH1 0x0 DUP2 MLOAD SWAP1 POP PUSH3 0x7D3 DUP2 PUSH3 0x7A8 JUMP JUMPDEST SWAP3 SWAP2 POP POP JUMP JUMPDEST PUSH1 0x0 PUSH8 0xFFFFFFFFFFFFFFFF DUP3 GT ISZERO PUSH3 0x7F7 JUMPI PUSH3 0x7F6 PUSH3 0x5DA JUMP JUMPDEST JUMPDEST PUSH1 0x20 DUP3 MUL SWAP1 POP PUSH1 0x20 DUP2 ADD SWAP1 POP SWAP2 SWAP1 POP JUMP JUMPDEST PUSH1 0x0 PUSH3 0x81F PUSH3 0x819 DUP5 PUSH3 0x7D9 JUMP JUMPDEST PUSH3 0x63F JUMP JUMPDEST SWAP1 POP DUP1 DUP4 DUP3 MSTORE PUSH1 0x20 DUP3 ADD SWAP1 POP PUSH1 0x20 DUP5 MUL DUP4 ADD DUP6 DUP2 GT ISZERO PUSH3 0x845 JUMPI PUSH3 0x844 PUSH3 0x68D JUMP JUMPDEST JUMPDEST DUP4 JUMPDEST DUP2 DUP2 LT ISZERO PUSH3 0x872 JUMPI DUP1 PUSH3 0x85D DUP9 DUP3 PUSH3 0x7C2 JUMP JUMPDEST DUP5 MSTORE PUSH1 0x20 DUP5 ADD SWAP4 POP POP PUSH1 0x20 DUP2 ADD SWAP1 POP PUSH3 0x847 JUMP JUMPDEST POP POP POP SWAP4 SWAP3 POP POP POP JUMP JUMPDEST PUSH1 0x0 DUP3 PUSH1 0x1F DUP4 ADD SLT PUSH3 0x894 JUMPI PUSH3 0x893 PUSH3 0x5C4 JUMP JUMPDEST JUMPDEST DUP2 MLOAD PUSH3 0x8A6 DUP5 DUP3 PUSH1 0x20 DUP7 ADD PUSH3 0x808 JUMP JUMPDEST SWAP2 POP POP SWAP3 SWAP2 POP POP JUMP JUMPDEST PUSH1 0x0 PUSH8 0xFFFFFFFFFFFFFFFF DUP3 GT ISZERO PUSH3 0x8CD JUMPI PUSH3 0x8CC PUSH3 0x5DA JUMP JUMPDEST JUMPDEST PUSH1 0x20 DUP3 MUL SWAP1 POP PUSH1 0x20 DUP2 ADD SWAP1 POP SWAP2 SWAP1 POP JUMP JUMPDEST PUSH1 0x0 DUP2 ISZERO ISZERO SWAP1 POP SWAP2 SWAP1 POP JUMP JUMPDEST PUSH3 0x8F5 DUP2 PUSH3 0x8DE JUMP JUMPDEST DUP2 EQ PUSH3 0x901 JUMPI PUSH1 0x0 DUP1 REVERT JUMPDEST POP JUMP JUMPDEST PUSH1 0x0 DUP2 MLOAD SWAP1 POP PUSH3 0x915 DUP2 PUSH3 0x8EA JUMP JUMPDEST SWAP3 SWAP2 POP POP JUMP JUMPDEST PUSH1 0x0 PUSH3 0x932 PUSH3 0x92C DUP5 PUSH3 0x8AF JUMP JUMPDEST PUSH3 0x63F JUMP JUMPDEST SWAP1 POP DUP1 DUP4 DUP3 MSTORE PUSH1 0x20 DUP3 ADD SWAP1 POP PUSH1 0x20 DUP5 MUL DUP4 ADD DUP6 DUP2 GT ISZERO PUSH3 0x958 JUMPI PUSH3 0x957 PUSH3 0x68D JUMP JUMPDEST JUMPDEST DUP4 JUMPDEST DUP2 DUP2 LT ISZERO PUSH3 0x985 JUMPI DUP1 PUSH3 0x970 DUP9 DUP3 PUSH3 0x904 JUMP JUMPDEST DUP5 MSTORE PUSH1 0x20 DUP5 ADD SWAP4 POP POP PUSH1 0x20 DUP2 ADD SWAP1 POP PUSH3 0x95A JUMP JUMPDEST POP POP POP SWAP4 SWAP3 POP POP POP JUMP JUMPDEST PUSH1 0x0 DUP3 PUSH1 0x1F DUP4 ADD SLT PUSH3 0x9A7 JUMPI PUSH3 0x9A6 PUSH3 0x5C4 JUMP JUMPDEST JUMPDEST DUP2 MLOAD PUSH3 0x9B9 DUP5 DUP3 PUSH1 0x20 DUP7 ADD PUSH3 0x91B JUMP JUMPDEST SWAP2 POP POP SWAP3 SWAP2 POP POP JUMP JUMPDEST PUSH1 0x0 PUSH8 0xFFFFFFFFFFFFFFFF DUP3 GT ISZERO PUSH3 0x9E0 JUMPI PUSH3 0x9DF PUSH3 0x5DA JUMP JUMPDEST JUMPDEST PUSH1 0x20 DUP3 MUL SWAP1 POP PUSH1 0x20 DUP2 ADD SWAP1 POP SWAP2 SWAP1 POP JUMP JUMPDEST PUSH1 0x0 DUP1 REVERT JUMPDEST PUSH1 0x0 PUSH8 0xFFFFFFFFFFFFFFFF DUP3 GT ISZERO PUSH3 0xA14 JUMPI PUSH3 0xA13 PUSH3 0x5DA JUMP JUMPDEST JUMPDEST PUSH3 0xA1F DUP3 PUSH3 0x5C9 JUMP JUMPDEST SWAP1 POP PUSH1 0x20 DUP2 ADD SWAP1 POP SWAP2 SWAP1 POP JUMP JUMPDEST PUSH1 0x0 JUMPDEST DUP4 DUP2 LT ISZERO PUSH3 0xA4C JUMPI DUP1 DUP3 ADD MLOAD DUP2 DUP5 ADD MSTORE PUSH1 0x20 DUP2 ADD SWAP1 POP PUSH3 0xA2F JUMP JUMPDEST PUSH1 0x0 DUP5 DUP5 ADD MSTORE POP POP POP POP JUMP JUMPDEST PUSH1 0x0 PUSH3 0xA6F PUSH3 0xA69 DUP5 PUSH3 0x9F6 JUMP JUMPDEST PUSH3 0x63F JUMP JUMPDEST SWAP1 POP DUP3 DUP2 MSTORE PUSH1 0x20 DUP2 ADD DUP5 DUP5 DUP5 ADD GT ISZERO PUSH3 0xA8E JUMPI PUSH3 0xA8D PUSH3 0x9F1 JUMP JUMPDEST JUMPDEST PUSH3 0xA9B DUP5 DUP3 DUP6 PUSH3 0xA2C JUMP JUMPDEST POP SWAP4 SWAP3 POP POP POP JUMP JUMPDEST PUSH1 0x0 DUP3 PUSH1 0x1F DUP4 ADD SLT PUSH3 0xABB JUMPI PUSH3 0xABA PUSH3 0x5C4 JUMP JUMPDEST JUMPDEST DUP2 MLOAD PUSH3 0xACD DUP5 DUP3 PUSH1 0x20 DUP7 ADD PUSH3 0xA58 JUMP JUMPDEST SWAP2 POP POP SWAP3 SWAP2 POP POP JUMP JUMPDEST PUSH1 0x0 PUSH3 0xAED PUSH3 0xAE7 DUP5 PUSH3 0x9C2 JUMP JUMPDEST PUSH3 0x63F JUMP JUMPDEST SWAP1 POP DUP1 DUP4 DUP3 MSTORE PUSH1 0x20 DUP3 ADD SWAP1 POP PUSH1 0x20 DUP5 MUL DUP4 ADD DUP6 DUP2 GT ISZERO PUSH3 0xB13 JUMPI PUSH3 0xB12 PUSH3 0x68D JUMP JUMPDEST JUMPDEST DUP4 JUMPDEST DUP2 DUP2 LT ISZERO PUSH3 0xB61 JUMPI DUP1 MLOAD PUSH8 0xFFFFFFFFFFFFFFFF DUP2 GT ISZERO PUSH3 0xB3C JUMPI PUSH3 0xB3B PUSH3 0x5C4 JUMP JUMPDEST JUMPDEST DUP1 DUP7 ADD PUSH3 0xB4B DUP10 DUP3 PUSH3 0xAA3 JUMP JUMPDEST DUP6 MSTORE PUSH1 0x20 DUP6 ADD SWAP5 POP POP POP PUSH1 0x20 DUP2 ADD SWAP1 POP PUSH3 0xB15 JUMP JUMPDEST POP POP POP SWAP4 SWAP3 POP POP POP JUMP JUMPDEST PUSH1 0x0 DUP3 PUSH1 0x1F DUP4 ADD SLT PUSH3 0xB83 JUMPI PUSH3 0xB82 PUSH3 0x5C4 JUMP JUMPDEST JUMPDEST DUP2 MLOAD PUSH3 0xB95 DUP5 DUP3 PUSH1 0x20 DUP7 ADD PUSH3 0xAD6 JUMP JUMPDEST SWAP2 POP POP SWAP3 SWAP2 POP POP JUMP JUMPDEST PUSH1 0x0 PUSH8 0xFFFFFFFFFFFFFFFF DUP3 GT ISZERO PUSH3 0xBBC JUMPI PUSH3 0xBBB PUSH3 0x5DA JUMP JUMPDEST JUMPDEST PUSH1 0x20 DUP3 MUL SWAP1 POP PUSH1 0x20 DUP2 ADD SWAP1 POP SWAP2 SWAP1 POP JUMP JUMPDEST PUSH1 0x0 PUSH3 0xBE4 PUSH3 0xBDE DUP5 PUSH3 0xB9E JUMP JUMPDEST PUSH3 0x63F JUMP JUMPDEST SWAP1 POP DUP1 DUP4 DUP3 MSTORE PUSH1 0x20 DUP3 ADD SWAP1 POP PUSH1 0x20 DUP5 MUL DUP4 ADD DUP6 DUP2 GT ISZERO PUSH3 0xC0A JUMPI PUSH3 0xC09 PUSH3 0x68D JUMP JUMPDEST JUMPDEST DUP4 JUMPDEST DUP2 DUP2 LT ISZERO PUSH3 0xC58 JUMPI DUP1 MLOAD PUSH8 0xFFFFFFFFFFFFFFFF DUP2 GT ISZERO PUSH3 0xC33 JUMPI PUSH3 0xC32 PUSH3 0x5C4 JUMP JUMPDEST JUMPDEST DUP1 DUP7 ADD PUSH3 0xC42 DUP10 DUP3 PUSH3 0x87C JUMP JUMPDEST DUP6 MSTORE PUSH1 0x20 DUP6 ADD SWAP5 POP POP POP PUSH1 0x20 DUP2 ADD SWAP1 POP PUSH3 0xC0C JUMP JUMPDEST POP POP POP SWAP4 SWAP3 POP POP POP JUMP JUMPDEST PUSH1 0x0 DUP3 PUSH1 0x1F DUP4 ADD SLT PUSH3 0xC7A JUMPI PUSH3 0xC79 PUSH3 0x5C4 JUMP JUMPDEST JUMPDEST DUP2 MLOAD PUSH3 0xC8C DUP5 DUP3 PUSH1 0x20 DUP7 ADD PUSH3 0xBCD JUMP JUMPDEST SWAP2 POP POP SWAP3 SWAP2 POP POP JUMP JUMPDEST PUSH1 0x0 DUP1 PUSH1 0x0 DUP1 PUSH1 0x0 DUP1 PUSH1 0x0 DUP1 PUSH1 0x0 DUP1 PUSH2 0x140 DUP12 DUP14 SUB SLT ISZERO PUSH3 0xCBC JUMPI PUSH3 0xCBB PUSH3 0x5BA JUMP JUMPDEST JUMPDEST PUSH1 0x0 DUP12 ADD MLOAD PUSH8 0xFFFFFFFFFFFFFFFF DUP2 GT ISZERO PUSH3 0xCDD JUMPI PUSH3 0xCDC PUSH3 0x5BF JUMP JUMPDEST JUMPDEST PUSH3 0xCEB DUP14 DUP3 DUP15 ADD PUSH3 0x76B JUMP JUMPDEST SWAP11 POP POP PUSH1 0x20 PUSH3 0xCFE DUP14 DUP3 DUP15 ADD PUSH3 0x7C2 JUMP JUMPDEST SWAP10 POP POP PUSH1 0x40 DUP12 ADD MLOAD PUSH8 0xFFFFFFFFFFFFFFFF DUP2 GT ISZERO PUSH3 0xD22 JUMPI PUSH3 0xD21 PUSH3 0x5BF JUMP JUMPDEST JUMPDEST PUSH3 0xD30 DUP14 DUP3 DUP15 ADD PUSH3 0x87C JUMP JUMPDEST SWAP9 POP POP PUSH1 0x60 DUP12 ADD MLOAD PUSH8 0xFFFFFFFFFFFFFFFF DUP2 GT ISZERO PUSH3 0xD54 JUMPI PUSH3 0xD53 PUSH3 0x5BF JUMP JUMPDEST JUMPDEST PUSH3 0xD62 DUP14 DUP3 DUP15 ADD PUSH3 0x76B JUMP JUMPDEST SWAP8 POP POP PUSH1 0x80 DUP12 ADD MLOAD PUSH8 0xFFFFFFFFFFFFFFFF DUP2 GT ISZERO PUSH3 0xD86 JUMPI PUSH3 0xD85 PUSH3 0x5BF JUMP JUMPDEST JUMPDEST PUSH3 0xD94 DUP14 DUP3 DUP15 ADD PUSH3 0x98F JUMP JUMPDEST SWAP7 POP POP PUSH1 0xA0 DUP12 ADD MLOAD PUSH8 0xFFFFFFFFFFFFFFFF DUP2 GT ISZERO PUSH3 0xDB8 JUMPI PUSH3 0xDB7 PUSH3 0x5BF JUMP JUMPDEST JUMPDEST PUSH3 0xDC6 DUP14 DUP3 DUP15 ADD PUSH3 0xB6B JUMP JUMPDEST SWAP6 POP POP PUSH1 0xC0 DUP12 ADD MLOAD PUSH8 0xFFFFFFFFFFFFFFFF DUP2 GT ISZERO PUSH3 0xDEA JUMPI PUSH3 0xDE9 PUSH3 0x5BF JUMP JUMPDEST JUMPDEST PUSH3 0xDF8 DUP14 DUP3 DUP15 ADD PUSH3 0x87C JUMP JUMPDEST SWAP5 POP POP PUSH1 0xE0 DUP12 ADD MLOAD PUSH8 0xFFFFFFFFFFFFFFFF DUP2 GT ISZERO PUSH3 0xE1C JUMPI PUSH3 0xE1B PUSH3 0x5BF JUMP JUMPDEST JUMPDEST PUSH3 0xE2A DUP14 DUP3 DUP15 ADD PUSH3 0x87C JUMP JUMPDEST SWAP4 POP POP PUSH2 0x100 DUP12 ADD MLOAD PUSH8 0xFFFFFFFFFFFFFFFF DUP2 GT ISZERO PUSH3 0xE4F JUMPI PUSH3 0xE4E PUSH3 0x5BF JUMP JUMPDEST JUMPDEST PUSH3 0xE5D DUP14 DUP3 DUP15 ADD PUSH3 0xC62 JUMP JUMPDEST SWAP3 POP POP PUSH2 0x120 DUP12 ADD MLOAD PUSH8 0xFFFFFFFFFFFFFFFF DUP2 GT ISZERO PUSH3 0xE82 JUMPI PUSH3 0xE81 PUSH3 0x5BF JUMP JUMPDEST JUMPDEST PUSH3 0xE90 DUP14 DUP3 DUP15 ADD PUSH3 0xC62 JUMP JUMPDEST SWAP2 POP POP SWAP3 SWAP6 SWAP9 SWAP12 SWAP2 SWAP5 SWAP8 SWAP11 POP SWAP3 SWAP6 SWAP9 POP JUMP JUMPDEST PUSH32 0x4E487B7100000000000000000000000000000000000000000000000000000000 PUSH1 0x0 MSTORE PUSH1 0x11 PUSH1 0x4 MSTORE PUSH1 0x24 PUSH1 0x0 REVERT JUMPDEST PUSH1 0x0 PUSH3 0xEDE DUP3 PUSH3 0x79E JUMP JUMPDEST SWAP2 POP PUSH32 0xFFFFFFFFFFFFFFFFFFFFFFFFFFFFFFFFFFFFFFFFFFFFFFFFFFFFFFFFFFFFFFFF DUP3 SUB PUSH3 0xF13 JUMPI PUSH3 0xF12 PUSH3 0xEA2 JUMP JUMPDEST JUMPDEST PUSH1 0x1 DUP3 ADD SWAP1 POP SWAP2 SWAP1 POP JUMP JUMPDEST PUSH32 0x4E487B7100000000000000000000000000000000000000000000000000000000 PUSH1 0x0 MSTORE PUSH1 0x32 PUSH1 0x4 MSTORE PUSH1 0x24 PUSH1 0x0 REVERT JUMPDEST PUSH1 0x0 DUP2 MLOAD SWAP1 POP SWAP2 SWAP1 POP JUMP JUMPDEST PUSH32 0x4E487B7100000000000000000000000000000000000000000000000000000000 PUSH1 0x0 MSTORE PUSH1 0x22 PUSH1 0x4 MSTORE PUSH1 0x24 PUSH1 0x0 REVERT JUMPDEST PUSH1 0x0 PUSH1 0x2 DUP3 DIV SWAP1 POP PUSH1 0x1 DUP3 AND DUP1 PUSH3 0xFA0 JUMPI PUSH1 0x7F DUP3 AND SWAP2 POP JUMPDEST PUSH1 0x20 DUP3 LT DUP2 SUB PUSH3 0xFB6 JUMPI PUSH3 0xFB5 PUSH3 0xF58 JUMP JUMPDEST JUMPDEST POP SWAP2 SWAP1 POP JUMP JUMPDEST PUSH1 0x0 DUP2 SWAP1 POP DUP2 PUSH1 0x0 MSTORE PUSH1 0x20 PUSH1 0x0 KECCAK256 SWAP1 POP SWAP2 SWAP1 POP JUMP JUMPDEST PUSH1 0x0 PUSH1 0x20 PUSH1 0x1F DUP4 ADD DIV SWAP1 POP SWAP2 SWAP1 POP JUMP JUMPDEST PUSH1 0x0 DUP3 DUP3 SHL SWAP1 POP SWAP3 SWAP2 POP POP JUMP JUMPDEST PUSH1 0x0 PUSH1 0x8 DUP4 MUL PUSH3 0x1020 PUSH32 0xFFFFFFFFFFFFFFFFFFFFFFFFFFFFFFFFFFFFFFFFFFFFFFFFFFFFFFFFFFFFFFFF DUP3 PUSH3 0xFE1 JUMP JUMPDEST PUSH3 0x102C DUP7 DUP4 PUSH3 0xFE1 JUMP JUMPDEST SWAP6 POP DUP1 NOT DUP5 AND SWAP4 POP DUP1 DUP7 AND DUP5 OR SWAP3 POP POP POP SWAP4 SWAP3 POP POP POP JUMP JUMPDEST PUSH1 0x0 DUP2 SWAP1 POP SWAP2 SWAP1 POP JUMP JUMPDEST PUSH1 0x0 PUSH3 0x106F PUSH3 0x1069 PUSH3 0x1063 DUP5 PUSH3 0x79E JUMP JUMPDEST PUSH3 0x1044 JUMP JUMPDEST PUSH3 0x79E JUMP JUMPDEST SWAP1 POP SWAP2 SWAP1 POP JUMP JUMPDEST PUSH1 0x0 DUP2 SWAP1 POP SWAP2 SWAP1 POP JUMP JUMPDEST PUSH3 0x108B DUP4 PUSH3 0x104E JUMP JUMPDEST PUSH3 0x10A3 PUSH3 0x109A DUP3 PUSH3 0x1076 JUMP JUMPDEST DUP5 DUP5 SLOAD PUSH3 0xFEE JUMP JUMPDEST DUP3 SSTORE POP POP POP POP JUMP JUMPDEST PUSH1 0x0 SWAP1 JUMP JUMPDEST PUSH3 0x10BA PUSH3 0x10AB JUMP JUMPDEST PUSH3 0x10C7 DUP2 DUP5 DUP5 PUSH3 0x1080 JUMP JUMPDEST POP POP POP JUMP JUMPDEST JUMPDEST DUP2 DUP2 LT ISZERO PUSH3 0x10EF JUMPI PUSH3 0x10E3 PUSH1 0x0 DUP3 PUSH3 0x10B0 JUMP JUMPDEST PUSH1 0x1 DUP2 ADD SWAP1 POP PUSH3 0x10CD JUMP JUMPDEST POP POP JUMP JUMPDEST PUSH1 0x1F DUP3 GT ISZERO PUSH3 0x113E JUMPI PUSH3 0x1108 DUP2 PUSH3 0xFBC JUMP JUMPDEST PUSH3 0x1113 DUP5 PUSH3 0xFD1 JUMP JUMPDEST DUP2 ADD PUSH1 0x20 DUP6 LT ISZERO PUSH3 0x1123 JUMPI DUP2 SWAP1 POP JUMPDEST PUSH3 0x113B PUSH3 0x1132 DUP6 PUSH3 0xFD1 JUMP JUMPDEST DUP4 ADD DUP3 PUSH3 0x10CC JUMP JUMPDEST POP POP JUMPDEST POP POP POP JUMP JUMPDEST PUSH1 0x0 DUP3 DUP3 SHR SWAP1 POP SWAP3 SWAP2 POP POP JUMP JUMPDEST PUSH1 0x0 PUSH3 0x1163 PUSH1 0x0 NOT DUP5 PUSH1 0x8 MUL PUSH3 0x1143 JUMP JUMPDEST NOT DUP1 DUP4 AND SWAP2 POP POP SWAP3 SWAP2 POP POP JUMP JUMPDEST PUSH1 0x0 PUSH3 0x117E DUP4 DUP4 PUSH3 0x1150 JUMP JUMPDEST SWAP2 POP DUP3 PUSH1 0x2 MUL DUP3 OR SWAP1 POP SWAP3 SWAP2 POP POP JUMP JUMPDEST PUSH3 0x1199 DUP3 PUSH3 0xF4D JUMP JUMPDEST PUSH8 0xFFFFFFFFFFFFFFFF DUP2 GT ISZERO PUSH3 0x11B5 JUMPI PUSH3 0x11B4 PUSH3 0x5DA JUMP JUMPDEST JUMPDEST PUSH3 0x11C1 DUP3 SLOAD PUSH3 0xF87 JUMP JUMPDEST PUSH3 0x11CE DUP3 DUP3 DUP6 PUSH3 0x10F3 JUMP JUMPDEST PUSH1 0x0 PUSH1 0x20 SWAP1 POP PUSH1 0x1F DUP4 GT PUSH1 0x1 DUP2 EQ PUSH3 0x1206 JUMPI PUSH1 0x0 DUP5 ISZERO PUSH3 0x11F1 JUMPI DUP3 DUP8 ADD MLOAD SWAP1 POP JUMPDEST PUSH3 0x11FD DUP6 DUP3 PUSH3 0x1170 JUMP JUMPDEST DUP7 SSTORE POP PUSH3 0x126D JUMP JUMPDEST PUSH1 0x1F NOT DUP5 AND PUSH3 0x1216 DUP7 PUSH3 0xFBC JUMP JUMPDEST PUSH1 0x0 JUMPDEST DUP3 DUP2 LT ISZERO PUSH3 0x1240 JUMPI DUP5 DUP10 ADD MLOAD DUP3 SSTORE PUSH1 0x1 DUP3 ADD SWAP2 POP PUSH1 0x20 DUP6 ADD SWAP5 POP PUSH1 0x20 DUP2 ADD SWAP1 POP PUSH3 0x1219 JUMP JUMPDEST DUP7 DUP4 LT ISZERO PUSH3 0x1260 JUMPI DUP5 DUP10 ADD MLOAD PUSH3 0x125C PUSH1 0x1F DUP10 AND DUP3 PUSH3 0x1150 JUMP JUMPDEST DUP4 SSTORE POP JUMPDEST PUSH1 0x1 PUSH1 0x2 DUP9 MUL ADD DUP9 SSTORE POP POP POP JUMPDEST POP POP POP POP POP POP JUMP JUMPDEST PUSH2 0x28E4 DUP1 PUSH3 0x1285 PUSH1 0x0 CODECOPY PUSH1 0x0 RETURN INVALID PUSH1 0x80 PUSH1 0x40 MSTORE CALLVALUE DUP1 ISZERO PUSH2 0x10 JUMPI PUSH1 0x0 DUP1 REVERT JUMPDEST POP PUSH1 0x4 CALLDATASIZE LT PUSH2 0x142 JUMPI PUSH1 0x0 CALLDATALOAD PUSH1 0xE0 SHR DUP1 PUSH4 0x7444144B GT PUSH2 0xB8 JUMPI DUP1 PUSH4 0xBC0F21E9 GT PUSH2 0x7C JUMPI DUP1 PUSH4 0xBC0F21E9 EQ PUSH2 0x393 JUMPI DUP1 PUSH4 0xD29927CF EQ PUSH2 0x3AF JUMPI DUP1 PUSH4 0xD6D819EE EQ PUSH2 0x3CD JUMPI DUP1 PUSH4 0xDA87FC8A EQ PUSH2 0x3FD JUMPI DUP1 PUSH4 0xEABFEDCA EQ PUSH2 0x419 JUMPI DUP1 PUSH4 0xF7B86516 EQ PUSH2 0x449 JUMPI PUSH2 0x142 JUMP JUMPDEST DUP1 PUSH4 0x7444144B EQ PUSH2 0x307 JUMPI DUP1 PUSH4 0x8B2B47B3 EQ PUSH2 0x323 JUMPI DUP1 PUSH4 0x8C3151BE EQ PUSH2 0x33F JUMPI DUP1 PUSH4 0x9E8004EE EQ PUSH2 0x35B JUMPI DUP1 PUSH4 0xA7ADAD03 EQ PUSH2 0x377 JUMPI PUSH2 0x142 JUMP JUMPDEST DUP1 PUSH4 0x42D21EF7 GT PUSH2 0x10A JUMPI DUP1 PUSH4 0x42D21EF7 EQ PUSH2 0x223 JUMPI DUP1 PUSH4 0x4B38B197 EQ PUSH2 0x253 JUMPI DUP1 PUSH4 0x50541CD6 EQ PUSH2 0x26F JUMPI DUP1 PUSH4 0x52B20CE7 EQ PUSH2 0x28B JUMPI DUP1 PUSH4 0x666E1B39 EQ PUSH2 0x2A7 JUMPI DUP1 PUSH4 0x71435955 EQ PUSH2 0x2D7 JUMPI PUSH2 0x142 JUMP JUMPDEST DUP1 PUSH4 0x8883FA0 EQ PUSH2 0x147 JUMPI DUP1 PUSH4 0x2BC758FF EQ PUSH2 0x177 JUMPI DUP1 PUSH4 0x2BCDA3D4 EQ PUSH2 0x1A7 JUMPI DUP1 PUSH4 0x2F1E8A92 EQ PUSH2 0x1C3 JUMPI DUP1 PUSH4 0x37805D53 EQ PUSH2 0x1F3 JUMPI JUMPDEST PUSH1 0x0 DUP1 REVERT JUMPDEST PUSH2 0x161 PUSH1 0x4 DUP1 CALLDATASIZE SUB DUP2 ADD SWAP1 PUSH2 0x15C SWAP2 SWAP1 PUSH2 0x1D76 JUMP JUMPDEST PUSH2 0x47A JUMP JUMPDEST PUSH1 0x40 MLOAD PUSH2 0x16E SWAP2 SWAP1 PUSH2 0x1DB2 JUMP JUMPDEST PUSH1 0x40 MLOAD DUP1 SWAP2 SUB SWAP1 RETURN JUMPDEST PUSH2 0x191 PUSH1 0x4 DUP1 CALLDATASIZE SUB DUP2 ADD SWAP1 PUSH2 0x18C SWAP2 SWAP1 PUSH2 0x1DCD JUMP JUMPDEST PUSH2 0x49E JUMP JUMPDEST PUSH1 0x40 MLOAD PUSH2 0x19E SWAP2 SWAP1 PUSH2 0x1E9D JUMP JUMPDEST PUSH1 0x40 MLOAD DUP1 SWAP2 SUB SWAP1 RETURN JUMPDEST PUSH2 0x1C1 PUSH1 0x4 DUP1 CALLDATASIZE SUB DUP2 ADD SWAP1 PUSH2 0x1BC SWAP2 SWAP1 PUSH2 0x2052 JUMP JUMPDEST PUSH2 0x54B JUMP JUMPDEST STOP JUMPDEST PUSH2 0x1DD PUSH1 0x4 DUP1 CALLDATASIZE SUB DUP2 ADD SWAP1 PUSH2 0x1D8 SWAP2 SWAP1 PUSH2 0x1D76 JUMP JUMPDEST PUSH2 0x685 JUMP JUMPDEST PUSH1 0x40 MLOAD PUSH2 0x1EA SWAP2 SWAP1 PUSH2 0x1DB2 JUMP JUMPDEST PUSH1 0x40 MLOAD DUP1 SWAP2 SUB SWAP1 RETURN JUMPDEST PUSH2 0x20D PUSH1 0x4 DUP1 CALLDATASIZE SUB DUP2 ADD SWAP1 PUSH2 0x208 SWAP2 SWAP1 PUSH2 0x1D76 JUMP JUMPDEST PUSH2 0x6A9 JUMP JUMPDEST PUSH1 0x40 MLOAD PUSH2 0x21A SWAP2 SWAP1 PUSH2 0x1DB2 JUMP JUMPDEST PUSH1 0x40 MLOAD DUP1 SWAP2 SUB SWAP1 RETURN JUMPDEST PUSH2 0x23D PUSH1 0x4 DUP1 CALLDATASIZE SUB DUP2 ADD SWAP1 PUSH2 0x238 SWAP2 SWAP1 PUSH2 0x1D76 JUMP JUMPDEST PUSH2 0x6CD JUMP JUMPDEST PUSH1 0x40 MLOAD PUSH2 0x24A SWAP2 SWAP1 PUSH2 0x20C9 JUMP JUMPDEST PUSH1 0x40 MLOAD DUP1 SWAP2 SUB SWAP1 RETURN JUMPDEST PUSH2 0x26D PUSH1 0x4 DUP1 CALLDATASIZE SUB DUP2 ADD SWAP1 PUSH2 0x268 SWAP2 SWAP1 PUSH2 0x2052 JUMP JUMPDEST PUSH2 0x701 JUMP JUMPDEST STOP JUMPDEST PUSH2 0x289 PUSH1 0x4 DUP1 CALLDATASIZE SUB DUP2 ADD SWAP1 PUSH2 0x284 SWAP2 SWAP1 PUSH2 0x20E4 JUMP JUMPDEST PUSH2 0x83B JUMP JUMPDEST STOP JUMPDEST PUSH2 0x2A5 PUSH1 0x4 DUP1 CALLDATASIZE SUB DUP2 ADD SWAP1 PUSH2 0x2A0 SWAP2 SWAP1 PUSH2 0x2111 JUMP JUMPDEST PUSH2 0xCC0 JUMP JUMPDEST STOP JUMPDEST PUSH2 0x2C1 PUSH1 0x4 DUP1 CALLDATASIZE SUB DUP2 ADD SWAP1 PUSH2 0x2BC SWAP2 SWAP1 PUSH2 0x20E4 JUMP JUMPDEST PUSH2 0xE09 JUMP JUMPDEST PUSH1 0x40 MLOAD PUSH2 0x2CE SWAP2 SWAP1 PUSH2 0x20C9 JUMP JUMPDEST PUSH1 0x40 MLOAD DUP1 SWAP2 SUB SWAP1 RETURN JUMPDEST PUSH2 0x2F1 PUSH1 0x4 DUP1 CALLDATASIZE SUB DUP2 ADD SWAP1 PUSH2 0x2EC SWAP2 SWAP1 PUSH2 0x1D76 JUMP JUMPDEST PUSH2 0xE29 JUMP JUMPDEST PUSH1 0x40 MLOAD PUSH2 0x2FE SWAP2 SWAP1 PUSH2 0x1DB2 JUMP JUMPDEST PUSH1 0x40 MLOAD DUP1 SWAP2 SUB SWAP1 RETURN JUMPDEST PUSH2 0x321 PUSH1 0x4 DUP1 CALLDATASIZE SUB DUP2 ADD SWAP1 PUSH2 0x31C SWAP2 SWAP1 PUSH2 0x217D JUMP JUMPDEST PUSH2 0xE4D JUMP JUMPDEST STOP JUMPDEST PUSH2 0x33D PUSH1 0x4 DUP1 CALLDATASIZE SUB DUP2 ADD SWAP1 PUSH2 0x338 SWAP2 SWAP1 PUSH2 0x2111 JUMP JUMPDEST PUSH2 0xFB1 JUMP JUMPDEST STOP JUMPDEST PUSH2 0x359 PUSH1 0x4 DUP1 CALLDATASIZE SUB DUP2 ADD SWAP1 PUSH2 0x354 SWAP2 SWAP1 PUSH2 0x20E4 JUMP JUMPDEST PUSH2 0x10FA JUMP JUMPDEST STOP JUMPDEST PUSH2 0x375 PUSH1 0x4 DUP1 CALLDATASIZE SUB DUP2 ADD SWAP1 PUSH2 0x370 SWAP2 SWAP1 PUSH2 0x2285 JUMP JUMPDEST PUSH2 0x11E1 JUMP JUMPDEST STOP JUMPDEST PUSH2 0x391 PUSH1 0x4 DUP1 CALLDATASIZE SUB DUP2 ADD SWAP1 PUSH2 0x38C SWAP2 SWAP1 PUSH2 0x2111 JUMP JUMPDEST PUSH2 0x13B8 JUMP JUMPDEST STOP JUMPDEST PUSH2 0x3AD PUSH1 0x4 DUP1 CALLDATASIZE SUB DUP2 ADD SWAP1 PUSH2 0x3A8 SWAP2 SWAP1 PUSH2 0x238F JUMP JUMPDEST PUSH2 0x1501 JUMP JUMPDEST STOP JUMPDEST PUSH2 0x3B7 PUSH2 0x1634 JUMP JUMPDEST PUSH1 0x40 MLOAD PUSH2 0x3C4 SWAP2 SWAP1 PUSH2 0x1DB2 JUMP JUMPDEST PUSH1 0x40 MLOAD DUP1 SWAP2 SUB SWAP1 RETURN JUMPDEST PUSH2 0x3E7 PUSH1 0x4 DUP1 CALLDATASIZE SUB DUP2 ADD SWAP1 PUSH2 0x3E2 SWAP2 SWAP1 PUSH2 0x1DCD JUMP JUMPDEST PUSH2 0x163A JUMP JUMPDEST PUSH1 0x40 MLOAD PUSH2 0x3F4 SWAP2 SWAP1 PUSH2 0x1E9D JUMP JUMPDEST PUSH1 0x40 MLOAD DUP1 SWAP2 SUB SWAP1 RETURN JUMPDEST PUSH2 0x417 PUSH1 0x4 DUP1 CALLDATASIZE SUB DUP2 ADD SWAP1 PUSH2 0x412 SWAP2 SWAP1 PUSH2 0x20E4 JUMP JUMPDEST PUSH2 0x16F3 JUMP JUMPDEST STOP JUMPDEST PUSH2 0x433 PUSH1 0x4 DUP1 CALLDATASIZE SUB DUP2 ADD SWAP1 PUSH2 0x42E SWAP2 SWAP1 PUSH2 0x1D76 JUMP JUMPDEST PUSH2 0x17DA JUMP JUMPDEST PUSH1 0x40 MLOAD PUSH2 0x440 SWAP2 SWAP1 PUSH2 0x23F1 JUMP JUMPDEST PUSH1 0x40 MLOAD DUP1 SWAP2 SUB SWAP1 RETURN JUMPDEST PUSH2 0x463 PUSH1 0x4 DUP1 CALLDATASIZE SUB DUP2 ADD SWAP1 PUSH2 0x45E SWAP2 SWAP1 PUSH2 0x1DCD JUMP JUMPDEST PUSH2 0x1819 JUMP JUMPDEST PUSH1 0x40 MLOAD PUSH2 0x471 SWAP3 SWAP2 SWAP1 PUSH2 0x240C JUMP JUMPDEST PUSH1 0x40 MLOAD DUP1 SWAP2 SUB SWAP1 RETURN JUMPDEST PUSH1 0xA DUP2 DUP2 SLOAD DUP2 LT PUSH2 0x48A JUMPI PUSH1 0x0 DUP1 REVERT JUMPDEST SWAP1 PUSH1 0x0 MSTORE PUSH1 0x20 PUSH1 0x0 KECCAK256 ADD PUSH1 0x0 SWAP2 POP SWAP1 POP SLOAD DUP2 JUMP JUMPDEST PUSH1 0x1 PUSH1 0x20 MSTORE DUP2 PUSH1 0x0 MSTORE PUSH1 0x40 PUSH1 0x0 KECCAK256 PUSH1 0x20 MSTORE DUP1 PUSH1 0x0 MSTORE PUSH1 0x40 PUSH1 0x0 KECCAK256 PUSH1 0x0 SWAP2 POP SWAP2 POP POP DUP1 SLOAD PUSH2 0x4CA SWAP1 PUSH2 0x2464 JUMP JUMPDEST DUP1 PUSH1 0x1F ADD PUSH1 0x20 DUP1 SWAP2 DIV MUL PUSH1 0x20 ADD PUSH1 0x40 MLOAD SWAP1 DUP2 ADD PUSH1 0x40 MSTORE DUP1 SWAP3 SWAP2 SWAP1 DUP2 DUP2 MSTORE PUSH1 0x20 ADD DUP3 DUP1 SLOAD PUSH2 0x4F6 SWAP1 PUSH2 0x2464 JUMP JUMPDEST DUP1 ISZERO PUSH2 0x543 JUMPI DUP1 PUSH1 0x1F LT PUSH2 0x518 JUMPI PUSH2 0x100 DUP1 DUP4 SLOAD DIV MUL DUP4 MSTORE SWAP2 PUSH1 0x20 ADD SWAP2 PUSH2 0x543 JUMP JUMPDEST DUP3 ADD SWAP2 SWAP1 PUSH1 0x0 MSTORE PUSH1 0x20 PUSH1 0x0 KECCAK256 SWAP1 JUMPDEST DUP2 SLOAD DUP2 MSTORE SWAP1 PUSH1 0x1 ADD SWAP1 PUSH1 0x20 ADD DUP1 DUP4 GT PUSH2 0x526 JUMPI DUP3 SWAP1 SUB PUSH1 0x1F AND DUP3 ADD SWAP2 JUMPDEST POP POP POP POP POP DUP2 JUMP JUMPDEST PUSH1 0x4 PUSH1 0x0 CALLER PUSH20 0xFFFFFFFFFFFFFFFFFFFFFFFFFFFFFFFFFFFFFFFF AND PUSH20 0xFFFFFFFFFFFFFFFFFFFFFFFFFFFFFFFFFFFFFFFF AND DUP2 MSTORE PUSH1 0x20 ADD SWAP1 DUP2 MSTORE PUSH1 0x20 ADD PUSH1 0x0 KECCAK256 PUSH1 0x0 SWAP1 SLOAD SWAP1 PUSH2 0x100 EXP SWAP1 DIV PUSH1 0xFF AND PUSH2 0x5D7 JUMPI PUSH1 0x40 MLOAD PUSH32 0x8C379A000000000000000000000000000000000000000000000000000000000 DUP2 MSTORE PUSH1 0x4 ADD PUSH2 0x5CE SWAP1 PUSH2 0x2507 JUMP JUMPDEST PUSH1 0x40 MLOAD DUP1 SWAP2 SUB SWAP1 REVERT JUMPDEST PUSH1 0x0 DUP1 PUSH1 0x0 SWAP1 POP JUMPDEST PUSH1 0x6 DUP1 SLOAD SWAP1 POP DUP2 LT ISZERO PUSH2 0x674 JUMPI DUP4 PUSH20 0xFFFFFFFFFFFFFFFFFFFFFFFFFFFFFFFFFFFFFFFF AND PUSH1 0x6 DUP3 DUP2 SLOAD DUP2 LT PUSH2 0x617 JUMPI PUSH2 0x616 PUSH2 0x2527 JUMP JUMPDEST JUMPDEST SWAP1 PUSH1 0x0 MSTORE PUSH1 0x20 PUSH1 0x0 KECCAK256 ADD PUSH1 0x0 SWAP1 SLOAD SWAP1 PUSH2 0x100 EXP SWAP1 DIV PUSH20 0xFFFFFFFFFFFFFFFFFFFFFFFFFFFFFFFFFFFFFFFF AND PUSH20 0xFFFFFFFFFFFFFFFFFFFFFFFFFFFFFFFFFFFFFFFF AND SUB PUSH2 0x661 JUMPI DUP1 SWAP2 POP JUMPDEST DUP1 DUP1 PUSH2 0x66C SWAP1 PUSH2 0x2585 JUMP JUMPDEST SWAP2 POP POP PUSH2 0x5DF JUMP JUMPDEST POP PUSH2 0x67F DUP2 DUP4 PUSH2 0x185A JUMP JUMPDEST POP POP POP POP JUMP JUMPDEST PUSH1 0x7 DUP2 DUP2 SLOAD DUP2 LT PUSH2 0x695 JUMPI PUSH1 0x0 DUP1 REVERT JUMPDEST SWAP1 PUSH1 0x0 MSTORE PUSH1 0x20 PUSH1 0x0 KECCAK256 ADD PUSH1 0x0 SWAP2 POP SWAP1 POP SLOAD DUP2 JUMP JUMPDEST PUSH1 0x0 DUP2 DUP2 SLOAD DUP2 LT PUSH2 0x6B9 JUMPI PUSH1 0x0 DUP1 REVERT JUMPDEST SWAP1 PUSH1 0x0 MSTORE PUSH1 0x20 PUSH1 0x0 KECCAK256 ADD PUSH1 0x0 SWAP2 POP SWAP1 POP SLOAD DUP2 JUMP JUMPDEST PUSH1 0x8 DUP2 DUP2 SLOAD DUP2 LT PUSH2 0x6DD JUMPI PUSH1 0x0 DUP1 REVERT JUMPDEST SWAP1 PUSH1 0x0 MSTORE PUSH1 0x20 PUSH1 0x0 KECCAK256 SWAP1 PUSH1 0x20 SWAP2 DUP3 DUP3 DIV ADD SWAP2 SWAP1 MOD SWAP2 POP SLOAD SWAP1 PUSH2 0x100 EXP SWAP1 DIV PUSH1 0xFF AND DUP2 JUMP JUMPDEST PUSH1 0x4 PUSH1 0x0 CALLER PUSH20 0xFFFFFFFFFFFFFFFFFFFFFFFFFFFFFFFFFFFFFFFF AND PUSH20 0xFFFFFFFFFFFFFFFFFFFFFFFFFFFFFFFFFFFFFFFF AND DUP2 MSTORE PUSH1 0x20 ADD SWAP1 DUP2 MSTORE PUSH1 0x20 ADD PUSH1 0x0 KECCAK256 PUSH1 0x0 SWAP1 SLOAD SWAP1 PUSH2 0x100 EXP SWAP1 DIV PUSH1 0xFF AND PUSH2 0x78D JUMPI PUSH1 0x40 MLOAD PUSH32 0x8C379A000000000000000000000000000000000000000000000000000000000 DUP2 MSTORE PUSH1 0x4 ADD PUSH2 0x784 SWAP1 PUSH2 0x2507 JUMP JUMPDEST PUSH1 0x40 MLOAD DUP1 SWAP2 SUB SWAP1 REVERT JUMPDEST PUSH1 0x0 DUP1 PUSH1 0x0 SWAP1 POP JUMPDEST PUSH1 0x6 DUP1 SLOAD SWAP1 POP DUP2 LT ISZERO PUSH2 0x82A JUMPI DUP4 PUSH20 0xFFFFFFFFFFFFFFFFFFFFFFFFFFFFFFFFFFFFFFFF AND PUSH1 0x6 DUP3 DUP2 SLOAD DUP2 LT PUSH2 0x7CD JUMPI PUSH2 0x7CC PUSH2 0x2527 JUMP JUMPDEST JUMPDEST SWAP1 PUSH1 0x0 MSTORE PUSH1 0x20 PUSH1 0x0 KECCAK256 ADD PUSH1 0x0 SWAP1 SLOAD SWAP1 PUSH2 0x100 EXP SWAP1 DIV PUSH20 0xFFFFFFFFFFFFFFFFFFFFFFFFFFFFFFFFFFFFFFFF AND PUSH20 0xFFFFFFFFFFFFFFFFFFFFFFFFFFFFFFFFFFFFFFFF AND SUB PUSH2 0x817 JUMPI DUP1 SWAP2 POP JUMPDEST DUP1 DUP1 PUSH2 0x822 SWAP1 PUSH2 0x2585 JUMP JUMPDEST SWAP2 POP POP PUSH2 0x795 JUMP JUMPDEST POP PUSH2 0x835 DUP2 DUP4 PUSH2 0x18AC JUMP JUMPDEST POP POP POP POP JUMP JUMPDEST PUSH1 0x4 PUSH1 0x0 CALLER PUSH20 0xFFFFFFFFFFFFFFFFFFFFFFFFFFFFFFFFFFFFFFFF AND PUSH20 0xFFFFFFFFFFFFFFFFFFFFFFFFFFFFFFFFFFFFFFFF AND DUP2 MSTORE PUSH1 0x20 ADD SWAP1 DUP2 MSTORE PUSH1 0x20 ADD PUSH1 0x0 KECCAK256 PUSH1 0x0 SWAP1 SLOAD SWAP1 PUSH2 0x100 EXP SWAP1 DIV PUSH1 0xFF AND PUSH2 0x8C7 JUMPI PUSH1 0x40 MLOAD PUSH32 0x8C379A000000000000000000000000000000000000000000000000000000000 DUP2 MSTORE PUSH1 0x4 ADD PUSH2 0x8BE SWAP1 PUSH2 0x2507 JUMP JUMPDEST PUSH1 0x40 MLOAD DUP1 SWAP2 SUB SWAP1 REVERT JUMPDEST PUSH1 0x0 JUMPDEST PUSH1 0x6 DUP1 SLOAD SWAP1 POP DUP2 LT ISZERO PUSH2 0xBC1 JUMPI DUP2 PUSH20 0xFFFFFFFFFFFFFFFFFFFFFFFFFFFFFFFFFFFFFFFF AND PUSH1 0x6 DUP3 DUP2 SLOAD DUP2 LT PUSH2 0x902 JUMPI PUSH2 0x901 PUSH2 0x2527 JUMP JUMPDEST JUMPDEST SWAP1 PUSH1 0x0 MSTORE PUSH1 0x20 PUSH1 0x0 KECCAK256 ADD PUSH1 0x0 SWAP1 SLOAD SWAP1 PUSH2 0x100 EXP SWAP1 DIV PUSH20 0xFFFFFFFFFFFFFFFFFFFFFFFFFFFFFFFFFFFFFFFF AND PUSH20 0xFFFFFFFFFFFFFFFFFFFFFFFFFFFFFFFFFFFFFFFF AND SUB PUSH2 0xBAE JUMPI PUSH1 0x0 DUP2 SWAP1 POP JUMPDEST PUSH1 0x6 DUP1 SLOAD SWAP1 POP DUP2 LT ISZERO PUSH2 0xB83 JUMPI PUSH2 0x964 DUP3 PUSH2 0x193C JUMP JUMPDEST POP PUSH1 0x6 PUSH1 0x1 DUP3 PUSH2 0x974 SWAP2 SWAP1 PUSH2 0x25CD JUMP JUMPDEST DUP2 SLOAD DUP2 LT PUSH2 0x985 JUMPI PUSH2 0x984 PUSH2 0x2527 JUMP JUMPDEST JUMPDEST SWAP1 PUSH1 0x0 MSTORE PUSH1 0x20 PUSH1 0x0 KECCAK256 ADD PUSH1 0x0 SWAP1 SLOAD SWAP1 PUSH2 0x100 EXP SWAP1 DIV PUSH20 0xFFFFFFFFFFFFFFFFFFFFFFFFFFFFFFFFFFFFFFFF AND PUSH1 0x6 DUP3 DUP2 SLOAD DUP2 LT PUSH2 0x9C4 JUMPI PUSH2 0x9C3 PUSH2 0x2527 JUMP JUMPDEST JUMPDEST SWAP1 PUSH1 0x0 MSTORE PUSH1 0x20 PUSH1 0x0 KECCAK256 ADD PUSH1 0x0 PUSH2 0x100 EXP DUP2 SLOAD DUP2 PUSH20 0xFFFFFFFFFFFFFFFFFFFFFFFFFFFFFFFFFFFFFFFF MUL NOT AND SWAP1 DUP4 PUSH20 0xFFFFFFFFFFFFFFFFFFFFFFFFFFFFFFFFFFFFFFFF AND MUL OR SWAP1 SSTORE POP PUSH1 0x7 PUSH1 0x1 DUP3 PUSH2 0xA1B SWAP2 SWAP1 PUSH2 0x25CD JUMP JUMPDEST DUP2 SLOAD DUP2 LT PUSH2 0xA2C JUMPI PUSH2 0xA2B PUSH2 0x2527 JUMP JUMPDEST JUMPDEST SWAP1 PUSH1 0x0 MSTORE PUSH1 0x20 PUSH1 0x0 KECCAK256 ADD SLOAD PUSH1 0x7 DUP3 DUP2 SLOAD DUP2 LT PUSH2 0xA4B JUMPI PUSH2 0xA4A PUSH2 0x2527 JUMP JUMPDEST JUMPDEST SWAP1 PUSH1 0x0 MSTORE PUSH1 0x20 PUSH1 0x0 KECCAK256 ADD DUP2 SWAP1 SSTORE POP PUSH1 0x8 PUSH1 0x1 DUP3 PUSH2 0xA68 SWAP2 SWAP1 PUSH2 0x25CD JUMP JUMPDEST DUP2 SLOAD DUP2 LT PUSH2 0xA79 JUMPI PUSH2 0xA78 PUSH2 0x2527 JUMP JUMPDEST JUMPDEST SWAP1 PUSH1 0x0 MSTORE PUSH1 0x20 PUSH1 0x0 KECCAK256 SWAP1 PUSH1 0x20 SWAP2 DUP3 DUP3 DIV ADD SWAP2 SWAP1 MOD SWAP1 SLOAD SWAP1 PUSH2 0x100 EXP SWAP1 DIV PUSH1 0xFF AND PUSH1 0x8 DUP3 DUP2 SLOAD DUP2 LT PUSH2 0xAAD JUMPI PUSH2 0xAAC PUSH2 0x2527 JUMP JUMPDEST JUMPDEST SWAP1 PUSH1 0x0 MSTORE PUSH1 0x20 PUSH1 0x0 KECCAK256 SWAP1 PUSH1 0x20 SWAP2 DUP3 DUP3 DIV ADD SWAP2 SWAP1 MOD PUSH2 0x100 EXP DUP2 SLOAD DUP2 PUSH1 0xFF MUL NOT AND SWAP1 DUP4 ISZERO ISZERO MUL OR SWAP1 SSTORE POP PUSH1 0x9 PUSH1 0x1 DUP3 PUSH2 0xAE5 SWAP2 SWAP1 PUSH2 0x25CD JUMP JUMPDEST DUP2 SLOAD DUP2 LT PUSH2 0xAF6 JUMPI PUSH2 0xAF5 PUSH2 0x2527 JUMP JUMPDEST JUMPDEST SWAP1 PUSH1 0x0 MSTORE PUSH1 0x20 PUSH1 0x0 KECCAK256 ADD SLOAD PUSH1 0x9 DUP3 DUP2 SLOAD DUP2 LT PUSH2 0xB15 JUMPI PUSH2 0xB14 PUSH2 0x2527 JUMP JUMPDEST JUMPDEST SWAP1 PUSH1 0x0 MSTORE PUSH1 0x20 PUSH1 0x0 KECCAK256 ADD DUP2 SWAP1 SSTORE POP PUSH1 0xA PUSH1 0x1 DUP3 PUSH2 0xB32 SWAP2 SWAP1 PUSH2 0x25CD JUMP JUMPDEST DUP2 SLOAD DUP2 LT PUSH2 0xB43 JUMPI PUSH2 0xB42 PUSH2 0x2527 JUMP JUMPDEST JUMPDEST SWAP1 PUSH1 0x0 MSTORE PUSH1 0x20 PUSH1 0x0 KECCAK256 ADD SLOAD PUSH1 0xA DUP3 DUP2 SLOAD DUP2 LT PUSH2 0xB62 JUMPI PUSH2 0xB61 PUSH2 0x2527 JUMP JUMPDEST JUMPDEST SWAP1 PUSH1 0x0 MSTORE PUSH1 0x20 PUSH1 0x0 KECCAK256 ADD DUP2 SWAP1 SSTORE POP DUP1 DUP1 PUSH2 0xB7B SWAP1 PUSH2 0x2585 JUMP JUMPDEST SWAP2 POP POP PUSH2 0x94E JUMP JUMPDEST POP PUSH2 0xB8D DUP2 PUSH2 0x1A52 JUMP JUMPDEST POP PUSH1 0x3 PUSH1 0x0 DUP3 DUP2 MSTORE PUSH1 0x20 ADD SWAP1 DUP2 MSTORE PUSH1 0x20 ADD PUSH1 0x0 KECCAK256 PUSH1 0x0 PUSH2 0xBAD SWAP2 SWAP1 PUSH2 0x1C3F JUMP JUMPDEST JUMPDEST DUP1 DUP1 PUSH2 0xBB9 SWAP1 PUSH2 0x2585 JUMP JUMPDEST SWAP2 POP POP PUSH2 0x8CA JUMP JUMPDEST POP PUSH1 0x6 DUP1 SLOAD DUP1 PUSH2 0xBD4 JUMPI PUSH2 0xBD3 PUSH2 0x2601 JUMP JUMPDEST JUMPDEST PUSH1 0x1 SWAP1 SUB DUP2 DUP2 SWAP1 PUSH1 0x0 MSTORE PUSH1 0x20 PUSH1 0x0 KECCAK256 ADD PUSH1 0x0 PUSH2 0x100 EXP DUP2 SLOAD SWAP1 PUSH20 0xFFFFFFFFFFFFFFFFFFFFFFFFFFFFFFFFFFFFFFFF MUL NOT AND SWAP1 SSTORE SWAP1 SSTORE PUSH1 0x7 DUP1 SLOAD DUP1 PUSH2 0xC1B JUMPI PUSH2 0xC1A PUSH2 0x2601 JUMP JUMPDEST JUMPDEST PUSH1 0x1 SWAP1 SUB DUP2 DUP2 SWAP1 PUSH1 0x0 MSTORE PUSH1 0x20 PUSH1 0x0 KECCAK256 ADD PUSH1 0x0 SWAP1 SSTORE SWAP1 SSTORE PUSH1 0x8 DUP1 SLOAD DUP1 PUSH2 0xC43 JUMPI PUSH2 0xC42 PUSH2 0x2601 JUMP JUMPDEST JUMPDEST PUSH1 0x1 SWAP1 SUB DUP2 DUP2 SWAP1 PUSH1 0x0 MSTORE PUSH1 0x20 PUSH1 0x0 KECCAK256 SWAP1 PUSH1 0x20 SWAP2 DUP3 DUP3 DIV ADD SWAP2 SWAP1 MOD PUSH2 0x100 EXP DUP2 SLOAD SWAP1 PUSH1 0xFF MUL NOT AND SWAP1 SSTORE SWAP1 SSTORE PUSH1 0x9 DUP1 SLOAD DUP1 PUSH2 0xC7F JUMPI PUSH2 0xC7E PUSH2 0x2601 JUMP JUMPDEST JUMPDEST PUSH1 0x1 SWAP1 SUB DUP2 DUP2 SWAP1 PUSH1 0x0 MSTORE PUSH1 0x20 PUSH1 0x0 KECCAK256 ADD PUSH1 0x0 SWAP1 SSTORE SWAP1 SSTORE PUSH1 0xA DUP1 SLOAD DUP1 PUSH2 0xCA7 JUMPI PUSH2 0xCA6 PUSH2 0x2601 JUMP JUMPDEST JUMPDEST PUSH1 0x1 SWAP1 SUB DUP2 DUP2 SWAP1 PUSH1 0x0 MSTORE PUSH1 0x20 PUSH1 0x0 KECCAK256 ADD PUSH1 0x0 SWAP1 SSTORE SWAP1 SSTORE POP JUMP JUMPDEST PUSH1 0x4 PUSH1 0x0 CALLER PUSH20 0xFFFFFFFFFFFFFFFFFFFFFFFFFFFFFFFFFFFFFFFF AND PUSH20 0xFFFFFFFFFFFFFFFFFFFFFFFFFFFFFFFFFFFFFFFF AND DUP2 MSTORE PUSH1 0x20 ADD SWAP1 DUP2 MSTORE PUSH1 0x20 ADD PUSH1 0x0 KECCAK256 PUSH1 0x0 SWAP1 SLOAD SWAP1 PUSH2 0x100 EXP SWAP1 DIV PUSH1 0xFF AND PUSH2 0xD4C JUMPI PUSH1 0x40 MLOAD PUSH32 0x8C379A000000000000000000000000000000000000000000000000000000000 DUP2 MSTORE PUSH1 0x4 ADD PUSH2 0xD43 SWAP1 PUSH2 0x2507 JUMP JUMPDEST PUSH1 0x40 MLOAD DUP1 SWAP2 SUB SWAP1 REVERT JUMPDEST PUSH1 0x0 JUMPDEST PUSH1 0x6 DUP1 SLOAD SWAP1 POP DUP2 LT ISZERO PUSH2 0xE04 JUMPI DUP3 PUSH20 0xFFFFFFFFFFFFFFFFFFFFFFFFFFFFFFFFFFFFFFFF AND PUSH1 0x6 DUP3 DUP2 SLOAD DUP2 LT PUSH2 0xD87 JUMPI PUSH2 0xD86 PUSH2 0x2527 JUMP JUMPDEST JUMPDEST SWAP1 PUSH1 0x0 MSTORE PUSH1 0x20 PUSH1 0x0 KECCAK256 ADD PUSH1 0x0 SWAP1 SLOAD SWAP1 PUSH2 0x100 EXP SWAP1 DIV PUSH20 0xFFFFFFFFFFFFFFFFFFFFFFFFFFFFFFFFFFFFFFFF AND PUSH20 0xFFFFFFFFFFFFFFFFFFFFFFFFFFFFFFFFFFFFFFFF AND SUB PUSH2 0xDF1 JUMPI DUP2 PUSH1 0xA DUP3 DUP2 SLOAD DUP2 LT PUSH2 0xDE2 JUMPI PUSH2 0xDE1 PUSH2 0x2527 JUMP JUMPDEST JUMPDEST SWAP1 PUSH1 0x0 MSTORE PUSH1 0x20 PUSH1 0x0 KECCAK256 ADD DUP2 SWAP1 SSTORE POP JUMPDEST DUP1 DUP1 PUSH2 0xDFC SWAP1 PUSH2 0x2585 JUMP JUMPDEST SWAP2 POP POP PUSH2 0xD4F JUMP JUMPDEST POP POP POP JUMP JUMPDEST PUSH1 0x4 PUSH1 0x20 MSTORE DUP1 PUSH1 0x0 MSTORE PUSH1 0x40 PUSH1 0x0 KECCAK256 PUSH1 0x0 SWAP2 POP SLOAD SWAP1 PUSH2 0x100 EXP SWAP1 DIV PUSH1 0xFF AND DUP2 JUMP JUMPDEST PUSH1 0x9 DUP2 DUP2 SLOAD DUP2 LT PUSH2 0xE39 JUMPI PUSH1 0x0 DUP1 REVERT JUMPDEST SWAP1 PUSH1 0x0 MSTORE PUSH1 0x20 PUSH1 0x0 KECCAK256 ADD PUSH1 0x0 SWAP2 POP SWAP1 POP SLOAD DUP2 JUMP JUMPDEST PUSH1 0x4 PUSH1 0x0 CALLER PUSH20 0xFFFFFFFFFFFFFFFFFFFFFFFFFFFFFFFFFFFFFFFF AND PUSH20 0xFFFFFFFFFFFFFFFFFFFFFFFFFFFFFFFFFFFFFFFF AND DUP2 MSTORE PUSH1 0x20 ADD SWAP1 DUP2 MSTORE PUSH1 0x20 ADD PUSH1 0x0 KECCAK256 PUSH1 0x0 SWAP1 SLOAD SWAP1 PUSH2 0x100 EXP SWAP1 DIV PUSH1 0xFF AND PUSH2 0xED9 JUMPI PUSH1 0x40 MLOAD PUSH32 0x8C379A000000000000000000000000000000000000000000000000000000000 DUP2 MSTORE PUSH1 0x4 ADD PUSH2 0xED0 SWAP1 PUSH2 0x2507 JUMP JUMPDEST PUSH1 0x40 MLOAD DUP1 SWAP2 SUB SWAP1 REVERT JUMPDEST PUSH1 0x0 JUMPDEST PUSH1 0x6 DUP1 SLOAD SWAP1 POP DUP2 LT ISZERO PUSH2 0xFAC JUMPI DUP3 PUSH20 0xFFFFFFFFFFFFFFFFFFFFFFFFFFFFFFFFFFFFFFFF AND PUSH1 0x6 DUP3 DUP2 SLOAD DUP2 LT PUSH2 0xF14 JUMPI PUSH2 0xF13 PUSH2 0x2527 JUMP JUMPDEST JUMPDEST SWAP1 PUSH1 0x0 MSTORE PUSH1 0x20 PUSH1 0x0 KECCAK256 ADD PUSH1 0x0 SWAP1 SLOAD SWAP1 PUSH2 0x100 EXP SWAP1 DIV PUSH20 0xFFFFFFFFFFFFFFFFFFFFFFFFFFFFFFFFFFFFFFFF AND PUSH20 0xFFFFFFFFFFFFFFFFFFFFFFFFFFFFFFFFFFFFFFFF AND SUB PUSH2 0xF99 JUMPI DUP2 PUSH1 0x8 DUP3 DUP2 SLOAD DUP2 LT PUSH2 0xF6F JUMPI PUSH2 0xF6E PUSH2 0x2527 JUMP JUMPDEST JUMPDEST SWAP1 PUSH1 0x0 MSTORE PUSH1 0x20 PUSH1 0x0 KECCAK256 SWAP1 PUSH1 0x20 SWAP2 DUP3 DUP3 DIV ADD SWAP2 SWAP1 MOD PUSH2 0x100 EXP DUP2 SLOAD DUP2 PUSH1 0xFF MUL NOT AND SWAP1 DUP4 ISZERO ISZERO MUL OR SWAP1 SSTORE POP JUMPDEST DUP1 DUP1 PUSH2 0xFA4 SWAP1 PUSH2 0x2585 JUMP JUMPDEST SWAP2 POP POP PUSH2 0xEDC JUMP JUMPDEST POP POP POP JUMP JUMPDEST PUSH1 0x4 PUSH1 0x0 CALLER PUSH20 0xFFFFFFFFFFFFFFFFFFFFFFFFFFFFFFFFFFFFFFFF AND PUSH20 0xFFFFFFFFFFFFFFFFFFFFFFFFFFFFFFFFFFFFFFFF AND DUP2 MSTORE PUSH1 0x20 ADD SWAP1 DUP2 MSTORE PUSH1 0x20 ADD PUSH1 0x0 KECCAK256 PUSH1 0x0 SWAP1 SLOAD SWAP1 PUSH2 0x100 EXP SWAP1 DIV PUSH1 0xFF AND PUSH2 0x103D JUMPI PUSH1 0x40 MLOAD PUSH32 0x8C379A000000000000000000000000000000000000000000000000000000000 DUP2 MSTORE PUSH1 0x4 ADD PUSH2 0x1034 SWAP1 PUSH2 0x2507 JUMP JUMPDEST PUSH1 0x40 MLOAD DUP1 SWAP2 SUB SWAP1 REVERT JUMPDEST PUSH1 0x0 JUMPDEST PUSH1 0x6 DUP1 SLOAD SWAP1 POP DUP2 LT ISZERO PUSH2 0x10F5 JUMPI DUP3 PUSH20 0xFFFFFFFFFFFFFFFFFFFFFFFFFFFFFFFFFFFFFFFF AND PUSH1 0x6 DUP3 DUP2 SLOAD DUP2 LT PUSH2 0x1078 JUMPI PUSH2 0x1077 PUSH2 0x2527 JUMP JUMPDEST JUMPDEST SWAP1 PUSH1 0x0 MSTORE PUSH1 0x20 PUSH1 0x0 KECCAK256 ADD PUSH1 0x0 SWAP1 SLOAD SWAP1 PUSH2 0x100 EXP SWAP1 DIV PUSH20 0xFFFFFFFFFFFFFFFFFFFFFFFFFFFFFFFFFFFFFFFF AND PUSH20 0xFFFFFFFFFFFFFFFFFFFFFFFFFFFFFFFFFFFFFFFF AND SUB PUSH2 0x10E2 JUMPI DUP2 PUSH1 0x9 DUP3 DUP2 SLOAD DUP2 LT PUSH2 0x10D3 JUMPI PUSH2 0x10D2 PUSH2 0x2527 JUMP JUMPDEST JUMPDEST SWAP1 PUSH1 0x0 MSTORE PUSH1 0x20 PUSH1 0x0 KECCAK256 ADD DUP2 SWAP1 SSTORE POP JUMPDEST DUP1 DUP1 PUSH2 0x10ED SWAP1 PUSH2 0x2585 JUMP JUMPDEST SWAP2 POP POP PUSH2 0x1040 JUMP JUMPDEST POP POP POP JUMP JUMPDEST PUSH1 0x4 PUSH1 0x0 CALLER PUSH20 0xFFFFFFFFFFFFFFFFFFFFFFFFFFFFFFFFFFFFFFFF AND PUSH20 0xFFFFFFFFFFFFFFFFFFFFFFFFFFFFFFFFFFFFFFFF AND DUP2 MSTORE PUSH1 0x20 ADD SWAP1 DUP2 MSTORE PUSH1 0x20 ADD PUSH1 0x0 KECCAK256 PUSH1 0x0 SWAP1 SLOAD SWAP1 PUSH2 0x100 EXP SWAP1 DIV PUSH1 0xFF AND PUSH2 0x1186 JUMPI PUSH1 0x40 MLOAD PUSH32 0x8C379A000000000000000000000000000000000000000000000000000000000 DUP2 MSTORE PUSH1 0x4 ADD PUSH2 0x117D SWAP1 PUSH2 0x2507 JUMP JUMPDEST PUSH1 0x40 MLOAD DUP1 SWAP2 SUB SWAP1 REVERT JUMPDEST PUSH1 0x0 PUSH1 0x4 PUSH1 0x0 DUP4 PUSH20 0xFFFFFFFFFFFFFFFFFFFFFFFFFFFFFFFFFFFFFFFF AND PUSH20 0xFFFFFFFFFFFFFFFFFFFFFFFFFFFFFFFFFFFFFFFF AND DUP2 MSTORE PUSH1 0x20 ADD SWAP1 DUP2 MSTORE PUSH1 0x20 ADD PUSH1 0x0 KECCAK256 PUSH1 0x0 PUSH2 0x100 EXP DUP2 SLOAD DUP2 PUSH1 0xFF MUL NOT AND SWAP1 DUP4 ISZERO ISZERO MUL OR SWAP1 SSTORE POP POP JUMP JUMPDEST PUSH1 0x4 PUSH1 0x0 CALLER PUSH20 0xFFFFFFFFFFFFFFFFFFFFFFFFFFFFFFFFFFFFFFFF AND PUSH20 0xFFFFFFFFFFFFFFFFFFFFFFFFFFFFFFFFFFFFFFFF AND DUP2 MSTORE PUSH1 0x20 ADD SWAP1 DUP2 MSTORE PUSH1 0x20 ADD PUSH1 0x0 KECCAK256 PUSH1 0x0 SWAP1 SLOAD SWAP1 PUSH2 0x100 EXP SWAP1 DIV PUSH1 0xFF AND PUSH2 0x126D JUMPI PUSH1 0x40 MLOAD PUSH32 0x8C379A000000000000000000000000000000000000000000000000000000000 DUP2 MSTORE PUSH1 0x4 ADD PUSH2 0x1264 SWAP1 PUSH2 0x2507 JUMP JUMPDEST PUSH1 0x40 MLOAD DUP1 SWAP2 SUB SWAP1 REVERT JUMPDEST PUSH1 0x0 PUSH1 0x6 DUP1 SLOAD SWAP1 POP SWAP1 POP PUSH1 0x6 DUP10 SWAP1 DUP1 PUSH1 0x1 DUP2 SLOAD ADD DUP1 DUP3 SSTORE DUP1 SWAP2 POP POP PUSH1 0x1 SWAP1 SUB SWAP1 PUSH1 0x0 MSTORE PUSH1 0x20 PUSH1 0x0 KECCAK256 ADD PUSH1 0x0 SWAP1 SWAP2 SWAP1 SWAP2 SWAP1 SWAP2 PUSH2 0x100 EXP DUP2 SLOAD DUP2 PUSH20 0xFFFFFFFFFFFFFFFFFFFFFFFFFFFFFFFFFFFFFFFF MUL NOT AND SWAP1 DUP4 PUSH20 0xFFFFFFFFFFFFFFFFFFFFFFFFFFFFFFFFFFFFFFFF AND MUL OR SWAP1 SSTORE POP PUSH1 0x7 DUP9 SWAP1 DUP1 PUSH1 0x1 DUP2 SLOAD ADD DUP1 DUP3 SSTORE DUP1 SWAP2 POP POP PUSH1 0x1 SWAP1 SUB SWAP1 PUSH1 0x0 MSTORE PUSH1 0x20 PUSH1 0x0 KECCAK256 ADD PUSH1 0x0 SWAP1 SWAP2 SWAP1 SWAP2 SWAP1 SWAP2 POP SSTORE PUSH1 0x8 DUP8 SWAP1 DUP1 PUSH1 0x1 DUP2 SLOAD ADD DUP1 DUP3 SSTORE DUP1 SWAP2 POP POP PUSH1 0x1 SWAP1 SUB SWAP1 PUSH1 0x0 MSTORE PUSH1 0x20 PUSH1 0x0 KECCAK256 SWAP1 PUSH1 0x20 SWAP2 DUP3 DUP3 DIV ADD SWAP2 SWAP1 MOD SWAP1 SWAP2 SWAP1 SWAP2 SWAP1 SWAP2 PUSH2 0x100 EXP DUP2 SLOAD DUP2 PUSH1 0xFF MUL NOT AND SWAP1 DUP4 ISZERO ISZERO MUL OR SWAP1 SSTORE POP PUSH2 0x1351 DUP2 DUP8 PUSH2 0x1A7C JUMP JUMPDEST POP DUP5 PUSH1 0x9 DUP3 DUP2 SLOAD DUP2 LT PUSH2 0x1367 JUMPI PUSH2 0x1366 PUSH2 0x2527 JUMP JUMPDEST JUMPDEST SWAP1 PUSH1 0x0 MSTORE PUSH1 0x20 PUSH1 0x0 KECCAK256 ADD DUP2 SWAP1 SSTORE POP DUP4 PUSH1 0xA DUP3 DUP2 SLOAD DUP2 LT PUSH2 0x138A JUMPI PUSH2 0x1389 PUSH2 0x2527 JUMP JUMPDEST JUMPDEST SWAP1 PUSH1 0x0 MSTORE PUSH1 0x20 PUSH1 0x0 KECCAK256 ADD DUP2 SWAP1 SSTORE POP PUSH2 0x13A0 PUSH2 0x1ACE JUMP JUMPDEST POP PUSH2 0x13AC DUP2 DUP5 DUP5 PUSH2 0x1B00 JUMP JUMPDEST POP POP POP POP POP POP POP POP POP POP JUMP JUMPDEST PUSH1 0x4 PUSH1 0x0 CALLER PUSH20 0xFFFFFFFFFFFFFFFFFFFFFFFFFFFFFFFFFFFFFFFF AND PUSH20 0xFFFFFFFFFFFFFFFFFFFFFFFFFFFFFFFFFFFFFFFF AND DUP2 MSTORE PUSH1 0x20 ADD SWAP1 DUP2 MSTORE PUSH1 0x20 ADD PUSH1 0x0 KECCAK256 PUSH1 0x0 SWAP1 SLOAD SWAP1 PUSH2 0x100 EXP SWAP1 DIV PUSH1 0xFF AND PUSH2 0x1444 JUMPI PUSH1 0x40 MLOAD PUSH32 0x8C379A000000000000000000000000000000000000000000000000000000000 DUP2 MSTORE PUSH1 0x4 ADD PUSH2 0x143B SWAP1 PUSH2 0x2507 JUMP JUMPDEST PUSH1 0x40 MLOAD DUP1 SWAP2 SUB SWAP1 REVERT JUMPDEST PUSH1 0x0 JUMPDEST PUSH1 0x6 DUP1 SLOAD SWAP1 POP DUP2 LT ISZERO PUSH2 0x14FC JUMPI DUP3 PUSH20 0xFFFFFFFFFFFFFFFFFFFFFFFFFFFFFFFFFFFFFFFF AND PUSH1 0x6 DUP3 DUP2 SLOAD DUP2 LT PUSH2 0x147F JUMPI PUSH2 0x147E PUSH2 0x2527 JUMP JUMPDEST JUMPDEST SWAP1 PUSH1 0x0 MSTORE PUSH1 0x20 PUSH1 0x0 KECCAK256 ADD PUSH1 0x0 SWAP1 SLOAD SWAP1 PUSH2 0x100 EXP SWAP1 DIV PUSH20 0xFFFFFFFFFFFFFFFFFFFFFFFFFFFFFFFFFFFFFFFF AND PUSH20 0xFFFFFFFFFFFFFFFFFFFFFFFFFFFFFFFFFFFFFFFF AND SUB PUSH2 0x14E9 JUMPI DUP2 PUSH1 0x7 DUP3 DUP2 SLOAD DUP2 LT PUSH2 0x14DA JUMPI PUSH2 0x14D9 PUSH2 0x2527 JUMP JUMPDEST JUMPDEST SWAP1 PUSH1 0x0 MSTORE PUSH1 0x20 PUSH1 0x0 KECCAK256 ADD DUP2 SWAP1 SSTORE POP JUMPDEST DUP1 DUP1 PUSH2 0x14F4 SWAP1 PUSH2 0x2585 JUMP JUMPDEST SWAP2 POP POP PUSH2 0x1447 JUMP JUMPDEST POP POP POP JUMP JUMPDEST PUSH1 0x4 PUSH1 0x0 CALLER PUSH20 0xFFFFFFFFFFFFFFFFFFFFFFFFFFFFFFFFFFFFFFFF AND PUSH20 0xFFFFFFFFFFFFFFFFFFFFFFFFFFFFFFFFFFFFFFFF AND DUP2 MSTORE PUSH1 0x20 ADD SWAP1 DUP2 MSTORE PUSH1 0x20 ADD PUSH1 0x0 KECCAK256 PUSH1 0x0 SWAP1 SLOAD SWAP1 PUSH2 0x100 EXP SWAP1 DIV PUSH1 0xFF AND PUSH2 0x158D JUMPI PUSH1 0x40 MLOAD PUSH32 0x8C379A000000000000000000000000000000000000000000000000000000000 DUP2 MSTORE PUSH1 0x4 ADD PUSH2 0x1584 SWAP1 PUSH2 0x2507 JUMP JUMPDEST PUSH1 0x40 MLOAD DUP1 SWAP2 SUB SWAP1 REVERT JUMPDEST PUSH1 0x0 JUMPDEST PUSH1 0x6 DUP1 SLOAD SWAP1 POP DUP2 LT ISZERO PUSH2 0x162E JUMPI DUP4 PUSH20 0xFFFFFFFFFFFFFFFFFFFFFFFFFFFFFFFFFFFFFFFF AND PUSH1 0x6 DUP3 DUP2 SLOAD DUP2 LT PUSH2 0x15C8 JUMPI PUSH2 0x15C7 PUSH2 0x2527 JUMP JUMPDEST JUMPDEST SWAP1 PUSH1 0x0 MSTORE PUSH1 0x20 PUSH1 0x0 KECCAK256 ADD PUSH1 0x0 SWAP1 SLOAD SWAP1 PUSH2 0x100 EXP SWAP1 DIV PUSH20 0xFFFFFFFFFFFFFFFFFFFFFFFFFFFFFFFFFFFFFFFF AND PUSH20 0xFFFFFFFFFFFFFFFFFFFFFFFFFFFFFFFFFFFFFFFF AND SUB PUSH2 0x161B JUMPI PUSH2 0x1619 DUP2 DUP5 DUP5 PUSH2 0x1BCB JUMP JUMPDEST POP JUMPDEST DUP1 DUP1 PUSH2 0x1626 SWAP1 PUSH2 0x2585 JUMP JUMPDEST SWAP2 POP POP PUSH2 0x1590 JUMP JUMPDEST POP POP POP POP JUMP JUMPDEST PUSH1 0x5 SLOAD DUP2 JUMP JUMPDEST PUSH1 0x2 PUSH1 0x20 MSTORE DUP2 PUSH1 0x0 MSTORE PUSH1 0x40 PUSH1 0x0 KECCAK256 DUP2 DUP2 SLOAD DUP2 LT PUSH2 0x1656 JUMPI PUSH1 0x0 DUP1 REVERT JUMPDEST SWAP1 PUSH1 0x0 MSTORE PUSH1 0x20 PUSH1 0x0 KECCAK256 ADD PUSH1 0x0 SWAP2 POP SWAP2 POP POP DUP1 SLOAD PUSH2 0x1672 SWAP1 PUSH2 0x2464 JUMP JUMPDEST DUP1 PUSH1 0x1F ADD PUSH1 0x20 DUP1 SWAP2 DIV MUL PUSH1 0x20 ADD PUSH1 0x40 MLOAD SWAP1 DUP2 ADD PUSH1 0x40 MSTORE DUP1 SWAP3 SWAP2 SWAP1 DUP2 DUP2 MSTORE PUSH1 0x20 ADD DUP3 DUP1 SLOAD PUSH2 0x169E SWAP1 PUSH2 0x2464 JUMP JUMPDEST DUP1 ISZERO PUSH2 0x16EB JUMPI DUP1 PUSH1 0x1F LT PUSH2 0x16C0 JUMPI PUSH2 0x100 DUP1 DUP4 SLOAD DIV MUL DUP4 MSTORE SWAP2 PUSH1 0x20 ADD SWAP2 PUSH2 0x16EB JUMP JUMPDEST DUP3 ADD SWAP2 SWAP1 PUSH1 0x0 MSTORE PUSH1 0x20 PUSH1 0x0 KECCAK256 SWAP1 JUMPDEST DUP2 SLOAD DUP2 MSTORE SWAP1 PUSH1 0x1 ADD SWAP1 PUSH1 0x20 ADD DUP1 DUP4 GT PUSH2 0x16CE JUMPI DUP3 SWAP1 SUB PUSH1 0x1F AND DUP3 ADD SWAP2 JUMPDEST POP POP POP POP POP DUP2 JUMP JUMPDEST PUSH1 0x4 PUSH1 0x0 CALLER PUSH20 0xFFFFFFFFFFFFFFFFFFFFFFFFFFFFFFFFFFFFFFFF AND PUSH20 0xFFFFFFFFFFFFFFFFFFFFFFFFFFFFFFFFFFFFFFFF AND DUP2 MSTORE PUSH1 0x20 ADD SWAP1 DUP2 MSTORE PUSH1 0x20 ADD PUSH1 0x0 KECCAK256 PUSH1 0x0 SWAP1 SLOAD SWAP1 PUSH2 0x100 EXP SWAP1 DIV PUSH1 0xFF AND PUSH2 0x177F JUMPI PUSH1 0x40 MLOAD PUSH32 0x8C379A000000000000000000000000000000000000000000000000000000000 DUP2 MSTORE PUSH1 0x4 ADD PUSH2 0x1776 SWAP1 PUSH2 0x2507 JUMP JUMPDEST PUSH1 0x40 MLOAD DUP1 SWAP2 SUB SWAP1 REVERT JUMPDEST PUSH1 0x1 PUSH1 0x4 PUSH1 0x0 DUP4 PUSH20 0xFFFFFFFFFFFFFFFFFFFFFFFFFFFFFFFFFFFFFFFF AND PUSH20 0xFFFFFFFFFFFFFFFFFFFFFFFFFFFFFFFFFFFFFFFF AND DUP2 MSTORE PUSH1 0x20 ADD SWAP1 DUP2 MSTORE PUSH1 0x20 ADD PUSH1 0x0 KECCAK256 PUSH1 0x0 PUSH2 0x100 EXP DUP2 SLOAD DUP2 PUSH1 0xFF MUL NOT AND SWAP1 DUP4 ISZERO ISZERO MUL OR SWAP1 SSTORE POP POP JUMP JUMPDEST PUSH1 0x6 DUP2 DUP2 SLOAD DUP2 LT PUSH2 0x17EA JUMPI PUSH1 0x0 DUP1 REVERT JUMPDEST SWAP1 PUSH1 0x0 MSTORE PUSH1 0x20 PUSH1 0x0 KECCAK256 ADD PUSH1 0x0 SWAP2 POP SLOAD SWAP1 PUSH2 0x100 EXP SWAP1 DIV PUSH20 0xFFFFFFFFFFFFFFFFFFFFFFFFFFFFFFFFFFFFFFFF AND DUP2 JUMP JUMPDEST PUSH1 0x3 PUSH1 0x20 MSTORE DUP2 PUSH1 0x0 MSTORE PUSH1 0x40 PUSH1 0x0 KECCAK256 DUP2 DUP2 SLOAD DUP2 LT PUSH2 0x1835 JUMPI PUSH1 0x0 DUP1 REVERT JUMPDEST SWAP1 PUSH1 0x0 MSTORE PUSH1 0x20 PUSH1 0x0 KECCAK256 SWAP1 PUSH1 0x2 MUL ADD PUSH1 0x0 SWAP2 POP SWAP2 POP POP DUP1 PUSH1 0x0 ADD SLOAD SWAP1 DUP1 PUSH1 0x1 ADD SLOAD SWAP1 POP DUP3 JUMP JUMPDEST PUSH1 0x0 PUSH1 0x2 PUSH1 0x0 DUP5 DUP2 MSTORE PUSH1 0x20 ADD SWAP1 DUP2 MSTORE PUSH1 0x20 ADD PUSH1 0x0 KECCAK256 DUP3 SWAP1 DUP1 PUSH1 0x1 DUP2 SLOAD ADD DUP1 DUP3 SSTORE DUP1 SWAP2 POP POP PUSH1 0x1 SWAP1 SUB SWAP1 PUSH1 0x0 MSTORE PUSH1 0x20 PUSH1 0x0 KECCAK256 ADD PUSH1 0x0 SWAP1 SWAP2 SWAP1 SWAP2 SWAP1 SWAP2 POP SWAP1 DUP2 PUSH2 0x18A1 SWAP2 SWAP1 PUSH2 0x27DC JUMP JUMPDEST POP PUSH1 0x1 SWAP1 POP SWAP3 SWAP2 POP POP JUMP JUMPDEST PUSH1 0x0 DUP1 PUSH1 0x1 PUSH1 0x0 DUP6 DUP2 SLOAD DUP2 LT PUSH2 0x18C5 JUMPI PUSH2 0x18C4 PUSH2 0x2527 JUMP JUMPDEST JUMPDEST SWAP1 PUSH1 0x0 MSTORE PUSH1 0x20 PUSH1 0x0 KECCAK256 ADD SLOAD PUSH2 0x18DA SWAP2 SWAP1 PUSH2 0x25CD JUMP JUMPDEST SWAP1 POP DUP3 PUSH1 0x1 PUSH1 0x0 DUP7 DUP2 MSTORE PUSH1 0x20 ADD SWAP1 DUP2 MSTORE PUSH1 0x20 ADD PUSH1 0x0 KECCAK256 PUSH1 0x0 DUP4 DUP2 MSTORE PUSH1 0x20 ADD SWAP1 DUP2 MSTORE PUSH1 0x20 ADD PUSH1 0x0 KECCAK256 SWAP1 DUP2 PUSH2 0x190D SWAP2 SWAP1 PUSH2 0x27DC JUMP JUMPDEST POP DUP1 PUSH1 0x0 DUP6 DUP2 SLOAD DUP2 LT PUSH2 0x1923 JUMPI PUSH2 0x1922 PUSH2 0x2527 JUMP JUMPDEST JUMPDEST SWAP1 PUSH1 0x0 MSTORE PUSH1 0x20 PUSH1 0x0 KECCAK256 ADD DUP2 SWAP1 SSTORE POP PUSH1 0x1 SWAP2 POP POP SWAP3 SWAP2 POP POP JUMP JUMPDEST PUSH1 0x0 DUP1 PUSH1 0x0 SWAP1 POP JUMPDEST PUSH1 0x0 DUP4 DUP2 SLOAD DUP2 LT PUSH2 0x1958 JUMPI PUSH2 0x1957 PUSH2 0x2527 JUMP JUMPDEST JUMPDEST SWAP1 PUSH1 0x0 MSTORE PUSH1 0x20 PUSH1 0x0 KECCAK256 ADD SLOAD DUP2 GT PUSH2 0x19AC JUMPI PUSH1 0x1 PUSH1 0x0 DUP5 DUP2 MSTORE PUSH1 0x20 ADD SWAP1 DUP2 MSTORE PUSH1 0x20 ADD PUSH1 0x0 KECCAK256 PUSH1 0x0 DUP3 DUP2 MSTORE PUSH1 0x20 ADD SWAP1 DUP2 MSTORE PUSH1 0x20 ADD PUSH1 0x0 KECCAK256 PUSH1 0x0 PUSH2 0x1999 SWAP2 SWAP1 PUSH2 0x1C63 JUMP JUMPDEST DUP1 DUP1 PUSH2 0x19A4 SWAP1 PUSH2 0x2585 JUMP JUMPDEST SWAP2 POP POP PUSH2 0x1944 JUMP JUMPDEST POP PUSH1 0x0 DUP3 SWAP1 POP JUMPDEST PUSH1 0x0 DUP1 SLOAD SWAP1 POP DUP2 LT ISZERO PUSH2 0x1A20 JUMPI PUSH1 0x0 PUSH1 0x1 DUP3 PUSH2 0x19CF SWAP2 SWAP1 PUSH2 0x25CD JUMP JUMPDEST DUP2 SLOAD DUP2 LT PUSH2 0x19E0 JUMPI PUSH2 0x19DF PUSH2 0x2527 JUMP JUMPDEST JUMPDEST SWAP1 PUSH1 0x0 MSTORE PUSH1 0x20 PUSH1 0x0 KECCAK256 ADD SLOAD PUSH1 0x0 DUP3 DUP2 SLOAD DUP2 LT PUSH2 0x19FF JUMPI PUSH2 0x19FE PUSH2 0x2527 JUMP JUMPDEST JUMPDEST SWAP1 PUSH1 0x0 MSTORE PUSH1 0x20 PUSH1 0x0 KECCAK256 ADD DUP2 SWAP1 SSTORE POP DUP1 DUP1 PUSH2 0x1A18 SWAP1 PUSH2 0x2585 JUMP JUMPDEST SWAP2 POP POP PUSH2 0x19B3 JUMP JUMPDEST POP PUSH1 0x0 DUP1 SLOAD DUP1 PUSH2 0x1A33 JUMPI PUSH2 0x1A32 PUSH2 0x2601 JUMP JUMPDEST JUMPDEST PUSH1 0x1 SWAP1 SUB DUP2 DUP2 SWAP1 PUSH1 0x0 MSTORE PUSH1 0x20 PUSH1 0x0 KECCAK256 ADD PUSH1 0x0 SWAP1 SSTORE SWAP1 SSTORE PUSH1 0x1 SWAP1 POP SWAP2 SWAP1 POP JUMP JUMPDEST PUSH1 0x0 PUSH1 0x2 PUSH1 0x0 DUP4 DUP2 MSTORE PUSH1 0x20 ADD SWAP1 DUP2 MSTORE PUSH1 0x20 ADD PUSH1 0x0 KECCAK256 PUSH1 0x0 PUSH2 0x1A73 SWAP2 SWAP1 PUSH2 0x1CA3 JUMP JUMPDEST PUSH1 0x1 SWAP1 POP SWAP2 SWAP1 POP JUMP JUMPDEST PUSH1 0x0 PUSH1 0x2 PUSH1 0x0 DUP5 DUP2 MSTORE PUSH1 0x20 ADD SWAP1 DUP2 MSTORE PUSH1 0x20 ADD PUSH1 0x0 KECCAK256 DUP3 SWAP1 DUP1 PUSH1 0x1 DUP2 SLOAD ADD DUP1 DUP3 SSTORE DUP1 SWAP2 POP POP PUSH1 0x1 SWAP1 SUB SWAP1 PUSH1 0x0 MSTORE PUSH1 0x20 PUSH1 0x0 KECCAK256 ADD PUSH1 0x0 SWAP1 SWAP2 SWAP1 SWAP2 SWAP1 SWAP2 POP SWAP1 DUP2 PUSH2 0x1AC3 SWAP2 SWAP1 PUSH2 0x27DC JUMP JUMPDEST POP PUSH1 0x1 SWAP1 POP SWAP3 SWAP2 POP POP JUMP JUMPDEST PUSH1 0x0 DUP1 PUSH1 0x0 SWAP1 DUP1 PUSH1 0x1 DUP2 SLOAD ADD DUP1 DUP3 SSTORE DUP1 SWAP2 POP POP PUSH1 0x1 SWAP1 SUB SWAP1 PUSH1 0x0 MSTORE PUSH1 0x20 PUSH1 0x0 KECCAK256 ADD PUSH1 0x0 SWAP1 SWAP2 SWAP1 SWAP2 SWAP1 SWAP2 POP SSTORE PUSH1 0x1 SWAP1 POP SWAP1 JUMP JUMPDEST PUSH1 0x0 DUP1 PUSH1 0x0 SWAP1 POP JUMPDEST DUP4 MLOAD DUP2 LT ISZERO PUSH2 0x1BBF JUMPI PUSH1 0x3 PUSH1 0x0 DUP7 DUP2 MSTORE PUSH1 0x20 ADD SWAP1 DUP2 MSTORE PUSH1 0x20 ADD PUSH1 0x0 KECCAK256 PUSH1 0x40 MLOAD DUP1 PUSH1 0x40 ADD PUSH1 0x40 MSTORE DUP1 DUP7 DUP5 DUP2 MLOAD DUP2 LT PUSH2 0x1B42 JUMPI PUSH2 0x1B41 PUSH2 0x2527 JUMP JUMPDEST JUMPDEST PUSH1 0x20 MUL PUSH1 0x20 ADD ADD MLOAD DUP2 MSTORE PUSH1 0x20 ADD DUP6 DUP5 DUP2 MLOAD DUP2 LT PUSH2 0x1B62 JUMPI PUSH2 0x1B61 PUSH2 0x2527 JUMP JUMPDEST JUMPDEST PUSH1 0x20 MUL PUSH1 0x20 ADD ADD MLOAD DUP2 MSTORE POP SWAP1 DUP1 PUSH1 0x1 DUP2 SLOAD ADD DUP1 DUP3 SSTORE DUP1 SWAP2 POP POP PUSH1 0x1 SWAP1 SUB SWAP1 PUSH1 0x0 MSTORE PUSH1 0x20 PUSH1 0x0 KECCAK256 SWAP1 PUSH1 0x2 MUL ADD PUSH1 0x0 SWAP1 SWAP2 SWAP1 SWAP2 SWAP1 SWAP2 POP PUSH1 0x0 DUP3 ADD MLOAD DUP2 PUSH1 0x0 ADD SSTORE PUSH1 0x20 DUP3 ADD MLOAD DUP2 PUSH1 0x1 ADD SSTORE POP POP DUP1 DUP1 PUSH2 0x1BB7 SWAP1 PUSH2 0x2585 JUMP JUMPDEST SWAP2 POP POP PUSH2 0x1B08 JUMP JUMPDEST POP PUSH1 0x1 SWAP1 POP SWAP4 SWAP3 POP POP POP JUMP JUMPDEST PUSH1 0x0 PUSH1 0x3 PUSH1 0x0 DUP6 DUP2 MSTORE PUSH1 0x20 ADD SWAP1 DUP2 MSTORE PUSH1 0x20 ADD PUSH1 0x0 KECCAK256 PUSH1 0x40 MLOAD DUP1 PUSH1 0x40 ADD PUSH1 0x40 MSTORE DUP1 DUP6 DUP2 MSTORE PUSH1 0x20 ADD DUP5 DUP2 MSTORE POP SWAP1 DUP1 PUSH1 0x1 DUP2 SLOAD ADD DUP1 DUP3 SSTORE DUP1 SWAP2 POP POP PUSH1 0x1 SWAP1 SUB SWAP1 PUSH1 0x0 MSTORE PUSH1 0x20 PUSH1 0x0 KECCAK256 SWAP1 PUSH1 0x2 MUL ADD PUSH1 0x0 SWAP1 SWAP2 SWAP1 SWAP2 SWAP1 SWAP2 POP PUSH1 0x0 DUP3 ADD MLOAD DUP2 PUSH1 0x0 ADD SSTORE PUSH1 0x20 DUP3 ADD MLOAD DUP2 PUSH1 0x1 ADD SSTORE POP POP PUSH1 0x1 SWAP1 POP SWAP4 SWAP3 POP POP POP JUMP JUMPDEST POP DUP1 SLOAD PUSH1 0x0 DUP3 SSTORE PUSH1 0x2 MUL SWAP1 PUSH1 0x0 MSTORE PUSH1 0x20 PUSH1 0x0 KECCAK256 SWAP1 DUP2 ADD SWAP1 PUSH2 0x1C60 SWAP2 SWAP1 PUSH2 0x1CC4 JUMP JUMPDEST POP JUMP JUMPDEST POP DUP1 SLOAD PUSH2 0x1C6F SWAP1 PUSH2 0x2464 JUMP JUMPDEST PUSH1 0x0 DUP3 SSTORE DUP1 PUSH1 0x1F LT PUSH2 0x1C81 JUMPI POP PUSH2 0x1CA0 JUMP JUMPDEST PUSH1 0x1F ADD PUSH1 0x20 SWAP1 DIV SWAP1 PUSH1 0x0 MSTORE PUSH1 0x20 PUSH1 0x0 KECCAK256 SWAP1 DUP2 ADD SWAP1 PUSH2 0x1C9F SWAP2 SWAP1 PUSH2 0x1CEB JUMP JUMPDEST JUMPDEST POP JUMP JUMPDEST POP DUP1 SLOAD PUSH1 0x0 DUP3 SSTORE SWAP1 PUSH1 0x0 MSTORE PUSH1 0x20 PUSH1 0x0 KECCAK256 SWAP1 DUP2 ADD SWAP1 PUSH2 0x1CC1 SWAP2 SWAP1 PUSH2 0x1D08 JUMP JUMPDEST POP JUMP JUMPDEST JUMPDEST DUP1 DUP3 GT ISZERO PUSH2 0x1CE7 JUMPI PUSH1 0x0 DUP1 DUP3 ADD PUSH1 0x0 SWAP1 SSTORE PUSH1 0x1 DUP3 ADD PUSH1 0x0 SWAP1 SSTORE POP PUSH1 0x2 ADD PUSH2 0x1CC5 JUMP JUMPDEST POP SWAP1 JUMP JUMPDEST JUMPDEST DUP1 DUP3 GT ISZERO PUSH2 0x1D04 JUMPI PUSH1 0x0 DUP2 PUSH1 0x0 SWAP1 SSTORE POP PUSH1 0x1 ADD PUSH2 0x1CEC JUMP JUMPDEST POP SWAP1 JUMP JUMPDEST JUMPDEST DUP1 DUP3 GT ISZERO PUSH2 0x1D28 JUMPI PUSH1 0x0 DUP2 DUP2 PUSH2 0x1D1F SWAP2 SWAP1 PUSH2 0x1C63 JUMP JUMPDEST POP PUSH1 0x1 ADD PUSH2 0x1D09 JUMP JUMPDEST POP SWAP1 JUMP JUMPDEST PUSH1 0x0 PUSH1 0x40 MLOAD SWAP1 POP SWAP1 JUMP JUMPDEST PUSH1 0x0 DUP1 REVERT JUMPDEST PUSH1 0x0 DUP1 REVERT JUMPDEST PUSH1 0x0 DUP2 SWAP1 POP SWAP2 SWAP1 POP JUMP JUMPDEST PUSH2 0x1D53 DUP2 PUSH2 0x1D40 JUMP JUMPDEST DUP2 EQ PUSH2 0x1D5E JUMPI PUSH1 0x0 DUP1 REVERT JUMPDEST POP JUMP JUMPDEST PUSH1 0x0 DUP2 CALLDATALOAD SWAP1 POP PUSH2 0x1D70 DUP2 PUSH2 0x1D4A JUMP JUMPDEST SWAP3 SWAP2 POP POP JUMP JUMPDEST PUSH1 0x0 PUSH1 0x20 DUP3 DUP5 SUB SLT ISZERO PUSH2 0x1D8C JUMPI PUSH2 0x1D8B PUSH2 0x1D36 JUMP JUMPDEST JUMPDEST PUSH1 0x0 PUSH2 0x1D9A DUP5 DUP3 DUP6 ADD PUSH2 0x1D61 JUMP JUMPDEST SWAP2 POP POP SWAP3 SWAP2 POP POP JUMP JUMPDEST PUSH2 0x1DAC DUP2 PUSH2 0x1D40 JUMP JUMPDEST DUP3 MSTORE POP POP JUMP JUMPDEST PUSH1 0x0 PUSH1 0x20 DUP3 ADD SWAP1 POP PUSH2 0x1DC7 PUSH1 0x0 DUP4 ADD DUP5 PUSH2 0x1DA3 JUMP JUMPDEST SWAP3 SWAP2 POP POP JUMP JUMPDEST PUSH1 0x0 DUP1 PUSH1 0x40 DUP4 DUP6 SUB SLT ISZERO PUSH2 0x1DE4 JUMPI PUSH2 0x1DE3 PUSH2 0x1D36 JUMP JUMPDEST JUMPDEST PUSH1 0x0 PUSH2 0x1DF2 DUP6 DUP3 DUP7 ADD PUSH2 0x1D61 JUMP JUMPDEST SWAP3 POP POP PUSH1 0x20 PUSH2 0x1E03 DUP6 DUP3 DUP7 ADD PUSH2 0x1D61 JUMP JUMPDEST SWAP2 POP POP SWAP3 POP SWAP3 SWAP1 POP JUMP JUMPDEST PUSH1 0x0 DUP2 MLOAD SWAP1 POP SWAP2 SWAP1 POP JUMP JUMPDEST PUSH1 0x0 DUP3 DUP3 MSTORE PUSH1 0x20 DUP3 ADD SWAP1 POP SWAP3 SWAP2 POP POP JUMP JUMPDEST PUSH1 0x0 JUMPDEST DUP4 DUP2 LT ISZERO PUSH2 0x1E47 JUMPI DUP1 DUP3 ADD MLOAD DUP2 DUP5 ADD MSTORE PUSH1 0x20 DUP2 ADD SWAP1 POP PUSH2 0x1E2C JUMP JUMPDEST PUSH1 0x0 DUP5 DUP5 ADD MSTORE POP POP POP POP JUMP JUMPDEST PUSH1 0x0 PUSH1 0x1F NOT PUSH1 0x1F DUP4 ADD AND SWAP1 POP SWAP2 SWAP1 POP JUMP JUMPDEST PUSH1 0x0 PUSH2 0x1E6F DUP3 PUSH2 0x1E0D JUMP JUMPDEST PUSH2 0x1E79 DUP2 DUP6 PUSH2 0x1E18 JUMP JUMPDEST SWAP4 POP PUSH2 0x1E89 DUP2 DUP6 PUSH1 0x20 DUP7 ADD PUSH2 0x1E29 JUMP JUMPDEST PUSH2 0x1E92 DUP2 PUSH2 0x1E53 JUMP JUMPDEST DUP5 ADD SWAP2 POP POP SWAP3 SWAP2 POP POP JUMP JUMPDEST PUSH1 0x0 PUSH1 0x20 DUP3 ADD SWAP1 POP DUP2 DUP2 SUB PUSH1 0x0 DUP4 ADD MSTORE PUSH2 0x1EB7 DUP2 DUP5 PUSH2 0x1E64 JUMP JUMPDEST SWAP1 POP SWAP3 SWAP2 POP POP JUMP JUMPDEST PUSH1 0x0 PUSH20 0xFFFFFFFFFFFFFFFFFFFFFFFFFFFFFFFFFFFFFFFF DUP3 AND SWAP1 POP SWAP2 SWAP1 POP JUMP JUMPDEST PUSH1 0x0 PUSH2 0x1EEA DUP3 PUSH2 0x1EBF JUMP JUMPDEST SWAP1 POP SWAP2 SWAP1 POP JUMP JUMPDEST PUSH2 0x1EFA DUP2 PUSH2 0x1EDF JUMP JUMPDEST DUP2 EQ PUSH2 0x1F05 JUMPI PUSH1 0x0 DUP1 REVERT JUMPDEST POP JUMP JUMPDEST PUSH1 0x0 DUP2 CALLDATALOAD SWAP1 POP PUSH2 0x1F17 DUP2 PUSH2 0x1EF1 JUMP JUMPDEST SWAP3 SWAP2 POP POP JUMP JUMPDEST PUSH1 0x0 DUP1 REVERT JUMPDEST PUSH1 0x0 DUP1 REVERT JUMPDEST PUSH32 0x4E487B7100000000000000000000000000000000000000000000000000000000 PUSH1 0x0 MSTORE PUSH1 0x41 PUSH1 0x4 MSTORE PUSH1 0x24 PUSH1 0x0 REVERT JUMPDEST PUSH2 0x1F5F DUP3 PUSH2 0x1E53 JUMP JUMPDEST DUP2 ADD DUP2 DUP2 LT PUSH8 0xFFFFFFFFFFFFFFFF DUP3 GT OR ISZERO PUSH2 0x1F7E JUMPI PUSH2 0x1F7D PUSH2 0x1F27 JUMP JUMPDEST JUMPDEST DUP1 PUSH1 0x40 MSTORE POP POP POP JUMP JUMPDEST PUSH1 0x0 PUSH2 0x1F91 PUSH2 0x1D2C JUMP JUMPDEST SWAP1 POP PUSH2 0x1F9D DUP3 DUP3 PUSH2 0x1F56 JUMP JUMPDEST SWAP2 SWAP1 POP JUMP JUMPDEST PUSH1 0x0 PUSH8 0xFFFFFFFFFFFFFFFF DUP3 GT ISZERO PUSH2 0x1FBD JUMPI PUSH2 0x1FBC PUSH2 0x1F27 JUMP JUMPDEST JUMPDEST PUSH2 0x1FC6 DUP3 PUSH2 0x1E53 JUMP JUMPDEST SWAP1 POP PUSH1 0x20 DUP2 ADD SWAP1 POP SWAP2 SWAP1 POP JUMP JUMPDEST DUP3 DUP2 DUP4 CALLDATACOPY PUSH1 0x0 DUP4 DUP4 ADD MSTORE POP POP POP JUMP JUMPDEST PUSH1 0x0 PUSH2 0x1FF5 PUSH2 0x1FF0 DUP5 PUSH2 0x1FA2 JUMP JUMPDEST PUSH2 0x1F87 JUMP JUMPDEST SWAP1 POP DUP3 DUP2 MSTORE PUSH1 0x20 DUP2 ADD DUP5 DUP5 DUP5 ADD GT ISZERO PUSH2 0x2011 JUMPI PUSH2 0x2010 PUSH2 0x1F22 JUMP JUMPDEST JUMPDEST PUSH2 0x201C DUP5 DUP3 DUP6 PUSH2 0x1FD3 JUMP JUMPDEST POP SWAP4 SWAP3 POP POP POP JUMP JUMPDEST PUSH1 0x0 DUP3 PUSH1 0x1F DUP4 ADD SLT PUSH2 0x2039 JUMPI PUSH2 0x2038 PUSH2 0x1F1D JUMP JUMPDEST JUMPDEST DUP2 CALLDATALOAD PUSH2 0x2049 DUP5 DUP3 PUSH1 0x20 DUP7 ADD PUSH2 0x1FE2 JUMP JUMPDEST SWAP2 POP POP SWAP3 SWAP2 POP POP JUMP JUMPDEST PUSH1 0x0 DUP1 PUSH1 0x40 DUP4 DUP6 SUB SLT ISZERO PUSH2 0x2069 JUMPI PUSH2 0x2068 PUSH2 0x1D36 JUMP JUMPDEST JUMPDEST PUSH1 0x0 PUSH2 0x2077 DUP6 DUP3 DUP7 ADD PUSH2 0x1F08 JUMP JUMPDEST SWAP3 POP POP PUSH1 0x20 DUP4 ADD CALLDATALOAD PUSH8 0xFFFFFFFFFFFFFFFF DUP2 GT ISZERO PUSH2 0x2098 JUMPI PUSH2 0x2097 PUSH2 0x1D3B JUMP JUMPDEST JUMPDEST PUSH2 0x20A4 DUP6 DUP3 DUP7 ADD PUSH2 0x2024 JUMP JUMPDEST SWAP2 POP POP SWAP3 POP SWAP3 SWAP1 POP JUMP JUMPDEST PUSH1 0x0 DUP2 ISZERO ISZERO SWAP1 POP SWAP2 SWAP1 POP JUMP JUMPDEST PUSH2 0x20C3 DUP2 PUSH2 0x20AE JUMP JUMPDEST DUP3 MSTORE POP POP JUMP JUMPDEST PUSH1 0x0 PUSH1 0x20 DUP3 ADD SWAP1 POP PUSH2 0x20DE PUSH1 0x0 DUP4 ADD DUP5 PUSH2 0x20BA JUMP JUMPDEST SWAP3 SWAP2 POP POP JUMP JUMPDEST PUSH1 0x0 PUSH1 0x20 DUP3 DUP5 SUB SLT ISZERO PUSH2 0x20FA JUMPI PUSH2 0x20F9 PUSH2 0x1D36 JUMP JUMPDEST JUMPDEST PUSH1 0x0 PUSH2 0x2108 DUP5 DUP3 DUP6 ADD PUSH2 0x1F08 JUMP JUMPDEST SWAP2 POP POP SWAP3 SWAP2 POP POP JUMP JUMPDEST PUSH1 0x0 DUP1 PUSH1 0x40 DUP4 DUP6 SUB SLT ISZERO PUSH2 0x2128 JUMPI PUSH2 0x2127 PUSH2 0x1D36 JUMP JUMPDEST JUMPDEST PUSH1 0x0 PUSH2 0x2136 DUP6 DUP3 DUP7 ADD PUSH2 0x1F08 JUMP JUMPDEST SWAP3 POP POP PUSH1 0x20 PUSH2 0x2147 DUP6 DUP3 DUP7 ADD PUSH2 0x1D61 JUMP JUMPDEST SWAP2 POP POP SWAP3 POP SWAP3 SWAP1 POP JUMP JUMPDEST PUSH2 0x215A DUP2 PUSH2 0x20AE JUMP JUMPDEST DUP2 EQ PUSH2 0x2165 JUMPI PUSH1 0x0 DUP1 REVERT JUMPDEST POP JUMP JUMPDEST PUSH1 0x0 DUP2 CALLDATALOAD SWAP1 POP PUSH2 0x2177 DUP2 PUSH2 0x2151 JUMP JUMPDEST SWAP3 SWAP2 POP POP JUMP JUMPDEST PUSH1 0x0 DUP1 PUSH1 0x40 DUP4 DUP6 SUB SLT ISZERO PUSH2 0x2194 JUMPI PUSH2 0x2193 PUSH2 0x1D36 JUMP JUMPDEST JUMPDEST PUSH1 0x0 PUSH2 0x21A2 DUP6 DUP3 DUP7 ADD PUSH2 0x1F08 JUMP JUMPDEST SWAP3 POP POP PUSH1 0x20 PUSH2 0x21B3 DUP6 DUP3 DUP7 ADD PUSH2 0x2168 JUMP JUMPDEST SWAP2 POP POP SWAP3 POP SWAP3 SWAP1 POP JUMP JUMPDEST PUSH1 0x0 PUSH8 0xFFFFFFFFFFFFFFFF DUP3 GT ISZERO PUSH2 0x21D8 JUMPI PUSH2 0x21D7 PUSH2 0x1F27 JUMP JUMPDEST JUMPDEST PUSH1 0x20 DUP3 MUL SWAP1 POP PUSH1 0x20 DUP2 ADD SWAP1 POP SWAP2 SWAP1 POP JUMP JUMPDEST PUSH1 0x0 DUP1 REVERT JUMPDEST PUSH1 0x0 PUSH2 0x2201 PUSH2 0x21FC DUP5 PUSH2 0x21BD JUMP JUMPDEST PUSH2 0x1F87 JUMP JUMPDEST SWAP1 POP DUP1 DUP4 DUP3 MSTORE PUSH1 0x20 DUP3 ADD SWAP1 POP PUSH1 0x20 DUP5 MUL DUP4 ADD DUP6 DUP2 GT ISZERO PUSH2 0x2224 JUMPI PUSH2 0x2223 PUSH2 0x21E9 JUMP JUMPDEST JUMPDEST DUP4 JUMPDEST DUP2 DUP2 LT ISZERO PUSH2 0x224D JUMPI DUP1 PUSH2 0x2239 DUP9 DUP3 PUSH2 0x1D61 JUMP JUMPDEST DUP5 MSTORE PUSH1 0x20 DUP5 ADD SWAP4 POP POP PUSH1 0x20 DUP2 ADD SWAP1 POP PUSH2 0x2226 JUMP JUMPDEST POP POP POP SWAP4 SWAP3 POP POP POP JUMP JUMPDEST PUSH1 0x0 DUP3 PUSH1 0x1F DUP4 ADD SLT PUSH2 0x226C JUMPI PUSH2 0x226B PUSH2 0x1F1D JUMP JUMPDEST JUMPDEST DUP2 CALLDATALOAD PUSH2 0x227C DUP5 DUP3 PUSH1 0x20 DUP7 ADD PUSH2 0x21EE JUMP JUMPDEST SWAP2 POP POP SWAP3 SWAP2 POP POP JUMP JUMPDEST PUSH1 0x0 DUP1 PUSH1 0x0 DUP1 PUSH1 0x0 DUP1 PUSH1 0x0 DUP1 PUSH2 0x100 DUP10 DUP12 SUB SLT ISZERO PUSH2 0x22A6 JUMPI PUSH2 0x22A5 PUSH2 0x1D36 JUMP JUMPDEST JUMPDEST PUSH1 0x0 PUSH2 0x22B4 DUP12 DUP3 DUP13 ADD PUSH2 0x1F08 JUMP JUMPDEST SWAP9 POP POP PUSH1 0x20 PUSH2 0x22C5 DUP12 DUP3 DUP13 ADD PUSH2 0x1D61 JUMP JUMPDEST SWAP8 POP POP PUSH1 0x40 PUSH2 0x22D6 DUP12 DUP3 DUP13 ADD PUSH2 0x2168 JUMP JUMPDEST SWAP7 POP POP PUSH1 0x60 DUP10 ADD CALLDATALOAD PUSH8 0xFFFFFFFFFFFFFFFF DUP2 GT ISZERO PUSH2 0x22F7 JUMPI PUSH2 0x22F6 PUSH2 0x1D3B JUMP JUMPDEST JUMPDEST PUSH2 0x2303 DUP12 DUP3 DUP13 ADD PUSH2 0x2024 JUMP JUMPDEST SWAP6 POP POP PUSH1 0x80 PUSH2 0x2314 DUP12 DUP3 DUP13 ADD PUSH2 0x1D61 JUMP JUMPDEST SWAP5 POP POP PUSH1 0xA0 PUSH2 0x2325 DUP12 DUP3 DUP13 ADD PUSH2 0x1D61 JUMP JUMPDEST SWAP4 POP POP PUSH1 0xC0 DUP10 ADD CALLDATALOAD PUSH8 0xFFFFFFFFFFFFFFFF DUP2 GT ISZERO PUSH2 0x2346 JUMPI PUSH2 0x2345 PUSH2 0x1D3B JUMP JUMPDEST JUMPDEST PUSH2 0x2352 DUP12 DUP3 DUP13 ADD PUSH2 0x2257 JUMP JUMPDEST SWAP3 POP POP PUSH1 0xE0 DUP10 ADD CALLDATALOAD PUSH8 0xFFFFFFFFFFFFFFFF DUP2 GT ISZERO PUSH2 0x2373 JUMPI PUSH2 0x2372 PUSH2 0x1D3B JUMP JUMPDEST JUMPDEST PUSH2 0x237F DUP12 DUP3 DUP13 ADD PUSH2 0x2257 JUMP JUMPDEST SWAP2 POP POP SWAP3 SWAP6 SWAP9 POP SWAP3 SWAP6 SWAP9 SWAP1 SWAP4 SWAP7 POP JUMP JUMPDEST PUSH1 0x0 DUP1 PUSH1 0x0 PUSH1 0x60 DUP5 DUP7 SUB SLT ISZERO PUSH2 0x23A8 JUMPI PUSH2 0x23A7 PUSH2 0x1D36 JUMP JUMPDEST JUMPDEST PUSH1 0x0 PUSH2 0x23B6 DUP7 DUP3 DUP8 ADD PUSH2 0x1F08 JUMP JUMPDEST SWAP4 POP POP PUSH1 0x20 PUSH2 0x23C7 DUP7 DUP3 DUP8 ADD PUSH2 0x1D61 JUMP JUMPDEST SWAP3 POP POP PUSH1 0x40 PUSH2 0x23D8 DUP7 DUP3 DUP8 ADD PUSH2 0x1D61 JUMP JUMPDEST SWAP2 POP POP SWAP3 POP SWAP3 POP SWAP3 JUMP JUMPDEST PUSH2 0x23EB DUP2 PUSH2 0x1EDF JUMP JUMPDEST DUP3 MSTORE POP POP JUMP JUMPDEST PUSH1 0x0 PUSH1 0x20 DUP3 ADD SWAP1 POP PUSH2 0x2406 PUSH1 0x0 DUP4 ADD DUP5 PUSH2 0x23E2 JUMP JUMPDEST SWAP3 SWAP2 POP POP JUMP JUMPDEST PUSH1 0x0 PUSH1 0x40 DUP3 ADD SWAP1 POP PUSH2 0x2421 PUSH1 0x0 DUP4 ADD DUP6 PUSH2 0x1DA3 JUMP JUMPDEST PUSH2 0x242E PUSH1 0x20 DUP4 ADD DUP5 PUSH2 0x1DA3 JUMP JUMPDEST SWAP4 SWAP3 POP POP POP JUMP JUMPDEST PUSH32 0x4E487B7100000000000000000000000000000000000000000000000000000000 PUSH1 0x0 MSTORE PUSH1 0x22 PUSH1 0x4 MSTORE PUSH1 0x24 PUSH1 0x0 REVERT JUMPDEST PUSH1 0x0 PUSH1 0x2 DUP3 DIV SWAP1 POP PUSH1 0x1 DUP3 AND DUP1 PUSH2 0x247C JUMPI PUSH1 0x7F DUP3 AND SWAP2 POP JUMPDEST PUSH1 0x20 DUP3 LT DUP2 SUB PUSH2 0x248F JUMPI PUSH2 0x248E PUSH2 0x2435 JUMP JUMPDEST JUMPDEST POP SWAP2 SWAP1 POP JUMP JUMPDEST PUSH32 0x596F7520646F6E742068617665207065726D697373696F6E20666F7220746869 PUSH1 0x0 DUP3 ADD MSTORE PUSH32 0x7320616374696F6E000000000000000000000000000000000000000000000000 PUSH1 0x20 DUP3 ADD MSTORE POP JUMP JUMPDEST PUSH1 0x0 PUSH2 0x24F1 PUSH1 0x28 DUP4 PUSH2 0x1E18 JUMP JUMPDEST SWAP2 POP PUSH2 0x24FC DUP3 PUSH2 0x2495 JUMP JUMPDEST PUSH1 0x40 DUP3 ADD SWAP1 POP SWAP2 SWAP1 POP JUMP JUMPDEST PUSH1 0x0 PUSH1 0x20 DUP3 ADD SWAP1 POP DUP2 DUP2 SUB PUSH1 0x0 DUP4 ADD MSTORE PUSH2 0x2520 DUP2 PUSH2 0x24E4 JUMP JUMPDEST SWAP1 POP SWAP2 SWAP1 POP JUMP JUMPDEST PUSH32 0x4E487B7100000000000000000000000000000000000000000000000000000000 PUSH1 0x0 MSTORE PUSH1 0x32 PUSH1 0x4 MSTORE PUSH1 0x24 PUSH1 0x0 REVERT JUMPDEST PUSH32 0x4E487B7100000000000000000000000000000000000000000000000000000000 PUSH1 0x0 MSTORE PUSH1 0x11 PUSH1 0x4 MSTORE PUSH1 0x24 PUSH1 0x0 REVERT JUMPDEST PUSH1 0x0 PUSH2 0x2590 DUP3 PUSH2 0x1D40 JUMP JUMPDEST SWAP2 POP PUSH32 0xFFFFFFFFFFFFFFFFFFFFFFFFFFFFFFFFFFFFFFFFFFFFFFFFFFFFFFFFFFFFFFFF DUP3 SUB PUSH2 0x25C2 JUMPI PUSH2 0x25C1 PUSH2 0x2556 JUMP JUMPDEST JUMPDEST PUSH1 0x1 DUP3 ADD SWAP1 POP SWAP2 SWAP1 POP JUMP JUMPDEST PUSH1 0x0 PUSH2 0x25D8 DUP3 PUSH2 0x1D40 JUMP JUMPDEST SWAP2 POP PUSH2 0x25E3 DUP4 PUSH2 0x1D40 JUMP JUMPDEST SWAP3 POP DUP3 DUP3 ADD SWAP1 POP DUP1 DUP3 GT ISZERO PUSH2 0x25FB JUMPI PUSH2 0x25FA PUSH2 0x2556 JUMP JUMPDEST JUMPDEST SWAP3 SWAP2 POP POP JUMP JUMPDEST PUSH32 0x4E487B7100000000000000000000000000000000000000000000000000000000 PUSH1 0x0 MSTORE PUSH1 0x31 PUSH1 0x4 MSTORE PUSH1 0x24 PUSH1 0x0 REVERT JUMPDEST PUSH1 0x0 DUP2 SWAP1 POP DUP2 PUSH1 0x0 MSTORE PUSH1 0x20 PUSH1 0x0 KECCAK256 SWAP1 POP SWAP2 SWAP1 POP JUMP JUMPDEST PUSH1 0x0 PUSH1 0x20 PUSH1 0x1F DUP4 ADD DIV SWAP1 POP SWAP2 SWAP1 POP JUMP JUMPDEST PUSH1 0x0 DUP3 DUP3 SHL SWAP1 POP SWAP3 SWAP2 POP POP JUMP JUMPDEST PUSH1 0x0 PUSH1 0x8 DUP4 MUL PUSH2 0x2692 PUSH32 0xFFFFFFFFFFFFFFFFFFFFFFFFFFFFFFFFFFFFFFFFFFFFFFFFFFFFFFFFFFFFFFFF DUP3 PUSH2 0x2655 JUMP JUMPDEST PUSH2 0x269C DUP7 DUP4 PUSH2 0x2655 JUMP JUMPDEST SWAP6 POP DUP1 NOT DUP5 AND SWAP4 POP DUP1 DUP7 AND DUP5 OR SWAP3 POP POP POP SWAP4 SWAP3 POP POP POP JUMP JUMPDEST PUSH1 0x0 DUP2 SWAP1 POP SWAP2 SWAP1 POP JUMP JUMPDEST PUSH1 0x0 PUSH2 0x26D9 PUSH2 0x26D4 PUSH2 0x26CF DUP5 PUSH2 0x1D40 JUMP JUMPDEST PUSH2 0x26B4 JUMP JUMPDEST PUSH2 0x1D40 JUMP JUMPDEST SWAP1 POP SWAP2 SWAP1 POP JUMP JUMPDEST PUSH1 0x0 DUP2 SWAP1 POP SWAP2 SWAP1 POP JUMP JUMPDEST PUSH2 0x26F3 DUP4 PUSH2 0x26BE JUMP JUMPDEST PUSH2 0x2707 PUSH2 0x26FF DUP3 PUSH2 0x26E0 JUMP JUMPDEST DUP5 DUP5 SLOAD PUSH2 0x2662 JUMP JUMPDEST DUP3 SSTORE POP POP POP POP JUMP JUMPDEST PUSH1 0x0 SWAP1 JUMP JUMPDEST PUSH2 0x271C PUSH2 0x270F JUMP JUMPDEST PUSH2 0x2727 DUP2 DUP5 DUP5 PUSH2 0x26EA JUMP JUMPDEST POP POP POP JUMP JUMPDEST JUMPDEST DUP2 DUP2 LT ISZERO PUSH2 0x274B JUMPI PUSH2 0x2740 PUSH1 0x0 DUP3 PUSH2 0x2714 JUMP JUMPDEST PUSH1 0x1 DUP2 ADD SWAP1 POP PUSH2 0x272D JUMP JUMPDEST POP POP JUMP JUMPDEST PUSH1 0x1F DUP3 GT ISZERO PUSH2 0x2790 JUMPI PUSH2 0x2761 DUP2 PUSH2 0x2630 JUMP JUMPDEST PUSH2 0x276A DUP5 PUSH2 0x2645 JUMP JUMPDEST DUP2 ADD PUSH1 0x20 DUP6 LT ISZERO PUSH2 0x2779 JUMPI DUP2 SWAP1 POP JUMPDEST PUSH2 0x278D PUSH2 0x2785 DUP6 PUSH2 0x2645 JUMP JUMPDEST DUP4 ADD DUP3 PUSH2 0x272C JUMP JUMPDEST POP POP JUMPDEST POP POP POP JUMP JUMPDEST PUSH1 0x0 DUP3 DUP3 SHR SWAP1 POP SWAP3 SWAP2 POP POP JUMP JUMPDEST PUSH1 0x0 PUSH2 0x27B3 PUSH1 0x0 NOT DUP5 PUSH1 0x8 MUL PUSH2 0x2795 JUMP JUMPDEST NOT DUP1 DUP4 AND SWAP2 POP POP SWAP3 SWAP2 POP POP JUMP JUMPDEST PUSH1 0x0 PUSH2 0x27CC DUP4 DUP4 PUSH2 0x27A2 JUMP JUMPDEST SWAP2 POP DUP3 PUSH1 0x2 MUL DUP3 OR SWAP1 POP SWAP3 SWAP2 POP POP JUMP JUMPDEST PUSH2 0x27E5 DUP3 PUSH2 0x1E0D JUMP JUMPDEST PUSH8 0xFFFFFFFFFFFFFFFF DUP2 GT ISZERO PUSH2 0x27FE JUMPI PUSH2 0x27FD PUSH2 0x1F27 JUMP JUMPDEST JUMPDEST PUSH2 0x2808 DUP3 SLOAD PUSH2 0x2464 JUMP JUMPDEST PUSH2 0x2813 DUP3 DUP3 DUP6 PUSH2 0x274F JUMP JUMPDEST PUSH1 0x0 PUSH1 0x20 SWAP1 POP PUSH1 0x1F DUP4 GT PUSH1 0x1 DUP2 EQ PUSH2 0x2846 JUMPI PUSH1 0x0 DUP5 ISZERO PUSH2 0x2834 JUMPI DUP3 DUP8 ADD MLOAD SWAP1 POP JUMPDEST PUSH2 0x283E DUP6 DUP3 PUSH2 0x27C0 JUMP JUMPDEST DUP7 SSTORE POP PUSH2 0x28A6 JUMP JUMPDEST PUSH1 0x1F NOT DUP5 AND PUSH2 0x2854 DUP7 PUSH2 0x2630 JUMP JUMPDEST PUSH1 0x0 JUMPDEST DUP3 DUP2 LT ISZERO PUSH2 0x287C JUMPI DUP5 DUP10 ADD MLOAD DUP3 SSTORE PUSH1 0x1 DUP3 ADD SWAP2 POP PUSH1 0x20 DUP6 ADD SWAP5 POP PUSH1 0x20 DUP2 ADD SWAP1 POP PUSH2 0x2857 JUMP JUMPDEST DUP7 DUP4 LT ISZERO PUSH2 0x2899 JUMPI DUP5 DUP10 ADD MLOAD PUSH2 0x2895 PUSH1 0x1F DUP10 AND DUP3 PUSH2 0x27A2 JUMP JUMPDEST DUP4 SSTORE POP JUMPDEST PUSH1 0x1 PUSH1 0x2 DUP9 MUL ADD DUP9 SSTORE POP POP POP JUMPDEST POP POP POP POP POP POP JUMP INVALID LOG2 PUSH5 0x6970667358 0x22 SLT KECCAK256 PUSH11 0xE958761425A257BA712D15 0xED 0x2B PUSH20 0x4F438F9A0E5D8B870860BB271CBBBB5C3464736F PUSH13 0x63430008110033000000000000 "},"methodIdentifiers":{"acoesCount(uint256)":"37805d53","addDono(address,uint256,bool,string,uint256,uint256,uint256[],uint256[])":"9e8004ee","addOwnerUnion(address)":"da87fc8a","condicoes(uint256,uint256)":"d6d819ee","dataProxCobranca(uint256)":"08883fa0","donos(uint256)":"eabfedca","historicoRecebimento(uint256,uint256)":"f7b86516","idAcoes(uint256,uint256)":"2bc758ff","idPredio()":"d29927cf","owner(address)":"666e1b39","prazo(uint256)":"2f1e8a92","removeDono(address)":"50541cd6","removeOwnerUnion(address)":"8c3151be","status(uint256)":"42d21ef7","updateAcoes(address,string)":"4b38b197","updateCondicoes(address,string)":"2bcda3d4","updateDataProxCobranca(address,uint256)":"52b20ce7","updateHistoricoRecebimento(address,uint256,uint256)":"bc0f21e9","updatePrazo(address,uint256)":"a7adad03","updateStatus(address,bool)":"7444144b","updateValorCobranca(address,uint256)":"8b2b47b3","valorCobranca(uint256)":"71435955"}}}}}