{"contracts/functions/historicoRecebimento.sol":{"HistoricoRecebimento":{"abi":[{"inputs":[{"internalType":"uint256","name":"_donosSize","type":"uint256"},{"internalType":"uint256[][]","name":"_datasRecebimento","type":"uint256[][]"},{"internalType":"uint256[][]","name":"_valoresRecebimento","type":"uint256[][]"}],"stateMutability":"nonpayable","type":"constructor"},{"inputs":[{"internalType":"uint256","name":"","type":"uint256"},{"internalType":"uint256","name":"","type":"uint256"}],"name":"historicoRecebimento","outputs":[{"internalType":"uint256","name":"data","type":"uint256"},{"internalType":"uint256","name":"valor","type":"uint256"}],"stateMutability":"view","type":"function"}],"evm":{"bytecode":{"linkReferences":{},"object":"608060405234801561001057600080fd5b506040516106b03803806106b0833981810160405281019061003291906103e5565b60005b838110156101585760005b83828151811061005357610052610470565b5b60200260200101515181101561014457600080838152602001908152602001600020604051806040016040528086858151811061009357610092610470565b5b602002602001015184815181106100ad576100ac610470565b5b602002602001015181526020018585815181106100cd576100cc610470565b5b602002602001015184815181106100e7576100e6610470565b5b6020026020010151815250908060018154018082558091505060019003906000526020600020906002020160009091909190915060008201518160000155602082015181600101555050808061013c906104ce565b915050610040565b508080610150906104ce565b915050610035565b50505050610516565b6000604051905090565b600080fd5b600080fd5b6000819050919050565b61018881610175565b811461019357600080fd5b50565b6000815190506101a58161017f565b92915050565b600080fd5b6000601f19601f8301169050919050565b7f4e487b7100000000000000000000000000000000000000000000000000000000600052604160045260246000fd5b6101f9826101b0565b810181811067ffffffffffffffff82111715610218576102176101c1565b5b80604052505050565b600061022b610161565b905061023782826101f0565b919050565b600067ffffffffffffffff821115610257576102566101c1565b5b602082029050602081019050919050565b600080fd5b600067ffffffffffffffff821115610288576102876101c1565b5b602082029050602081019050919050565b60006102ac6102a78461026d565b610221565b905080838252602082019050602084028301858111156102cf576102ce610268565b5b835b818110156102f857806102e48882610196565b8452602084019350506020810190506102d1565b5050509392505050565b600082601f830112610317576103166101ab565b5b8151610327848260208601610299565b91505092915050565b600061034361033e8461023c565b610221565b9050808382526020820190506020840283018581111561036657610365610268565b5b835b818110156103ad57805167ffffffffffffffff81111561038b5761038a6101ab565b5b8086016103988982610302565b85526020850194505050602081019050610368565b5050509392505050565b600082601f8301126103cc576103cb6101ab565b5b81516103dc848260208601610330565b91505092915050565b6000806000606084860312156103fe576103fd61016b565b5b600061040c86828701610196565b935050602084015167ffffffffffffffff81111561042d5761042c610170565b5b610439868287016103b7565b925050604084015167ffffffffffffffff81111561045a57610459610170565b5b610466868287016103b7565b9150509250925092565b7f4e487b7100000000000000000000000000000000000000000000000000000000600052603260045260246000fd5b7f4e487b7100000000000000000000000000000000000000000000000000000000600052601160045260246000fd5b60006104d982610175565b91507fffffffffffffffffffffffffffffffffffffffffffffffffffffffffffffffff820361050b5761050a61049f565b5b600182019050919050565b61018b806105256000396000f3fe608060405234801561001057600080fd5b506004361061002b5760003560e01c8063f7b8651614610030575b600080fd5b61004a600480360381019061004591906100dd565b610061565b60405161005892919061012c565b60405180910390f35b6000602052816000526040600020818154811061007d57600080fd5b9060005260206000209060020201600091509150508060000154908060010154905082565b600080fd5b6000819050919050565b6100ba816100a7565b81146100c557600080fd5b50565b6000813590506100d7816100b1565b92915050565b600080604083850312156100f4576100f36100a2565b5b6000610102858286016100c8565b9250506020610113858286016100c8565b9150509250929050565b610126816100a7565b82525050565b6000604082019050610141600083018561011d565b61014e602083018461011d565b939250505056fea264697066735822122002381f14cd408e8b0ef33e473fde699427c9c6d22355f7da0dc33c9283da60d064736f6c63430008110033","opcodes":"PUSH1 0x80 PUSH1 0x40 MSTORE CALLVALUE DUP1 ISZERO PUSH2 0x10 JUMPI PUSH1 0x0 DUP1 REVERT JUMPDEST POP PUSH1 0x40 MLOAD PUSH2 0x6B0 CODESIZE SUB DUP1 PUSH2 0x6B0 DUP4 CODECOPY DUP2 DUP2 ADD PUSH1 0x40 MSTORE DUP2 ADD SWAP1 PUSH2 0x32 SWAP2 SWAP1 PUSH2 0x3E5 JUMP JUMPDEST PUSH1 0x0 JUMPDEST DUP4 DUP2 LT ISZERO PUSH2 0x158 JUMPI PUSH1 0x0 JUMPDEST DUP4 DUP3 DUP2 MLOAD DUP2 LT PUSH2 0x53 JUMPI PUSH2 0x52 PUSH2 0x470 JUMP JUMPDEST JUMPDEST PUSH1 0x20 MUL PUSH1 0x20 ADD ADD MLOAD MLOAD DUP2 LT ISZERO PUSH2 0x144 JUMPI PUSH1 0x0 DUP1 DUP4 DUP2 MSTORE PUSH1 0x20 ADD SWAP1 DUP2 MSTORE PUSH1 0x20 ADD PUSH1 0x0 KECCAK256 PUSH1 0x40 MLOAD DUP1 PUSH1 0x40 ADD PUSH1 0x40 MSTORE DUP1 DUP7 DUP6 DUP2 MLOAD DUP2 LT PUSH2 0x93 JUMPI PUSH2 0x92 PUSH2 0x470 JUMP JUMPDEST JUMPDEST PUSH1 0x20 MUL PUSH1 0x20 ADD ADD MLOAD DUP5 DUP2 MLOAD DUP2 LT PUSH2 0xAD JUMPI PUSH2 0xAC PUSH2 0x470 JUMP JUMPDEST JUMPDEST PUSH1 0x20 MUL PUSH1 0x20 ADD ADD MLOAD DUP2 MSTORE PUSH1 0x20 ADD DUP6 DUP6 DUP2 MLOAD DUP2 LT PUSH2 0xCD JUMPI PUSH2 0xCC PUSH2 0x470 JUMP JUMPDEST JUMPDEST PUSH1 0x20 MUL PUSH1 0x20 ADD ADD MLOAD DUP5 DUP2 MLOAD DUP2 LT PUSH2 0xE7 JUMPI PUSH2 0xE6 PUSH2 0x470 JUMP JUMPDEST JUMPDEST PUSH1 0x20 MUL PUSH1 0x20 ADD ADD MLOAD DUP2 MSTORE POP SWAP1 DUP1 PUSH1 0x1 DUP2 SLOAD ADD DUP1 DUP3 SSTORE DUP1 SWAP2 POP POP PUSH1 0x1 SWAP1 SUB SWAP1 PUSH1 0x0 MSTORE PUSH1 0x20 PUSH1 0x0 KECCAK256 SWAP1 PUSH1 0x2 MUL ADD PUSH1 0x0 SWAP1 SWAP2 SWAP1 SWAP2 SWAP1 SWAP2 POP PUSH1 0x0 DUP3 ADD MLOAD DUP2 PUSH1 0x0 ADD SSTORE PUSH1 0x20 DUP3 ADD MLOAD DUP2 PUSH1 0x1 ADD SSTORE POP POP DUP1 DUP1 PUSH2 0x13C SWAP1 PUSH2 0x4CE JUMP JUMPDEST SWAP2 POP POP PUSH2 0x40 JUMP JUMPDEST POP DUP1 DUP1 PUSH2 0x150 SWAP1 PUSH2 0x4CE JUMP JUMPDEST SWAP2 POP POP PUSH2 0x35 JUMP JUMPDEST POP POP POP POP PUSH2 0x516 JUMP JUMPDEST PUSH1 0x0 PUSH1 0x40 MLOAD SWAP1 POP SWAP1 JUMP JUMPDEST PUSH1 0x0 DUP1 REVERT JUMPDEST PUSH1 0x0 DUP1 REVERT JUMPDEST PUSH1 0x0 DUP2 SWAP1 POP SWAP2 SWAP1 POP JUMP JUMPDEST PUSH2 0x188 DUP2 PUSH2 0x175 JUMP JUMPDEST DUP2 EQ PUSH2 0x193 JUMPI PUSH1 0x0 DUP1 REVERT JUMPDEST POP JUMP JUMPDEST PUSH1 0x0 DUP2 MLOAD SWAP1 POP PUSH2 0x1A5 DUP2 PUSH2 0x17F JUMP JUMPDEST SWAP3 SWAP2 POP POP JUMP JUMPDEST PUSH1 0x0 DUP1 REVERT JUMPDEST PUSH1 0x0 PUSH1 0x1F NOT PUSH1 0x1F DUP4 ADD AND SWAP1 POP SWAP2 SWAP1 POP JUMP JUMPDEST PUSH32 0x4E487B7100000000000000000000000000000000000000000000000000000000 PUSH1 0x0 MSTORE PUSH1 0x41 PUSH1 0x4 MSTORE PUSH1 0x24 PUSH1 0x0 REVERT JUMPDEST PUSH2 0x1F9 DUP3 PUSH2 0x1B0 JUMP JUMPDEST DUP2 ADD DUP2 DUP2 LT PUSH8 0xFFFFFFFFFFFFFFFF DUP3 GT OR ISZERO PUSH2 0x218 JUMPI PUSH2 0x217 PUSH2 0x1C1 JUMP JUMPDEST JUMPDEST DUP1 PUSH1 0x40 MSTORE POP POP POP JUMP JUMPDEST PUSH1 0x0 PUSH2 0x22B PUSH2 0x161 JUMP JUMPDEST SWAP1 POP PUSH2 0x237 DUP3 DUP3 PUSH2 0x1F0 JUMP JUMPDEST SWAP2 SWAP1 POP JUMP JUMPDEST PUSH1 0x0 PUSH8 0xFFFFFFFFFFFFFFFF DUP3 GT ISZERO PUSH2 0x257 JUMPI PUSH2 0x256 PUSH2 0x1C1 JUMP JUMPDEST JUMPDEST PUSH1 0x20 DUP3 MUL SWAP1 POP PUSH1 0x20 DUP2 ADD SWAP1 POP SWAP2 SWAP1 POP JUMP JUMPDEST PUSH1 0x0 DUP1 REVERT JUMPDEST PUSH1 0x0 PUSH8 0xFFFFFFFFFFFFFFFF DUP3 GT ISZERO PUSH2 0x288 JUMPI PUSH2 0x287 PUSH2 0x1C1 JUMP JUMPDEST JUMPDEST PUSH1 0x20 DUP3 MUL SWAP1 POP PUSH1 0x20 DUP2 ADD SWAP1 POP SWAP2 SWAP1 POP JUMP JUMPDEST PUSH1 0x0 PUSH2 0x2AC PUSH2 0x2A7 DUP5 PUSH2 0x26D JUMP JUMPDEST PUSH2 0x221 JUMP JUMPDEST SWAP1 POP DUP1 DUP4 DUP3 MSTORE PUSH1 0x20 DUP3 ADD SWAP1 POP PUSH1 0x20 DUP5 MUL DUP4 ADD DUP6 DUP2 GT ISZERO PUSH2 0x2CF JUMPI PUSH2 0x2CE PUSH2 0x268 JUMP JUMPDEST JUMPDEST DUP4 JUMPDEST DUP2 DUP2 LT ISZERO PUSH2 0x2F8 JUMPI DUP1 PUSH2 0x2E4 DUP9 DUP3 PUSH2 0x196 JUMP JUMPDEST DUP5 MSTORE PUSH1 0x20 DUP5 ADD SWAP4 POP POP PUSH1 0x20 DUP2 ADD SWAP1 POP PUSH2 0x2D1 JUMP JUMPDEST POP POP POP SWAP4 SWAP3 POP POP POP JUMP JUMPDEST PUSH1 0x0 DUP3 PUSH1 0x1F DUP4 ADD SLT PUSH2 0x317 JUMPI PUSH2 0x316 PUSH2 0x1AB JUMP JUMPDEST JUMPDEST DUP2 MLOAD PUSH2 0x327 DUP5 DUP3 PUSH1 0x20 DUP7 ADD PUSH2 0x299 JUMP JUMPDEST SWAP2 POP POP SWAP3 SWAP2 POP POP JUMP JUMPDEST PUSH1 0x0 PUSH2 0x343 PUSH2 0x33E DUP5 PUSH2 0x23C JUMP JUMPDEST PUSH2 0x221 JUMP JUMPDEST SWAP1 POP DUP1 DUP4 DUP3 MSTORE PUSH1 0x20 DUP3 ADD SWAP1 POP PUSH1 0x20 DUP5 MUL DUP4 ADD DUP6 DUP2 GT ISZERO PUSH2 0x366 JUMPI PUSH2 0x365 PUSH2 0x268 JUMP JUMPDEST JUMPDEST DUP4 JUMPDEST DUP2 DUP2 LT ISZERO PUSH2 0x3AD JUMPI DUP1 MLOAD PUSH8 0xFFFFFFFFFFFFFFFF DUP2 GT ISZERO PUSH2 0x38B JUMPI PUSH2 0x38A PUSH2 0x1AB JUMP JUMPDEST JUMPDEST DUP1 DUP7 ADD PUSH2 0x398 DUP10 DUP3 PUSH2 0x302 JUMP JUMPDEST DUP6 MSTORE PUSH1 0x20 DUP6 ADD SWAP5 POP POP POP PUSH1 0x20 DUP2 ADD SWAP1 POP PUSH2 0x368 JUMP JUMPDEST POP POP POP SWAP4 SWAP3 POP POP POP JUMP JUMPDEST PUSH1 0x0 DUP3 PUSH1 0x1F DUP4 ADD SLT PUSH2 0x3CC JUMPI PUSH2 0x3CB PUSH2 0x1AB JUMP JUMPDEST JUMPDEST DUP2 MLOAD PUSH2 0x3DC DUP5 DUP3 PUSH1 0x20 DUP7 ADD PUSH2 0x330 JUMP JUMPDEST SWAP2 POP POP SWAP3 SWAP2 POP POP JUMP JUMPDEST PUSH1 0x0 DUP1 PUSH1 0x0 PUSH1 0x60 DUP5 DUP7 SUB SLT ISZERO PUSH2 0x3FE JUMPI PUSH2 0x3FD PUSH2 0x16B JUMP JUMPDEST JUMPDEST PUSH1 0x0 PUSH2 0x40C DUP7 DUP3 DUP8 ADD PUSH2 0x196 JUMP JUMPDEST SWAP4 POP POP PUSH1 0x20 DUP5 ADD MLOAD PUSH8 0xFFFFFFFFFFFFFFFF DUP2 GT ISZERO PUSH2 0x42D JUMPI PUSH2 0x42C PUSH2 0x170 JUMP JUMPDEST JUMPDEST PUSH2 0x439 DUP7 DUP3 DUP8 ADD PUSH2 0x3B7 JUMP JUMPDEST SWAP3 POP POP PUSH1 0x40 DUP5 ADD MLOAD PUSH8 0xFFFFFFFFFFFFFFFF DUP2 GT ISZERO PUSH2 0x45A JUMPI PUSH2 0x459 PUSH2 0x170 JUMP JUMPDEST JUMPDEST PUSH2 0x466 DUP7 DUP3 DUP8 ADD PUSH2 0x3B7 JUMP JUMPDEST SWAP2 POP POP SWAP3 POP SWAP3 POP SWAP3 JUMP JUMPDEST PUSH32 0x4E487B7100000000000000000000000000000000000000000000000000000000 PUSH1 0x0 MSTORE PUSH1 0x32 PUSH1 0x4 MSTORE PUSH1 0x24 PUSH1 0x0 REVERT JUMPDEST PUSH32 0x4E487B7100000000000000000000000000000000000000000000000000000000 PUSH1 0x0 MSTORE PUSH1 0x11 PUSH1 0x4 MSTORE PUSH1 0x24 PUSH1 0x0 REVERT JUMPDEST PUSH1 0x0 PUSH2 0x4D9 DUP3 PUSH2 0x175 JUMP JUMPDEST SWAP2 POP PUSH32 0xFFFFFFFFFFFFFFFFFFFFFFFFFFFFFFFFFFFFFFFFFFFFFFFFFFFFFFFFFFFFFFFF DUP3 SUB PUSH2 0x50B JUMPI PUSH2 0x50A PUSH2 0x49F JUMP JUMPDEST JUMPDEST PUSH1 0x1 DUP3 ADD SWAP1 POP SWAP2 SWAP1 POP JUMP JUMPDEST PUSH2 0x18B DUP1 PUSH2 0x525 PUSH1 0x0 CODECOPY PUSH1 0x0 RETURN INVALID PUSH1 0x80 PUSH1 0x40 MSTORE CALLVALUE DUP1 ISZERO PUSH2 0x10 JUMPI PUSH1 0x0 DUP1 REVERT JUMPDEST POP PUSH1 0x4 CALLDATASIZE LT PUSH2 0x2B JUMPI PUSH1 0x0 CALLDATALOAD PUSH1 0xE0 SHR DUP1 PUSH4 0xF7B86516 EQ PUSH2 0x30 JUMPI JUMPDEST PUSH1 0x0 DUP1 REVERT JUMPDEST PUSH2 0x4A PUSH1 0x4 DUP1 CALLDATASIZE SUB DUP2 ADD SWAP1 PUSH2 0x45 SWAP2 SWAP1 PUSH2 0xDD JUMP JUMPDEST PUSH2 0x61 JUMP JUMPDEST PUSH1 0x40 MLOAD PUSH2 0x58 SWAP3 SWAP2 SWAP1 PUSH2 0x12C JUMP JUMPDEST PUSH1 0x40 MLOAD DUP1 SWAP2 SUB SWAP1 RETURN JUMPDEST PUSH1 0x0 PUSH1 0x20 MSTORE DUP2 PUSH1 0x0 MSTORE PUSH1 0x40 PUSH1 0x0 KECCAK256 DUP2 DUP2 SLOAD DUP2 LT PUSH2 0x7D JUMPI PUSH1 0x0 DUP1 REVERT JUMPDEST SWAP1 PUSH1 0x0 MSTORE PUSH1 0x20 PUSH1 0x0 KECCAK256 SWAP1 PUSH1 0x2 MUL ADD PUSH1 0x0 SWAP2 POP SWAP2 POP POP DUP1 PUSH1 0x0 ADD SLOAD SWAP1 DUP1 PUSH1 0x1 ADD SLOAD SWAP1 POP DUP3 JUMP JUMPDEST PUSH1 0x0 DUP1 REVERT JUMPDEST PUSH1 0x0 DUP2 SWAP1 POP SWAP2 SWAP1 POP JUMP JUMPDEST PUSH2 0xBA DUP2 PUSH2 0xA7 JUMP JUMPDEST DUP2 EQ PUSH2 0xC5 JUMPI PUSH1 0x0 DUP1 REVERT JUMPDEST POP JUMP JUMPDEST PUSH1 0x0 DUP2 CALLDATALOAD SWAP1 POP PUSH2 0xD7 DUP2 PUSH2 0xB1 JUMP JUMPDEST SWAP3 SWAP2 POP POP JUMP JUMPDEST PUSH1 0x0 DUP1 PUSH1 0x40 DUP4 DUP6 SUB SLT ISZERO PUSH2 0xF4 JUMPI PUSH2 0xF3 PUSH2 0xA2 JUMP JUMPDEST JUMPDEST PUSH1 0x0 PUSH2 0x102 DUP6 DUP3 DUP7 ADD PUSH2 0xC8 JUMP JUMPDEST SWAP3 POP POP PUSH1 0x20 PUSH2 0x113 DUP6 DUP3 DUP7 ADD PUSH2 0xC8 JUMP JUMPDEST SWAP2 POP POP SWAP3 POP SWAP3 SWAP1 POP JUMP JUMPDEST PUSH2 0x126 DUP2 PUSH2 0xA7 JUMP JUMPDEST DUP3 MSTORE POP POP JUMP JUMPDEST PUSH1 0x0 PUSH1 0x40 DUP3 ADD SWAP1 POP PUSH2 0x141 PUSH1 0x0 DUP4 ADD DUP6 PUSH2 0x11D JUMP JUMPDEST PUSH2 0x14E PUSH1 0x20 DUP4 ADD DUP5 PUSH2 0x11D JUMP JUMPDEST SWAP4 SWAP3 POP POP POP JUMP INVALID LOG2 PUSH5 0x6970667358 0x22 SLT KECCAK256 MUL CODESIZE 0x1F EQ 0xCD BLOCKHASH DUP15 DUP12 0xE RETURN RETURNDATACOPY SELFBALANCE EXTCODEHASH 0xDE PUSH10 0x9427C9C6D22355F7DA0D 0xC3 EXTCODECOPY SWAP3 DUP4 0xDA PUSH1 0xD0 PUSH5 0x736F6C6343 STOP ADDMOD GT STOP CALLER "},"methodIdentifiers":{"historicoRecebimento(uint256,uint256)":"f7b86516"}}}}}