{
	"data": {
		"bytecode": {
			"linkReferences": {},
			"object": "60806040523480156200001157600080fd5b506040516200297f3803806200297f833981810160405281019062000037919062000b8b565b60005b8a51811015620000ce5760016000808d84815181106200005f576200005e620010a9565b5b602002602001015173ffffffffffffffffffffffffffffffffffffffff1673ffffffffffffffffffffffffffffffffffffffff16815260200190815260200160002060006101000a81548160ff0219169083151502179055508080620000c59062000ffd565b9150506200003a565b508660029080519060200190620000e79291906200033e565b5088600181905550876003908051906020019062000107929190620003cd565b508560049080519060200190620001209291906200041f565b5060005b87518110156200032d5760005b838281518110620001475762000146620010a9565b5b60200260200101515181101562000249576008600083815260200190815260200160002060405180604001604052808685815181106200018c576200018b620010a9565b5b60200260200101518481518110620001a957620001a8620010a9565b5b60200260200101518152602001858581518110620001cc57620001cb620010a9565b5b60200260200101518481518110620001e957620001e8620010a9565b5b60200260200101518152509080600181540180825580915050600190039060005260206000209060020201600090919091909150600082015181600001556020820151816001015550508080620002409062000ffd565b91505062000131565b5085818151811062000260576200025f620010a9565b5b602002602001015160056000838152602001908152602001600020908051906020019062000290929190620004cc565b50848181518110620002a757620002a6620010a9565b5b602002602001015160068281548110620002c657620002c5620010a9565b5b9060005260206000200181905550838181518110620002ea57620002e9620010a9565b5b602002602001015160078281548110620003095762000308620010a9565b5b90600052602060002001819055508080620003249062000ffd565b91505062000124565b50505050505050505050506200117f565b828054828255906000526020600020908101928215620003ba579160200282015b82811115620003b95782518260006101000a81548173ffffffffffffffffffffffffffffffffffffffff021916908373ffffffffffffffffffffffffffffffffffffffff160217905550916020019190600101906200035f565b5b509050620003c9919062000533565b5090565b8280548282559060005260206000209081019282156200040c579160200282015b828111156200040b578251825591602001919060010190620003ee565b5b5090506200041b919062000533565b5090565b82805482825590600052602060002090601f01602090048101928215620004b95791602002820160005b838211156200048857835183826101000a81548160ff021916908315150217905550926020019260010160208160000104928301926001030262000449565b8015620004b75782816101000a81549060ff021916905560010160208160000104928301926001030262000488565b505b509050620004c8919062000533565b5090565b82805482825590600052602060002090810192821562000520579160200282015b828111156200051f5782518290805190602001906200050e92919062000552565b5091602001919060010190620004ed565b5b5090506200052f9190620005e3565b5090565b5b808211156200054e57600081600090555060010162000534565b5090565b828054620005609062000f91565b90600052602060002090601f016020900481019282620005845760008555620005d0565b82601f106200059f57805160ff1916838001178555620005d0565b82800160010185558215620005d0579182015b82811115620005cf578251825591602001919060010190620005b2565b5b509050620005df919062000533565b5090565b5b80821115620006075760008181620005fd91906200060b565b50600101620005e4565b5090565b508054620006199062000f91565b6000825580601f106200062d57506200064e565b601f0160209004906000526020600020908101906200064d919062000533565b5b50565b600062000668620006628462000dc1565b62000d98565b905080838252602082019050828560208602820111156200068e576200068d6200110c565b5b60005b85811015620006c25781620006a78882620009e1565b84526020840193506020830192505060018101905062000691565b5050509392505050565b6000620006e3620006dd8462000df0565b62000d98565b905080838252602082019050828560208602820111156200070957620007086200110c565b5b60005b858110156200075e57815167ffffffffffffffff81111562000733576200073262001107565b5b80860162000742898262000ac4565b855260208501945060208401935050506001810190506200070c565b5050509392505050565b60006200077f620007798462000e1f565b62000d98565b90508083825260208201905082856020860282011115620007a557620007a46200110c565b5b60005b85811015620007fa57815167ffffffffffffffff811115620007cf57620007ce62001107565b5b808601620007de898262000af7565b85526020850194506020840193505050600181019050620007a8565b5050509392505050565b60006200081b620008158462000e4e565b62000d98565b905080838252602082019050828560208602820111156200084157620008406200110c565b5b60005b858110156200087557816200085a888262000b2a565b84526020840193506020830192505060018101905062000844565b5050509392505050565b600062000896620008908462000e7d565b62000d98565b90508083825260208201905082856020860282011115620008bc57620008bb6200110c565b5b60005b858110156200091157815167ffffffffffffffff811115620008e657620008e562001107565b5b808601620008f5898262000b41565b85526020850194506020840193505050600181019050620008bf565b5050509392505050565b6000620009326200092c8462000eac565b62000d98565b905080838252602082019050828560208602820111156200095857620009576200110c565b5b60005b858110156200098c578162000971888262000b74565b8452602084019350602083019250506001810190506200095b565b5050509392505050565b6000620009ad620009a78462000edb565b62000d98565b905082815260208101848484011115620009cc57620009cb62001111565b5b620009d984828562000f5b565b509392505050565b600081519050620009f28162001131565b92915050565b600082601f83011262000a105762000a0f62001107565b5b815162000a2284826020860162000651565b91505092915050565b600082601f83011262000a435762000a4262001107565b5b815162000a55848260208601620006cc565b91505092915050565b600082601f83011262000a765762000a7562001107565b5b815162000a8884826020860162000768565b91505092915050565b600082601f83011262000aa95762000aa862001107565b5b815162000abb84826020860162000804565b91505092915050565b600082601f83011262000adc5762000adb62001107565b5b815162000aee8482602086016200087f565b91505092915050565b600082601f83011262000b0f5762000b0e62001107565b5b815162000b218482602086016200091b565b91505092915050565b60008151905062000b3b816200114b565b92915050565b600082601f83011262000b595762000b5862001107565b5b815162000b6b84826020860162000996565b91505092915050565b60008151905062000b858162001165565b92915050565b6000806000806000806000806000806101408b8d03121562000bb25762000bb16200111b565b5b60008b015167ffffffffffffffff81111562000bd35762000bd262001116565b5b62000be18d828e01620009f8565b9a5050602062000bf48d828e0162000b74565b99505060408b015167ffffffffffffffff81111562000c185762000c1762001116565b5b62000c268d828e0162000af7565b98505060608b015167ffffffffffffffff81111562000c4a5762000c4962001116565b5b62000c588d828e01620009f8565b97505060808b015167ffffffffffffffff81111562000c7c5762000c7b62001116565b5b62000c8a8d828e0162000a91565b96505060a08b015167ffffffffffffffff81111562000cae5762000cad62001116565b5b62000cbc8d828e0162000a2b565b95505060c08b015167ffffffffffffffff81111562000ce05762000cdf62001116565b5b62000cee8d828e0162000af7565b94505060e08b015167ffffffffffffffff81111562000d125762000d1162001116565b5b62000d208d828e0162000af7565b9350506101008b015167ffffffffffffffff81111562000d455762000d4462001116565b5b62000d538d828e0162000a5e565b9250506101208b015167ffffffffffffffff81111562000d785762000d7762001116565b5b62000d868d828e0162000a5e565b9150509295989b9194979a5092959850565b600062000da462000db7565b905062000db2828262000fc7565b919050565b6000604051905090565b600067ffffffffffffffff82111562000ddf5762000dde620010d8565b5b602082029050602081019050919050565b600067ffffffffffffffff82111562000e0e5762000e0d620010d8565b5b602082029050602081019050919050565b600067ffffffffffffffff82111562000e3d5762000e3c620010d8565b5b602082029050602081019050919050565b600067ffffffffffffffff82111562000e6c5762000e6b620010d8565b5b602082029050602081019050919050565b600067ffffffffffffffff82111562000e9b5762000e9a620010d8565b5b602082029050602081019050919050565b600067ffffffffffffffff82111562000eca5762000ec9620010d8565b5b602082029050602081019050919050565b600067ffffffffffffffff82111562000ef95762000ef8620010d8565b5b62000f048262001120565b9050602081019050919050565b600062000f1e8262000f31565b9050919050565b60008115159050919050565b600073ffffffffffffffffffffffffffffffffffffffff82169050919050565b6000819050919050565b60005b8381101562000f7b57808201518184015260208101905062000f5e565b8381111562000f8b576000848401525b50505050565b6000600282049050600182168062000faa57607f821691505b6020821081141562000fc15762000fc06200107a565b5b50919050565b62000fd28262001120565b810181811067ffffffffffffffff8211171562000ff45762000ff3620010d8565b5b80604052505050565b60006200100a8262000f51565b91507fffffffffffffffffffffffffffffffffffffffffffffffffffffffffffffffff82141562001040576200103f6200104b565b5b600182019050919050565b7f4e487b7100000000000000000000000000000000000000000000000000000000600052601160045260246000fd5b7f4e487b7100000000000000000000000000000000000000000000000000000000600052602260045260246000fd5b7f4e487b7100000000000000000000000000000000000000000000000000000000600052603260045260246000fd5b7f4e487b7100000000000000000000000000000000000000000000000000000000600052604160045260246000fd5b600080fd5b600080fd5b600080fd5b600080fd5b600080fd5b6000601f19601f8301169050919050565b6200113c8162000f11565b81146200114857600080fd5b50565b620011568162000f25565b81146200116257600080fd5b50565b620011708162000f51565b81146200117c57600080fd5b50565b6117f0806200118f6000396000f3fe608060405234801561001057600080fd5b50600436106100cf5760003560e01c80638c3151be1161008c578063d6d819ee11610066578063d6d819ee14610236578063da87fc8a14610266578063eabfedca14610282578063f7b86516146102b2576100cf565b80638c3151be146101e05780639e8004ee146101fc578063d29927cf14610218576100cf565b806308883fa0146100d45780632f1e8a921461010457806342d21ef71461013457806350541cd614610164578063666e1b391461018057806371435955146101b0575b600080fd5b6100ee60048036038101906100e99190611235565b6102e3565b6040516100fb91906113a3565b60405180910390f35b61011e60048036038101906101199190611235565b610307565b60405161012b91906113a3565b60405180910390f35b61014e60048036038101906101499190611235565b61032b565b60405161015b9190611346565b60405180910390f35b61017e600480360381019061017991906110fe565b61035f565b005b61019a600480360381019061019591906110fe565b610810565b6040516101a79190611346565b60405180910390f35b6101ca60048036038101906101c59190611235565b610830565b6040516101d791906113a3565b60405180910390f35b6101fa60048036038101906101f591906110fe565b610854565b005b6102166004803603810190610211919061112b565b610939565b005b610220610bdb565b60405161022d91906113a3565b60405180910390f35b610250600480360381019061024b9190611262565b610be1565b60405161025d9190611361565b60405180910390f35b610280600480360381019061027b91906110fe565b610c9a565b005b61029c60048036038101906102979190611235565b610d7f565b6040516102a9919061132b565b60405180910390f35b6102cc60048036038101906102c79190611262565b610dbe565b6040516102da9291906113be565b60405180910390f35b600781815481106102f357600080fd5b906000526020600020016000915090505481565b6003818154811061031757600080fd5b906000526020600020016000915090505481565b6004818154811061033b57600080fd5b9060005260206000209060209182820401919006915054906101000a900460ff1681565b6000803373ffffffffffffffffffffffffffffffffffffffff1673ffffffffffffffffffffffffffffffffffffffff16815260200190815260200160002060009054906101000a900460ff166103ea576040517f08c379a00000000000000000000000000000000000000000000000000000000081526004016103e190611383565b60405180910390fd5b60005b600280549050811015610711578173ffffffffffffffffffffffffffffffffffffffff16600282815481106104255761042461169e565b5b9060005260206000200160009054906101000a900473ffffffffffffffffffffffffffffffffffffffff1673ffffffffffffffffffffffffffffffffffffffff1614156106fe5760008190505b60028054905081101561069d57600260018261048e9190611485565b8154811061049f5761049e61169e565b5b9060005260206000200160009054906101000a900473ffffffffffffffffffffffffffffffffffffffff16600282815481106104de576104dd61169e565b5b9060005260206000200160006101000a81548173ffffffffffffffffffffffffffffffffffffffff021916908373ffffffffffffffffffffffffffffffffffffffff16021790555060036001826105359190611485565b815481106105465761054561169e565b5b9060005260206000200154600382815481106105655761056461169e565b5b906000526020600020018190555060046001826105829190611485565b815481106105935761059261169e565b5b90600052602060002090602091828204019190069054906101000a900460ff16600482815481106105c7576105c661169e565b5b90600052602060002090602091828204019190066101000a81548160ff02191690831515021790555060066001826105ff9190611485565b815481106106105761060f61169e565b5b90600052602060002001546006828154811061062f5761062e61169e565b5b9060005260206000200181905550600760018261064c9190611485565b8154811061065d5761065c61169e565b5b90600052602060002001546007828154811061067c5761067b61169e565b5b90600052602060002001819055508080610695906115c8565b915050610472565b50604051806020016040528060405180602001604052806000815250815250600560008381526020019081526020016000209060016106dd929190610dff565b506008600082815260200190815260200160002060006106fd9190610e5f565b5b8080610709906115c8565b9150506103ed565b5060028054806107245761072361166f565b5b6001900381819060005260206000200160006101000a81549073ffffffffffffffffffffffffffffffffffffffff02191690559055600380548061076b5761076a61166f565b5b6001900381819060005260206000200160009055905560048054806107935761079261166f565b5b60019003818190600052602060002090602091828204019190066101000a81549060ff0219169055905560068054806107cf576107ce61166f565b5b6001900381819060005260206000200160009055905560078054806107f7576107f661166f565b5b6001900381819060005260206000200160009055905550565b60006020528060005260406000206000915054906101000a900460ff1681565b6006818154811061084057600080fd5b906000526020600020016000915090505481565b6000803373ffffffffffffffffffffffffffffffffffffffff1673ffffffffffffffffffffffffffffffffffffffff16815260200190815260200160002060009054906101000a900460ff166108df576040517f08c379a00000000000000000000000000000000000000000000000000000000081526004016108d690611383565b60405180910390fd5b60008060008373ffffffffffffffffffffffffffffffffffffffff1673ffffffffffffffffffffffffffffffffffffffff16815260200190815260200160002060006101000a81548160ff02191690831515021790555050565b6000803373ffffffffffffffffffffffffffffffffffffffff1673ffffffffffffffffffffffffffffffffffffffff16815260200190815260200160002060009054906101000a900460ff166109c4576040517f08c379a00000000000000000000000000000000000000000000000000000000081526004016109bb90611383565b60405180910390fd5b600060028054905090506002899080600181540180825580915050600190039060005260206000200160009091909190916101000a81548173ffffffffffffffffffffffffffffffffffffffff021916908373ffffffffffffffffffffffffffffffffffffffff160217905550600388908060018154018082558091505060019003906000526020600020016000909190919091505560048790806001815401808255809150506001900390600052602060002090602091828204019190069091909190916101000a81548160ff02191690831515021790555060405180602001604052808781525060056000838152602001908152602001600020906001610ace929190610dff565b508460068281548110610ae457610ae361169e565b5b90600052602060002001819055508360078281548110610b0757610b0661169e565b5b906000526020600020018190555060005b8351811015610bcf57600860008381526020019081526020016000206040518060400160405280868481518110610b5257610b5161169e565b5b60200260200101518152602001858481518110610b7257610b7161169e565b5b60200260200101518152509080600181540180825580915050600190039060005260206000209060020201600090919091909150600082015181600001556020820151816001015550508080610bc7906115c8565b915050610b18565b50505050505050505050565b60015481565b60056020528160005260406000208181548110610bfd57600080fd5b90600052602060002001600091509150508054610c1990611565565b80601f0160208091040260200160405190810160405280929190818152602001828054610c4590611565565b8015610c925780601f10610c6757610100808354040283529160200191610c92565b820191906000526020600020905b815481529060010190602001808311610c7557829003601f168201915b505050505081565b6000803373ffffffffffffffffffffffffffffffffffffffff1673ffffffffffffffffffffffffffffffffffffffff16815260200190815260200160002060009054906101000a900460ff16610d25576040517f08c379a0000000000000000000000000000000000000000000000000000000008152600401610d1c90611383565b60405180910390fd5b60016000808373ffffffffffffffffffffffffffffffffffffffff1673ffffffffffffffffffffffffffffffffffffffff16815260200190815260200160002060006101000a81548160ff02191690831515021790555050565b60028181548110610d8f57600080fd5b906000526020600020016000915054906101000a900473ffffffffffffffffffffffffffffffffffffffff1681565b60086020528160005260406000208181548110610dda57600080fd5b9060005260206000209060020201600091509150508060000154908060010154905082565b828054828255906000526020600020908101928215610e4e579160200282015b82811115610e4d578251829080519060200190610e3d929190610e83565b5091602001919060010190610e1f565b5b509050610e5b9190610f09565b5090565b5080546000825560020290600052602060002090810190610e809190610f2d565b50565b828054610e8f90611565565b90600052602060002090601f016020900481019282610eb15760008555610ef8565b82601f10610eca57805160ff1916838001178555610ef8565b82800160010185558215610ef8579182015b82811115610ef7578251825591602001919060010190610edc565b5b509050610f059190610f54565b5090565b5b80821115610f295760008181610f209190610f71565b50600101610f0a565b5090565b5b80821115610f5057600080820160009055600182016000905550600201610f2e565b5090565b5b80821115610f6d576000816000905550600101610f55565b5090565b508054610f7d90611565565b6000825580601f10610f8f5750610fae565b601f016020900490600052602060002090810190610fad9190610f54565b5b50565b6000610fc4610fbf8461140c565b6113e7565b90508083825260208201905082856020860282011115610fe757610fe6611701565b5b60005b858110156110175781610ffd88826110e9565b845260208401935060208301925050600181019050610fea565b5050509392505050565b600061103461102f84611438565b6113e7565b9050828152602081018484840111156110505761104f611706565b5b61105b848285611523565b509392505050565b60008135905061107281611775565b92915050565b600082601f83011261108d5761108c6116fc565b5b813561109d848260208601610fb1565b91505092915050565b6000813590506110b58161178c565b92915050565b600082601f8301126110d0576110cf6116fc565b5b81356110e0848260208601611021565b91505092915050565b6000813590506110f8816117a3565b92915050565b60006020828403121561111457611113611710565b5b600061112284828501611063565b91505092915050565b600080600080600080600080610100898b03121561114c5761114b611710565b5b600061115a8b828c01611063565b985050602061116b8b828c016110e9565b975050604061117c8b828c016110a6565b965050606089013567ffffffffffffffff81111561119d5761119c61170b565b5b6111a98b828c016110bb565b95505060806111ba8b828c016110e9565b94505060a06111cb8b828c016110e9565b93505060c089013567ffffffffffffffff8111156111ec576111eb61170b565b5b6111f88b828c01611078565b92505060e089013567ffffffffffffffff8111156112195761121861170b565b5b6112258b828c01611078565b9150509295985092959890939650565b60006020828403121561124b5761124a611710565b5b6000611259848285016110e9565b91505092915050565b6000806040838503121561127957611278611710565b5b6000611287858286016110e9565b9250506020611298858286016110e9565b9150509250929050565b6112ab816114db565b82525050565b6112ba816114ed565b82525050565b60006112cb82611469565b6112d58185611474565b93506112e5818560208601611532565b6112ee81611715565b840191505092915050565b6000611306602883611474565b915061131182611726565b604082019050919050565b61132581611519565b82525050565b600060208201905061134060008301846112a2565b92915050565b600060208201905061135b60008301846112b1565b92915050565b6000602082019050818103600083015261137b81846112c0565b905092915050565b6000602082019050818103600083015261139c816112f9565b9050919050565b60006020820190506113b8600083018461131c565b92915050565b60006040820190506113d3600083018561131c565b6113e0602083018461131c565b9392505050565b60006113f1611402565b90506113fd8282611597565b919050565b6000604051905090565b600067ffffffffffffffff821115611427576114266116cd565b5b602082029050602081019050919050565b600067ffffffffffffffff821115611453576114526116cd565b5b61145c82611715565b9050602081019050919050565b600081519050919050565b600082825260208201905092915050565b600061149082611519565b915061149b83611519565b9250827fffffffffffffffffffffffffffffffffffffffffffffffffffffffffffffffff038211156114d0576114cf611611565b5b828201905092915050565b60006114e6826114f9565b9050919050565b60008115159050919050565b600073ffffffffffffffffffffffffffffffffffffffff82169050919050565b6000819050919050565b82818337600083830152505050565b60005b83811015611550578082015181840152602081019050611535565b8381111561155f576000848401525b50505050565b6000600282049050600182168061157d57607f821691505b6020821081141561159157611590611640565b5b50919050565b6115a082611715565b810181811067ffffffffffffffff821117156115bf576115be6116cd565b5b80604052505050565b60006115d382611519565b91507fffffffffffffffffffffffffffffffffffffffffffffffffffffffffffffffff82141561160657611605611611565b5b600182019050919050565b7f4e487b7100000000000000000000000000000000000000000000000000000000600052601160045260246000fd5b7f4e487b7100000000000000000000000000000000000000000000000000000000600052602260045260246000fd5b7f4e487b7100000000000000000000000000000000000000000000000000000000600052603160045260246000fd5b7f4e487b7100000000000000000000000000000000000000000000000000000000600052603260045260246000fd5b7f4e487b7100000000000000000000000000000000000000000000000000000000600052604160045260246000fd5b600080fd5b600080fd5b600080fd5b600080fd5b600080fd5b6000601f19601f8301169050919050565b7f596f7520646f6e742068617665207065726d697373696f6e20666f722074686960008201527f7320616374696f6e000000000000000000000000000000000000000000000000602082015250565b61177e816114db565b811461178957600080fd5b50565b611795816114ed565b81146117a057600080fd5b50565b6117ac81611519565b81146117b757600080fd5b5056fea2646970667358221220299e7a3b768854811b8c241b2e1e7e27d87cad7560364f9bae455ca24fb4556964736f6c63430008060033",
			"opcodes": "PUSH1 0x80 PUSH1 0x40 MSTORE CALLVALUE DUP1 ISZERO PUSH3 0x11 JUMPI PUSH1 0x0 DUP1 REVERT JUMPDEST POP PUSH1 0x40 MLOAD PUSH3 0x297F CODESIZE SUB DUP1 PUSH3 0x297F DUP4 CODECOPY DUP2 DUP2 ADD PUSH1 0x40 MSTORE DUP2 ADD SWAP1 PUSH3 0x37 SWAP2 SWAP1 PUSH3 0xB8B JUMP JUMPDEST PUSH1 0x0 JUMPDEST DUP11 MLOAD DUP2 LT ISZERO PUSH3 0xCE JUMPI PUSH1 0x1 PUSH1 0x0 DUP1 DUP14 DUP5 DUP2 MLOAD DUP2 LT PUSH3 0x5F JUMPI PUSH3 0x5E PUSH3 0x10A9 JUMP JUMPDEST JUMPDEST PUSH1 0x20 MUL PUSH1 0x20 ADD ADD MLOAD PUSH20 0xFFFFFFFFFFFFFFFFFFFFFFFFFFFFFFFFFFFFFFFF AND PUSH20 0xFFFFFFFFFFFFFFFFFFFFFFFFFFFFFFFFFFFFFFFF AND DUP2 MSTORE PUSH1 0x20 ADD SWAP1 DUP2 MSTORE PUSH1 0x20 ADD PUSH1 0x0 KECCAK256 PUSH1 0x0 PUSH2 0x100 EXP DUP2 SLOAD DUP2 PUSH1 0xFF MUL NOT AND SWAP1 DUP4 ISZERO ISZERO MUL OR SWAP1 SSTORE POP DUP1 DUP1 PUSH3 0xC5 SWAP1 PUSH3 0xFFD JUMP JUMPDEST SWAP2 POP POP PUSH3 0x3A JUMP JUMPDEST POP DUP7 PUSH1 0x2 SWAP1 DUP1 MLOAD SWAP1 PUSH1 0x20 ADD SWAP1 PUSH3 0xE7 SWAP3 SWAP2 SWAP1 PUSH3 0x33E JUMP JUMPDEST POP DUP9 PUSH1 0x1 DUP2 SWAP1 SSTORE POP DUP8 PUSH1 0x3 SWAP1 DUP1 MLOAD SWAP1 PUSH1 0x20 ADD SWAP1 PUSH3 0x107 SWAP3 SWAP2 SWAP1 PUSH3 0x3CD JUMP JUMPDEST POP DUP6 PUSH1 0x4 SWAP1 DUP1 MLOAD SWAP1 PUSH1 0x20 ADD SWAP1 PUSH3 0x120 SWAP3 SWAP2 SWAP1 PUSH3 0x41F JUMP JUMPDEST POP PUSH1 0x0 JUMPDEST DUP8 MLOAD DUP2 LT ISZERO PUSH3 0x32D JUMPI PUSH1 0x0 JUMPDEST DUP4 DUP3 DUP2 MLOAD DUP2 LT PUSH3 0x147 JUMPI PUSH3 0x146 PUSH3 0x10A9 JUMP JUMPDEST JUMPDEST PUSH1 0x20 MUL PUSH1 0x20 ADD ADD MLOAD MLOAD DUP2 LT ISZERO PUSH3 0x249 JUMPI PUSH1 0x8 PUSH1 0x0 DUP4 DUP2 MSTORE PUSH1 0x20 ADD SWAP1 DUP2 MSTORE PUSH1 0x20 ADD PUSH1 0x0 KECCAK256 PUSH1 0x40 MLOAD DUP1 PUSH1 0x40 ADD PUSH1 0x40 MSTORE DUP1 DUP7 DUP6 DUP2 MLOAD DUP2 LT PUSH3 0x18C JUMPI PUSH3 0x18B PUSH3 0x10A9 JUMP JUMPDEST JUMPDEST PUSH1 0x20 MUL PUSH1 0x20 ADD ADD MLOAD DUP5 DUP2 MLOAD DUP2 LT PUSH3 0x1A9 JUMPI PUSH3 0x1A8 PUSH3 0x10A9 JUMP JUMPDEST JUMPDEST PUSH1 0x20 MUL PUSH1 0x20 ADD ADD MLOAD DUP2 MSTORE PUSH1 0x20 ADD DUP6 DUP6 DUP2 MLOAD DUP2 LT PUSH3 0x1CC JUMPI PUSH3 0x1CB PUSH3 0x10A9 JUMP JUMPDEST JUMPDEST PUSH1 0x20 MUL PUSH1 0x20 ADD ADD MLOAD DUP5 DUP2 MLOAD DUP2 LT PUSH3 0x1E9 JUMPI PUSH3 0x1E8 PUSH3 0x10A9 JUMP JUMPDEST JUMPDEST PUSH1 0x20 MUL PUSH1 0x20 ADD ADD MLOAD DUP2 MSTORE POP SWAP1 DUP1 PUSH1 0x1 DUP2 SLOAD ADD DUP1 DUP3 SSTORE DUP1 SWAP2 POP POP PUSH1 0x1 SWAP1 SUB SWAP1 PUSH1 0x0 MSTORE PUSH1 0x20 PUSH1 0x0 KECCAK256 SWAP1 PUSH1 0x2 MUL ADD PUSH1 0x0 SWAP1 SWAP2 SWAP1 SWAP2 SWAP1 SWAP2 POP PUSH1 0x0 DUP3 ADD MLOAD DUP2 PUSH1 0x0 ADD SSTORE PUSH1 0x20 DUP3 ADD MLOAD DUP2 PUSH1 0x1 ADD SSTORE POP POP DUP1 DUP1 PUSH3 0x240 SWAP1 PUSH3 0xFFD JUMP JUMPDEST SWAP2 POP POP PUSH3 0x131 JUMP JUMPDEST POP DUP6 DUP2 DUP2 MLOAD DUP2 LT PUSH3 0x260 JUMPI PUSH3 0x25F PUSH3 0x10A9 JUMP JUMPDEST JUMPDEST PUSH1 0x20 MUL PUSH1 0x20 ADD ADD MLOAD PUSH1 0x5 PUSH1 0x0 DUP4 DUP2 MSTORE PUSH1 0x20 ADD SWAP1 DUP2 MSTORE PUSH1 0x20 ADD PUSH1 0x0 KECCAK256 SWAP1 DUP1 MLOAD SWAP1 PUSH1 0x20 ADD SWAP1 PUSH3 0x290 SWAP3 SWAP2 SWAP1 PUSH3 0x4CC JUMP JUMPDEST POP DUP5 DUP2 DUP2 MLOAD DUP2 LT PUSH3 0x2A7 JUMPI PUSH3 0x2A6 PUSH3 0x10A9 JUMP JUMPDEST JUMPDEST PUSH1 0x20 MUL PUSH1 0x20 ADD ADD MLOAD PUSH1 0x6 DUP3 DUP2 SLOAD DUP2 LT PUSH3 0x2C6 JUMPI PUSH3 0x2C5 PUSH3 0x10A9 JUMP JUMPDEST JUMPDEST SWAP1 PUSH1 0x0 MSTORE PUSH1 0x20 PUSH1 0x0 KECCAK256 ADD DUP2 SWAP1 SSTORE POP DUP4 DUP2 DUP2 MLOAD DUP2 LT PUSH3 0x2EA JUMPI PUSH3 0x2E9 PUSH3 0x10A9 JUMP JUMPDEST JUMPDEST PUSH1 0x20 MUL PUSH1 0x20 ADD ADD MLOAD PUSH1 0x7 DUP3 DUP2 SLOAD DUP2 LT PUSH3 0x309 JUMPI PUSH3 0x308 PUSH3 0x10A9 JUMP JUMPDEST JUMPDEST SWAP1 PUSH1 0x0 MSTORE PUSH1 0x20 PUSH1 0x0 KECCAK256 ADD DUP2 SWAP1 SSTORE POP DUP1 DUP1 PUSH3 0x324 SWAP1 PUSH3 0xFFD JUMP JUMPDEST SWAP2 POP POP PUSH3 0x124 JUMP JUMPDEST POP POP POP POP POP POP POP POP POP POP POP PUSH3 0x117F JUMP JUMPDEST DUP3 DUP1 SLOAD DUP3 DUP3 SSTORE SWAP1 PUSH1 0x0 MSTORE PUSH1 0x20 PUSH1 0x0 KECCAK256 SWAP1 DUP2 ADD SWAP3 DUP3 ISZERO PUSH3 0x3BA JUMPI SWAP2 PUSH1 0x20 MUL DUP3 ADD JUMPDEST DUP3 DUP2 GT ISZERO PUSH3 0x3B9 JUMPI DUP3 MLOAD DUP3 PUSH1 0x0 PUSH2 0x100 EXP DUP2 SLOAD DUP2 PUSH20 0xFFFFFFFFFFFFFFFFFFFFFFFFFFFFFFFFFFFFFFFF MUL NOT AND SWAP1 DUP4 PUSH20 0xFFFFFFFFFFFFFFFFFFFFFFFFFFFFFFFFFFFFFFFF AND MUL OR SWAP1 SSTORE POP SWAP2 PUSH1 0x20 ADD SWAP2 SWAP1 PUSH1 0x1 ADD SWAP1 PUSH3 0x35F JUMP JUMPDEST JUMPDEST POP SWAP1 POP PUSH3 0x3C9 SWAP2 SWAP1 PUSH3 0x533 JUMP JUMPDEST POP SWAP1 JUMP JUMPDEST DUP3 DUP1 SLOAD DUP3 DUP3 SSTORE SWAP1 PUSH1 0x0 MSTORE PUSH1 0x20 PUSH1 0x0 KECCAK256 SWAP1 DUP2 ADD SWAP3 DUP3 ISZERO PUSH3 0x40C JUMPI SWAP2 PUSH1 0x20 MUL DUP3 ADD JUMPDEST DUP3 DUP2 GT ISZERO PUSH3 0x40B JUMPI DUP3 MLOAD DUP3 SSTORE SWAP2 PUSH1 0x20 ADD SWAP2 SWAP1 PUSH1 0x1 ADD SWAP1 PUSH3 0x3EE JUMP JUMPDEST JUMPDEST POP SWAP1 POP PUSH3 0x41B SWAP2 SWAP1 PUSH3 0x533 JUMP JUMPDEST POP SWAP1 JUMP JUMPDEST DUP3 DUP1 SLOAD DUP3 DUP3 SSTORE SWAP1 PUSH1 0x0 MSTORE PUSH1 0x20 PUSH1 0x0 KECCAK256 SWAP1 PUSH1 0x1F ADD PUSH1 0x20 SWAP1 DIV DUP2 ADD SWAP3 DUP3 ISZERO PUSH3 0x4B9 JUMPI SWAP2 PUSH1 0x20 MUL DUP3 ADD PUSH1 0x0 JUMPDEST DUP4 DUP3 GT ISZERO PUSH3 0x488 JUMPI DUP4 MLOAD DUP4 DUP3 PUSH2 0x100 EXP DUP2 SLOAD DUP2 PUSH1 0xFF MUL NOT AND SWAP1 DUP4 ISZERO ISZERO MUL OR SWAP1 SSTORE POP SWAP3 PUSH1 0x20 ADD SWAP3 PUSH1 0x1 ADD PUSH1 0x20 DUP2 PUSH1 0x0 ADD DIV SWAP3 DUP4 ADD SWAP3 PUSH1 0x1 SUB MUL PUSH3 0x449 JUMP JUMPDEST DUP1 ISZERO PUSH3 0x4B7 JUMPI DUP3 DUP2 PUSH2 0x100 EXP DUP2 SLOAD SWAP1 PUSH1 0xFF MUL NOT AND SWAP1 SSTORE PUSH1 0x1 ADD PUSH1 0x20 DUP2 PUSH1 0x0 ADD DIV SWAP3 DUP4 ADD SWAP3 PUSH1 0x1 SUB MUL PUSH3 0x488 JUMP JUMPDEST POP JUMPDEST POP SWAP1 POP PUSH3 0x4C8 SWAP2 SWAP1 PUSH3 0x533 JUMP JUMPDEST POP SWAP1 JUMP JUMPDEST DUP3 DUP1 SLOAD DUP3 DUP3 SSTORE SWAP1 PUSH1 0x0 MSTORE PUSH1 0x20 PUSH1 0x0 KECCAK256 SWAP1 DUP2 ADD SWAP3 DUP3 ISZERO PUSH3 0x520 JUMPI SWAP2 PUSH1 0x20 MUL DUP3 ADD JUMPDEST DUP3 DUP2 GT ISZERO PUSH3 0x51F JUMPI DUP3 MLOAD DUP3 SWAP1 DUP1 MLOAD SWAP1 PUSH1 0x20 ADD SWAP1 PUSH3 0x50E SWAP3 SWAP2 SWAP1 PUSH3 0x552 JUMP JUMPDEST POP SWAP2 PUSH1 0x20 ADD SWAP2 SWAP1 PUSH1 0x1 ADD SWAP1 PUSH3 0x4ED JUMP JUMPDEST JUMPDEST POP SWAP1 POP PUSH3 0x52F SWAP2 SWAP1 PUSH3 0x5E3 JUMP JUMPDEST POP SWAP1 JUMP JUMPDEST JUMPDEST DUP1 DUP3 GT ISZERO PUSH3 0x54E JUMPI PUSH1 0x0 DUP2 PUSH1 0x0 SWAP1 SSTORE POP PUSH1 0x1 ADD PUSH3 0x534 JUMP JUMPDEST POP SWAP1 JUMP JUMPDEST DUP3 DUP1 SLOAD PUSH3 0x560 SWAP1 PUSH3 0xF91 JUMP JUMPDEST SWAP1 PUSH1 0x0 MSTORE PUSH1 0x20 PUSH1 0x0 KECCAK256 SWAP1 PUSH1 0x1F ADD PUSH1 0x20 SWAP1 DIV DUP2 ADD SWAP3 DUP3 PUSH3 0x584 JUMPI PUSH1 0x0 DUP6 SSTORE PUSH3 0x5D0 JUMP JUMPDEST DUP3 PUSH1 0x1F LT PUSH3 0x59F JUMPI DUP1 MLOAD PUSH1 0xFF NOT AND DUP4 DUP1 ADD OR DUP6 SSTORE PUSH3 0x5D0 JUMP JUMPDEST DUP3 DUP1 ADD PUSH1 0x1 ADD DUP6 SSTORE DUP3 ISZERO PUSH3 0x5D0 JUMPI SWAP2 DUP3 ADD JUMPDEST DUP3 DUP2 GT ISZERO PUSH3 0x5CF JUMPI DUP3 MLOAD DUP3 SSTORE SWAP2 PUSH1 0x20 ADD SWAP2 SWAP1 PUSH1 0x1 ADD SWAP1 PUSH3 0x5B2 JUMP JUMPDEST JUMPDEST POP SWAP1 POP PUSH3 0x5DF SWAP2 SWAP1 PUSH3 0x533 JUMP JUMPDEST POP SWAP1 JUMP JUMPDEST JUMPDEST DUP1 DUP3 GT ISZERO PUSH3 0x607 JUMPI PUSH1 0x0 DUP2 DUP2 PUSH3 0x5FD SWAP2 SWAP1 PUSH3 0x60B JUMP JUMPDEST POP PUSH1 0x1 ADD PUSH3 0x5E4 JUMP JUMPDEST POP SWAP1 JUMP JUMPDEST POP DUP1 SLOAD PUSH3 0x619 SWAP1 PUSH3 0xF91 JUMP JUMPDEST PUSH1 0x0 DUP3 SSTORE DUP1 PUSH1 0x1F LT PUSH3 0x62D JUMPI POP PUSH3 0x64E JUMP JUMPDEST PUSH1 0x1F ADD PUSH1 0x20 SWAP1 DIV SWAP1 PUSH1 0x0 MSTORE PUSH1 0x20 PUSH1 0x0 KECCAK256 SWAP1 DUP2 ADD SWAP1 PUSH3 0x64D SWAP2 SWAP1 PUSH3 0x533 JUMP JUMPDEST JUMPDEST POP JUMP JUMPDEST PUSH1 0x0 PUSH3 0x668 PUSH3 0x662 DUP5 PUSH3 0xDC1 JUMP JUMPDEST PUSH3 0xD98 JUMP JUMPDEST SWAP1 POP DUP1 DUP4 DUP3 MSTORE PUSH1 0x20 DUP3 ADD SWAP1 POP DUP3 DUP6 PUSH1 0x20 DUP7 MUL DUP3 ADD GT ISZERO PUSH3 0x68E JUMPI PUSH3 0x68D PUSH3 0x110C JUMP JUMPDEST JUMPDEST PUSH1 0x0 JUMPDEST DUP6 DUP2 LT ISZERO PUSH3 0x6C2 JUMPI DUP2 PUSH3 0x6A7 DUP9 DUP3 PUSH3 0x9E1 JUMP JUMPDEST DUP5 MSTORE PUSH1 0x20 DUP5 ADD SWAP4 POP PUSH1 0x20 DUP4 ADD SWAP3 POP POP PUSH1 0x1 DUP2 ADD SWAP1 POP PUSH3 0x691 JUMP JUMPDEST POP POP POP SWAP4 SWAP3 POP POP POP JUMP JUMPDEST PUSH1 0x0 PUSH3 0x6E3 PUSH3 0x6DD DUP5 PUSH3 0xDF0 JUMP JUMPDEST PUSH3 0xD98 JUMP JUMPDEST SWAP1 POP DUP1 DUP4 DUP3 MSTORE PUSH1 0x20 DUP3 ADD SWAP1 POP DUP3 DUP6 PUSH1 0x20 DUP7 MUL DUP3 ADD GT ISZERO PUSH3 0x709 JUMPI PUSH3 0x708 PUSH3 0x110C JUMP JUMPDEST JUMPDEST PUSH1 0x0 JUMPDEST DUP6 DUP2 LT ISZERO PUSH3 0x75E JUMPI DUP2 MLOAD PUSH8 0xFFFFFFFFFFFFFFFF DUP2 GT ISZERO PUSH3 0x733 JUMPI PUSH3 0x732 PUSH3 0x1107 JUMP JUMPDEST JUMPDEST DUP1 DUP7 ADD PUSH3 0x742 DUP10 DUP3 PUSH3 0xAC4 JUMP JUMPDEST DUP6 MSTORE PUSH1 0x20 DUP6 ADD SWAP5 POP PUSH1 0x20 DUP5 ADD SWAP4 POP POP POP PUSH1 0x1 DUP2 ADD SWAP1 POP PUSH3 0x70C JUMP JUMPDEST POP POP POP SWAP4 SWAP3 POP POP POP JUMP JUMPDEST PUSH1 0x0 PUSH3 0x77F PUSH3 0x779 DUP5 PUSH3 0xE1F JUMP JUMPDEST PUSH3 0xD98 JUMP JUMPDEST SWAP1 POP DUP1 DUP4 DUP3 MSTORE PUSH1 0x20 DUP3 ADD SWAP1 POP DUP3 DUP6 PUSH1 0x20 DUP7 MUL DUP3 ADD GT ISZERO PUSH3 0x7A5 JUMPI PUSH3 0x7A4 PUSH3 0x110C JUMP JUMPDEST JUMPDEST PUSH1 0x0 JUMPDEST DUP6 DUP2 LT ISZERO PUSH3 0x7FA JUMPI DUP2 MLOAD PUSH8 0xFFFFFFFFFFFFFFFF DUP2 GT ISZERO PUSH3 0x7CF JUMPI PUSH3 0x7CE PUSH3 0x1107 JUMP JUMPDEST JUMPDEST DUP1 DUP7 ADD PUSH3 0x7DE DUP10 DUP3 PUSH3 0xAF7 JUMP JUMPDEST DUP6 MSTORE PUSH1 0x20 DUP6 ADD SWAP5 POP PUSH1 0x20 DUP5 ADD SWAP4 POP POP POP PUSH1 0x1 DUP2 ADD SWAP1 POP PUSH3 0x7A8 JUMP JUMPDEST POP POP POP SWAP4 SWAP3 POP POP POP JUMP JUMPDEST PUSH1 0x0 PUSH3 0x81B PUSH3 0x815 DUP5 PUSH3 0xE4E JUMP JUMPDEST PUSH3 0xD98 JUMP JUMPDEST SWAP1 POP DUP1 DUP4 DUP3 MSTORE PUSH1 0x20 DUP3 ADD SWAP1 POP DUP3 DUP6 PUSH1 0x20 DUP7 MUL DUP3 ADD GT ISZERO PUSH3 0x841 JUMPI PUSH3 0x840 PUSH3 0x110C JUMP JUMPDEST JUMPDEST PUSH1 0x0 JUMPDEST DUP6 DUP2 LT ISZERO PUSH3 0x875 JUMPI DUP2 PUSH3 0x85A DUP9 DUP3 PUSH3 0xB2A JUMP JUMPDEST DUP5 MSTORE PUSH1 0x20 DUP5 ADD SWAP4 POP PUSH1 0x20 DUP4 ADD SWAP3 POP POP PUSH1 0x1 DUP2 ADD SWAP1 POP PUSH3 0x844 JUMP JUMPDEST POP POP POP SWAP4 SWAP3 POP POP POP JUMP JUMPDEST PUSH1 0x0 PUSH3 0x896 PUSH3 0x890 DUP5 PUSH3 0xE7D JUMP JUMPDEST PUSH3 0xD98 JUMP JUMPDEST SWAP1 POP DUP1 DUP4 DUP3 MSTORE PUSH1 0x20 DUP3 ADD SWAP1 POP DUP3 DUP6 PUSH1 0x20 DUP7 MUL DUP3 ADD GT ISZERO PUSH3 0x8BC JUMPI PUSH3 0x8BB PUSH3 0x110C JUMP JUMPDEST JUMPDEST PUSH1 0x0 JUMPDEST DUP6 DUP2 LT ISZERO PUSH3 0x911 JUMPI DUP2 MLOAD PUSH8 0xFFFFFFFFFFFFFFFF DUP2 GT ISZERO PUSH3 0x8E6 JUMPI PUSH3 0x8E5 PUSH3 0x1107 JUMP JUMPDEST JUMPDEST DUP1 DUP7 ADD PUSH3 0x8F5 DUP10 DUP3 PUSH3 0xB41 JUMP JUMPDEST DUP6 MSTORE PUSH1 0x20 DUP6 ADD SWAP5 POP PUSH1 0x20 DUP5 ADD SWAP4 POP POP POP PUSH1 0x1 DUP2 ADD SWAP1 POP PUSH3 0x8BF JUMP JUMPDEST POP POP POP SWAP4 SWAP3 POP POP POP JUMP JUMPDEST PUSH1 0x0 PUSH3 0x932 PUSH3 0x92C DUP5 PUSH3 0xEAC JUMP JUMPDEST PUSH3 0xD98 JUMP JUMPDEST SWAP1 POP DUP1 DUP4 DUP3 MSTORE PUSH1 0x20 DUP3 ADD SWAP1 POP DUP3 DUP6 PUSH1 0x20 DUP7 MUL DUP3 ADD GT ISZERO PUSH3 0x958 JUMPI PUSH3 0x957 PUSH3 0x110C JUMP JUMPDEST JUMPDEST PUSH1 0x0 JUMPDEST DUP6 DUP2 LT ISZERO PUSH3 0x98C JUMPI DUP2 PUSH3 0x971 DUP9 DUP3 PUSH3 0xB74 JUMP JUMPDEST DUP5 MSTORE PUSH1 0x20 DUP5 ADD SWAP4 POP PUSH1 0x20 DUP4 ADD SWAP3 POP POP PUSH1 0x1 DUP2 ADD SWAP1 POP PUSH3 0x95B JUMP JUMPDEST POP POP POP SWAP4 SWAP3 POP POP POP JUMP JUMPDEST PUSH1 0x0 PUSH3 0x9AD PUSH3 0x9A7 DUP5 PUSH3 0xEDB JUMP JUMPDEST PUSH3 0xD98 JUMP JUMPDEST SWAP1 POP DUP3 DUP2 MSTORE PUSH1 0x20 DUP2 ADD DUP5 DUP5 DUP5 ADD GT ISZERO PUSH3 0x9CC JUMPI PUSH3 0x9CB PUSH3 0x1111 JUMP JUMPDEST JUMPDEST PUSH3 0x9D9 DUP5 DUP3 DUP6 PUSH3 0xF5B JUMP JUMPDEST POP SWAP4 SWAP3 POP POP POP JUMP JUMPDEST PUSH1 0x0 DUP2 MLOAD SWAP1 POP PUSH3 0x9F2 DUP2 PUSH3 0x1131 JUMP JUMPDEST SWAP3 SWAP2 POP POP JUMP JUMPDEST PUSH1 0x0 DUP3 PUSH1 0x1F DUP4 ADD SLT PUSH3 0xA10 JUMPI PUSH3 0xA0F PUSH3 0x1107 JUMP JUMPDEST JUMPDEST DUP2 MLOAD PUSH3 0xA22 DUP5 DUP3 PUSH1 0x20 DUP7 ADD PUSH3 0x651 JUMP JUMPDEST SWAP2 POP POP SWAP3 SWAP2 POP POP JUMP JUMPDEST PUSH1 0x0 DUP3 PUSH1 0x1F DUP4 ADD SLT PUSH3 0xA43 JUMPI PUSH3 0xA42 PUSH3 0x1107 JUMP JUMPDEST JUMPDEST DUP2 MLOAD PUSH3 0xA55 DUP5 DUP3 PUSH1 0x20 DUP7 ADD PUSH3 0x6CC JUMP JUMPDEST SWAP2 POP POP SWAP3 SWAP2 POP POP JUMP JUMPDEST PUSH1 0x0 DUP3 PUSH1 0x1F DUP4 ADD SLT PUSH3 0xA76 JUMPI PUSH3 0xA75 PUSH3 0x1107 JUMP JUMPDEST JUMPDEST DUP2 MLOAD PUSH3 0xA88 DUP5 DUP3 PUSH1 0x20 DUP7 ADD PUSH3 0x768 JUMP JUMPDEST SWAP2 POP POP SWAP3 SWAP2 POP POP JUMP JUMPDEST PUSH1 0x0 DUP3 PUSH1 0x1F DUP4 ADD SLT PUSH3 0xAA9 JUMPI PUSH3 0xAA8 PUSH3 0x1107 JUMP JUMPDEST JUMPDEST DUP2 MLOAD PUSH3 0xABB DUP5 DUP3 PUSH1 0x20 DUP7 ADD PUSH3 0x804 JUMP JUMPDEST SWAP2 POP POP SWAP3 SWAP2 POP POP JUMP JUMPDEST PUSH1 0x0 DUP3 PUSH1 0x1F DUP4 ADD SLT PUSH3 0xADC JUMPI PUSH3 0xADB PUSH3 0x1107 JUMP JUMPDEST JUMPDEST DUP2 MLOAD PUSH3 0xAEE DUP5 DUP3 PUSH1 0x20 DUP7 ADD PUSH3 0x87F JUMP JUMPDEST SWAP2 POP POP SWAP3 SWAP2 POP POP JUMP JUMPDEST PUSH1 0x0 DUP3 PUSH1 0x1F DUP4 ADD SLT PUSH3 0xB0F JUMPI PUSH3 0xB0E PUSH3 0x1107 JUMP JUMPDEST JUMPDEST DUP2 MLOAD PUSH3 0xB21 DUP5 DUP3 PUSH1 0x20 DUP7 ADD PUSH3 0x91B JUMP JUMPDEST SWAP2 POP POP SWAP3 SWAP2 POP POP JUMP JUMPDEST PUSH1 0x0 DUP2 MLOAD SWAP1 POP PUSH3 0xB3B DUP2 PUSH3 0x114B JUMP JUMPDEST SWAP3 SWAP2 POP POP JUMP JUMPDEST PUSH1 0x0 DUP3 PUSH1 0x1F DUP4 ADD SLT PUSH3 0xB59 JUMPI PUSH3 0xB58 PUSH3 0x1107 JUMP JUMPDEST JUMPDEST DUP2 MLOAD PUSH3 0xB6B DUP5 DUP3 PUSH1 0x20 DUP7 ADD PUSH3 0x996 JUMP JUMPDEST SWAP2 POP POP SWAP3 SWAP2 POP POP JUMP JUMPDEST PUSH1 0x0 DUP2 MLOAD SWAP1 POP PUSH3 0xB85 DUP2 PUSH3 0x1165 JUMP JUMPDEST SWAP3 SWAP2 POP POP JUMP JUMPDEST PUSH1 0x0 DUP1 PUSH1 0x0 DUP1 PUSH1 0x0 DUP1 PUSH1 0x0 DUP1 PUSH1 0x0 DUP1 PUSH2 0x140 DUP12 DUP14 SUB SLT ISZERO PUSH3 0xBB2 JUMPI PUSH3 0xBB1 PUSH3 0x111B JUMP JUMPDEST JUMPDEST PUSH1 0x0 DUP12 ADD MLOAD PUSH8 0xFFFFFFFFFFFFFFFF DUP2 GT ISZERO PUSH3 0xBD3 JUMPI PUSH3 0xBD2 PUSH3 0x1116 JUMP JUMPDEST JUMPDEST PUSH3 0xBE1 DUP14 DUP3 DUP15 ADD PUSH3 0x9F8 JUMP JUMPDEST SWAP11 POP POP PUSH1 0x20 PUSH3 0xBF4 DUP14 DUP3 DUP15 ADD PUSH3 0xB74 JUMP JUMPDEST SWAP10 POP POP PUSH1 0x40 DUP12 ADD MLOAD PUSH8 0xFFFFFFFFFFFFFFFF DUP2 GT ISZERO PUSH3 0xC18 JUMPI PUSH3 0xC17 PUSH3 0x1116 JUMP JUMPDEST JUMPDEST PUSH3 0xC26 DUP14 DUP3 DUP15 ADD PUSH3 0xAF7 JUMP JUMPDEST SWAP9 POP POP PUSH1 0x60 DUP12 ADD MLOAD PUSH8 0xFFFFFFFFFFFFFFFF DUP2 GT ISZERO PUSH3 0xC4A JUMPI PUSH3 0xC49 PUSH3 0x1116 JUMP JUMPDEST JUMPDEST PUSH3 0xC58 DUP14 DUP3 DUP15 ADD PUSH3 0x9F8 JUMP JUMPDEST SWAP8 POP POP PUSH1 0x80 DUP12 ADD MLOAD PUSH8 0xFFFFFFFFFFFFFFFF DUP2 GT ISZERO PUSH3 0xC7C JUMPI PUSH3 0xC7B PUSH3 0x1116 JUMP JUMPDEST JUMPDEST PUSH3 0xC8A DUP14 DUP3 DUP15 ADD PUSH3 0xA91 JUMP JUMPDEST SWAP7 POP POP PUSH1 0xA0 DUP12 ADD MLOAD PUSH8 0xFFFFFFFFFFFFFFFF DUP2 GT ISZERO PUSH3 0xCAE JUMPI PUSH3 0xCAD PUSH3 0x1116 JUMP JUMPDEST JUMPDEST PUSH3 0xCBC DUP14 DUP3 DUP15 ADD PUSH3 0xA2B JUMP JUMPDEST SWAP6 POP POP PUSH1 0xC0 DUP12 ADD MLOAD PUSH8 0xFFFFFFFFFFFFFFFF DUP2 GT ISZERO PUSH3 0xCE0 JUMPI PUSH3 0xCDF PUSH3 0x1116 JUMP JUMPDEST JUMPDEST PUSH3 0xCEE DUP14 DUP3 DUP15 ADD PUSH3 0xAF7 JUMP JUMPDEST SWAP5 POP POP PUSH1 0xE0 DUP12 ADD MLOAD PUSH8 0xFFFFFFFFFFFFFFFF DUP2 GT ISZERO PUSH3 0xD12 JUMPI PUSH3 0xD11 PUSH3 0x1116 JUMP JUMPDEST JUMPDEST PUSH3 0xD20 DUP14 DUP3 DUP15 ADD PUSH3 0xAF7 JUMP JUMPDEST SWAP4 POP POP PUSH2 0x100 DUP12 ADD MLOAD PUSH8 0xFFFFFFFFFFFFFFFF DUP2 GT ISZERO PUSH3 0xD45 JUMPI PUSH3 0xD44 PUSH3 0x1116 JUMP JUMPDEST JUMPDEST PUSH3 0xD53 DUP14 DUP3 DUP15 ADD PUSH3 0xA5E JUMP JUMPDEST SWAP3 POP POP PUSH2 0x120 DUP12 ADD MLOAD PUSH8 0xFFFFFFFFFFFFFFFF DUP2 GT ISZERO PUSH3 0xD78 JUMPI PUSH3 0xD77 PUSH3 0x1116 JUMP JUMPDEST JUMPDEST PUSH3 0xD86 DUP14 DUP3 DUP15 ADD PUSH3 0xA5E JUMP JUMPDEST SWAP2 POP POP SWAP3 SWAP6 SWAP9 SWAP12 SWAP2 SWAP5 SWAP8 SWAP11 POP SWAP3 SWAP6 SWAP9 POP JUMP JUMPDEST PUSH1 0x0 PUSH3 0xDA4 PUSH3 0xDB7 JUMP JUMPDEST SWAP1 POP PUSH3 0xDB2 DUP3 DUP3 PUSH3 0xFC7 JUMP JUMPDEST SWAP2 SWAP1 POP JUMP JUMPDEST PUSH1 0x0 PUSH1 0x40 MLOAD SWAP1 POP SWAP1 JUMP JUMPDEST PUSH1 0x0 PUSH8 0xFFFFFFFFFFFFFFFF DUP3 GT ISZERO PUSH3 0xDDF JUMPI PUSH3 0xDDE PUSH3 0x10D8 JUMP JUMPDEST JUMPDEST PUSH1 0x20 DUP3 MUL SWAP1 POP PUSH1 0x20 DUP2 ADD SWAP1 POP SWAP2 SWAP1 POP JUMP JUMPDEST PUSH1 0x0 PUSH8 0xFFFFFFFFFFFFFFFF DUP3 GT ISZERO PUSH3 0xE0E JUMPI PUSH3 0xE0D PUSH3 0x10D8 JUMP JUMPDEST JUMPDEST PUSH1 0x20 DUP3 MUL SWAP1 POP PUSH1 0x20 DUP2 ADD SWAP1 POP SWAP2 SWAP1 POP JUMP JUMPDEST PUSH1 0x0 PUSH8 0xFFFFFFFFFFFFFFFF DUP3 GT ISZERO PUSH3 0xE3D JUMPI PUSH3 0xE3C PUSH3 0x10D8 JUMP JUMPDEST JUMPDEST PUSH1 0x20 DUP3 MUL SWAP1 POP PUSH1 0x20 DUP2 ADD SWAP1 POP SWAP2 SWAP1 POP JUMP JUMPDEST PUSH1 0x0 PUSH8 0xFFFFFFFFFFFFFFFF DUP3 GT ISZERO PUSH3 0xE6C JUMPI PUSH3 0xE6B PUSH3 0x10D8 JUMP JUMPDEST JUMPDEST PUSH1 0x20 DUP3 MUL SWAP1 POP PUSH1 0x20 DUP2 ADD SWAP1 POP SWAP2 SWAP1 POP JUMP JUMPDEST PUSH1 0x0 PUSH8 0xFFFFFFFFFFFFFFFF DUP3 GT ISZERO PUSH3 0xE9B JUMPI PUSH3 0xE9A PUSH3 0x10D8 JUMP JUMPDEST JUMPDEST PUSH1 0x20 DUP3 MUL SWAP1 POP PUSH1 0x20 DUP2 ADD SWAP1 POP SWAP2 SWAP1 POP JUMP JUMPDEST PUSH1 0x0 PUSH8 0xFFFFFFFFFFFFFFFF DUP3 GT ISZERO PUSH3 0xECA JUMPI PUSH3 0xEC9 PUSH3 0x10D8 JUMP JUMPDEST JUMPDEST PUSH1 0x20 DUP3 MUL SWAP1 POP PUSH1 0x20 DUP2 ADD SWAP1 POP SWAP2 SWAP1 POP JUMP JUMPDEST PUSH1 0x0 PUSH8 0xFFFFFFFFFFFFFFFF DUP3 GT ISZERO PUSH3 0xEF9 JUMPI PUSH3 0xEF8 PUSH3 0x10D8 JUMP JUMPDEST JUMPDEST PUSH3 0xF04 DUP3 PUSH3 0x1120 JUMP JUMPDEST SWAP1 POP PUSH1 0x20 DUP2 ADD SWAP1 POP SWAP2 SWAP1 POP JUMP JUMPDEST PUSH1 0x0 PUSH3 0xF1E DUP3 PUSH3 0xF31 JUMP JUMPDEST SWAP1 POP SWAP2 SWAP1 POP JUMP JUMPDEST PUSH1 0x0 DUP2 ISZERO ISZERO SWAP1 POP SWAP2 SWAP1 POP JUMP JUMPDEST PUSH1 0x0 PUSH20 0xFFFFFFFFFFFFFFFFFFFFFFFFFFFFFFFFFFFFFFFF DUP3 AND SWAP1 POP SWAP2 SWAP1 POP JUMP JUMPDEST PUSH1 0x0 DUP2 SWAP1 POP SWAP2 SWAP1 POP JUMP JUMPDEST PUSH1 0x0 JUMPDEST DUP4 DUP2 LT ISZERO PUSH3 0xF7B JUMPI DUP1 DUP3 ADD MLOAD DUP2 DUP5 ADD MSTORE PUSH1 0x20 DUP2 ADD SWAP1 POP PUSH3 0xF5E JUMP JUMPDEST DUP4 DUP2 GT ISZERO PUSH3 0xF8B JUMPI PUSH1 0x0 DUP5 DUP5 ADD MSTORE JUMPDEST POP POP POP POP JUMP JUMPDEST PUSH1 0x0 PUSH1 0x2 DUP3 DIV SWAP1 POP PUSH1 0x1 DUP3 AND DUP1 PUSH3 0xFAA JUMPI PUSH1 0x7F DUP3 AND SWAP2 POP JUMPDEST PUSH1 0x20 DUP3 LT DUP2 EQ ISZERO PUSH3 0xFC1 JUMPI PUSH3 0xFC0 PUSH3 0x107A JUMP JUMPDEST JUMPDEST POP SWAP2 SWAP1 POP JUMP JUMPDEST PUSH3 0xFD2 DUP3 PUSH3 0x1120 JUMP JUMPDEST DUP2 ADD DUP2 DUP2 LT PUSH8 0xFFFFFFFFFFFFFFFF DUP3 GT OR ISZERO PUSH3 0xFF4 JUMPI PUSH3 0xFF3 PUSH3 0x10D8 JUMP JUMPDEST JUMPDEST DUP1 PUSH1 0x40 MSTORE POP POP POP JUMP JUMPDEST PUSH1 0x0 PUSH3 0x100A DUP3 PUSH3 0xF51 JUMP JUMPDEST SWAP2 POP PUSH32 0xFFFFFFFFFFFFFFFFFFFFFFFFFFFFFFFFFFFFFFFFFFFFFFFFFFFFFFFFFFFFFFFF DUP3 EQ ISZERO PUSH3 0x1040 JUMPI PUSH3 0x103F PUSH3 0x104B JUMP JUMPDEST JUMPDEST PUSH1 0x1 DUP3 ADD SWAP1 POP SWAP2 SWAP1 POP JUMP JUMPDEST PUSH32 0x4E487B7100000000000000000000000000000000000000000000000000000000 PUSH1 0x0 MSTORE PUSH1 0x11 PUSH1 0x4 MSTORE PUSH1 0x24 PUSH1 0x0 REVERT JUMPDEST PUSH32 0x4E487B7100000000000000000000000000000000000000000000000000000000 PUSH1 0x0 MSTORE PUSH1 0x22 PUSH1 0x4 MSTORE PUSH1 0x24 PUSH1 0x0 REVERT JUMPDEST PUSH32 0x4E487B7100000000000000000000000000000000000000000000000000000000 PUSH1 0x0 MSTORE PUSH1 0x32 PUSH1 0x4 MSTORE PUSH1 0x24 PUSH1 0x0 REVERT JUMPDEST PUSH32 0x4E487B7100000000000000000000000000000000000000000000000000000000 PUSH1 0x0 MSTORE PUSH1 0x41 PUSH1 0x4 MSTORE PUSH1 0x24 PUSH1 0x0 REVERT JUMPDEST PUSH1 0x0 DUP1 REVERT JUMPDEST PUSH1 0x0 DUP1 REVERT JUMPDEST PUSH1 0x0 DUP1 REVERT JUMPDEST PUSH1 0x0 DUP1 REVERT JUMPDEST PUSH1 0x0 DUP1 REVERT JUMPDEST PUSH1 0x0 PUSH1 0x1F NOT PUSH1 0x1F DUP4 ADD AND SWAP1 POP SWAP2 SWAP1 POP JUMP JUMPDEST PUSH3 0x113C DUP2 PUSH3 0xF11 JUMP JUMPDEST DUP2 EQ PUSH3 0x1148 JUMPI PUSH1 0x0 DUP1 REVERT JUMPDEST POP JUMP JUMPDEST PUSH3 0x1156 DUP2 PUSH3 0xF25 JUMP JUMPDEST DUP2 EQ PUSH3 0x1162 JUMPI PUSH1 0x0 DUP1 REVERT JUMPDEST POP JUMP JUMPDEST PUSH3 0x1170 DUP2 PUSH3 0xF51 JUMP JUMPDEST DUP2 EQ PUSH3 0x117C JUMPI PUSH1 0x0 DUP1 REVERT JUMPDEST POP JUMP JUMPDEST PUSH2 0x17F0 DUP1 PUSH3 0x118F PUSH1 0x0 CODECOPY PUSH1 0x0 RETURN INVALID PUSH1 0x80 PUSH1 0x40 MSTORE CALLVALUE DUP1 ISZERO PUSH2 0x10 JUMPI PUSH1 0x0 DUP1 REVERT JUMPDEST POP PUSH1 0x4 CALLDATASIZE LT PUSH2 0xCF JUMPI PUSH1 0x0 CALLDATALOAD PUSH1 0xE0 SHR DUP1 PUSH4 0x8C3151BE GT PUSH2 0x8C JUMPI DUP1 PUSH4 0xD6D819EE GT PUSH2 0x66 JUMPI DUP1 PUSH4 0xD6D819EE EQ PUSH2 0x236 JUMPI DUP1 PUSH4 0xDA87FC8A EQ PUSH2 0x266 JUMPI DUP1 PUSH4 0xEABFEDCA EQ PUSH2 0x282 JUMPI DUP1 PUSH4 0xF7B86516 EQ PUSH2 0x2B2 JUMPI PUSH2 0xCF JUMP JUMPDEST DUP1 PUSH4 0x8C3151BE EQ PUSH2 0x1E0 JUMPI DUP1 PUSH4 0x9E8004EE EQ PUSH2 0x1FC JUMPI DUP1 PUSH4 0xD29927CF EQ PUSH2 0x218 JUMPI PUSH2 0xCF JUMP JUMPDEST DUP1 PUSH4 0x8883FA0 EQ PUSH2 0xD4 JUMPI DUP1 PUSH4 0x2F1E8A92 EQ PUSH2 0x104 JUMPI DUP1 PUSH4 0x42D21EF7 EQ PUSH2 0x134 JUMPI DUP1 PUSH4 0x50541CD6 EQ PUSH2 0x164 JUMPI DUP1 PUSH4 0x666E1B39 EQ PUSH2 0x180 JUMPI DUP1 PUSH4 0x71435955 EQ PUSH2 0x1B0 JUMPI JUMPDEST PUSH1 0x0 DUP1 REVERT JUMPDEST PUSH2 0xEE PUSH1 0x4 DUP1 CALLDATASIZE SUB DUP2 ADD SWAP1 PUSH2 0xE9 SWAP2 SWAP1 PUSH2 0x1235 JUMP JUMPDEST PUSH2 0x2E3 JUMP JUMPDEST PUSH1 0x40 MLOAD PUSH2 0xFB SWAP2 SWAP1 PUSH2 0x13A3 JUMP JUMPDEST PUSH1 0x40 MLOAD DUP1 SWAP2 SUB SWAP1 RETURN JUMPDEST PUSH2 0x11E PUSH1 0x4 DUP1 CALLDATASIZE SUB DUP2 ADD SWAP1 PUSH2 0x119 SWAP2 SWAP1 PUSH2 0x1235 JUMP JUMPDEST PUSH2 0x307 JUMP JUMPDEST PUSH1 0x40 MLOAD PUSH2 0x12B SWAP2 SWAP1 PUSH2 0x13A3 JUMP JUMPDEST PUSH1 0x40 MLOAD DUP1 SWAP2 SUB SWAP1 RETURN JUMPDEST PUSH2 0x14E PUSH1 0x4 DUP1 CALLDATASIZE SUB DUP2 ADD SWAP1 PUSH2 0x149 SWAP2 SWAP1 PUSH2 0x1235 JUMP JUMPDEST PUSH2 0x32B JUMP JUMPDEST PUSH1 0x40 MLOAD PUSH2 0x15B SWAP2 SWAP1 PUSH2 0x1346 JUMP JUMPDEST PUSH1 0x40 MLOAD DUP1 SWAP2 SUB SWAP1 RETURN JUMPDEST PUSH2 0x17E PUSH1 0x4 DUP1 CALLDATASIZE SUB DUP2 ADD SWAP1 PUSH2 0x179 SWAP2 SWAP1 PUSH2 0x10FE JUMP JUMPDEST PUSH2 0x35F JUMP JUMPDEST STOP JUMPDEST PUSH2 0x19A PUSH1 0x4 DUP1 CALLDATASIZE SUB DUP2 ADD SWAP1 PUSH2 0x195 SWAP2 SWAP1 PUSH2 0x10FE JUMP JUMPDEST PUSH2 0x810 JUMP JUMPDEST PUSH1 0x40 MLOAD PUSH2 0x1A7 SWAP2 SWAP1 PUSH2 0x1346 JUMP JUMPDEST PUSH1 0x40 MLOAD DUP1 SWAP2 SUB SWAP1 RETURN JUMPDEST PUSH2 0x1CA PUSH1 0x4 DUP1 CALLDATASIZE SUB DUP2 ADD SWAP1 PUSH2 0x1C5 SWAP2 SWAP1 PUSH2 0x1235 JUMP JUMPDEST PUSH2 0x830 JUMP JUMPDEST PUSH1 0x40 MLOAD PUSH2 0x1D7 SWAP2 SWAP1 PUSH2 0x13A3 JUMP JUMPDEST PUSH1 0x40 MLOAD DUP1 SWAP2 SUB SWAP1 RETURN JUMPDEST PUSH2 0x1FA PUSH1 0x4 DUP1 CALLDATASIZE SUB DUP2 ADD SWAP1 PUSH2 0x1F5 SWAP2 SWAP1 PUSH2 0x10FE JUMP JUMPDEST PUSH2 0x854 JUMP JUMPDEST STOP JUMPDEST PUSH2 0x216 PUSH1 0x4 DUP1 CALLDATASIZE SUB DUP2 ADD SWAP1 PUSH2 0x211 SWAP2 SWAP1 PUSH2 0x112B JUMP JUMPDEST PUSH2 0x939 JUMP JUMPDEST STOP JUMPDEST PUSH2 0x220 PUSH2 0xBDB JUMP JUMPDEST PUSH1 0x40 MLOAD PUSH2 0x22D SWAP2 SWAP1 PUSH2 0x13A3 JUMP JUMPDEST PUSH1 0x40 MLOAD DUP1 SWAP2 SUB SWAP1 RETURN JUMPDEST PUSH2 0x250 PUSH1 0x4 DUP1 CALLDATASIZE SUB DUP2 ADD SWAP1 PUSH2 0x24B SWAP2 SWAP1 PUSH2 0x1262 JUMP JUMPDEST PUSH2 0xBE1 JUMP JUMPDEST PUSH1 0x40 MLOAD PUSH2 0x25D SWAP2 SWAP1 PUSH2 0x1361 JUMP JUMPDEST PUSH1 0x40 MLOAD DUP1 SWAP2 SUB SWAP1 RETURN JUMPDEST PUSH2 0x280 PUSH1 0x4 DUP1 CALLDATASIZE SUB DUP2 ADD SWAP1 PUSH2 0x27B SWAP2 SWAP1 PUSH2 0x10FE JUMP JUMPDEST PUSH2 0xC9A JUMP JUMPDEST STOP JUMPDEST PUSH2 0x29C PUSH1 0x4 DUP1 CALLDATASIZE SUB DUP2 ADD SWAP1 PUSH2 0x297 SWAP2 SWAP1 PUSH2 0x1235 JUMP JUMPDEST PUSH2 0xD7F JUMP JUMPDEST PUSH1 0x40 MLOAD PUSH2 0x2A9 SWAP2 SWAP1 PUSH2 0x132B JUMP JUMPDEST PUSH1 0x40 MLOAD DUP1 SWAP2 SUB SWAP1 RETURN JUMPDEST PUSH2 0x2CC PUSH1 0x4 DUP1 CALLDATASIZE SUB DUP2 ADD SWAP1 PUSH2 0x2C7 SWAP2 SWAP1 PUSH2 0x1262 JUMP JUMPDEST PUSH2 0xDBE JUMP JUMPDEST PUSH1 0x40 MLOAD PUSH2 0x2DA SWAP3 SWAP2 SWAP1 PUSH2 0x13BE JUMP JUMPDEST PUSH1 0x40 MLOAD DUP1 SWAP2 SUB SWAP1 RETURN JUMPDEST PUSH1 0x7 DUP2 DUP2 SLOAD DUP2 LT PUSH2 0x2F3 JUMPI PUSH1 0x0 DUP1 REVERT JUMPDEST SWAP1 PUSH1 0x0 MSTORE PUSH1 0x20 PUSH1 0x0 KECCAK256 ADD PUSH1 0x0 SWAP2 POP SWAP1 POP SLOAD DUP2 JUMP JUMPDEST PUSH1 0x3 DUP2 DUP2 SLOAD DUP2 LT PUSH2 0x317 JUMPI PUSH1 0x0 DUP1 REVERT JUMPDEST SWAP1 PUSH1 0x0 MSTORE PUSH1 0x20 PUSH1 0x0 KECCAK256 ADD PUSH1 0x0 SWAP2 POP SWAP1 POP SLOAD DUP2 JUMP JUMPDEST PUSH1 0x4 DUP2 DUP2 SLOAD DUP2 LT PUSH2 0x33B JUMPI PUSH1 0x0 DUP1 REVERT JUMPDEST SWAP1 PUSH1 0x0 MSTORE PUSH1 0x20 PUSH1 0x0 KECCAK256 SWAP1 PUSH1 0x20 SWAP2 DUP3 DUP3 DIV ADD SWAP2 SWAP1 MOD SWAP2 POP SLOAD SWAP1 PUSH2 0x100 EXP SWAP1 DIV PUSH1 0xFF AND DUP2 JUMP JUMPDEST PUSH1 0x0 DUP1 CALLER PUSH20 0xFFFFFFFFFFFFFFFFFFFFFFFFFFFFFFFFFFFFFFFF AND PUSH20 0xFFFFFFFFFFFFFFFFFFFFFFFFFFFFFFFFFFFFFFFF AND DUP2 MSTORE PUSH1 0x20 ADD SWAP1 DUP2 MSTORE PUSH1 0x20 ADD PUSH1 0x0 KECCAK256 PUSH1 0x0 SWAP1 SLOAD SWAP1 PUSH2 0x100 EXP SWAP1 DIV PUSH1 0xFF AND PUSH2 0x3EA JUMPI PUSH1 0x40 MLOAD PUSH32 0x8C379A000000000000000000000000000000000000000000000000000000000 DUP2 MSTORE PUSH1 0x4 ADD PUSH2 0x3E1 SWAP1 PUSH2 0x1383 JUMP JUMPDEST PUSH1 0x40 MLOAD DUP1 SWAP2 SUB SWAP1 REVERT JUMPDEST PUSH1 0x0 JUMPDEST PUSH1 0x2 DUP1 SLOAD SWAP1 POP DUP2 LT ISZERO PUSH2 0x711 JUMPI DUP2 PUSH20 0xFFFFFFFFFFFFFFFFFFFFFFFFFFFFFFFFFFFFFFFF AND PUSH1 0x2 DUP3 DUP2 SLOAD DUP2 LT PUSH2 0x425 JUMPI PUSH2 0x424 PUSH2 0x169E JUMP JUMPDEST JUMPDEST SWAP1 PUSH1 0x0 MSTORE PUSH1 0x20 PUSH1 0x0 KECCAK256 ADD PUSH1 0x0 SWAP1 SLOAD SWAP1 PUSH2 0x100 EXP SWAP1 DIV PUSH20 0xFFFFFFFFFFFFFFFFFFFFFFFFFFFFFFFFFFFFFFFF AND PUSH20 0xFFFFFFFFFFFFFFFFFFFFFFFFFFFFFFFFFFFFFFFF AND EQ ISZERO PUSH2 0x6FE JUMPI PUSH1 0x0 DUP2 SWAP1 POP JUMPDEST PUSH1 0x2 DUP1 SLOAD SWAP1 POP DUP2 LT ISZERO PUSH2 0x69D JUMPI PUSH1 0x2 PUSH1 0x1 DUP3 PUSH2 0x48E SWAP2 SWAP1 PUSH2 0x1485 JUMP JUMPDEST DUP2 SLOAD DUP2 LT PUSH2 0x49F JUMPI PUSH2 0x49E PUSH2 0x169E JUMP JUMPDEST JUMPDEST SWAP1 PUSH1 0x0 MSTORE PUSH1 0x20 PUSH1 0x0 KECCAK256 ADD PUSH1 0x0 SWAP1 SLOAD SWAP1 PUSH2 0x100 EXP SWAP1 DIV PUSH20 0xFFFFFFFFFFFFFFFFFFFFFFFFFFFFFFFFFFFFFFFF AND PUSH1 0x2 DUP3 DUP2 SLOAD DUP2 LT PUSH2 0x4DE JUMPI PUSH2 0x4DD PUSH2 0x169E JUMP JUMPDEST JUMPDEST SWAP1 PUSH1 0x0 MSTORE PUSH1 0x20 PUSH1 0x0 KECCAK256 ADD PUSH1 0x0 PUSH2 0x100 EXP DUP2 SLOAD DUP2 PUSH20 0xFFFFFFFFFFFFFFFFFFFFFFFFFFFFFFFFFFFFFFFF MUL NOT AND SWAP1 DUP4 PUSH20 0xFFFFFFFFFFFFFFFFFFFFFFFFFFFFFFFFFFFFFFFF AND MUL OR SWAP1 SSTORE POP PUSH1 0x3 PUSH1 0x1 DUP3 PUSH2 0x535 SWAP2 SWAP1 PUSH2 0x1485 JUMP JUMPDEST DUP2 SLOAD DUP2 LT PUSH2 0x546 JUMPI PUSH2 0x545 PUSH2 0x169E JUMP JUMPDEST JUMPDEST SWAP1 PUSH1 0x0 MSTORE PUSH1 0x20 PUSH1 0x0 KECCAK256 ADD SLOAD PUSH1 0x3 DUP3 DUP2 SLOAD DUP2 LT PUSH2 0x565 JUMPI PUSH2 0x564 PUSH2 0x169E JUMP JUMPDEST JUMPDEST SWAP1 PUSH1 0x0 MSTORE PUSH1 0x20 PUSH1 0x0 KECCAK256 ADD DUP2 SWAP1 SSTORE POP PUSH1 0x4 PUSH1 0x1 DUP3 PUSH2 0x582 SWAP2 SWAP1 PUSH2 0x1485 JUMP JUMPDEST DUP2 SLOAD DUP2 LT PUSH2 0x593 JUMPI PUSH2 0x592 PUSH2 0x169E JUMP JUMPDEST JUMPDEST SWAP1 PUSH1 0x0 MSTORE PUSH1 0x20 PUSH1 0x0 KECCAK256 SWAP1 PUSH1 0x20 SWAP2 DUP3 DUP3 DIV ADD SWAP2 SWAP1 MOD SWAP1 SLOAD SWAP1 PUSH2 0x100 EXP SWAP1 DIV PUSH1 0xFF AND PUSH1 0x4 DUP3 DUP2 SLOAD DUP2 LT PUSH2 0x5C7 JUMPI PUSH2 0x5C6 PUSH2 0x169E JUMP JUMPDEST JUMPDEST SWAP1 PUSH1 0x0 MSTORE PUSH1 0x20 PUSH1 0x0 KECCAK256 SWAP1 PUSH1 0x20 SWAP2 DUP3 DUP3 DIV ADD SWAP2 SWAP1 MOD PUSH2 0x100 EXP DUP2 SLOAD DUP2 PUSH1 0xFF MUL NOT AND SWAP1 DUP4 ISZERO ISZERO MUL OR SWAP1 SSTORE POP PUSH1 0x6 PUSH1 0x1 DUP3 PUSH2 0x5FF SWAP2 SWAP1 PUSH2 0x1485 JUMP JUMPDEST DUP2 SLOAD DUP2 LT PUSH2 0x610 JUMPI PUSH2 0x60F PUSH2 0x169E JUMP JUMPDEST JUMPDEST SWAP1 PUSH1 0x0 MSTORE PUSH1 0x20 PUSH1 0x0 KECCAK256 ADD SLOAD PUSH1 0x6 DUP3 DUP2 SLOAD DUP2 LT PUSH2 0x62F JUMPI PUSH2 0x62E PUSH2 0x169E JUMP JUMPDEST JUMPDEST SWAP1 PUSH1 0x0 MSTORE PUSH1 0x20 PUSH1 0x0 KECCAK256 ADD DUP2 SWAP1 SSTORE POP PUSH1 0x7 PUSH1 0x1 DUP3 PUSH2 0x64C SWAP2 SWAP1 PUSH2 0x1485 JUMP JUMPDEST DUP2 SLOAD DUP2 LT PUSH2 0x65D JUMPI PUSH2 0x65C PUSH2 0x169E JUMP JUMPDEST JUMPDEST SWAP1 PUSH1 0x0 MSTORE PUSH1 0x20 PUSH1 0x0 KECCAK256 ADD SLOAD PUSH1 0x7 DUP3 DUP2 SLOAD DUP2 LT PUSH2 0x67C JUMPI PUSH2 0x67B PUSH2 0x169E JUMP JUMPDEST JUMPDEST SWAP1 PUSH1 0x0 MSTORE PUSH1 0x20 PUSH1 0x0 KECCAK256 ADD DUP2 SWAP1 SSTORE POP DUP1 DUP1 PUSH2 0x695 SWAP1 PUSH2 0x15C8 JUMP JUMPDEST SWAP2 POP POP PUSH2 0x472 JUMP JUMPDEST POP PUSH1 0x40 MLOAD DUP1 PUSH1 0x20 ADD PUSH1 0x40 MSTORE DUP1 PUSH1 0x40 MLOAD DUP1 PUSH1 0x20 ADD PUSH1 0x40 MSTORE DUP1 PUSH1 0x0 DUP2 MSTORE POP DUP2 MSTORE POP PUSH1 0x5 PUSH1 0x0 DUP4 DUP2 MSTORE PUSH1 0x20 ADD SWAP1 DUP2 MSTORE PUSH1 0x20 ADD PUSH1 0x0 KECCAK256 SWAP1 PUSH1 0x1 PUSH2 0x6DD SWAP3 SWAP2 SWAP1 PUSH2 0xDFF JUMP JUMPDEST POP PUSH1 0x8 PUSH1 0x0 DUP3 DUP2 MSTORE PUSH1 0x20 ADD SWAP1 DUP2 MSTORE PUSH1 0x20 ADD PUSH1 0x0 KECCAK256 PUSH1 0x0 PUSH2 0x6FD SWAP2 SWAP1 PUSH2 0xE5F JUMP JUMPDEST JUMPDEST DUP1 DUP1 PUSH2 0x709 SWAP1 PUSH2 0x15C8 JUMP JUMPDEST SWAP2 POP POP PUSH2 0x3ED JUMP JUMPDEST POP PUSH1 0x2 DUP1 SLOAD DUP1 PUSH2 0x724 JUMPI PUSH2 0x723 PUSH2 0x166F JUMP JUMPDEST JUMPDEST PUSH1 0x1 SWAP1 SUB DUP2 DUP2 SWAP1 PUSH1 0x0 MSTORE PUSH1 0x20 PUSH1 0x0 KECCAK256 ADD PUSH1 0x0 PUSH2 0x100 EXP DUP2 SLOAD SWAP1 PUSH20 0xFFFFFFFFFFFFFFFFFFFFFFFFFFFFFFFFFFFFFFFF MUL NOT AND SWAP1 SSTORE SWAP1 SSTORE PUSH1 0x3 DUP1 SLOAD DUP1 PUSH2 0x76B JUMPI PUSH2 0x76A PUSH2 0x166F JUMP JUMPDEST JUMPDEST PUSH1 0x1 SWAP1 SUB DUP2 DUP2 SWAP1 PUSH1 0x0 MSTORE PUSH1 0x20 PUSH1 0x0 KECCAK256 ADD PUSH1 0x0 SWAP1 SSTORE SWAP1 SSTORE PUSH1 0x4 DUP1 SLOAD DUP1 PUSH2 0x793 JUMPI PUSH2 0x792 PUSH2 0x166F JUMP JUMPDEST JUMPDEST PUSH1 0x1 SWAP1 SUB DUP2 DUP2 SWAP1 PUSH1 0x0 MSTORE PUSH1 0x20 PUSH1 0x0 KECCAK256 SWAP1 PUSH1 0x20 SWAP2 DUP3 DUP3 DIV ADD SWAP2 SWAP1 MOD PUSH2 0x100 EXP DUP2 SLOAD SWAP1 PUSH1 0xFF MUL NOT AND SWAP1 SSTORE SWAP1 SSTORE PUSH1 0x6 DUP1 SLOAD DUP1 PUSH2 0x7CF JUMPI PUSH2 0x7CE PUSH2 0x166F JUMP JUMPDEST JUMPDEST PUSH1 0x1 SWAP1 SUB DUP2 DUP2 SWAP1 PUSH1 0x0 MSTORE PUSH1 0x20 PUSH1 0x0 KECCAK256 ADD PUSH1 0x0 SWAP1 SSTORE SWAP1 SSTORE PUSH1 0x7 DUP1 SLOAD DUP1 PUSH2 0x7F7 JUMPI PUSH2 0x7F6 PUSH2 0x166F JUMP JUMPDEST JUMPDEST PUSH1 0x1 SWAP1 SUB DUP2 DUP2 SWAP1 PUSH1 0x0 MSTORE PUSH1 0x20 PUSH1 0x0 KECCAK256 ADD PUSH1 0x0 SWAP1 SSTORE SWAP1 SSTORE POP JUMP JUMPDEST PUSH1 0x0 PUSH1 0x20 MSTORE DUP1 PUSH1 0x0 MSTORE PUSH1 0x40 PUSH1 0x0 KECCAK256 PUSH1 0x0 SWAP2 POP SLOAD SWAP1 PUSH2 0x100 EXP SWAP1 DIV PUSH1 0xFF AND DUP2 JUMP JUMPDEST PUSH1 0x6 DUP2 DUP2 SLOAD DUP2 LT PUSH2 0x840 JUMPI PUSH1 0x0 DUP1 REVERT JUMPDEST SWAP1 PUSH1 0x0 MSTORE PUSH1 0x20 PUSH1 0x0 KECCAK256 ADD PUSH1 0x0 SWAP2 POP SWAP1 POP SLOAD DUP2 JUMP JUMPDEST PUSH1 0x0 DUP1 CALLER PUSH20 0xFFFFFFFFFFFFFFFFFFFFFFFFFFFFFFFFFFFFFFFF AND PUSH20 0xFFFFFFFFFFFFFFFFFFFFFFFFFFFFFFFFFFFFFFFF AND DUP2 MSTORE PUSH1 0x20 ADD SWAP1 DUP2 MSTORE PUSH1 0x20 ADD PUSH1 0x0 KECCAK256 PUSH1 0x0 SWAP1 SLOAD SWAP1 PUSH2 0x100 EXP SWAP1 DIV PUSH1 0xFF AND PUSH2 0x8DF JUMPI PUSH1 0x40 MLOAD PUSH32 0x8C379A000000000000000000000000000000000000000000000000000000000 DUP2 MSTORE PUSH1 0x4 ADD PUSH2 0x8D6 SWAP1 PUSH2 0x1383 JUMP JUMPDEST PUSH1 0x40 MLOAD DUP1 SWAP2 SUB SWAP1 REVERT JUMPDEST PUSH1 0x0 DUP1 PUSH1 0x0 DUP4 PUSH20 0xFFFFFFFFFFFFFFFFFFFFFFFFFFFFFFFFFFFFFFFF AND PUSH20 0xFFFFFFFFFFFFFFFFFFFFFFFFFFFFFFFFFFFFFFFF AND DUP2 MSTORE PUSH1 0x20 ADD SWAP1 DUP2 MSTORE PUSH1 0x20 ADD PUSH1 0x0 KECCAK256 PUSH1 0x0 PUSH2 0x100 EXP DUP2 SLOAD DUP2 PUSH1 0xFF MUL NOT AND SWAP1 DUP4 ISZERO ISZERO MUL OR SWAP1 SSTORE POP POP JUMP JUMPDEST PUSH1 0x0 DUP1 CALLER PUSH20 0xFFFFFFFFFFFFFFFFFFFFFFFFFFFFFFFFFFFFFFFF AND PUSH20 0xFFFFFFFFFFFFFFFFFFFFFFFFFFFFFFFFFFFFFFFF AND DUP2 MSTORE PUSH1 0x20 ADD SWAP1 DUP2 MSTORE PUSH1 0x20 ADD PUSH1 0x0 KECCAK256 PUSH1 0x0 SWAP1 SLOAD SWAP1 PUSH2 0x100 EXP SWAP1 DIV PUSH1 0xFF AND PUSH2 0x9C4 JUMPI PUSH1 0x40 MLOAD PUSH32 0x8C379A000000000000000000000000000000000000000000000000000000000 DUP2 MSTORE PUSH1 0x4 ADD PUSH2 0x9BB SWAP1 PUSH2 0x1383 JUMP JUMPDEST PUSH1 0x40 MLOAD DUP1 SWAP2 SUB SWAP1 REVERT JUMPDEST PUSH1 0x0 PUSH1 0x2 DUP1 SLOAD SWAP1 POP SWAP1 POP PUSH1 0x2 DUP10 SWAP1 DUP1 PUSH1 0x1 DUP2 SLOAD ADD DUP1 DUP3 SSTORE DUP1 SWAP2 POP POP PUSH1 0x1 SWAP1 SUB SWAP1 PUSH1 0x0 MSTORE PUSH1 0x20 PUSH1 0x0 KECCAK256 ADD PUSH1 0x0 SWAP1 SWAP2 SWAP1 SWAP2 SWAP1 SWAP2 PUSH2 0x100 EXP DUP2 SLOAD DUP2 PUSH20 0xFFFFFFFFFFFFFFFFFFFFFFFFFFFFFFFFFFFFFFFF MUL NOT AND SWAP1 DUP4 PUSH20 0xFFFFFFFFFFFFFFFFFFFFFFFFFFFFFFFFFFFFFFFF AND MUL OR SWAP1 SSTORE POP PUSH1 0x3 DUP9 SWAP1 DUP1 PUSH1 0x1 DUP2 SLOAD ADD DUP1 DUP3 SSTORE DUP1 SWAP2 POP POP PUSH1 0x1 SWAP1 SUB SWAP1 PUSH1 0x0 MSTORE PUSH1 0x20 PUSH1 0x0 KECCAK256 ADD PUSH1 0x0 SWAP1 SWAP2 SWAP1 SWAP2 SWAP1 SWAP2 POP SSTORE PUSH1 0x4 DUP8 SWAP1 DUP1 PUSH1 0x1 DUP2 SLOAD ADD DUP1 DUP3 SSTORE DUP1 SWAP2 POP POP PUSH1 0x1 SWAP1 SUB SWAP1 PUSH1 0x0 MSTORE PUSH1 0x20 PUSH1 0x0 KECCAK256 SWAP1 PUSH1 0x20 SWAP2 DUP3 DUP3 DIV ADD SWAP2 SWAP1 MOD SWAP1 SWAP2 SWAP1 SWAP2 SWAP1 SWAP2 PUSH2 0x100 EXP DUP2 SLOAD DUP2 PUSH1 0xFF MUL NOT AND SWAP1 DUP4 ISZERO ISZERO MUL OR SWAP1 SSTORE POP PUSH1 0x40 MLOAD DUP1 PUSH1 0x20 ADD PUSH1 0x40 MSTORE DUP1 DUP8 DUP2 MSTORE POP PUSH1 0x5 PUSH1 0x0 DUP4 DUP2 MSTORE PUSH1 0x20 ADD SWAP1 DUP2 MSTORE PUSH1 0x20 ADD PUSH1 0x0 KECCAK256 SWAP1 PUSH1 0x1 PUSH2 0xACE SWAP3 SWAP2 SWAP1 PUSH2 0xDFF JUMP JUMPDEST POP DUP5 PUSH1 0x6 DUP3 DUP2 SLOAD DUP2 LT PUSH2 0xAE4 JUMPI PUSH2 0xAE3 PUSH2 0x169E JUMP JUMPDEST JUMPDEST SWAP1 PUSH1 0x0 MSTORE PUSH1 0x20 PUSH1 0x0 KECCAK256 ADD DUP2 SWAP1 SSTORE POP DUP4 PUSH1 0x7 DUP3 DUP2 SLOAD DUP2 LT PUSH2 0xB07 JUMPI PUSH2 0xB06 PUSH2 0x169E JUMP JUMPDEST JUMPDEST SWAP1 PUSH1 0x0 MSTORE PUSH1 0x20 PUSH1 0x0 KECCAK256 ADD DUP2 SWAP1 SSTORE POP PUSH1 0x0 JUMPDEST DUP4 MLOAD DUP2 LT ISZERO PUSH2 0xBCF JUMPI PUSH1 0x8 PUSH1 0x0 DUP4 DUP2 MSTORE PUSH1 0x20 ADD SWAP1 DUP2 MSTORE PUSH1 0x20 ADD PUSH1 0x0 KECCAK256 PUSH1 0x40 MLOAD DUP1 PUSH1 0x40 ADD PUSH1 0x40 MSTORE DUP1 DUP7 DUP5 DUP2 MLOAD DUP2 LT PUSH2 0xB52 JUMPI PUSH2 0xB51 PUSH2 0x169E JUMP JUMPDEST JUMPDEST PUSH1 0x20 MUL PUSH1 0x20 ADD ADD MLOAD DUP2 MSTORE PUSH1 0x20 ADD DUP6 DUP5 DUP2 MLOAD DUP2 LT PUSH2 0xB72 JUMPI PUSH2 0xB71 PUSH2 0x169E JUMP JUMPDEST JUMPDEST PUSH1 0x20 MUL PUSH1 0x20 ADD ADD MLOAD DUP2 MSTORE POP SWAP1 DUP1 PUSH1 0x1 DUP2 SLOAD ADD DUP1 DUP3 SSTORE DUP1 SWAP2 POP POP PUSH1 0x1 SWAP1 SUB SWAP1 PUSH1 0x0 MSTORE PUSH1 0x20 PUSH1 0x0 KECCAK256 SWAP1 PUSH1 0x2 MUL ADD PUSH1 0x0 SWAP1 SWAP2 SWAP1 SWAP2 SWAP1 SWAP2 POP PUSH1 0x0 DUP3 ADD MLOAD DUP2 PUSH1 0x0 ADD SSTORE PUSH1 0x20 DUP3 ADD MLOAD DUP2 PUSH1 0x1 ADD SSTORE POP POP DUP1 DUP1 PUSH2 0xBC7 SWAP1 PUSH2 0x15C8 JUMP JUMPDEST SWAP2 POP POP PUSH2 0xB18 JUMP JUMPDEST POP POP POP POP POP POP POP POP POP POP JUMP JUMPDEST PUSH1 0x1 SLOAD DUP2 JUMP JUMPDEST PUSH1 0x5 PUSH1 0x20 MSTORE DUP2 PUSH1 0x0 MSTORE PUSH1 0x40 PUSH1 0x0 KECCAK256 DUP2 DUP2 SLOAD DUP2 LT PUSH2 0xBFD JUMPI PUSH1 0x0 DUP1 REVERT JUMPDEST SWAP1 PUSH1 0x0 MSTORE PUSH1 0x20 PUSH1 0x0 KECCAK256 ADD PUSH1 0x0 SWAP2 POP SWAP2 POP POP DUP1 SLOAD PUSH2 0xC19 SWAP1 PUSH2 0x1565 JUMP JUMPDEST DUP1 PUSH1 0x1F ADD PUSH1 0x20 DUP1 SWAP2 DIV MUL PUSH1 0x20 ADD PUSH1 0x40 MLOAD SWAP1 DUP2 ADD PUSH1 0x40 MSTORE DUP1 SWAP3 SWAP2 SWAP1 DUP2 DUP2 MSTORE PUSH1 0x20 ADD DUP3 DUP1 SLOAD PUSH2 0xC45 SWAP1 PUSH2 0x1565 JUMP JUMPDEST DUP1 ISZERO PUSH2 0xC92 JUMPI DUP1 PUSH1 0x1F LT PUSH2 0xC67 JUMPI PUSH2 0x100 DUP1 DUP4 SLOAD DIV MUL DUP4 MSTORE SWAP2 PUSH1 0x20 ADD SWAP2 PUSH2 0xC92 JUMP JUMPDEST DUP3 ADD SWAP2 SWAP1 PUSH1 0x0 MSTORE PUSH1 0x20 PUSH1 0x0 KECCAK256 SWAP1 JUMPDEST DUP2 SLOAD DUP2 MSTORE SWAP1 PUSH1 0x1 ADD SWAP1 PUSH1 0x20 ADD DUP1 DUP4 GT PUSH2 0xC75 JUMPI DUP3 SWAP1 SUB PUSH1 0x1F AND DUP3 ADD SWAP2 JUMPDEST POP POP POP POP POP DUP2 JUMP JUMPDEST PUSH1 0x0 DUP1 CALLER PUSH20 0xFFFFFFFFFFFFFFFFFFFFFFFFFFFFFFFFFFFFFFFF AND PUSH20 0xFFFFFFFFFFFFFFFFFFFFFFFFFFFFFFFFFFFFFFFF AND DUP2 MSTORE PUSH1 0x20 ADD SWAP1 DUP2 MSTORE PUSH1 0x20 ADD PUSH1 0x0 KECCAK256 PUSH1 0x0 SWAP1 SLOAD SWAP1 PUSH2 0x100 EXP SWAP1 DIV PUSH1 0xFF AND PUSH2 0xD25 JUMPI PUSH1 0x40 MLOAD PUSH32 0x8C379A000000000000000000000000000000000000000000000000000000000 DUP2 MSTORE PUSH1 0x4 ADD PUSH2 0xD1C SWAP1 PUSH2 0x1383 JUMP JUMPDEST PUSH1 0x40 MLOAD DUP1 SWAP2 SUB SWAP1 REVERT JUMPDEST PUSH1 0x1 PUSH1 0x0 DUP1 DUP4 PUSH20 0xFFFFFFFFFFFFFFFFFFFFFFFFFFFFFFFFFFFFFFFF AND PUSH20 0xFFFFFFFFFFFFFFFFFFFFFFFFFFFFFFFFFFFFFFFF AND DUP2 MSTORE PUSH1 0x20 ADD SWAP1 DUP2 MSTORE PUSH1 0x20 ADD PUSH1 0x0 KECCAK256 PUSH1 0x0 PUSH2 0x100 EXP DUP2 SLOAD DUP2 PUSH1 0xFF MUL NOT AND SWAP1 DUP4 ISZERO ISZERO MUL OR SWAP1 SSTORE POP POP JUMP JUMPDEST PUSH1 0x2 DUP2 DUP2 SLOAD DUP2 LT PUSH2 0xD8F JUMPI PUSH1 0x0 DUP1 REVERT JUMPDEST SWAP1 PUSH1 0x0 MSTORE PUSH1 0x20 PUSH1 0x0 KECCAK256 ADD PUSH1 0x0 SWAP2 POP SLOAD SWAP1 PUSH2 0x100 EXP SWAP1 DIV PUSH20 0xFFFFFFFFFFFFFFFFFFFFFFFFFFFFFFFFFFFFFFFF AND DUP2 JUMP JUMPDEST PUSH1 0x8 PUSH1 0x20 MSTORE DUP2 PUSH1 0x0 MSTORE PUSH1 0x40 PUSH1 0x0 KECCAK256 DUP2 DUP2 SLOAD DUP2 LT PUSH2 0xDDA JUMPI PUSH1 0x0 DUP1 REVERT JUMPDEST SWAP1 PUSH1 0x0 MSTORE PUSH1 0x20 PUSH1 0x0 KECCAK256 SWAP1 PUSH1 0x2 MUL ADD PUSH1 0x0 SWAP2 POP SWAP2 POP POP DUP1 PUSH1 0x0 ADD SLOAD SWAP1 DUP1 PUSH1 0x1 ADD SLOAD SWAP1 POP DUP3 JUMP JUMPDEST DUP3 DUP1 SLOAD DUP3 DUP3 SSTORE SWAP1 PUSH1 0x0 MSTORE PUSH1 0x20 PUSH1 0x0 KECCAK256 SWAP1 DUP2 ADD SWAP3 DUP3 ISZERO PUSH2 0xE4E JUMPI SWAP2 PUSH1 0x20 MUL DUP3 ADD JUMPDEST DUP3 DUP2 GT ISZERO PUSH2 0xE4D JUMPI DUP3 MLOAD DUP3 SWAP1 DUP1 MLOAD SWAP1 PUSH1 0x20 ADD SWAP1 PUSH2 0xE3D SWAP3 SWAP2 SWAP1 PUSH2 0xE83 JUMP JUMPDEST POP SWAP2 PUSH1 0x20 ADD SWAP2 SWAP1 PUSH1 0x1 ADD SWAP1 PUSH2 0xE1F JUMP JUMPDEST JUMPDEST POP SWAP1 POP PUSH2 0xE5B SWAP2 SWAP1 PUSH2 0xF09 JUMP JUMPDEST POP SWAP1 JUMP JUMPDEST POP DUP1 SLOAD PUSH1 0x0 DUP3 SSTORE PUSH1 0x2 MUL SWAP1 PUSH1 0x0 MSTORE PUSH1 0x20 PUSH1 0x0 KECCAK256 SWAP1 DUP2 ADD SWAP1 PUSH2 0xE80 SWAP2 SWAP1 PUSH2 0xF2D JUMP JUMPDEST POP JUMP JUMPDEST DUP3 DUP1 SLOAD PUSH2 0xE8F SWAP1 PUSH2 0x1565 JUMP JUMPDEST SWAP1 PUSH1 0x0 MSTORE PUSH1 0x20 PUSH1 0x0 KECCAK256 SWAP1 PUSH1 0x1F ADD PUSH1 0x20 SWAP1 DIV DUP2 ADD SWAP3 DUP3 PUSH2 0xEB1 JUMPI PUSH1 0x0 DUP6 SSTORE PUSH2 0xEF8 JUMP JUMPDEST DUP3 PUSH1 0x1F LT PUSH2 0xECA JUMPI DUP1 MLOAD PUSH1 0xFF NOT AND DUP4 DUP1 ADD OR DUP6 SSTORE PUSH2 0xEF8 JUMP JUMPDEST DUP3 DUP1 ADD PUSH1 0x1 ADD DUP6 SSTORE DUP3 ISZERO PUSH2 0xEF8 JUMPI SWAP2 DUP3 ADD JUMPDEST DUP3 DUP2 GT ISZERO PUSH2 0xEF7 JUMPI DUP3 MLOAD DUP3 SSTORE SWAP2 PUSH1 0x20 ADD SWAP2 SWAP1 PUSH1 0x1 ADD SWAP1 PUSH2 0xEDC JUMP JUMPDEST JUMPDEST POP SWAP1 POP PUSH2 0xF05 SWAP2 SWAP1 PUSH2 0xF54 JUMP JUMPDEST POP SWAP1 JUMP JUMPDEST JUMPDEST DUP1 DUP3 GT ISZERO PUSH2 0xF29 JUMPI PUSH1 0x0 DUP2 DUP2 PUSH2 0xF20 SWAP2 SWAP1 PUSH2 0xF71 JUMP JUMPDEST POP PUSH1 0x1 ADD PUSH2 0xF0A JUMP JUMPDEST POP SWAP1 JUMP JUMPDEST JUMPDEST DUP1 DUP3 GT ISZERO PUSH2 0xF50 JUMPI PUSH1 0x0 DUP1 DUP3 ADD PUSH1 0x0 SWAP1 SSTORE PUSH1 0x1 DUP3 ADD PUSH1 0x0 SWAP1 SSTORE POP PUSH1 0x2 ADD PUSH2 0xF2E JUMP JUMPDEST POP SWAP1 JUMP JUMPDEST JUMPDEST DUP1 DUP3 GT ISZERO PUSH2 0xF6D JUMPI PUSH1 0x0 DUP2 PUSH1 0x0 SWAP1 SSTORE POP PUSH1 0x1 ADD PUSH2 0xF55 JUMP JUMPDEST POP SWAP1 JUMP JUMPDEST POP DUP1 SLOAD PUSH2 0xF7D SWAP1 PUSH2 0x1565 JUMP JUMPDEST PUSH1 0x0 DUP3 SSTORE DUP1 PUSH1 0x1F LT PUSH2 0xF8F JUMPI POP PUSH2 0xFAE JUMP JUMPDEST PUSH1 0x1F ADD PUSH1 0x20 SWAP1 DIV SWAP1 PUSH1 0x0 MSTORE PUSH1 0x20 PUSH1 0x0 KECCAK256 SWAP1 DUP2 ADD SWAP1 PUSH2 0xFAD SWAP2 SWAP1 PUSH2 0xF54 JUMP JUMPDEST JUMPDEST POP JUMP JUMPDEST PUSH1 0x0 PUSH2 0xFC4 PUSH2 0xFBF DUP5 PUSH2 0x140C JUMP JUMPDEST PUSH2 0x13E7 JUMP JUMPDEST SWAP1 POP DUP1 DUP4 DUP3 MSTORE PUSH1 0x20 DUP3 ADD SWAP1 POP DUP3 DUP6 PUSH1 0x20 DUP7 MUL DUP3 ADD GT ISZERO PUSH2 0xFE7 JUMPI PUSH2 0xFE6 PUSH2 0x1701 JUMP JUMPDEST JUMPDEST PUSH1 0x0 JUMPDEST DUP6 DUP2 LT ISZERO PUSH2 0x1017 JUMPI DUP2 PUSH2 0xFFD DUP9 DUP3 PUSH2 0x10E9 JUMP JUMPDEST DUP5 MSTORE PUSH1 0x20 DUP5 ADD SWAP4 POP PUSH1 0x20 DUP4 ADD SWAP3 POP POP PUSH1 0x1 DUP2 ADD SWAP1 POP PUSH2 0xFEA JUMP JUMPDEST POP POP POP SWAP4 SWAP3 POP POP POP JUMP JUMPDEST PUSH1 0x0 PUSH2 0x1034 PUSH2 0x102F DUP5 PUSH2 0x1438 JUMP JUMPDEST PUSH2 0x13E7 JUMP JUMPDEST SWAP1 POP DUP3 DUP2 MSTORE PUSH1 0x20 DUP2 ADD DUP5 DUP5 DUP5 ADD GT ISZERO PUSH2 0x1050 JUMPI PUSH2 0x104F PUSH2 0x1706 JUMP JUMPDEST JUMPDEST PUSH2 0x105B DUP5 DUP3 DUP6 PUSH2 0x1523 JUMP JUMPDEST POP SWAP4 SWAP3 POP POP POP JUMP JUMPDEST PUSH1 0x0 DUP2 CALLDATALOAD SWAP1 POP PUSH2 0x1072 DUP2 PUSH2 0x1775 JUMP JUMPDEST SWAP3 SWAP2 POP POP JUMP JUMPDEST PUSH1 0x0 DUP3 PUSH1 0x1F DUP4 ADD SLT PUSH2 0x108D JUMPI PUSH2 0x108C PUSH2 0x16FC JUMP JUMPDEST JUMPDEST DUP2 CALLDATALOAD PUSH2 0x109D DUP5 DUP3 PUSH1 0x20 DUP7 ADD PUSH2 0xFB1 JUMP JUMPDEST SWAP2 POP POP SWAP3 SWAP2 POP POP JUMP JUMPDEST PUSH1 0x0 DUP2 CALLDATALOAD SWAP1 POP PUSH2 0x10B5 DUP2 PUSH2 0x178C JUMP JUMPDEST SWAP3 SWAP2 POP POP JUMP JUMPDEST PUSH1 0x0 DUP3 PUSH1 0x1F DUP4 ADD SLT PUSH2 0x10D0 JUMPI PUSH2 0x10CF PUSH2 0x16FC JUMP JUMPDEST JUMPDEST DUP2 CALLDATALOAD PUSH2 0x10E0 DUP5 DUP3 PUSH1 0x20 DUP7 ADD PUSH2 0x1021 JUMP JUMPDEST SWAP2 POP POP SWAP3 SWAP2 POP POP JUMP JUMPDEST PUSH1 0x0 DUP2 CALLDATALOAD SWAP1 POP PUSH2 0x10F8 DUP2 PUSH2 0x17A3 JUMP JUMPDEST SWAP3 SWAP2 POP POP JUMP JUMPDEST PUSH1 0x0 PUSH1 0x20 DUP3 DUP5 SUB SLT ISZERO PUSH2 0x1114 JUMPI PUSH2 0x1113 PUSH2 0x1710 JUMP JUMPDEST JUMPDEST PUSH1 0x0 PUSH2 0x1122 DUP5 DUP3 DUP6 ADD PUSH2 0x1063 JUMP JUMPDEST SWAP2 POP POP SWAP3 SWAP2 POP POP JUMP JUMPDEST PUSH1 0x0 DUP1 PUSH1 0x0 DUP1 PUSH1 0x0 DUP1 PUSH1 0x0 DUP1 PUSH2 0x100 DUP10 DUP12 SUB SLT ISZERO PUSH2 0x114C JUMPI PUSH2 0x114B PUSH2 0x1710 JUMP JUMPDEST JUMPDEST PUSH1 0x0 PUSH2 0x115A DUP12 DUP3 DUP13 ADD PUSH2 0x1063 JUMP JUMPDEST SWAP9 POP POP PUSH1 0x20 PUSH2 0x116B DUP12 DUP3 DUP13 ADD PUSH2 0x10E9 JUMP JUMPDEST SWAP8 POP POP PUSH1 0x40 PUSH2 0x117C DUP12 DUP3 DUP13 ADD PUSH2 0x10A6 JUMP JUMPDEST SWAP7 POP POP PUSH1 0x60 DUP10 ADD CALLDATALOAD PUSH8 0xFFFFFFFFFFFFFFFF DUP2 GT ISZERO PUSH2 0x119D JUMPI PUSH2 0x119C PUSH2 0x170B JUMP JUMPDEST JUMPDEST PUSH2 0x11A9 DUP12 DUP3 DUP13 ADD PUSH2 0x10BB JUMP JUMPDEST SWAP6 POP POP PUSH1 0x80 PUSH2 0x11BA DUP12 DUP3 DUP13 ADD PUSH2 0x10E9 JUMP JUMPDEST SWAP5 POP POP PUSH1 0xA0 PUSH2 0x11CB DUP12 DUP3 DUP13 ADD PUSH2 0x10E9 JUMP JUMPDEST SWAP4 POP POP PUSH1 0xC0 DUP10 ADD CALLDATALOAD PUSH8 0xFFFFFFFFFFFFFFFF DUP2 GT ISZERO PUSH2 0x11EC JUMPI PUSH2 0x11EB PUSH2 0x170B JUMP JUMPDEST JUMPDEST PUSH2 0x11F8 DUP12 DUP3 DUP13 ADD PUSH2 0x1078 JUMP JUMPDEST SWAP3 POP POP PUSH1 0xE0 DUP10 ADD CALLDATALOAD PUSH8 0xFFFFFFFFFFFFFFFF DUP2 GT ISZERO PUSH2 0x1219 JUMPI PUSH2 0x1218 PUSH2 0x170B JUMP JUMPDEST JUMPDEST PUSH2 0x1225 DUP12 DUP3 DUP13 ADD PUSH2 0x1078 JUMP JUMPDEST SWAP2 POP POP SWAP3 SWAP6 SWAP9 POP SWAP3 SWAP6 SWAP9 SWAP1 SWAP4 SWAP7 POP JUMP JUMPDEST PUSH1 0x0 PUSH1 0x20 DUP3 DUP5 SUB SLT ISZERO PUSH2 0x124B JUMPI PUSH2 0x124A PUSH2 0x1710 JUMP JUMPDEST JUMPDEST PUSH1 0x0 PUSH2 0x1259 DUP5 DUP3 DUP6 ADD PUSH2 0x10E9 JUMP JUMPDEST SWAP2 POP POP SWAP3 SWAP2 POP POP JUMP JUMPDEST PUSH1 0x0 DUP1 PUSH1 0x40 DUP4 DUP6 SUB SLT ISZERO PUSH2 0x1279 JUMPI PUSH2 0x1278 PUSH2 0x1710 JUMP JUMPDEST JUMPDEST PUSH1 0x0 PUSH2 0x1287 DUP6 DUP3 DUP7 ADD PUSH2 0x10E9 JUMP JUMPDEST SWAP3 POP POP PUSH1 0x20 PUSH2 0x1298 DUP6 DUP3 DUP7 ADD PUSH2 0x10E9 JUMP JUMPDEST SWAP2 POP POP SWAP3 POP SWAP3 SWAP1 POP JUMP JUMPDEST PUSH2 0x12AB DUP2 PUSH2 0x14DB JUMP JUMPDEST DUP3 MSTORE POP POP JUMP JUMPDEST PUSH2 0x12BA DUP2 PUSH2 0x14ED JUMP JUMPDEST DUP3 MSTORE POP POP JUMP JUMPDEST PUSH1 0x0 PUSH2 0x12CB DUP3 PUSH2 0x1469 JUMP JUMPDEST PUSH2 0x12D5 DUP2 DUP6 PUSH2 0x1474 JUMP JUMPDEST SWAP4 POP PUSH2 0x12E5 DUP2 DUP6 PUSH1 0x20 DUP7 ADD PUSH2 0x1532 JUMP JUMPDEST PUSH2 0x12EE DUP2 PUSH2 0x1715 JUMP JUMPDEST DUP5 ADD SWAP2 POP POP SWAP3 SWAP2 POP POP JUMP JUMPDEST PUSH1 0x0 PUSH2 0x1306 PUSH1 0x28 DUP4 PUSH2 0x1474 JUMP JUMPDEST SWAP2 POP PUSH2 0x1311 DUP3 PUSH2 0x1726 JUMP JUMPDEST PUSH1 0x40 DUP3 ADD SWAP1 POP SWAP2 SWAP1 POP JUMP JUMPDEST PUSH2 0x1325 DUP2 PUSH2 0x1519 JUMP JUMPDEST DUP3 MSTORE POP POP JUMP JUMPDEST PUSH1 0x0 PUSH1 0x20 DUP3 ADD SWAP1 POP PUSH2 0x1340 PUSH1 0x0 DUP4 ADD DUP5 PUSH2 0x12A2 JUMP JUMPDEST SWAP3 SWAP2 POP POP JUMP JUMPDEST PUSH1 0x0 PUSH1 0x20 DUP3 ADD SWAP1 POP PUSH2 0x135B PUSH1 0x0 DUP4 ADD DUP5 PUSH2 0x12B1 JUMP JUMPDEST SWAP3 SWAP2 POP POP JUMP JUMPDEST PUSH1 0x0 PUSH1 0x20 DUP3 ADD SWAP1 POP DUP2 DUP2 SUB PUSH1 0x0 DUP4 ADD MSTORE PUSH2 0x137B DUP2 DUP5 PUSH2 0x12C0 JUMP JUMPDEST SWAP1 POP SWAP3 SWAP2 POP POP JUMP JUMPDEST PUSH1 0x0 PUSH1 0x20 DUP3 ADD SWAP1 POP DUP2 DUP2 SUB PUSH1 0x0 DUP4 ADD MSTORE PUSH2 0x139C DUP2 PUSH2 0x12F9 JUMP JUMPDEST SWAP1 POP SWAP2 SWAP1 POP JUMP JUMPDEST PUSH1 0x0 PUSH1 0x20 DUP3 ADD SWAP1 POP PUSH2 0x13B8 PUSH1 0x0 DUP4 ADD DUP5 PUSH2 0x131C JUMP JUMPDEST SWAP3 SWAP2 POP POP JUMP JUMPDEST PUSH1 0x0 PUSH1 0x40 DUP3 ADD SWAP1 POP PUSH2 0x13D3 PUSH1 0x0 DUP4 ADD DUP6 PUSH2 0x131C JUMP JUMPDEST PUSH2 0x13E0 PUSH1 0x20 DUP4 ADD DUP5 PUSH2 0x131C JUMP JUMPDEST SWAP4 SWAP3 POP POP POP JUMP JUMPDEST PUSH1 0x0 PUSH2 0x13F1 PUSH2 0x1402 JUMP JUMPDEST SWAP1 POP PUSH2 0x13FD DUP3 DUP3 PUSH2 0x1597 JUMP JUMPDEST SWAP2 SWAP1 POP JUMP JUMPDEST PUSH1 0x0 PUSH1 0x40 MLOAD SWAP1 POP SWAP1 JUMP JUMPDEST PUSH1 0x0 PUSH8 0xFFFFFFFFFFFFFFFF DUP3 GT ISZERO PUSH2 0x1427 JUMPI PUSH2 0x1426 PUSH2 0x16CD JUMP JUMPDEST JUMPDEST PUSH1 0x20 DUP3 MUL SWAP1 POP PUSH1 0x20 DUP2 ADD SWAP1 POP SWAP2 SWAP1 POP JUMP JUMPDEST PUSH1 0x0 PUSH8 0xFFFFFFFFFFFFFFFF DUP3 GT ISZERO PUSH2 0x1453 JUMPI PUSH2 0x1452 PUSH2 0x16CD JUMP JUMPDEST JUMPDEST PUSH2 0x145C DUP3 PUSH2 0x1715 JUMP JUMPDEST SWAP1 POP PUSH1 0x20 DUP2 ADD SWAP1 POP SWAP2 SWAP1 POP JUMP JUMPDEST PUSH1 0x0 DUP2 MLOAD SWAP1 POP SWAP2 SWAP1 POP JUMP JUMPDEST PUSH1 0x0 DUP3 DUP3 MSTORE PUSH1 0x20 DUP3 ADD SWAP1 POP SWAP3 SWAP2 POP POP JUMP JUMPDEST PUSH1 0x0 PUSH2 0x1490 DUP3 PUSH2 0x1519 JUMP JUMPDEST SWAP2 POP PUSH2 0x149B DUP4 PUSH2 0x1519 JUMP JUMPDEST SWAP3 POP DUP3 PUSH32 0xFFFFFFFFFFFFFFFFFFFFFFFFFFFFFFFFFFFFFFFFFFFFFFFFFFFFFFFFFFFFFFFF SUB DUP3 GT ISZERO PUSH2 0x14D0 JUMPI PUSH2 0x14CF PUSH2 0x1611 JUMP JUMPDEST JUMPDEST DUP3 DUP3 ADD SWAP1 POP SWAP3 SWAP2 POP POP JUMP JUMPDEST PUSH1 0x0 PUSH2 0x14E6 DUP3 PUSH2 0x14F9 JUMP JUMPDEST SWAP1 POP SWAP2 SWAP1 POP JUMP JUMPDEST PUSH1 0x0 DUP2 ISZERO ISZERO SWAP1 POP SWAP2 SWAP1 POP JUMP JUMPDEST PUSH1 0x0 PUSH20 0xFFFFFFFFFFFFFFFFFFFFFFFFFFFFFFFFFFFFFFFF DUP3 AND SWAP1 POP SWAP2 SWAP1 POP JUMP JUMPDEST PUSH1 0x0 DUP2 SWAP1 POP SWAP2 SWAP1 POP JUMP JUMPDEST DUP3 DUP2 DUP4 CALLDATACOPY PUSH1 0x0 DUP4 DUP4 ADD MSTORE POP POP POP JUMP JUMPDEST PUSH1 0x0 JUMPDEST DUP4 DUP2 LT ISZERO PUSH2 0x1550 JUMPI DUP1 DUP3 ADD MLOAD DUP2 DUP5 ADD MSTORE PUSH1 0x20 DUP2 ADD SWAP1 POP PUSH2 0x1535 JUMP JUMPDEST DUP4 DUP2 GT ISZERO PUSH2 0x155F JUMPI PUSH1 0x0 DUP5 DUP5 ADD MSTORE JUMPDEST POP POP POP POP JUMP JUMPDEST PUSH1 0x0 PUSH1 0x2 DUP3 DIV SWAP1 POP PUSH1 0x1 DUP3 AND DUP1 PUSH2 0x157D JUMPI PUSH1 0x7F DUP3 AND SWAP2 POP JUMPDEST PUSH1 0x20 DUP3 LT DUP2 EQ ISZERO PUSH2 0x1591 JUMPI PUSH2 0x1590 PUSH2 0x1640 JUMP JUMPDEST JUMPDEST POP SWAP2 SWAP1 POP JUMP JUMPDEST PUSH2 0x15A0 DUP3 PUSH2 0x1715 JUMP JUMPDEST DUP2 ADD DUP2 DUP2 LT PUSH8 0xFFFFFFFFFFFFFFFF DUP3 GT OR ISZERO PUSH2 0x15BF JUMPI PUSH2 0x15BE PUSH2 0x16CD JUMP JUMPDEST JUMPDEST DUP1 PUSH1 0x40 MSTORE POP POP POP JUMP JUMPDEST PUSH1 0x0 PUSH2 0x15D3 DUP3 PUSH2 0x1519 JUMP JUMPDEST SWAP2 POP PUSH32 0xFFFFFFFFFFFFFFFFFFFFFFFFFFFFFFFFFFFFFFFFFFFFFFFFFFFFFFFFFFFFFFFF DUP3 EQ ISZERO PUSH2 0x1606 JUMPI PUSH2 0x1605 PUSH2 0x1611 JUMP JUMPDEST JUMPDEST PUSH1 0x1 DUP3 ADD SWAP1 POP SWAP2 SWAP1 POP JUMP JUMPDEST PUSH32 0x4E487B7100000000000000000000000000000000000000000000000000000000 PUSH1 0x0 MSTORE PUSH1 0x11 PUSH1 0x4 MSTORE PUSH1 0x24 PUSH1 0x0 REVERT JUMPDEST PUSH32 0x4E487B7100000000000000000000000000000000000000000000000000000000 PUSH1 0x0 MSTORE PUSH1 0x22 PUSH1 0x4 MSTORE PUSH1 0x24 PUSH1 0x0 REVERT JUMPDEST PUSH32 0x4E487B7100000000000000000000000000000000000000000000000000000000 PUSH1 0x0 MSTORE PUSH1 0x31 PUSH1 0x4 MSTORE PUSH1 0x24 PUSH1 0x0 REVERT JUMPDEST PUSH32 0x4E487B7100000000000000000000000000000000000000000000000000000000 PUSH1 0x0 MSTORE PUSH1 0x32 PUSH1 0x4 MSTORE PUSH1 0x24 PUSH1 0x0 REVERT JUMPDEST PUSH32 0x4E487B7100000000000000000000000000000000000000000000000000000000 PUSH1 0x0 MSTORE PUSH1 0x41 PUSH1 0x4 MSTORE PUSH1 0x24 PUSH1 0x0 REVERT JUMPDEST PUSH1 0x0 DUP1 REVERT JUMPDEST PUSH1 0x0 DUP1 REVERT JUMPDEST PUSH1 0x0 DUP1 REVERT JUMPDEST PUSH1 0x0 DUP1 REVERT JUMPDEST PUSH1 0x0 DUP1 REVERT JUMPDEST PUSH1 0x0 PUSH1 0x1F NOT PUSH1 0x1F DUP4 ADD AND SWAP1 POP SWAP2 SWAP1 POP JUMP JUMPDEST PUSH32 0x596F7520646F6E742068617665207065726D697373696F6E20666F7220746869 PUSH1 0x0 DUP3 ADD MSTORE PUSH32 0x7320616374696F6E000000000000000000000000000000000000000000000000 PUSH1 0x20 DUP3 ADD MSTORE POP JUMP JUMPDEST PUSH2 0x177E DUP2 PUSH2 0x14DB JUMP JUMPDEST DUP2 EQ PUSH2 0x1789 JUMPI PUSH1 0x0 DUP1 REVERT JUMPDEST POP JUMP JUMPDEST PUSH2 0x1795 DUP2 PUSH2 0x14ED JUMP JUMPDEST DUP2 EQ PUSH2 0x17A0 JUMPI PUSH1 0x0 DUP1 REVERT JUMPDEST POP JUMP JUMPDEST PUSH2 0x17AC DUP2 PUSH2 0x1519 JUMP JUMPDEST DUP2 EQ PUSH2 0x17B7 JUMPI PUSH1 0x0 DUP1 REVERT JUMPDEST POP JUMP INVALID LOG2 PUSH5 0x6970667358 0x22 SLT KECCAK256 0x29 SWAP15 PUSH27 0x3B768854811B8C241B2E1E7E27D87CAD7560364F9BAE455CA24FB4 SSTORE PUSH10 0x64736F6C634300080600 CALLER "
		},
		"gasEstimates": {
			"creation": {
				"codeDepositCost": "1225600",
				"executionCost": "infinite",
				"totalCost": "infinite"
			},
			"external": {
				"addDono(address,uint256,bool,string,uint256,uint256,uint256[],uint256[])": "infinite",
				"addOwnerUnion(address)": "27098",
				"condicoes(uint256,uint256)": "infinite",
				"dataProxCobranca(uint256)": "infinite",
				"donos(uint256)": "5022",
				"historicoRecebimento(uint256,uint256)": "infinite",
				"idPredio()": "2496",
				"owner(address)": "2934",
				"prazo(uint256)": "infinite",
				"removeDono(address)": "infinite",
				"removeOwnerUnion(address)": "27077",
				"status(uint256)": "6586",
				"valorCobranca(uint256)": "infinite"
			}
		},
		"methodIdentifiers": {
			"addDono(address,uint256,bool,string,uint256,uint256,uint256[],uint256[])": "9e8004ee",
			"addOwnerUnion(address)": "da87fc8a",
			"condicoes(uint256,uint256)": "d6d819ee",
			"dataProxCobranca(uint256)": "08883fa0",
			"donos(uint256)": "eabfedca",
			"historicoRecebimento(uint256,uint256)": "f7b86516",
			"idPredio()": "d29927cf",
			"owner(address)": "666e1b39",
			"prazo(uint256)": "2f1e8a92",
			"removeDono(address)": "50541cd6",
			"removeOwnerUnion(address)": "8c3151be",
			"status(uint256)": "42d21ef7",
			"valorCobranca(uint256)": "71435955"
		}
	},
	"abi": [
		{
			"inputs": [
				{
					"internalType": "address[]",
					"name": "_owners",
					"type": "address[]"
				},
				{
					"internalType": "uint256",
					"name": "_idPredio",
					"type": "uint256"
				},
				{
					"internalType": "uint256[]",
					"name": "_prazo",
					"type": "uint256[]"
				},
				{
					"internalType": "address[]",
					"name": "_donos",
					"type": "address[]"
				},
				{
					"internalType": "bool[]",
					"name": "_status",
					"type": "bool[]"
				},
				{
					"internalType": "string[][]",
					"name": "_condicoes",
					"type": "string[][]"
				},
				{
					"internalType": "uint256[]",
					"name": "_valorCobranca",
					"type": "uint256[]"
				},
				{
					"internalType": "uint256[]",
					"name": "_dataProxCobranca",
					"type": "uint256[]"
				},
				{
					"internalType": "uint256[][]",
					"name": "_datasRecebimento",
					"type": "uint256[][]"
				},
				{
					"internalType": "uint256[][]",
					"name": "_valoresRecebimento",
					"type": "uint256[][]"
				}
			],
			"stateMutability": "nonpayable",
			"type": "constructor"
		},
		{
			"inputs": [
				{
					"internalType": "address",
					"name": "_newDono",
					"type": "address"
				},
				{
					"internalType": "uint256",
					"name": "_prazo",
					"type": "uint256"
				},
				{
					"internalType": "bool",
					"name": "_status",
					"type": "bool"
				},
				{
					"internalType": "string",
					"name": "_condicoes",
					"type": "string"
				},
				{
					"internalType": "uint256",
					"name": "_valorCobranca",
					"type": "uint256"
				},
				{
					"internalType": "uint256",
					"name": "_dataProxCobranca",
					"type": "uint256"
				},
				{
					"internalType": "uint256[]",
					"name": "_datasRecebimento",
					"type": "uint256[]"
				},
				{
					"internalType": "uint256[]",
					"name": "_valoresRecebimento",
					"type": "uint256[]"
				}
			],
			"name": "addDono",
			"outputs": [],
			"stateMutability": "nonpayable",
			"type": "function"
		},
		{
			"inputs": [
				{
					"internalType": "address",
					"name": "_newUnion",
					"type": "address"
				}
			],
			"name": "addOwnerUnion",
			"outputs": [],
			"stateMutability": "nonpayable",
			"type": "function"
		},
		{
			"inputs": [
				{
					"internalType": "uint256",
					"name": "",
					"type": "uint256"
				},
				{
					"internalType": "uint256",
					"name": "",
					"type": "uint256"
				}
			],
			"name": "condicoes",
			"outputs": [
				{
					"internalType": "string",
					"name": "",
					"type": "string"
				}
			],
			"stateMutability": "view",
			"type": "function"
		},
		{
			"inputs": [
				{
					"internalType": "uint256",
					"name": "",
					"type": "uint256"
				}
			],
			"name": "dataProxCobranca",
			"outputs": [
				{
					"internalType": "uint256",
					"name": "",
					"type": "uint256"
				}
			],
			"stateMutability": "view",
			"type": "function"
		},
		{
			"inputs": [
				{
					"internalType": "uint256",
					"name": "",
					"type": "uint256"
				}
			],
			"name": "donos",
			"outputs": [
				{
					"internalType": "address",
					"name": "",
					"type": "address"
				}
			],
			"stateMutability": "view",
			"type": "function"
		},
		{
			"inputs": [
				{
					"internalType": "uint256",
					"name": "",
					"type": "uint256"
				},
				{
					"internalType": "uint256",
					"name": "",
					"type": "uint256"
				}
			],
			"name": "historicoRecebimento",
			"outputs": [
				{
					"internalType": "uint256",
					"name": "data",
					"type": "uint256"
				},
				{
					"internalType": "uint256",
					"name": "valor",
					"type": "uint256"
				}
			],
			"stateMutability": "view",
			"type": "function"
		},
		{
			"inputs": [],
			"name": "idPredio",
			"outputs": [
				{
					"internalType": "uint256",
					"name": "",
					"type": "uint256"
				}
			],
			"stateMutability": "view",
			"type": "function"
		},
		{
			"inputs": [
				{
					"internalType": "address",
					"name": "",
					"type": "address"
				}
			],
			"name": "owner",
			"outputs": [
				{
					"internalType": "bool",
					"name": "",
					"type": "bool"
				}
			],
			"stateMutability": "view",
			"type": "function"
		},
		{
			"inputs": [
				{
					"internalType": "uint256",
					"name": "",
					"type": "uint256"
				}
			],
			"name": "prazo",
			"outputs": [
				{
					"internalType": "uint256",
					"name": "",
					"type": "uint256"
				}
			],
			"stateMutability": "view",
			"type": "function"
		},
		{
			"inputs": [
				{
					"internalType": "address",
					"name": "_dono",
					"type": "address"
				}
			],
			"name": "removeDono",
			"outputs": [],
			"stateMutability": "nonpayable",
			"type": "function"
		},
		{
			"inputs": [
				{
					"internalType": "address",
					"name": "_unionMember",
					"type": "address"
				}
			],
			"name": "removeOwnerUnion",
			"outputs": [],
			"stateMutability": "nonpayable",
			"type": "function"
		},
		{
			"inputs": [
				{
					"internalType": "uint256",
					"name": "",
					"type": "uint256"
				}
			],
			"name": "status",
			"outputs": [
				{
					"internalType": "bool",
					"name": "",
					"type": "bool"
				}
			],
			"stateMutability": "view",
			"type": "function"
		},
		{
			"inputs": [
				{
					"internalType": "uint256",
					"name": "",
					"type": "uint256"
				}
			],
			"name": "valorCobranca",
			"outputs": [
				{
					"internalType": "uint256",
					"name": "",
					"type": "uint256"
				}
			],
			"stateMutability": "view",
			"type": "function"
		}
	]
}