{
  "_format": "hh-sol-artifact-1",
  "contractName": "Condicoes",
  "sourceName": "contracts/functions/condicoes.sol",
  "abi": [
    {
      "inputs": [
        {
          "internalType": "uint256",
          "name": "_donosAmount",
          "type": "uint256"
        },
        {
          "internalType": "string[]",
          "name": "_condicoes",
          "type": "string[]"
        }
      ],
      "stateMutability": "nonpayable",
      "type": "constructor"
    },
    {
      "inputs": [
        {
          "internalType": "uint256",
          "name": "",
          "type": "uint256"
        },
        {
          "internalType": "uint256",
          "name": "",
          "type": "uint256"
        }
      ],
      "name": "condicoes",
      "outputs": [
        {
          "internalType": "string",
          "name": "",
          "type": "string"
        }
      ],
      "stateMutability": "view",
      "type": "function"
    }
  ],
  "bytecode": "0x60806040523480156200001157600080fd5b5060405162000ab538038062000ab5833981810160405281019062000037919062000390565b60005b82811015620000bd576000808281526020019081526020016000208282815181106200006b576200006a620003f6565b5b6020026020010151908060018154018082558091505060019003906000526020600020016000909190919091509081620000a6919062000666565b508080620000b4906200077c565b9150506200003a565b505050620007c9565b6000604051905090565b600080fd5b600080fd5b6000819050919050565b620000ef81620000da565b8114620000fb57600080fd5b50565b6000815190506200010f81620000e4565b92915050565b600080fd5b6000601f19601f8301169050919050565b7f4e487b7100000000000000000000000000000000000000000000000000000000600052604160045260246000fd5b62000165826200011a565b810181811067ffffffffffffffff821117156200018757620001866200012b565b5b80604052505050565b60006200019c620000c6565b9050620001aa82826200015a565b919050565b600067ffffffffffffffff821115620001cd57620001cc6200012b565b5b602082029050602081019050919050565b600080fd5b600080fd5b600067ffffffffffffffff8211156200020657620002056200012b565b5b62000211826200011a565b9050602081019050919050565b60005b838110156200023e57808201518184015260208101905062000221565b60008484015250505050565b6000620002616200025b84620001e8565b62000190565b90508281526020810184848401111562000280576200027f620001e3565b5b6200028d8482856200021e565b509392505050565b600082601f830112620002ad57620002ac62000115565b5b8151620002bf8482602086016200024a565b91505092915050565b6000620002df620002d984620001af565b62000190565b90508083825260208201905060208402830185811115620003055762000304620001de565b5b835b818110156200035357805167ffffffffffffffff8111156200032e576200032d62000115565b5b8086016200033d898262000295565b8552602085019450505060208101905062000307565b5050509392505050565b600082601f83011262000375576200037462000115565b5b815162000387848260208601620002c8565b91505092915050565b60008060408385031215620003aa57620003a9620000d0565b5b6000620003ba85828601620000fe565b925050602083015167ffffffffffffffff811115620003de57620003dd620000d5565b5b620003ec858286016200035d565b9150509250929050565b7f4e487b7100000000000000000000000000000000000000000000000000000000600052603260045260246000fd5b600081519050919050565b7f4e487b7100000000000000000000000000000000000000000000000000000000600052602260045260246000fd5b600060028204905060018216806200047857607f821691505b6020821081036200048e576200048d62000430565b5b50919050565b60008190508160005260206000209050919050565b60006020601f8301049050919050565b600082821b905092915050565b600060088302620004f87fffffffffffffffffffffffffffffffffffffffffffffffffffffffffffffffff82620004b9565b620005048683620004b9565b95508019841693508086168417925050509392505050565b6000819050919050565b600062000547620005416200053b84620000da565b6200051c565b620000da565b9050919050565b6000819050919050565b620005638362000526565b6200057b62000572826200054e565b848454620004c6565b825550505050565b600090565b6200059262000583565b6200059f81848462000558565b505050565b5b81811015620005c757620005bb60008262000588565b600181019050620005a5565b5050565b601f8211156200061657620005e08162000494565b620005eb84620004a9565b81016020851015620005fb578190505b620006136200060a85620004a9565b830182620005a4565b50505b505050565b600082821c905092915050565b60006200063b600019846008026200061b565b1980831691505092915050565b600062000656838362000628565b9150826002028217905092915050565b620006718262000425565b67ffffffffffffffff8111156200068d576200068c6200012b565b5b6200069982546200045f565b620006a6828285620005cb565b600060209050601f831160018114620006de5760008415620006c9578287015190505b620006d5858262000648565b86555062000745565b601f198416620006ee8662000494565b60005b828110156200071857848901518255600182019150602085019450602081019050620006f1565b8683101562000738578489015162000734601f89168262000628565b8355505b6001600288020188555050505b505050505050565b7f4e487b7100000000000000000000000000000000000000000000000000000000600052601160045260246000fd5b60006200078982620000da565b91507fffffffffffffffffffffffffffffffffffffffffffffffffffffffffffffffff8203620007be57620007bd6200074d565b5b600182019050919050565b6102dc80620007d96000396000f3fe608060405234801561001057600080fd5b506004361061002b5760003560e01c8063d6d819ee14610030575b600080fd5b61004a60048036038101906100459190610154565b610060565b6040516100579190610224565b60405180910390f35b6000602052816000526040600020818154811061007c57600080fd5b9060005260206000200160009150915050805461009890610275565b80601f01602080910402602001604051908101604052809291908181526020018280546100c490610275565b80156101115780601f106100e657610100808354040283529160200191610111565b820191906000526020600020905b8154815290600101906020018083116100f457829003601f168201915b505050505081565b600080fd5b6000819050919050565b6101318161011e565b811461013c57600080fd5b50565b60008135905061014e81610128565b92915050565b6000806040838503121561016b5761016a610119565b5b60006101798582860161013f565b925050602061018a8582860161013f565b9150509250929050565b600081519050919050565b600082825260208201905092915050565b60005b838110156101ce5780820151818401526020810190506101b3565b60008484015250505050565b6000601f19601f8301169050919050565b60006101f682610194565b610200818561019f565b93506102108185602086016101b0565b610219816101da565b840191505092915050565b6000602082019050818103600083015261023e81846101eb565b905092915050565b7f4e487b7100000000000000000000000000000000000000000000000000000000600052602260045260246000fd5b6000600282049050600182168061028d57607f821691505b6020821081036102a05761029f610246565b5b5091905056fea26469706673582212201b0d5d496c8b50a63dbebf0ad2a633b53ea9602b61b423aef648737cf048728c64736f6c63430008110033",
  "linkReferences": {},
  "deployedLinkReferences": {}
}