{
  "_format": "hh-sol-artifact-1",
  "contractName": "Imovel",
  "sourceName": "contracts/imovel.sol",
  "abi": [
    {
      "inputs": [
        {
          "internalType": "address[]",
          "name": "_owners",
          "type": "address[]"
        },
        {
          "internalType": "uint256",
          "name": "_idPredio",
          "type": "uint256"
        },
        {
          "internalType": "uint256[]",
          "name": "_prazo",
          "type": "uint256[]"
        },
        {
          "internalType": "address[]",
          "name": "_donos",
          "type": "address[]"
        },
        {
          "internalType": "bool[]",
          "name": "_status",
          "type": "bool[]"
        },
        {
          "internalType": "string[]",
          "name": "_condicoes",
          "type": "string[]"
        },
        {
          "internalType": "uint256[]",
          "name": "_valorCobranca",
          "type": "uint256[]"
        },
        {
          "internalType": "uint256[]",
          "name": "_dataProxCobranca",
          "type": "uint256[]"
        },
        {
          "internalType": "uint256[][]",
          "name": "_datasRecebimento",
          "type": "uint256[][]"
        },
        {
          "internalType": "uint256[][]",
          "name": "_valoresRecebimento",
          "type": "uint256[][]"
        }
      ],
      "stateMutability": "nonpayable",
      "type": "constructor"
    },
    {
      "inputs": [
        {
          "internalType": "uint256",
          "name": "",
          "type": "uint256"
        }
      ],
      "name": "acoesCount",
      "outputs": [
        {
          "internalType": "uint256",
          "name": "",
          "type": "uint256"
        }
      ],
      "stateMutability": "view",
      "type": "function"
    },
    {
      "inputs": [
        {
          "internalType": "address",
          "name": "_newDono",
          "type": "address"
        },
        {
          "internalType": "uint256",
          "name": "_prazo",
          "type": "uint256"
        },
        {
          "internalType": "bool",
          "name": "_status",
          "type": "bool"
        },
        {
          "internalType": "string",
          "name": "_condicoes",
          "type": "string"
        },
        {
          "internalType": "uint256",
          "name": "_valorCobranca",
          "type": "uint256"
        },
        {
          "internalType": "uint256",
          "name": "_dataProxCobranca",
          "type": "uint256"
        },
        {
          "internalType": "uint256[]",
          "name": "_datasRecebimento",
          "type": "uint256[]"
        },
        {
          "internalType": "uint256[]",
          "name": "_valoresRecebimento",
          "type": "uint256[]"
        }
      ],
      "name": "addDono",
      "outputs": [],
      "stateMutability": "nonpayable",
      "type": "function"
    },
    {
      "inputs": [
        {
          "internalType": "address",
          "name": "_newUnion",
          "type": "address"
        }
      ],
      "name": "addOwnerUnion",
      "outputs": [],
      "stateMutability": "nonpayable",
      "type": "function"
    },
    {
      "inputs": [
        {
          "internalType": "uint256",
          "name": "",
          "type": "uint256"
        },
        {
          "internalType": "uint256",
          "name": "",
          "type": "uint256"
        }
      ],
      "name": "condicoes",
      "outputs": [
        {
          "internalType": "string",
          "name": "",
          "type": "string"
        }
      ],
      "stateMutability": "view",
      "type": "function"
    },
    {
      "inputs": [
        {
          "internalType": "uint256",
          "name": "",
          "type": "uint256"
        }
      ],
      "name": "dataProxCobranca",
      "outputs": [
        {
          "internalType": "uint256",
          "name": "",
          "type": "uint256"
        }
      ],
      "stateMutability": "view",
      "type": "function"
    },
    {
      "inputs": [
        {
          "internalType": "uint256",
          "name": "",
          "type": "uint256"
        }
      ],
      "name": "donos",
      "outputs": [
        {
          "internalType": "address",
          "name": "",
          "type": "address"
        }
      ],
      "stateMutability": "view",
      "type": "function"
    },
    {
      "inputs": [],
      "name": "getAllDonos",
      "outputs": [
        {
          "internalType": "address[]",
          "name": "",
          "type": "address[]"
        }
      ],
      "stateMutability": "view",
      "type": "function"
    },
    {
      "inputs": [
        {
          "internalType": "uint256",
          "name": "",
          "type": "uint256"
        },
        {
          "internalType": "uint256",
          "name": "",
          "type": "uint256"
        }
      ],
      "name": "historicoRecebimento",
      "outputs": [
        {
          "internalType": "uint256",
          "name": "data",
          "type": "uint256"
        },
        {
          "internalType": "uint256",
          "name": "valor",
          "type": "uint256"
        }
      ],
      "stateMutability": "view",
      "type": "function"
    },
    {
      "inputs": [
        {
          "internalType": "uint256",
          "name": "",
          "type": "uint256"
        },
        {
          "internalType": "uint256",
          "name": "",
          "type": "uint256"
        }
      ],
      "name": "idAcoes",
      "outputs": [
        {
          "internalType": "string",
          "name": "",
          "type": "string"
        }
      ],
      "stateMutability": "view",
      "type": "function"
    },
    {
      "inputs": [],
      "name": "idPredio",
      "outputs": [
        {
          "internalType": "uint256",
          "name": "",
          "type": "uint256"
        }
      ],
      "stateMutability": "view",
      "type": "function"
    },
    {
      "inputs": [
        {
          "internalType": "address",
          "name": "",
          "type": "address"
        }
      ],
      "name": "owner",
      "outputs": [
        {
          "internalType": "bool",
          "name": "",
          "type": "bool"
        }
      ],
      "stateMutability": "view",
      "type": "function"
    },
    {
      "inputs": [
        {
          "internalType": "uint256",
          "name": "",
          "type": "uint256"
        }
      ],
      "name": "prazo",
      "outputs": [
        {
          "internalType": "uint256",
          "name": "",
          "type": "uint256"
        }
      ],
      "stateMutability": "view",
      "type": "function"
    },
    {
      "inputs": [
        {
          "internalType": "address",
          "name": "_dono",
          "type": "address"
        }
      ],
      "name": "removeDono",
      "outputs": [],
      "stateMutability": "nonpayable",
      "type": "function"
    },
    {
      "inputs": [
        {
          "internalType": "address",
          "name": "_unionMember",
          "type": "address"
        }
      ],
      "name": "removeOwnerUnion",
      "outputs": [],
      "stateMutability": "nonpayable",
      "type": "function"
    },
    {
      "inputs": [
        {
          "internalType": "uint256",
          "name": "",
          "type": "uint256"
        }
      ],
      "name": "status",
      "outputs": [
        {
          "internalType": "bool",
          "name": "",
          "type": "bool"
        }
      ],
      "stateMutability": "view",
      "type": "function"
    },
    {
      "inputs": [
        {
          "internalType": "address",
          "name": "_dono",
          "type": "address"
        },
        {
          "internalType": "string",
          "name": "_acao",
          "type": "string"
        }
      ],
      "name": "updateAcoes",
      "outputs": [],
      "stateMutability": "nonpayable",
      "type": "function"
    },
    {
      "inputs": [
        {
          "internalType": "address",
          "name": "_dono",
          "type": "address"
        },
        {
          "internalType": "string",
          "name": "_condicao",
          "type": "string"
        }
      ],
      "name": "updateCondicoes",
      "outputs": [],
      "stateMutability": "nonpayable",
      "type": "function"
    },
    {
      "inputs": [
        {
          "internalType": "address",
          "name": "_dono",
          "type": "address"
        },
        {
          "internalType": "uint256",
          "name": "_newDataProxCobranca",
          "type": "uint256"
        }
      ],
      "name": "updateDataProxCobranca",
      "outputs": [],
      "stateMutability": "nonpayable",
      "type": "function"
    },
    {
      "inputs": [
        {
          "internalType": "address",
          "name": "_dono",
          "type": "address"
        },
        {
          "internalType": "uint256",
          "name": "_dataRecebimento",
          "type": "uint256"
        },
        {
          "internalType": "uint256",
          "name": "_valorRecebimento",
          "type": "uint256"
        }
      ],
      "name": "updateHistoricoRecebimento",
      "outputs": [],
      "stateMutability": "nonpayable",
      "type": "function"
    },
    {
      "inputs": [
        {
          "internalType": "address",
          "name": "_dono",
          "type": "address"
        },
        {
          "internalType": "uint256",
          "name": "_newPrazo",
          "type": "uint256"
        }
      ],
      "name": "updatePrazo",
      "outputs": [],
      "stateMutability": "nonpayable",
      "type": "function"
    },
    {
      "inputs": [
        {
          "internalType": "address",
          "name": "_dono",
          "type": "address"
        },
        {
          "internalType": "bool",
          "name": "_newStatus",
          "type": "bool"
        }
      ],
      "name": "updateStatus",
      "outputs": [],
      "stateMutability": "nonpayable",
      "type": "function"
    },
    {
      "inputs": [
        {
          "internalType": "address",
          "name": "_dono",
          "type": "address"
        },
        {
          "internalType": "uint256",
          "name": "_newValorCobranca",
          "type": "uint256"
        }
      ],
      "name": "updateValorCobranca",
      "outputs": [],
      "stateMutability": "nonpayable",
      "type": "function"
    },
    {
      "inputs": [
        {
          "internalType": "uint256",
          "name": "",
          "type": "uint256"
        }
      ],
      "name": "valorCobranca",
      "outputs": [
        {
          "internalType": "uint256",
          "name": "",
          "type": "uint256"
        }
      ],
      "stateMutability": "view",
      "type": "function"
    }
  ],
  "bytecode": "0x60806040523480156200001157600080fd5b5060405162003d5838038062003d58833981810160405281019062000037919062000c95565b865182828951888b5160005b818110156200008a57600080806001815401808255809150506001900390600052602060002001600090919091909150558080620000819062000ed1565b91505062000043565b505060005b82811015620001135760026000828152602001908152602001600020828281518110620000c157620000c062000f1e565b5b6020026020010151908060018154018082558091505060019003906000526020600020016000909190919091509081620000fc91906200118e565b5080806200010a9062000ed1565b9150506200008f565b50505060005b83811015620002545760005b8382815181106200013b576200013a62000f1e565b5b6020026020010151518110156200023d5760036000838152602001908152602001600020604051806040016040528086858151811062000180576200017f62000f1e565b5b602002602001015184815181106200019d576200019c62000f1e565b5b60200260200101518152602001858581518110620001c057620001bf62000f1e565b5b60200260200101518481518110620001dd57620001dc62000f1e565b5b60200260200101518152509080600181540180825580915050600190039060005260206000209060020201600090919091909150600082015181600001556020820151816001015550508080620002349062000ed1565b91505062000125565b5080806200024b9062000ed1565b91505062000119565b5050505060005b8a51811015620002f0576001600460008d848151811062000281576200028062000f1e565b5b602002602001015173ffffffffffffffffffffffffffffffffffffffff1673ffffffffffffffffffffffffffffffffffffffff16815260200190815260200160002060006101000a81548160ff0219169083151502179055508080620002e79062000ed1565b9150506200025b565b5086600690805190602001906200030992919062000403565b508860058190555087600790805190602001906200032992919062000492565b50856008908051906020019062000342929190620004e4565b5060005b8751811015620003f257600985828151811062000368576200036762000f1e565b5b60200260200101519080600181540180825580915050600190039060005260206000200160009091909190915055600a848281518110620003ae57620003ad62000f1e565b5b602002602001015190806001815401808255809150506001900390600052602060002001600090919091909150558080620003e99062000ed1565b91505062000346565b505050505050505050505062001275565b8280548282559060005260206000209081019282156200047f579160200282015b828111156200047e5782518260006101000a81548173ffffffffffffffffffffffffffffffffffffffff021916908373ffffffffffffffffffffffffffffffffffffffff1602179055509160200191906001019062000424565b5b5090506200048e919062000591565b5090565b828054828255906000526020600020908101928215620004d1579160200282015b82811115620004d0578251825591602001919060010190620004b3565b5b509050620004e0919062000591565b5090565b82805482825590600052602060002090601f016020900481019282156200057e5791602002820160005b838211156200054d57835183826101000a81548160ff02191690831515021790555092602001926001016020816000010492830192600103026200050e565b80156200057c5782816101000a81549060ff02191690556001016020816000010492830192600103026200054d565b505b5090506200058d919062000591565b5090565b5b80821115620005ac57600081600090555060010162000592565b5090565b6000604051905090565b600080fd5b600080fd5b600080fd5b6000601f19601f8301169050919050565b7f4e487b7100000000000000000000000000000000000000000000000000000000600052604160045260246000fd5b6200061482620005c9565b810181811067ffffffffffffffff82111715620006365762000635620005da565b5b80604052505050565b60006200064b620005b0565b905062000659828262000609565b919050565b600067ffffffffffffffff8211156200067c576200067b620005da565b5b602082029050602081019050919050565b600080fd5b600073ffffffffffffffffffffffffffffffffffffffff82169050919050565b6000620006bf8262000692565b9050919050565b620006d181620006b2565b8114620006dd57600080fd5b50565b600081519050620006f181620006c6565b92915050565b60006200070e62000708846200065e565b6200063f565b905080838252602082019050602084028301858111156200073457620007336200068d565b5b835b818110156200076157806200074c8882620006e0565b84526020840193505060208101905062000736565b5050509392505050565b600082601f830112620007835762000782620005c4565b5b815162000795848260208601620006f7565b91505092915050565b6000819050919050565b620007b3816200079e565b8114620007bf57600080fd5b50565b600081519050620007d381620007a8565b92915050565b600067ffffffffffffffff821115620007f757620007f6620005da565b5b602082029050602081019050919050565b60006200081f6200081984620007d9565b6200063f565b905080838252602082019050602084028301858111156200084557620008446200068d565b5b835b818110156200087257806200085d8882620007c2565b84526020840193505060208101905062000847565b5050509392505050565b600082601f830112620008945762000893620005c4565b5b8151620008a684826020860162000808565b91505092915050565b600067ffffffffffffffff821115620008cd57620008cc620005da565b5b602082029050602081019050919050565b60008115159050919050565b620008f581620008de565b81146200090157600080fd5b50565b6000815190506200091581620008ea565b92915050565b6000620009326200092c84620008af565b6200063f565b905080838252602082019050602084028301858111156200095857620009576200068d565b5b835b8181101562000985578062000970888262000904565b8452602084019350506020810190506200095a565b5050509392505050565b600082601f830112620009a757620009a6620005c4565b5b8151620009b98482602086016200091b565b91505092915050565b600067ffffffffffffffff821115620009e057620009df620005da565b5b602082029050602081019050919050565b600080fd5b600067ffffffffffffffff82111562000a145762000a13620005da565b5b62000a1f82620005c9565b9050602081019050919050565b60005b8381101562000a4c57808201518184015260208101905062000a2f565b60008484015250505050565b600062000a6f62000a6984620009f6565b6200063f565b90508281526020810184848401111562000a8e5762000a8d620009f1565b5b62000a9b84828562000a2c565b509392505050565b600082601f83011262000abb5762000aba620005c4565b5b815162000acd84826020860162000a58565b91505092915050565b600062000aed62000ae784620009c2565b6200063f565b9050808382526020820190506020840283018581111562000b135762000b126200068d565b5b835b8181101562000b6157805167ffffffffffffffff81111562000b3c5762000b3b620005c4565b5b80860162000b4b898262000aa3565b8552602085019450505060208101905062000b15565b5050509392505050565b600082601f83011262000b835762000b82620005c4565b5b815162000b9584826020860162000ad6565b91505092915050565b600067ffffffffffffffff82111562000bbc5762000bbb620005da565b5b602082029050602081019050919050565b600062000be462000bde8462000b9e565b6200063f565b9050808382526020820190506020840283018581111562000c0a5762000c096200068d565b5b835b8181101562000c5857805167ffffffffffffffff81111562000c335762000c32620005c4565b5b80860162000c4289826200087c565b8552602085019450505060208101905062000c0c565b5050509392505050565b600082601f83011262000c7a5762000c79620005c4565b5b815162000c8c84826020860162000bcd565b91505092915050565b6000806000806000806000806000806101408b8d03121562000cbc5762000cbb620005ba565b5b60008b015167ffffffffffffffff81111562000cdd5762000cdc620005bf565b5b62000ceb8d828e016200076b565b9a5050602062000cfe8d828e01620007c2565b99505060408b015167ffffffffffffffff81111562000d225762000d21620005bf565b5b62000d308d828e016200087c565b98505060608b015167ffffffffffffffff81111562000d545762000d53620005bf565b5b62000d628d828e016200076b565b97505060808b015167ffffffffffffffff81111562000d865762000d85620005bf565b5b62000d948d828e016200098f565b96505060a08b015167ffffffffffffffff81111562000db85762000db7620005bf565b5b62000dc68d828e0162000b6b565b95505060c08b015167ffffffffffffffff81111562000dea5762000de9620005bf565b5b62000df88d828e016200087c565b94505060e08b015167ffffffffffffffff81111562000e1c5762000e1b620005bf565b5b62000e2a8d828e016200087c565b9350506101008b015167ffffffffffffffff81111562000e4f5762000e4e620005bf565b5b62000e5d8d828e0162000c62565b9250506101208b015167ffffffffffffffff81111562000e825762000e81620005bf565b5b62000e908d828e0162000c62565b9150509295989b9194979a5092959850565b7f4e487b7100000000000000000000000000000000000000000000000000000000600052601160045260246000fd5b600062000ede826200079e565b91507fffffffffffffffffffffffffffffffffffffffffffffffffffffffffffffffff820362000f135762000f1262000ea2565b5b600182019050919050565b7f4e487b7100000000000000000000000000000000000000000000000000000000600052603260045260246000fd5b600081519050919050565b7f4e487b7100000000000000000000000000000000000000000000000000000000600052602260045260246000fd5b6000600282049050600182168062000fa057607f821691505b60208210810362000fb65762000fb562000f58565b5b50919050565b60008190508160005260206000209050919050565b60006020601f8301049050919050565b600082821b905092915050565b600060088302620010207fffffffffffffffffffffffffffffffffffffffffffffffffffffffffffffffff8262000fe1565b6200102c868362000fe1565b95508019841693508086168417925050509392505050565b6000819050919050565b60006200106f6200106962001063846200079e565b62001044565b6200079e565b9050919050565b6000819050919050565b6200108b836200104e565b620010a36200109a8262001076565b84845462000fee565b825550505050565b600090565b620010ba620010ab565b620010c781848462001080565b505050565b5b81811015620010ef57620010e3600082620010b0565b600181019050620010cd565b5050565b601f8211156200113e57620011088162000fbc565b620011138462000fd1565b8101602085101562001123578190505b6200113b620011328562000fd1565b830182620010cc565b50505b505050565b600082821c905092915050565b6000620011636000198460080262001143565b1980831691505092915050565b60006200117e838362001150565b9150826002028217905092915050565b620011998262000f4d565b67ffffffffffffffff811115620011b557620011b4620005da565b5b620011c1825462000f87565b620011ce828285620010f3565b600060209050601f831160018114620012065760008415620011f1578287015190505b620011fd858262001170565b8655506200126d565b601f198416620012168662000fbc565b60005b82811015620012405784890151825560018201915060208501945060208101905062001219565b868310156200126057848901516200125c601f89168262001150565b8355505b6001600288020188555050505b505050505050565b612ad380620012856000396000f3fe608060405234801561001057600080fd5b506004361061014d5760003560e01c806371435955116100c3578063bc0f21e91161007c578063bc0f21e9146103bc578063d29927cf146103d8578063d6d819ee146103f6578063da87fc8a14610426578063eabfedca14610442578063f7b86516146104725761014d565b806371435955146103005780637444144b146103305780638b2b47b31461034c5780638c3151be146103685780639e8004ee14610384578063a7adad03146103a05761014d565b806337805d531161011557806337805d531461021c57806342d21ef71461024c5780634b38b1971461027c57806350541cd61461029857806352b20ce7146102b4578063666e1b39146102d05761014d565b806308883fa0146101525780631e416aa3146101825780632bc758ff146101a05780632bcda3d4146101d05780632f1e8a92146101ec575b600080fd5b61016c60048036038101906101679190611e51565b6104a3565b6040516101799190611e8d565b60405180910390f35b61018a6104c7565b6040516101979190611f98565b60405180910390f35b6101ba60048036038101906101b59190611fba565b610555565b6040516101c7919061208a565b60405180910390f35b6101ea60048036038101906101e5919061220d565b610602565b005b61020660048036038101906102019190611e51565b61073c565b6040516102139190611e8d565b60405180910390f35b61023660048036038101906102319190611e51565b610760565b6040516102439190611e8d565b60405180910390f35b61026660048036038101906102619190611e51565b610784565b6040516102739190612284565b60405180910390f35b6102966004803603810190610291919061220d565b6107b8565b005b6102b260048036038101906102ad919061229f565b6108f2565b005b6102ce60048036038101906102c991906122cc565b610d83565b005b6102ea60048036038101906102e5919061229f565b610ecc565b6040516102f79190612284565b60405180910390f35b61031a60048036038101906103159190611e51565b610eec565b6040516103279190611e8d565b60405180910390f35b61034a60048036038101906103459190612338565b610f10565b005b610366600480360381019061036191906122cc565b611074565b005b610382600480360381019061037d919061229f565b6111bd565b005b61039e60048036038101906103999190612440565b6112a4565b005b6103ba60048036038101906103b591906122cc565b611487565b005b6103d660048036038101906103d1919061254a565b6115d0565b005b6103e0611703565b6040516103ed9190611e8d565b60405180910390f35b610410600480360381019061040b9190611fba565b611709565b60405161041d919061208a565b60405180910390f35b610440600480360381019061043b919061229f565b6117c2565b005b61045c60048036038101906104579190611e51565b6118a9565b60405161046991906125ac565b60405180910390f35b61048c60048036038101906104879190611fba565b6118e8565b60405161049a9291906125c7565b60405180910390f35b600a81815481106104b357600080fd5b906000526020600020016000915090505481565b6060600680548060200260200160405190810160405280929190818152602001828054801561054b57602002820191906000526020600020905b8160009054906101000a900473ffffffffffffffffffffffffffffffffffffffff1673ffffffffffffffffffffffffffffffffffffffff1681526020019060010190808311610501575b5050505050905090565b60016020528160005260406000206020528060005260406000206000915091505080546105819061261f565b80601f01602080910402602001604051908101604052809291908181526020018280546105ad9061261f565b80156105fa5780601f106105cf576101008083540402835291602001916105fa565b820191906000526020600020905b8154815290600101906020018083116105dd57829003601f168201915b505050505081565b600460003373ffffffffffffffffffffffffffffffffffffffff1673ffffffffffffffffffffffffffffffffffffffff16815260200190815260200160002060009054906101000a900460ff1661068e576040517f08c379a0000000000000000000000000000000000000000000000000000000008152600401610685906126c2565b60405180910390fd5b600080600090505b60068054905081101561072b578373ffffffffffffffffffffffffffffffffffffffff16600682815481106106ce576106cd6126e2565b5b9060005260206000200160009054906101000a900473ffffffffffffffffffffffffffffffffffffffff1673ffffffffffffffffffffffffffffffffffffffff1603610718578091505b808061072390612740565b915050610696565b506107368183611929565b50505050565b6007818154811061074c57600080fd5b906000526020600020016000915090505481565b6000818154811061077057600080fd5b906000526020600020016000915090505481565b6008818154811061079457600080fd5b9060005260206000209060209182820401919006915054906101000a900460ff1681565b600460003373ffffffffffffffffffffffffffffffffffffffff1673ffffffffffffffffffffffffffffffffffffffff16815260200190815260200160002060009054906101000a900460ff16610844576040517f08c379a000000000000000000000000000000000000000000000000000000000815260040161083b906126c2565b60405180910390fd5b600080600090505b6006805490508110156108e1578373ffffffffffffffffffffffffffffffffffffffff1660068281548110610884576108836126e2565b5b9060005260206000200160009054906101000a900473ffffffffffffffffffffffffffffffffffffffff1673ffffffffffffffffffffffffffffffffffffffff16036108ce578091505b80806108d990612740565b91505061084c565b506108ec818361197b565b50505050565b600460003373ffffffffffffffffffffffffffffffffffffffff1673ffffffffffffffffffffffffffffffffffffffff16815260200190815260200160002060009054906101000a900460ff1661097e576040517f08c379a0000000000000000000000000000000000000000000000000000000008152600401610975906126c2565b60405180910390fd5b60005b600680549050811015610c84578173ffffffffffffffffffffffffffffffffffffffff16600682815481106109b9576109b86126e2565b5b9060005260206000200160009054906101000a900473ffffffffffffffffffffffffffffffffffffffff1673ffffffffffffffffffffffffffffffffffffffff1603610c715760008190505b6001600680549050610a179190612788565b811015610c4657610a2782611a0b565b506006600182610a3791906127bc565b81548110610a4857610a476126e2565b5b9060005260206000200160009054906101000a900473ffffffffffffffffffffffffffffffffffffffff1660068281548110610a8757610a866126e2565b5b9060005260206000200160006101000a81548173ffffffffffffffffffffffffffffffffffffffff021916908373ffffffffffffffffffffffffffffffffffffffff1602179055506007600182610ade91906127bc565b81548110610aef57610aee6126e2565b5b906000526020600020015460078281548110610b0e57610b0d6126e2565b5b90600052602060002001819055506008600182610b2b91906127bc565b81548110610b3c57610b3b6126e2565b5b90600052602060002090602091828204019190069054906101000a900460ff1660088281548110610b7057610b6f6126e2565b5b90600052602060002090602091828204019190066101000a81548160ff0219169083151502179055506009600182610ba891906127bc565b81548110610bb957610bb86126e2565b5b906000526020600020015460098281548110610bd857610bd76126e2565b5b9060005260206000200181905550600a600182610bf591906127bc565b81548110610c0657610c056126e2565b5b9060005260206000200154600a8281548110610c2557610c246126e2565b5b90600052602060002001819055508080610c3e90612740565b915050610a05565b50610c5081611b2d565b50600360008281526020019081526020016000206000610c709190611d1a565b5b8080610c7c90612740565b915050610981565b506006805480610c9757610c966127f0565b5b6001900381819060005260206000200160006101000a81549073ffffffffffffffffffffffffffffffffffffffff021916905590556007805480610cde57610cdd6127f0565b5b600190038181906000526020600020016000905590556008805480610d0657610d056127f0565b5b60019003818190600052602060002090602091828204019190066101000a81549060ff021916905590556009805480610d4257610d416127f0565b5b60019003818190600052602060002001600090559055600a805480610d6a57610d696127f0565b5b6001900381819060005260206000200160009055905550565b600460003373ffffffffffffffffffffffffffffffffffffffff1673ffffffffffffffffffffffffffffffffffffffff16815260200190815260200160002060009054906101000a900460ff16610e0f576040517f08c379a0000000000000000000000000000000000000000000000000000000008152600401610e06906126c2565b60405180910390fd5b60005b600680549050811015610ec7578273ffffffffffffffffffffffffffffffffffffffff1660068281548110610e4a57610e496126e2565b5b9060005260206000200160009054906101000a900473ffffffffffffffffffffffffffffffffffffffff1673ffffffffffffffffffffffffffffffffffffffff1603610eb45781600a8281548110610ea557610ea46126e2565b5b90600052602060002001819055505b8080610ebf90612740565b915050610e12565b505050565b60046020528060005260406000206000915054906101000a900460ff1681565b60098181548110610efc57600080fd5b906000526020600020016000915090505481565b600460003373ffffffffffffffffffffffffffffffffffffffff1673ffffffffffffffffffffffffffffffffffffffff16815260200190815260200160002060009054906101000a900460ff16610f9c576040517f08c379a0000000000000000000000000000000000000000000000000000000008152600401610f93906126c2565b60405180910390fd5b60005b60068054905081101561106f578273ffffffffffffffffffffffffffffffffffffffff1660068281548110610fd757610fd66126e2565b5b9060005260206000200160009054906101000a900473ffffffffffffffffffffffffffffffffffffffff1673ffffffffffffffffffffffffffffffffffffffff160361105c578160088281548110611032576110316126e2565b5b90600052602060002090602091828204019190066101000a81548160ff0219169083151502179055505b808061106790612740565b915050610f9f565b505050565b600460003373ffffffffffffffffffffffffffffffffffffffff1673ffffffffffffffffffffffffffffffffffffffff16815260200190815260200160002060009054906101000a900460ff16611100576040517f08c379a00000000000000000000000000000000000000000000000000000000081526004016110f7906126c2565b60405180910390fd5b60005b6006805490508110156111b8578273ffffffffffffffffffffffffffffffffffffffff166006828154811061113b5761113a6126e2565b5b9060005260206000200160009054906101000a900473ffffffffffffffffffffffffffffffffffffffff1673ffffffffffffffffffffffffffffffffffffffff16036111a5578160098281548110611196576111956126e2565b5b90600052602060002001819055505b80806111b090612740565b915050611103565b505050565b600460003373ffffffffffffffffffffffffffffffffffffffff1673ffffffffffffffffffffffffffffffffffffffff16815260200190815260200160002060009054906101000a900460ff16611249576040517f08c379a0000000000000000000000000000000000000000000000000000000008152600401611240906126c2565b60405180910390fd5b6000600460008373ffffffffffffffffffffffffffffffffffffffff1673ffffffffffffffffffffffffffffffffffffffff16815260200190815260200160002060006101000a81548160ff02191690831515021790555050565b600460003373ffffffffffffffffffffffffffffffffffffffff1673ffffffffffffffffffffffffffffffffffffffff16815260200190815260200160002060009054906101000a900460ff16611330576040517f08c379a0000000000000000000000000000000000000000000000000000000008152600401611327906126c2565b60405180910390fd5b600060068054905090506006899080600181540180825580915050600190039060005260206000200160009091909190916101000a81548173ffffffffffffffffffffffffffffffffffffffff021916908373ffffffffffffffffffffffffffffffffffffffff160217905550600788908060018154018082558091505060019003906000526020600020016000909190919091505560088790806001815401808255809150506001900390600052602060002090602091828204019190069091909190916101000a81548160ff0219169083151502179055506114148187611b57565b506009859080600181540180825580915050600190039060005260206000200160009091909190915055600a84908060018154018082558091505060019003906000526020600020016000909190919091505561146f611ba9565b5061147b818484611bdb565b50505050505050505050565b600460003373ffffffffffffffffffffffffffffffffffffffff1673ffffffffffffffffffffffffffffffffffffffff16815260200190815260200160002060009054906101000a900460ff16611513576040517f08c379a000000000000000000000000000000000000000000000000000000000815260040161150a906126c2565b60405180910390fd5b60005b6006805490508110156115cb578273ffffffffffffffffffffffffffffffffffffffff166006828154811061154e5761154d6126e2565b5b9060005260206000200160009054906101000a900473ffffffffffffffffffffffffffffffffffffffff1673ffffffffffffffffffffffffffffffffffffffff16036115b85781600782815481106115a9576115a86126e2565b5b90600052602060002001819055505b80806115c390612740565b915050611516565b505050565b600460003373ffffffffffffffffffffffffffffffffffffffff1673ffffffffffffffffffffffffffffffffffffffff16815260200190815260200160002060009054906101000a900460ff1661165c576040517f08c379a0000000000000000000000000000000000000000000000000000000008152600401611653906126c2565b60405180910390fd5b60005b6006805490508110156116fd578373ffffffffffffffffffffffffffffffffffffffff1660068281548110611697576116966126e2565b5b9060005260206000200160009054906101000a900473ffffffffffffffffffffffffffffffffffffffff1673ffffffffffffffffffffffffffffffffffffffff16036116ea576116e8818484611ca6565b505b80806116f590612740565b91505061165f565b50505050565b60055481565b6002602052816000526040600020818154811061172557600080fd5b906000526020600020016000915091505080546117419061261f565b80601f016020809104026020016040519081016040528092919081815260200182805461176d9061261f565b80156117ba5780601f1061178f576101008083540402835291602001916117ba565b820191906000526020600020905b81548152906001019060200180831161179d57829003601f168201915b505050505081565b600460003373ffffffffffffffffffffffffffffffffffffffff1673ffffffffffffffffffffffffffffffffffffffff16815260200190815260200160002060009054906101000a900460ff1661184e576040517f08c379a0000000000000000000000000000000000000000000000000000000008152600401611845906126c2565b60405180910390fd5b6001600460008373ffffffffffffffffffffffffffffffffffffffff1673ffffffffffffffffffffffffffffffffffffffff16815260200190815260200160002060006101000a81548160ff02191690831515021790555050565b600681815481106118b957600080fd5b906000526020600020016000915054906101000a900473ffffffffffffffffffffffffffffffffffffffff1681565b6003602052816000526040600020818154811061190457600080fd5b9060005260206000209060020201600091509150508060000154908060010154905082565b6000600260008481526020019081526020016000208290806001815401808255809150506001900390600052602060002001600090919091909150908161197091906129cb565b506001905092915050565b600080600160008581548110611994576119936126e2565b5b90600052602060002001546119a991906127bc565b90508260016000868152602001908152602001600020600083815260200190815260200160002090816119dc91906129cb565b5080600085815481106119f2576119f16126e2565b5b9060005260206000200181905550600191505092915050565b600080600090505b60008381548110611a2757611a266126e2565b5b90600052602060002001548111611a7b576001600084815260200190815260200160002060008281526020019081526020016000206000611a689190611d3e565b8080611a7390612740565b915050611a13565b5060008290505b6001600080549050611a949190612788565b811015611afb576000600182611aaa91906127bc565b81548110611abb57611aba6126e2565b5b906000526020600020015460008281548110611ada57611ad96126e2565b5b90600052602060002001819055508080611af390612740565b915050611a82565b506000805480611b0e57611b0d6127f0565b5b6001900381819060005260206000200160009055905560019050919050565b6000600260008381526020019081526020016000206000611b4e9190611d7e565b60019050919050565b60006002600084815260200190815260200160002082908060018154018082558091505060019003906000526020600020016000909190919091509081611b9e91906129cb565b506001905092915050565b600080600090806001815401808255809150506001900390600052602060002001600090919091909150556001905090565b600080600090505b8351811015611c9a57600360008681526020019081526020016000206040518060400160405280868481518110611c1d57611c1c6126e2565b5b60200260200101518152602001858481518110611c3d57611c3c6126e2565b5b60200260200101518152509080600181540180825580915050600190039060005260206000209060020201600090919091909150600082015181600001556020820151816001015550508080611c9290612740565b915050611be3565b50600190509392505050565b600060036000858152602001908152602001600020604051806040016040528085815260200184815250908060018154018082558091505060019003906000526020600020906002020160009091909190915060008201518160000155602082015181600101555050600190509392505050565b5080546000825560020290600052602060002090810190611d3b9190611d9f565b50565b508054611d4a9061261f565b6000825580601f10611d5c5750611d7b565b601f016020900490600052602060002090810190611d7a9190611dc6565b5b50565b5080546000825590600052602060002090810190611d9c9190611de3565b50565b5b80821115611dc257600080820160009055600182016000905550600201611da0565b5090565b5b80821115611ddf576000816000905550600101611dc7565b5090565b5b80821115611e035760008181611dfa9190611d3e565b50600101611de4565b5090565b6000604051905090565b600080fd5b600080fd5b6000819050919050565b611e2e81611e1b565b8114611e3957600080fd5b50565b600081359050611e4b81611e25565b92915050565b600060208284031215611e6757611e66611e11565b5b6000611e7584828501611e3c565b91505092915050565b611e8781611e1b565b82525050565b6000602082019050611ea26000830184611e7e565b92915050565b600081519050919050565b600082825260208201905092915050565b6000819050602082019050919050565b600073ffffffffffffffffffffffffffffffffffffffff82169050919050565b6000611eff82611ed4565b9050919050565b611f0f81611ef4565b82525050565b6000611f218383611f06565b60208301905092915050565b6000602082019050919050565b6000611f4582611ea8565b611f4f8185611eb3565b9350611f5a83611ec4565b8060005b83811015611f8b578151611f728882611f15565b9750611f7d83611f2d565b925050600181019050611f5e565b5085935050505092915050565b60006020820190508181036000830152611fb28184611f3a565b905092915050565b60008060408385031215611fd157611fd0611e11565b5b6000611fdf85828601611e3c565b9250506020611ff085828601611e3c565b9150509250929050565b600081519050919050565b600082825260208201905092915050565b60005b83811015612034578082015181840152602081019050612019565b60008484015250505050565b6000601f19601f8301169050919050565b600061205c82611ffa565b6120668185612005565b9350612076818560208601612016565b61207f81612040565b840191505092915050565b600060208201905081810360008301526120a48184612051565b905092915050565b6120b581611ef4565b81146120c057600080fd5b50565b6000813590506120d2816120ac565b92915050565b600080fd5b600080fd5b7f4e487b7100000000000000000000000000000000000000000000000000000000600052604160045260246000fd5b61211a82612040565b810181811067ffffffffffffffff82111715612139576121386120e2565b5b80604052505050565b600061214c611e07565b90506121588282612111565b919050565b600067ffffffffffffffff821115612178576121776120e2565b5b61218182612040565b9050602081019050919050565b82818337600083830152505050565b60006121b06121ab8461215d565b612142565b9050828152602081018484840111156121cc576121cb6120dd565b5b6121d784828561218e565b509392505050565b600082601f8301126121f4576121f36120d8565b5b813561220484826020860161219d565b91505092915050565b6000806040838503121561222457612223611e11565b5b6000612232858286016120c3565b925050602083013567ffffffffffffffff81111561225357612252611e16565b5b61225f858286016121df565b9150509250929050565b60008115159050919050565b61227e81612269565b82525050565b60006020820190506122996000830184612275565b92915050565b6000602082840312156122b5576122b4611e11565b5b60006122c3848285016120c3565b91505092915050565b600080604083850312156122e3576122e2611e11565b5b60006122f1858286016120c3565b925050602061230285828601611e3c565b9150509250929050565b61231581612269565b811461232057600080fd5b50565b6000813590506123328161230c565b92915050565b6000806040838503121561234f5761234e611e11565b5b600061235d858286016120c3565b925050602061236e85828601612323565b9150509250929050565b600067ffffffffffffffff821115612393576123926120e2565b5b602082029050602081019050919050565b600080fd5b60006123bc6123b784612378565b612142565b905080838252602082019050602084028301858111156123df576123de6123a4565b5b835b8181101561240857806123f48882611e3c565b8452602084019350506020810190506123e1565b5050509392505050565b600082601f830112612427576124266120d8565b5b81356124378482602086016123a9565b91505092915050565b600080600080600080600080610100898b03121561246157612460611e11565b5b600061246f8b828c016120c3565b98505060206124808b828c01611e3c565b97505060406124918b828c01612323565b965050606089013567ffffffffffffffff8111156124b2576124b1611e16565b5b6124be8b828c016121df565b95505060806124cf8b828c01611e3c565b94505060a06124e08b828c01611e3c565b93505060c089013567ffffffffffffffff81111561250157612500611e16565b5b61250d8b828c01612412565b92505060e089013567ffffffffffffffff81111561252e5761252d611e16565b5b61253a8b828c01612412565b9150509295985092959890939650565b60008060006060848603121561256357612562611e11565b5b6000612571868287016120c3565b935050602061258286828701611e3c565b925050604061259386828701611e3c565b9150509250925092565b6125a681611ef4565b82525050565b60006020820190506125c1600083018461259d565b92915050565b60006040820190506125dc6000830185611e7e565b6125e96020830184611e7e565b9392505050565b7f4e487b7100000000000000000000000000000000000000000000000000000000600052602260045260246000fd5b6000600282049050600182168061263757607f821691505b60208210810361264a576126496125f0565b5b50919050565b7f596f7520646f6e742068617665207065726d697373696f6e20666f722074686960008201527f7320616374696f6e000000000000000000000000000000000000000000000000602082015250565b60006126ac602883612005565b91506126b782612650565b604082019050919050565b600060208201905081810360008301526126db8161269f565b9050919050565b7f4e487b7100000000000000000000000000000000000000000000000000000000600052603260045260246000fd5b7f4e487b7100000000000000000000000000000000000000000000000000000000600052601160045260246000fd5b600061274b82611e1b565b91507fffffffffffffffffffffffffffffffffffffffffffffffffffffffffffffffff820361277d5761277c612711565b5b600182019050919050565b600061279382611e1b565b915061279e83611e1b565b92508282039050818111156127b6576127b5612711565b5b92915050565b60006127c782611e1b565b91506127d283611e1b565b92508282019050808211156127ea576127e9612711565b5b92915050565b7f4e487b7100000000000000000000000000000000000000000000000000000000600052603160045260246000fd5b60008190508160005260206000209050919050565b60006020601f8301049050919050565b600082821b905092915050565b6000600883026128817fffffffffffffffffffffffffffffffffffffffffffffffffffffffffffffffff82612844565b61288b8683612844565b95508019841693508086168417925050509392505050565b6000819050919050565b60006128c86128c36128be84611e1b565b6128a3565b611e1b565b9050919050565b6000819050919050565b6128e2836128ad565b6128f66128ee826128cf565b848454612851565b825550505050565b600090565b61290b6128fe565b6129168184846128d9565b505050565b5b8181101561293a5761292f600082612903565b60018101905061291c565b5050565b601f82111561297f576129508161281f565b61295984612834565b81016020851015612968578190505b61297c61297485612834565b83018261291b565b50505b505050565b600082821c905092915050565b60006129a260001984600802612984565b1980831691505092915050565b60006129bb8383612991565b9150826002028217905092915050565b6129d482611ffa565b67ffffffffffffffff8111156129ed576129ec6120e2565b5b6129f7825461261f565b612a0282828561293e565b600060209050601f831160018114612a355760008415612a23578287015190505b612a2d85826129af565b865550612a95565b601f198416612a438661281f565b60005b82811015612a6b57848901518255600182019150602085019450602081019050612a46565b86831015612a885784890151612a84601f891682612991565b8355505b6001600288020188555050505b50505050505056fea264697066735822122024e141f5b5c6e5a0584957cde4d1559660198a977d17ef638bc8a113cdc3d80764736f6c63430008110033",
  "linkReferences": {},
  "deployedLinkReferences": {}
}